{
	"contracts/users/users_info.sol": {
		"users_info": {
			"abi": [
				{
					"inputs": [
						{
							"internalType": "string",
							"name": "id",
							"type": "string"
						}
					],
					"name": "Apply",
					"outputs": [],
					"stateMutability": "nonpayable",
					"type": "function"
				},
				{
					"inputs": [
						{
							"internalType": "string",
							"name": "",
							"type": "string"
						}
					],
					"name": "BountyIdToIndex",
					"outputs": [
						{
							"internalType": "uint256",
							"name": "",
							"type": "uint256"
						}
					],
					"stateMutability": "view",
					"type": "function"
				},
				{
					"inputs": [
						{
							"internalType": "string",
							"name": "id",
							"type": "string"
						},
						{
							"internalType": "address",
							"name": "applicant",
							"type": "address"
						}
					],
					"name": "assign",
					"outputs": [],
					"stateMutability": "nonpayable",
					"type": "function"
				},
				{
					"inputs": [
						{
							"internalType": "uint256",
							"name": "",
							"type": "uint256"
						}
					],
					"name": "bounties",
					"outputs": [
						{
							"internalType": "string",
							"name": "id",
							"type": "string"
						},
						{
							"internalType": "uint256",
							"name": "amount",
							"type": "uint256"
						},
						{
							"internalType": "address",
							"name": "creator",
							"type": "address"
						},
						{
							"internalType": "address",
							"name": "availer",
							"type": "address"
						},
						{
							"internalType": "uint256",
							"name": "SubmissionTime",
							"type": "uint256"
						}
					],
					"stateMutability": "view",
					"type": "function"
				},
				{
					"inputs": [
						{
							"internalType": "string",
							"name": "id",
							"type": "string"
						},
						{
							"internalType": "uint256",
							"name": "amount",
							"type": "uint256"
						}
					],
					"name": "create",
					"outputs": [],
					"stateMutability": "nonpayable",
					"type": "function"
				}
			],
			"devdoc": {
				"kind": "dev",
				"methods": {},
				"version": 1
			},
			"evm": {
				"assembly": "    /* \"contracts/users/users_info.sol\":69:1452  contract users_info {... */\n  mstore(0x40, 0x80)\n  callvalue\n  dup1\n  iszero\n  tag_1\n  jumpi\n  0x00\n  dup1\n  revert\ntag_1:\n  pop\n  dataSize(sub_0)\n  dup1\n  dataOffset(sub_0)\n  0x00\n  codecopy\n  0x00\n  return\nstop\n\nsub_0: assembly {\n        /* \"contracts/users/users_info.sol\":69:1452  contract users_info {... */\n      mstore(0x40, 0x80)\n      callvalue\n      dup1\n      iszero\n      tag_1\n      jumpi\n      0x00\n      dup1\n      revert\n    tag_1:\n      pop\n      jumpi(tag_2, lt(calldatasize, 0x04))\n      shr(0xe0, calldataload(0x00))\n      dup1\n      0x3edb9e02\n      eq\n      tag_3\n      jumpi\n      dup1\n      0x46f81a87\n      eq\n      tag_4\n      jumpi\n      dup1\n      0x75234b47\n      eq\n      tag_5\n      jumpi\n      dup1\n      0xdc2f8744\n      eq\n      tag_6\n      jumpi\n      dup1\n      0xf1bb7f51\n      eq\n      tag_7\n      jumpi\n    tag_2:\n      0x00\n      dup1\n      revert\n        /* \"contracts/users/users_info.sol\":382:431  mapping(string => uint256) public BountyIdToIndex */\n    tag_3:\n      tag_8\n      0x04\n      dup1\n      calldatasize\n      sub\n      dup2\n      add\n      swap1\n      tag_9\n      swap2\n      swap1\n      tag_10\n      jump\t// in\n    tag_9:\n      tag_11\n      jump\t// in\n    tag_8:\n      mload(0x40)\n      tag_12\n      swap2\n      swap1\n      tag_13\n      jump\t// in\n    tag_12:\n      mload(0x40)\n      dup1\n      swap2\n      sub\n      swap1\n      return\n        /* \"contracts/users/users_info.sol\":439:862  function create(... */\n    tag_4:\n      tag_14\n      0x04\n      dup1\n      calldatasize\n      sub\n      dup2\n      add\n      swap1\n      tag_15\n      swap2\n      swap1\n      tag_16\n      jump\t// in\n    tag_15:\n      tag_17\n      jump\t// in\n    tag_14:\n      stop\n        /* \"contracts/users/users_info.sol\":869:1147  function Apply(... */\n    tag_5:\n      tag_18\n      0x04\n      dup1\n      calldatasize\n      sub\n      dup2\n      add\n      swap1\n      tag_19\n      swap2\n      swap1\n      tag_10\n      jump\t// in\n    tag_19:\n      tag_20\n      jump\t// in\n    tag_18:\n      stop\n        /* \"contracts/users/users_info.sol\":349:375  Bounties[] public bounties */\n    tag_6:\n      tag_21\n      0x04\n      dup1\n      calldatasize\n      sub\n      dup2\n      add\n      swap1\n      tag_22\n      swap2\n      swap1\n      tag_23\n      jump\t// in\n    tag_22:\n      tag_24\n      jump\t// in\n    tag_21:\n      mload(0x40)\n      tag_25\n      swap6\n      swap5\n      swap4\n      swap3\n      swap2\n      swap1\n      tag_26\n      jump\t// in\n    tag_25:\n      mload(0x40)\n      dup1\n      swap2\n      sub\n      swap1\n      return\n        /* \"contracts/users/users_info.sol\":1153:1449  function assign(... */\n    tag_7:\n      tag_27\n      0x04\n      dup1\n      calldatasize\n      sub\n      dup2\n      add\n      swap1\n      tag_28\n      swap2\n      swap1\n      tag_29\n      jump\t// in\n    tag_28:\n      tag_30\n      jump\t// in\n    tag_27:\n      stop\n        /* \"contracts/users/users_info.sol\":382:431  mapping(string => uint256) public BountyIdToIndex */\n    tag_11:\n      0x01\n      dup2\n      dup1\n      mload\n      0x20\n      dup2\n      add\n      dup3\n      add\n      dup1\n      mload\n      dup5\n      dup3\n      mstore\n      0x20\n      dup4\n      add\n      0x20\n      dup6\n      add\n      keccak256\n      dup2\n      dup4\n      mstore\n      dup1\n      swap6\n      pop\n      pop\n      pop\n      pop\n      pop\n      pop\n      0x00\n      swap2\n      pop\n      swap1\n      pop\n      sload\n      dup2\n      jump\t// out\n        /* \"contracts/users/users_info.sol\":439:862  function create(... */\n    tag_17:\n        /* \"contracts/users/users_info.sol\":533:541  bounties */\n      0x00\n        /* \"contracts/users/users_info.sol\":533:548  bounties.push() */\n      0x01\n      dup2\n      0x01\n      dup2\n      sload\n      add\n      dup1\n      dup3\n      sstore\n      dup1\n      swap2\n      pop\n      pop\n      sub\n      swap1\n      0x00\n      mstore\n      keccak256(0x00, 0x20)\n      swap1\n      pop\n      pop\n        /* \"contracts/users/users_info.sol\":558:584  Bounties storage newBounty */\n      0x00\n        /* \"contracts/users/users_info.sol\":587:595  bounties */\n      dup1\n        /* \"contracts/users/users_info.sol\":614:615  1 */\n      0x01\n        /* \"contracts/users/users_info.sol\":596:604  bounties */\n      0x00\n        /* \"contracts/users/users_info.sol\":596:611  bounties.length */\n      dup1\n      sload\n      swap1\n      pop\n        /* \"contracts/users/users_info.sol\":596:615  bounties.length - 1 */\n      tag_33\n      swap2\n      swap1\n      tag_34\n      jump\t// in\n    tag_33:\n        /* \"contracts/users/users_info.sol\":587:616  bounties[bounties.length - 1] */\n      dup2\n      sload\n      dup2\n      lt\n      tag_35\n      jumpi\n      tag_36\n      tag_37\n      jump\t// in\n    tag_36:\n    tag_35:\n      swap1\n      0x00\n      mstore\n      keccak256(0x00, 0x20)\n      swap1\n      0x06\n      mul\n      add\n        /* \"contracts/users/users_info.sol\":558:616  Bounties storage newBounty = bounties[bounties.length - 1] */\n      swap1\n      pop\n        /* \"contracts/users/users_info.sol\":642:644  id */\n      dup3\n        /* \"contracts/users/users_info.sol\":627:636  newBounty */\n      dup2\n        /* \"contracts/users/users_info.sol\":627:639  newBounty.id */\n      0x00\n      add\n        /* \"contracts/users/users_info.sol\":627:644  newBounty.id = id */\n      swap1\n      dup2\n      tag_39\n      swap2\n      swap1\n      tag_40\n      jump\t// in\n    tag_39:\n      pop\n        /* \"contracts/users/users_info.sol\":673:679  amount */\n      dup2\n        /* \"contracts/users/users_info.sol\":654:663  newBounty */\n      dup2\n        /* \"contracts/users/users_info.sol\":654:670  newBounty.amount */\n      0x01\n      add\n        /* \"contracts/users/users_info.sol\":654:679  newBounty.amount = amount */\n      dup2\n      swap1\n      sstore\n      pop\n        /* \"contracts/users/users_info.sol\":709:719  msg.sender */\n      caller\n        /* \"contracts/users/users_info.sol\":689:698  newBounty */\n      dup2\n        /* \"contracts/users/users_info.sol\":689:706  newBounty.creator */\n      0x02\n      add\n      0x00\n        /* \"contracts/users/users_info.sol\":689:719  newBounty.creator = msg.sender */\n      0x0100\n      exp\n      dup2\n      sload\n      dup2\n      0xffffffffffffffffffffffffffffffffffffffff\n      mul\n      not\n      and\n      swap1\n      dup4\n      0xffffffffffffffffffffffffffffffffffffffff\n      and\n      mul\n      or\n      swap1\n      sstore\n      pop\n        /* \"contracts/users/users_info.sol\":757:758  0 */\n      0x00\n        /* \"contracts/users/users_info.sol\":729:738  newBounty */\n      dup2\n        /* \"contracts/users/users_info.sol\":729:746  newBounty.availer */\n      0x03\n      add\n      0x00\n        /* \"contracts/users/users_info.sol\":729:759  newBounty.availer = address(0) */\n      0x0100\n      exp\n      dup2\n      sload\n      dup2\n      0xffffffffffffffffffffffffffffffffffffffff\n      mul\n      not\n      and\n      swap1\n      dup4\n      0xffffffffffffffffffffffffffffffffffffffff\n      and\n      mul\n      or\n      swap1\n      sstore\n      pop\n        /* \"contracts/users/users_info.sol\":796:797  0 */\n      0x00\n        /* \"contracts/users/users_info.sol\":769:778  newBounty */\n      dup2\n        /* \"contracts/users/users_info.sol\":769:793  newBounty.SubmissionTime */\n      0x05\n      add\n        /* \"contracts/users/users_info.sol\":769:797  newBounty.SubmissionTime = 0 */\n      dup2\n      swap1\n      sstore\n      pop\n        /* \"contracts/users/users_info.sol\":830:838  bounties */\n      0x00\n        /* \"contracts/users/users_info.sol\":830:845  bounties.length */\n      dup1\n      sload\n      swap1\n      pop\n        /* \"contracts/users/users_info.sol\":808:823  BountyIdToIndex */\n      0x01\n        /* \"contracts/users/users_info.sol\":824:826  id */\n      dup5\n        /* \"contracts/users/users_info.sol\":808:827  BountyIdToIndex[id] */\n      mload(0x40)\n      tag_41\n      swap2\n      swap1\n      tag_42\n      jump\t// in\n    tag_41:\n      swap1\n      dup2\n      mstore\n      0x20\n      add\n      mload(0x40)\n      dup1\n      swap2\n      sub\n      swap1\n      keccak256\n        /* \"contracts/users/users_info.sol\":808:845  BountyIdToIndex[id] = bounties.length */\n      dup2\n      swap1\n      sstore\n      pop\n        /* \"contracts/users/users_info.sol\":522:862  {... */\n      pop\n        /* \"contracts/users/users_info.sol\":439:862  function create(... */\n      pop\n      pop\n      jump\t// out\n        /* \"contracts/users/users_info.sol\":869:1147  function Apply(... */\n    tag_20:\n        /* \"contracts/users/users_info.sol\":965:966  0 */\n      0x00\n        /* \"contracts/users/users_info.sol\":942:957  BountyIdToIndex */\n      0x01\n        /* \"contracts/users/users_info.sol\":958:960  id */\n      dup3\n        /* \"contracts/users/users_info.sol\":942:961  BountyIdToIndex[id] */\n      mload(0x40)\n      tag_44\n      swap2\n      swap1\n      tag_42\n      jump\t// in\n    tag_44:\n      swap1\n      dup2\n      mstore\n      0x20\n      add\n      mload(0x40)\n      dup1\n      swap2\n      sub\n      swap1\n      keccak256\n      sload\n        /* \"contracts/users/users_info.sol\":942:966  BountyIdToIndex[id] != 0 */\n      sub\n        /* \"contracts/users/users_info.sol\":934:992  require(BountyIdToIndex[id] != 0, \"Bounty does not exist\") */\n      tag_45\n      jumpi\n      mload(0x40)\n      0x08c379a000000000000000000000000000000000000000000000000000000000\n      dup2\n      mstore\n      0x04\n      add\n      tag_46\n      swap1\n      tag_47\n      jump\t// in\n    tag_46:\n      mload(0x40)\n      dup1\n      swap2\n      sub\n      swap1\n      revert\n    tag_45:\n        /* \"contracts/users/users_info.sol\":1003:1016  uint256 index */\n      0x00\n        /* \"contracts/users/users_info.sol\":1041:1042  1 */\n      0x01\n        /* \"contracts/users/users_info.sol\":1019:1034  BountyIdToIndex */\n      dup1\n        /* \"contracts/users/users_info.sol\":1035:1037  id */\n      dup4\n        /* \"contracts/users/users_info.sol\":1019:1038  BountyIdToIndex[id] */\n      mload(0x40)\n      tag_48\n      swap2\n      swap1\n      tag_42\n      jump\t// in\n    tag_48:\n      swap1\n      dup2\n      mstore\n      0x20\n      add\n      mload(0x40)\n      dup1\n      swap2\n      sub\n      swap1\n      keccak256\n      sload\n        /* \"contracts/users/users_info.sol\":1019:1042  BountyIdToIndex[id] - 1 */\n      tag_49\n      swap2\n      swap1\n      tag_34\n      jump\t// in\n    tag_49:\n        /* \"contracts/users/users_info.sol\":1003:1042  uint256 index = BountyIdToIndex[id] - 1 */\n      swap1\n      pop\n        /* \"contracts/users/users_info.sol\":1053:1076  Bounties storage bounty */\n      0x00\n        /* \"contracts/users/users_info.sol\":1079:1087  bounties */\n      dup1\n        /* \"contracts/users/users_info.sol\":1088:1093  index */\n      dup3\n        /* \"contracts/users/users_info.sol\":1079:1094  bounties[index] */\n      dup2\n      sload\n      dup2\n      lt\n      tag_50\n      jumpi\n      tag_51\n      tag_37\n      jump\t// in\n    tag_51:\n    tag_50:\n      swap1\n      0x00\n      mstore\n      keccak256(0x00, 0x20)\n      swap1\n      0x06\n      mul\n      add\n        /* \"contracts/users/users_info.sol\":1053:1094  Bounties storage bounty = bounties[index] */\n      swap1\n      pop\n        /* \"contracts/users/users_info.sol\":1105:1111  bounty */\n      dup1\n        /* \"contracts/users/users_info.sol\":1105:1122  bounty.applicants */\n      0x04\n      add\n        /* \"contracts/users/users_info.sol\":1128:1138  msg.sender */\n      caller\n        /* \"contracts/users/users_info.sol\":1105:1139  bounty.applicants.push(msg.sender) */\n      swap1\n      dup1\n      0x01\n      dup2\n      sload\n      add\n      dup1\n      dup3\n      sstore\n      dup1\n      swap2\n      pop\n      pop\n      0x01\n      swap1\n      sub\n      swap1\n      0x00\n      mstore\n      keccak256(0x00, 0x20)\n      add\n      0x00\n      swap1\n      swap2\n      swap1\n      swap2\n      swap1\n      swap2\n      0x0100\n      exp\n      dup2\n      sload\n      dup2\n      0xffffffffffffffffffffffffffffffffffffffff\n      mul\n      not\n      and\n      swap1\n      dup4\n      0xffffffffffffffffffffffffffffffffffffffff\n      and\n      mul\n      or\n      swap1\n      sstore\n      pop\n        /* \"contracts/users/users_info.sol\":923:1147  {... */\n      pop\n      pop\n        /* \"contracts/users/users_info.sol\":869:1147  function Apply(... */\n      pop\n      jump\t// out\n        /* \"contracts/users/users_info.sol\":349:375  Bounties[] public bounties */\n    tag_24:\n      0x00\n      dup2\n      dup2\n      sload\n      dup2\n      lt\n      tag_54\n      jumpi\n      0x00\n      dup1\n      revert\n    tag_54:\n      swap1\n      0x00\n      mstore\n      keccak256(0x00, 0x20)\n      swap1\n      0x06\n      mul\n      add\n      0x00\n      swap2\n      pop\n      swap1\n      pop\n      dup1\n      0x00\n      add\n      dup1\n      sload\n      tag_56\n      swap1\n      tag_57\n      jump\t// in\n    tag_56:\n      dup1\n      0x1f\n      add\n      0x20\n      dup1\n      swap2\n      div\n      mul\n      0x20\n      add\n      mload(0x40)\n      swap1\n      dup2\n      add\n      0x40\n      mstore\n      dup1\n      swap3\n      swap2\n      swap1\n      dup2\n      dup2\n      mstore\n      0x20\n      add\n      dup3\n      dup1\n      sload\n      tag_58\n      swap1\n      tag_57\n      jump\t// in\n    tag_58:\n      dup1\n      iszero\n      tag_59\n      jumpi\n      dup1\n      0x1f\n      lt\n      tag_60\n      jumpi\n      0x0100\n      dup1\n      dup4\n      sload\n      div\n      mul\n      dup4\n      mstore\n      swap2\n      0x20\n      add\n      swap2\n      jump(tag_59)\n    tag_60:\n      dup3\n      add\n      swap2\n      swap1\n      0x00\n      mstore\n      keccak256(0x00, 0x20)\n      swap1\n    tag_61:\n      dup2\n      sload\n      dup2\n      mstore\n      swap1\n      0x01\n      add\n      swap1\n      0x20\n      add\n      dup1\n      dup4\n      gt\n      tag_61\n      jumpi\n      dup3\n      swap1\n      sub\n      0x1f\n      and\n      dup3\n      add\n      swap2\n    tag_59:\n      pop\n      pop\n      pop\n      pop\n      pop\n      swap1\n      dup1\n      0x01\n      add\n      sload\n      swap1\n      dup1\n      0x02\n      add\n      0x00\n      swap1\n      sload\n      swap1\n      0x0100\n      exp\n      swap1\n      div\n      0xffffffffffffffffffffffffffffffffffffffff\n      and\n      swap1\n      dup1\n      0x03\n      add\n      0x00\n      swap1\n      sload\n      swap1\n      0x0100\n      exp\n      swap1\n      div\n      0xffffffffffffffffffffffffffffffffffffffff\n      and\n      swap1\n      dup1\n      0x05\n      add\n      sload\n      swap1\n      pop\n      dup6\n      jump\t// out\n        /* \"contracts/users/users_info.sol\":1153:1449  function assign(... */\n    tag_30:\n        /* \"contracts/users/users_info.sol\":1276:1277  0 */\n      0x00\n        /* \"contracts/users/users_info.sol\":1253:1268  BountyIdToIndex */\n      0x01\n        /* \"contracts/users/users_info.sol\":1269:1271  id */\n      dup4\n        /* \"contracts/users/users_info.sol\":1253:1272  BountyIdToIndex[id] */\n      mload(0x40)\n      tag_63\n      swap2\n      swap1\n      tag_42\n      jump\t// in\n    tag_63:\n      swap1\n      dup2\n      mstore\n      0x20\n      add\n      mload(0x40)\n      dup1\n      swap2\n      sub\n      swap1\n      keccak256\n      sload\n        /* \"contracts/users/users_info.sol\":1253:1277  BountyIdToIndex[id] != 0 */\n      sub\n        /* \"contracts/users/users_info.sol\":1245:1303  require(BountyIdToIndex[id] != 0, \"Bounty does not exist\") */\n      tag_64\n      jumpi\n      mload(0x40)\n      0x08c379a000000000000000000000000000000000000000000000000000000000\n      dup2\n      mstore\n      0x04\n      add\n      tag_65\n      swap1\n      tag_47\n      jump\t// in\n    tag_65:\n      mload(0x40)\n      dup1\n      swap2\n      sub\n      swap1\n      revert\n    tag_64:\n        /* \"contracts/users/users_info.sol\":1314:1327  uint256 index */\n      0x00\n        /* \"contracts/users/users_info.sol\":1352:1353  1 */\n      0x01\n        /* \"contracts/users/users_info.sol\":1330:1345  BountyIdToIndex */\n      dup1\n        /* \"contracts/users/users_info.sol\":1346:1348  id */\n      dup5\n        /* \"contracts/users/users_info.sol\":1330:1349  BountyIdToIndex[id] */\n      mload(0x40)\n      tag_66\n      swap2\n      swap1\n      tag_42\n      jump\t// in\n    tag_66:\n      swap1\n      dup2\n      mstore\n      0x20\n      add\n      mload(0x40)\n      dup1\n      swap2\n      sub\n      swap1\n      keccak256\n      sload\n        /* \"contracts/users/users_info.sol\":1330:1353  BountyIdToIndex[id] - 1 */\n      tag_67\n      swap2\n      swap1\n      tag_34\n      jump\t// in\n    tag_67:\n        /* \"contracts/users/users_info.sol\":1314:1353  uint256 index = BountyIdToIndex[id] - 1 */\n      swap1\n      pop\n        /* \"contracts/users/users_info.sol\":1363:1386  Bounties storage bounty */\n      0x00\n        /* \"contracts/users/users_info.sol\":1389:1397  bounties */\n      dup1\n        /* \"contracts/users/users_info.sol\":1398:1403  index */\n      dup3\n        /* \"contracts/users/users_info.sol\":1389:1404  bounties[index] */\n      dup2\n      sload\n      dup2\n      lt\n      tag_68\n      jumpi\n      tag_69\n      tag_37\n      jump\t// in\n    tag_69:\n    tag_68:\n      swap1\n      0x00\n      mstore\n      keccak256(0x00, 0x20)\n      swap1\n      0x06\n      mul\n      add\n        /* \"contracts/users/users_info.sol\":1363:1404  Bounties storage bounty = bounties[index] */\n      swap1\n      pop\n        /* \"contracts/users/users_info.sol\":1432:1441  applicant */\n      dup3\n        /* \"contracts/users/users_info.sol\":1415:1421  bounty */\n      dup2\n        /* \"contracts/users/users_info.sol\":1415:1429  bounty.availer */\n      0x03\n      add\n      0x00\n        /* \"contracts/users/users_info.sol\":1415:1441  bounty.availer = applicant */\n      0x0100\n      exp\n      dup2\n      sload\n      dup2\n      0xffffffffffffffffffffffffffffffffffffffff\n      mul\n      not\n      and\n      swap1\n      dup4\n      0xffffffffffffffffffffffffffffffffffffffff\n      and\n      mul\n      or\n      swap1\n      sstore\n      pop\n        /* \"contracts/users/users_info.sol\":1235:1449  {... */\n      pop\n      pop\n        /* \"contracts/users/users_info.sol\":1153:1449  function assign(... */\n      pop\n      pop\n      jump\t// out\n        /* \"#utility.yul\":7:82   */\n    tag_71:\n        /* \"#utility.yul\":40:46   */\n      0x00\n        /* \"#utility.yul\":73:75   */\n      0x40\n        /* \"#utility.yul\":67:76   */\n      mload\n        /* \"#utility.yul\":57:76   */\n      swap1\n      pop\n        /* \"#utility.yul\":7:82   */\n      swap1\n      jump\t// out\n        /* \"#utility.yul\":88:205   */\n    tag_72:\n        /* \"#utility.yul\":197:198   */\n      0x00\n        /* \"#utility.yul\":194:195   */\n      dup1\n        /* \"#utility.yul\":187:199   */\n      revert\n        /* \"#utility.yul\":211:328   */\n    tag_73:\n        /* \"#utility.yul\":320:321   */\n      0x00\n        /* \"#utility.yul\":317:318   */\n      dup1\n        /* \"#utility.yul\":310:322   */\n      revert\n        /* \"#utility.yul\":334:451   */\n    tag_74:\n        /* \"#utility.yul\":443:444   */\n      0x00\n        /* \"#utility.yul\":440:441   */\n      dup1\n        /* \"#utility.yul\":433:445   */\n      revert\n        /* \"#utility.yul\":457:574   */\n    tag_75:\n        /* \"#utility.yul\":566:567   */\n      0x00\n        /* \"#utility.yul\":563:564   */\n      dup1\n        /* \"#utility.yul\":556:568   */\n      revert\n        /* \"#utility.yul\":580:682   */\n    tag_76:\n        /* \"#utility.yul\":621:627   */\n      0x00\n        /* \"#utility.yul\":672:674   */\n      0x1f\n        /* \"#utility.yul\":668:675   */\n      not\n        /* \"#utility.yul\":663:665   */\n      0x1f\n        /* \"#utility.yul\":656:661   */\n      dup4\n        /* \"#utility.yul\":652:666   */\n      add\n        /* \"#utility.yul\":648:676   */\n      and\n        /* \"#utility.yul\":638:676   */\n      swap1\n      pop\n        /* \"#utility.yul\":580:682   */\n      swap2\n      swap1\n      pop\n      jump\t// out\n        /* \"#utility.yul\":688:868   */\n    tag_77:\n        /* \"#utility.yul\":736:813   */\n      0x4e487b7100000000000000000000000000000000000000000000000000000000\n        /* \"#utility.yul\":733:734   */\n      0x00\n        /* \"#utility.yul\":726:814   */\n      mstore\n        /* \"#utility.yul\":833:837   */\n      0x41\n        /* \"#utility.yul\":830:831   */\n      0x04\n        /* \"#utility.yul\":823:838   */\n      mstore\n        /* \"#utility.yul\":857:861   */\n      0x24\n        /* \"#utility.yul\":854:855   */\n      0x00\n        /* \"#utility.yul\":847:862   */\n      revert\n        /* \"#utility.yul\":874:1155   */\n    tag_78:\n        /* \"#utility.yul\":957:984   */\n      tag_127\n        /* \"#utility.yul\":979:983   */\n      dup3\n        /* \"#utility.yul\":957:984   */\n      tag_76\n      jump\t// in\n    tag_127:\n        /* \"#utility.yul\":949:955   */\n      dup2\n        /* \"#utility.yul\":945:985   */\n      add\n        /* \"#utility.yul\":1087:1093   */\n      dup2\n        /* \"#utility.yul\":1075:1085   */\n      dup2\n        /* \"#utility.yul\":1072:1094   */\n      lt\n        /* \"#utility.yul\":1051:1069   */\n      0xffffffffffffffff\n        /* \"#utility.yul\":1039:1049   */\n      dup3\n        /* \"#utility.yul\":1036:1070   */\n      gt\n        /* \"#utility.yul\":1033:1095   */\n      or\n        /* \"#utility.yul\":1030:1118   */\n      iszero\n      tag_128\n      jumpi\n        /* \"#utility.yul\":1098:1116   */\n      tag_129\n      tag_77\n      jump\t// in\n    tag_129:\n        /* \"#utility.yul\":1030:1118   */\n    tag_128:\n        /* \"#utility.yul\":1138:1148   */\n      dup1\n        /* \"#utility.yul\":1134:1136   */\n      0x40\n        /* \"#utility.yul\":1127:1149   */\n      mstore\n        /* \"#utility.yul\":917:1155   */\n      pop\n        /* \"#utility.yul\":874:1155   */\n      pop\n      pop\n      jump\t// out\n        /* \"#utility.yul\":1161:1290   */\n    tag_79:\n        /* \"#utility.yul\":1195:1201   */\n      0x00\n        /* \"#utility.yul\":1222:1242   */\n      tag_131\n      tag_71\n      jump\t// in\n    tag_131:\n        /* \"#utility.yul\":1212:1242   */\n      swap1\n      pop\n        /* \"#utility.yul\":1251:1284   */\n      tag_132\n        /* \"#utility.yul\":1279:1283   */\n      dup3\n        /* \"#utility.yul\":1271:1277   */\n      dup3\n        /* \"#utility.yul\":1251:1284   */\n      tag_78\n      jump\t// in\n    tag_132:\n        /* \"#utility.yul\":1161:1290   */\n      swap2\n      swap1\n      pop\n      jump\t// out\n        /* \"#utility.yul\":1296:1604   */\n    tag_80:\n        /* \"#utility.yul\":1358:1362   */\n      0x00\n        /* \"#utility.yul\":1448:1466   */\n      0xffffffffffffffff\n        /* \"#utility.yul\":1440:1446   */\n      dup3\n        /* \"#utility.yul\":1437:1467   */\n      gt\n        /* \"#utility.yul\":1434:1490   */\n      iszero\n      tag_134\n      jumpi\n        /* \"#utility.yul\":1470:1488   */\n      tag_135\n      tag_77\n      jump\t// in\n    tag_135:\n        /* \"#utility.yul\":1434:1490   */\n    tag_134:\n        /* \"#utility.yul\":1508:1537   */\n      tag_136\n        /* \"#utility.yul\":1530:1536   */\n      dup3\n        /* \"#utility.yul\":1508:1537   */\n      tag_76\n      jump\t// in\n    tag_136:\n        /* \"#utility.yul\":1500:1537   */\n      swap1\n      pop\n        /* \"#utility.yul\":1592:1596   */\n      0x20\n        /* \"#utility.yul\":1586:1590   */\n      dup2\n        /* \"#utility.yul\":1582:1597   */\n      add\n        /* \"#utility.yul\":1574:1597   */\n      swap1\n      pop\n        /* \"#utility.yul\":1296:1604   */\n      swap2\n      swap1\n      pop\n      jump\t// out\n        /* \"#utility.yul\":1610:1758   */\n    tag_81:\n        /* \"#utility.yul\":1708:1714   */\n      dup3\n        /* \"#utility.yul\":1703:1706   */\n      dup2\n        /* \"#utility.yul\":1698:1701   */\n      dup4\n        /* \"#utility.yul\":1685:1715   */\n      calldatacopy\n        /* \"#utility.yul\":1749:1750   */\n      0x00\n        /* \"#utility.yul\":1740:1746   */\n      dup4\n        /* \"#utility.yul\":1735:1738   */\n      dup4\n        /* \"#utility.yul\":1731:1747   */\n      add\n        /* \"#utility.yul\":1724:1751   */\n      mstore\n        /* \"#utility.yul\":1610:1758   */\n      pop\n      pop\n      pop\n      jump\t// out\n        /* \"#utility.yul\":1764:2189   */\n    tag_82:\n        /* \"#utility.yul\":1842:1847   */\n      0x00\n        /* \"#utility.yul\":1867:1933   */\n      tag_139\n        /* \"#utility.yul\":1883:1932   */\n      tag_140\n        /* \"#utility.yul\":1925:1931   */\n      dup5\n        /* \"#utility.yul\":1883:1932   */\n      tag_80\n      jump\t// in\n    tag_140:\n        /* \"#utility.yul\":1867:1933   */\n      tag_79\n      jump\t// in\n    tag_139:\n        /* \"#utility.yul\":1858:1933   */\n      swap1\n      pop\n        /* \"#utility.yul\":1956:1962   */\n      dup3\n        /* \"#utility.yul\":1949:1954   */\n      dup2\n        /* \"#utility.yul\":1942:1963   */\n      mstore\n        /* \"#utility.yul\":1994:1998   */\n      0x20\n        /* \"#utility.yul\":1987:1992   */\n      dup2\n        /* \"#utility.yul\":1983:1999   */\n      add\n        /* \"#utility.yul\":2032:2035   */\n      dup5\n        /* \"#utility.yul\":2023:2029   */\n      dup5\n        /* \"#utility.yul\":2018:2021   */\n      dup5\n        /* \"#utility.yul\":2014:2030   */\n      add\n        /* \"#utility.yul\":2011:2036   */\n      gt\n        /* \"#utility.yul\":2008:2120   */\n      iszero\n      tag_141\n      jumpi\n        /* \"#utility.yul\":2039:2118   */\n      tag_142\n      tag_75\n      jump\t// in\n    tag_142:\n        /* \"#utility.yul\":2008:2120   */\n    tag_141:\n        /* \"#utility.yul\":2129:2183   */\n      tag_143\n        /* \"#utility.yul\":2176:2182   */\n      dup5\n        /* \"#utility.yul\":2171:2174   */\n      dup3\n        /* \"#utility.yul\":2166:2169   */\n      dup6\n        /* \"#utility.yul\":2129:2183   */\n      tag_81\n      jump\t// in\n    tag_143:\n        /* \"#utility.yul\":1848:2189   */\n      pop\n        /* \"#utility.yul\":1764:2189   */\n      swap4\n      swap3\n      pop\n      pop\n      pop\n      jump\t// out\n        /* \"#utility.yul\":2209:2549   */\n    tag_83:\n        /* \"#utility.yul\":2265:2270   */\n      0x00\n        /* \"#utility.yul\":2314:2317   */\n      dup3\n        /* \"#utility.yul\":2307:2311   */\n      0x1f\n        /* \"#utility.yul\":2299:2305   */\n      dup4\n        /* \"#utility.yul\":2295:2312   */\n      add\n        /* \"#utility.yul\":2291:2318   */\n      slt\n        /* \"#utility.yul\":2281:2403   */\n      tag_145\n      jumpi\n        /* \"#utility.yul\":2322:2401   */\n      tag_146\n      tag_74\n      jump\t// in\n    tag_146:\n        /* \"#utility.yul\":2281:2403   */\n    tag_145:\n        /* \"#utility.yul\":2439:2445   */\n      dup2\n        /* \"#utility.yul\":2426:2446   */\n      calldataload\n        /* \"#utility.yul\":2464:2543   */\n      tag_147\n        /* \"#utility.yul\":2539:2542   */\n      dup5\n        /* \"#utility.yul\":2531:2537   */\n      dup3\n        /* \"#utility.yul\":2524:2528   */\n      0x20\n        /* \"#utility.yul\":2516:2522   */\n      dup7\n        /* \"#utility.yul\":2512:2529   */\n      add\n        /* \"#utility.yul\":2464:2543   */\n      tag_82\n      jump\t// in\n    tag_147:\n        /* \"#utility.yul\":2455:2543   */\n      swap2\n      pop\n        /* \"#utility.yul\":2271:2549   */\n      pop\n        /* \"#utility.yul\":2209:2549   */\n      swap3\n      swap2\n      pop\n      pop\n      jump\t// out\n        /* \"#utility.yul\":2555:3064   */\n    tag_10:\n        /* \"#utility.yul\":2624:2630   */\n      0x00\n        /* \"#utility.yul\":2673:2675   */\n      0x20\n        /* \"#utility.yul\":2661:2670   */\n      dup3\n        /* \"#utility.yul\":2652:2659   */\n      dup5\n        /* \"#utility.yul\":2648:2671   */\n      sub\n        /* \"#utility.yul\":2644:2676   */\n      slt\n        /* \"#utility.yul\":2641:2760   */\n      iszero\n      tag_149\n      jumpi\n        /* \"#utility.yul\":2679:2758   */\n      tag_150\n      tag_72\n      jump\t// in\n    tag_150:\n        /* \"#utility.yul\":2641:2760   */\n    tag_149:\n        /* \"#utility.yul\":2827:2828   */\n      0x00\n        /* \"#utility.yul\":2816:2825   */\n      dup3\n        /* \"#utility.yul\":2812:2829   */\n      add\n        /* \"#utility.yul\":2799:2830   */\n      calldataload\n        /* \"#utility.yul\":2857:2875   */\n      0xffffffffffffffff\n        /* \"#utility.yul\":2849:2855   */\n      dup2\n        /* \"#utility.yul\":2846:2876   */\n      gt\n        /* \"#utility.yul\":2843:2960   */\n      iszero\n      tag_151\n      jumpi\n        /* \"#utility.yul\":2879:2958   */\n      tag_152\n      tag_73\n      jump\t// in\n    tag_152:\n        /* \"#utility.yul\":2843:2960   */\n    tag_151:\n        /* \"#utility.yul\":2984:3047   */\n      tag_153\n        /* \"#utility.yul\":3039:3046   */\n      dup5\n        /* \"#utility.yul\":3030:3036   */\n      dup3\n        /* \"#utility.yul\":3019:3028   */\n      dup6\n        /* \"#utility.yul\":3015:3037   */\n      add\n        /* \"#utility.yul\":2984:3047   */\n      tag_83\n      jump\t// in\n    tag_153:\n        /* \"#utility.yul\":2974:3047   */\n      swap2\n      pop\n        /* \"#utility.yul\":2770:3057   */\n      pop\n        /* \"#utility.yul\":2555:3064   */\n      swap3\n      swap2\n      pop\n      pop\n      jump\t// out\n        /* \"#utility.yul\":3070:3147   */\n    tag_84:\n        /* \"#utility.yul\":3107:3114   */\n      0x00\n        /* \"#utility.yul\":3136:3141   */\n      dup2\n        /* \"#utility.yul\":3125:3141   */\n      swap1\n      pop\n        /* \"#utility.yul\":3070:3147   */\n      swap2\n      swap1\n      pop\n      jump\t// out\n        /* \"#utility.yul\":3153:3271   */\n    tag_85:\n        /* \"#utility.yul\":3240:3264   */\n      tag_156\n        /* \"#utility.yul\":3258:3263   */\n      dup2\n        /* \"#utility.yul\":3240:3264   */\n      tag_84\n      jump\t// in\n    tag_156:\n        /* \"#utility.yul\":3235:3238   */\n      dup3\n        /* \"#utility.yul\":3228:3265   */\n      mstore\n        /* \"#utility.yul\":3153:3271   */\n      pop\n      pop\n      jump\t// out\n        /* \"#utility.yul\":3277:3499   */\n    tag_13:\n        /* \"#utility.yul\":3370:3374   */\n      0x00\n        /* \"#utility.yul\":3408:3410   */\n      0x20\n        /* \"#utility.yul\":3397:3406   */\n      dup3\n        /* \"#utility.yul\":3393:3411   */\n      add\n        /* \"#utility.yul\":3385:3411   */\n      swap1\n      pop\n        /* \"#utility.yul\":3421:3492   */\n      tag_158\n        /* \"#utility.yul\":3489:3490   */\n      0x00\n        /* \"#utility.yul\":3478:3487   */\n      dup4\n        /* \"#utility.yul\":3474:3491   */\n      add\n        /* \"#utility.yul\":3465:3471   */\n      dup5\n        /* \"#utility.yul\":3421:3492   */\n      tag_85\n      jump\t// in\n    tag_158:\n        /* \"#utility.yul\":3277:3499   */\n      swap3\n      swap2\n      pop\n      pop\n      jump\t// out\n        /* \"#utility.yul\":3505:3627   */\n    tag_86:\n        /* \"#utility.yul\":3578:3602   */\n      tag_160\n        /* \"#utility.yul\":3596:3601   */\n      dup2\n        /* \"#utility.yul\":3578:3602   */\n      tag_84\n      jump\t// in\n    tag_160:\n        /* \"#utility.yul\":3571:3576   */\n      dup2\n        /* \"#utility.yul\":3568:3603   */\n      eq\n        /* \"#utility.yul\":3558:3621   */\n      tag_161\n      jumpi\n        /* \"#utility.yul\":3617:3618   */\n      0x00\n        /* \"#utility.yul\":3614:3615   */\n      dup1\n        /* \"#utility.yul\":3607:3619   */\n      revert\n        /* \"#utility.yul\":3558:3621   */\n    tag_161:\n        /* \"#utility.yul\":3505:3627   */\n      pop\n      jump\t// out\n        /* \"#utility.yul\":3633:3772   */\n    tag_87:\n        /* \"#utility.yul\":3679:3684   */\n      0x00\n        /* \"#utility.yul\":3717:3723   */\n      dup2\n        /* \"#utility.yul\":3704:3724   */\n      calldataload\n        /* \"#utility.yul\":3695:3724   */\n      swap1\n      pop\n        /* \"#utility.yul\":3733:3766   */\n      tag_163\n        /* \"#utility.yul\":3760:3765   */\n      dup2\n        /* \"#utility.yul\":3733:3766   */\n      tag_86\n      jump\t// in\n    tag_163:\n        /* \"#utility.yul\":3633:3772   */\n      swap3\n      swap2\n      pop\n      pop\n      jump\t// out\n        /* \"#utility.yul\":3778:4432   */\n    tag_16:\n        /* \"#utility.yul\":3856:3862   */\n      0x00\n        /* \"#utility.yul\":3864:3870   */\n      dup1\n        /* \"#utility.yul\":3913:3915   */\n      0x40\n        /* \"#utility.yul\":3901:3910   */\n      dup4\n        /* \"#utility.yul\":3892:3899   */\n      dup6\n        /* \"#utility.yul\":3888:3911   */\n      sub\n        /* \"#utility.yul\":3884:3916   */\n      slt\n        /* \"#utility.yul\":3881:4000   */\n      iszero\n      tag_165\n      jumpi\n        /* \"#utility.yul\":3919:3998   */\n      tag_166\n      tag_72\n      jump\t// in\n    tag_166:\n        /* \"#utility.yul\":3881:4000   */\n    tag_165:\n        /* \"#utility.yul\":4067:4068   */\n      0x00\n        /* \"#utility.yul\":4056:4065   */\n      dup4\n        /* \"#utility.yul\":4052:4069   */\n      add\n        /* \"#utility.yul\":4039:4070   */\n      calldataload\n        /* \"#utility.yul\":4097:4115   */\n      0xffffffffffffffff\n        /* \"#utility.yul\":4089:4095   */\n      dup2\n        /* \"#utility.yul\":4086:4116   */\n      gt\n        /* \"#utility.yul\":4083:4200   */\n      iszero\n      tag_167\n      jumpi\n        /* \"#utility.yul\":4119:4198   */\n      tag_168\n      tag_73\n      jump\t// in\n    tag_168:\n        /* \"#utility.yul\":4083:4200   */\n    tag_167:\n        /* \"#utility.yul\":4224:4287   */\n      tag_169\n        /* \"#utility.yul\":4279:4286   */\n      dup6\n        /* \"#utility.yul\":4270:4276   */\n      dup3\n        /* \"#utility.yul\":4259:4268   */\n      dup7\n        /* \"#utility.yul\":4255:4277   */\n      add\n        /* \"#utility.yul\":4224:4287   */\n      tag_83\n      jump\t// in\n    tag_169:\n        /* \"#utility.yul\":4214:4287   */\n      swap3\n      pop\n        /* \"#utility.yul\":4010:4297   */\n      pop\n        /* \"#utility.yul\":4336:4338   */\n      0x20\n        /* \"#utility.yul\":4362:4415   */\n      tag_170\n        /* \"#utility.yul\":4407:4414   */\n      dup6\n        /* \"#utility.yul\":4398:4404   */\n      dup3\n        /* \"#utility.yul\":4387:4396   */\n      dup7\n        /* \"#utility.yul\":4383:4405   */\n      add\n        /* \"#utility.yul\":4362:4415   */\n      tag_87\n      jump\t// in\n    tag_170:\n        /* \"#utility.yul\":4352:4415   */\n      swap2\n      pop\n        /* \"#utility.yul\":4307:4425   */\n      pop\n        /* \"#utility.yul\":3778:4432   */\n      swap3\n      pop\n      swap3\n      swap1\n      pop\n      jump\t// out\n        /* \"#utility.yul\":4438:4767   */\n    tag_23:\n        /* \"#utility.yul\":4497:4503   */\n      0x00\n        /* \"#utility.yul\":4546:4548   */\n      0x20\n        /* \"#utility.yul\":4534:4543   */\n      dup3\n        /* \"#utility.yul\":4525:4532   */\n      dup5\n        /* \"#utility.yul\":4521:4544   */\n      sub\n        /* \"#utility.yul\":4517:4549   */\n      slt\n        /* \"#utility.yul\":4514:4633   */\n      iszero\n      tag_172\n      jumpi\n        /* \"#utility.yul\":4552:4631   */\n      tag_173\n      tag_72\n      jump\t// in\n    tag_173:\n        /* \"#utility.yul\":4514:4633   */\n    tag_172:\n        /* \"#utility.yul\":4672:4673   */\n      0x00\n        /* \"#utility.yul\":4697:4750   */\n      tag_174\n        /* \"#utility.yul\":4742:4749   */\n      dup5\n        /* \"#utility.yul\":4733:4739   */\n      dup3\n        /* \"#utility.yul\":4722:4731   */\n      dup6\n        /* \"#utility.yul\":4718:4740   */\n      add\n        /* \"#utility.yul\":4697:4750   */\n      tag_87\n      jump\t// in\n    tag_174:\n        /* \"#utility.yul\":4687:4750   */\n      swap2\n      pop\n        /* \"#utility.yul\":4643:4760   */\n      pop\n        /* \"#utility.yul\":4438:4767   */\n      swap3\n      swap2\n      pop\n      pop\n      jump\t// out\n        /* \"#utility.yul\":4773:4872   */\n    tag_88:\n        /* \"#utility.yul\":4825:4831   */\n      0x00\n        /* \"#utility.yul\":4859:4864   */\n      dup2\n        /* \"#utility.yul\":4853:4865   */\n      mload\n        /* \"#utility.yul\":4843:4865   */\n      swap1\n      pop\n        /* \"#utility.yul\":4773:4872   */\n      swap2\n      swap1\n      pop\n      jump\t// out\n        /* \"#utility.yul\":4878:5047   */\n    tag_89:\n        /* \"#utility.yul\":4962:4973   */\n      0x00\n        /* \"#utility.yul\":4996:5002   */\n      dup3\n        /* \"#utility.yul\":4991:4994   */\n      dup3\n        /* \"#utility.yul\":4984:5003   */\n      mstore\n        /* \"#utility.yul\":5036:5040   */\n      0x20\n        /* \"#utility.yul\":5031:5034   */\n      dup3\n        /* \"#utility.yul\":5027:5041   */\n      add\n        /* \"#utility.yul\":5012:5041   */\n      swap1\n      pop\n        /* \"#utility.yul\":4878:5047   */\n      swap3\n      swap2\n      pop\n      pop\n      jump\t// out\n        /* \"#utility.yul\":5053:5192   */\n    tag_90:\n        /* \"#utility.yul\":5142:5148   */\n      dup3\n        /* \"#utility.yul\":5137:5140   */\n      dup2\n        /* \"#utility.yul\":5132:5135   */\n      dup4\n        /* \"#utility.yul\":5126:5149   */\n      mcopy\n        /* \"#utility.yul\":5183:5184   */\n      0x00\n        /* \"#utility.yul\":5174:5180   */\n      dup4\n        /* \"#utility.yul\":5169:5172   */\n      dup4\n        /* \"#utility.yul\":5165:5181   */\n      add\n        /* \"#utility.yul\":5158:5185   */\n      mstore\n        /* \"#utility.yul\":5053:5192   */\n      pop\n      pop\n      pop\n      jump\t// out\n        /* \"#utility.yul\":5198:5575   */\n    tag_91:\n        /* \"#utility.yul\":5286:5289   */\n      0x00\n        /* \"#utility.yul\":5314:5353   */\n      tag_179\n        /* \"#utility.yul\":5347:5352   */\n      dup3\n        /* \"#utility.yul\":5314:5353   */\n      tag_88\n      jump\t// in\n    tag_179:\n        /* \"#utility.yul\":5369:5440   */\n      tag_180\n        /* \"#utility.yul\":5433:5439   */\n      dup2\n        /* \"#utility.yul\":5428:5431   */\n      dup6\n        /* \"#utility.yul\":5369:5440   */\n      tag_89\n      jump\t// in\n    tag_180:\n        /* \"#utility.yul\":5362:5440   */\n      swap4\n      pop\n        /* \"#utility.yul\":5449:5514   */\n      tag_181\n        /* \"#utility.yul\":5507:5513   */\n      dup2\n        /* \"#utility.yul\":5502:5505   */\n      dup6\n        /* \"#utility.yul\":5495:5499   */\n      0x20\n        /* \"#utility.yul\":5488:5493   */\n      dup7\n        /* \"#utility.yul\":5484:5500   */\n      add\n        /* \"#utility.yul\":5449:5514   */\n      tag_90\n      jump\t// in\n    tag_181:\n        /* \"#utility.yul\":5539:5568   */\n      tag_182\n        /* \"#utility.yul\":5561:5567   */\n      dup2\n        /* \"#utility.yul\":5539:5568   */\n      tag_76\n      jump\t// in\n    tag_182:\n        /* \"#utility.yul\":5534:5537   */\n      dup5\n        /* \"#utility.yul\":5530:5569   */\n      add\n        /* \"#utility.yul\":5523:5569   */\n      swap2\n      pop\n        /* \"#utility.yul\":5290:5575   */\n      pop\n        /* \"#utility.yul\":5198:5575   */\n      swap3\n      swap2\n      pop\n      pop\n      jump\t// out\n        /* \"#utility.yul\":5581:5707   */\n    tag_92:\n        /* \"#utility.yul\":5618:5625   */\n      0x00\n        /* \"#utility.yul\":5658:5700   */\n      0xffffffffffffffffffffffffffffffffffffffff\n        /* \"#utility.yul\":5651:5656   */\n      dup3\n        /* \"#utility.yul\":5647:5701   */\n      and\n        /* \"#utility.yul\":5636:5701   */\n      swap1\n      pop\n        /* \"#utility.yul\":5581:5707   */\n      swap2\n      swap1\n      pop\n      jump\t// out\n        /* \"#utility.yul\":5713:5809   */\n    tag_93:\n        /* \"#utility.yul\":5750:5757   */\n      0x00\n        /* \"#utility.yul\":5779:5803   */\n      tag_185\n        /* \"#utility.yul\":5797:5802   */\n      dup3\n        /* \"#utility.yul\":5779:5803   */\n      tag_92\n      jump\t// in\n    tag_185:\n        /* \"#utility.yul\":5768:5803   */\n      swap1\n      pop\n        /* \"#utility.yul\":5713:5809   */\n      swap2\n      swap1\n      pop\n      jump\t// out\n        /* \"#utility.yul\":5815:5933   */\n    tag_94:\n        /* \"#utility.yul\":5902:5926   */\n      tag_187\n        /* \"#utility.yul\":5920:5925   */\n      dup2\n        /* \"#utility.yul\":5902:5926   */\n      tag_93\n      jump\t// in\n    tag_187:\n        /* \"#utility.yul\":5897:5900   */\n      dup3\n        /* \"#utility.yul\":5890:5927   */\n      mstore\n        /* \"#utility.yul\":5815:5933   */\n      pop\n      pop\n      jump\t// out\n        /* \"#utility.yul\":5939:6694   */\n    tag_26:\n        /* \"#utility.yul\":6164:6168   */\n      0x00\n        /* \"#utility.yul\":6202:6205   */\n      0xa0\n        /* \"#utility.yul\":6191:6200   */\n      dup3\n        /* \"#utility.yul\":6187:6206   */\n      add\n        /* \"#utility.yul\":6179:6206   */\n      swap1\n      pop\n        /* \"#utility.yul\":6252:6261   */\n      dup2\n        /* \"#utility.yul\":6246:6250   */\n      dup2\n        /* \"#utility.yul\":6242:6262   */\n      sub\n        /* \"#utility.yul\":6238:6239   */\n      0x00\n        /* \"#utility.yul\":6227:6236   */\n      dup4\n        /* \"#utility.yul\":6223:6240   */\n      add\n        /* \"#utility.yul\":6216:6263   */\n      mstore\n        /* \"#utility.yul\":6280:6358   */\n      tag_189\n        /* \"#utility.yul\":6353:6357   */\n      dup2\n        /* \"#utility.yul\":6344:6350   */\n      dup9\n        /* \"#utility.yul\":6280:6358   */\n      tag_91\n      jump\t// in\n    tag_189:\n        /* \"#utility.yul\":6272:6358   */\n      swap1\n      pop\n        /* \"#utility.yul\":6368:6440   */\n      tag_190\n        /* \"#utility.yul\":6436:6438   */\n      0x20\n        /* \"#utility.yul\":6425:6434   */\n      dup4\n        /* \"#utility.yul\":6421:6439   */\n      add\n        /* \"#utility.yul\":6412:6418   */\n      dup8\n        /* \"#utility.yul\":6368:6440   */\n      tag_85\n      jump\t// in\n    tag_190:\n        /* \"#utility.yul\":6450:6522   */\n      tag_191\n        /* \"#utility.yul\":6518:6520   */\n      0x40\n        /* \"#utility.yul\":6507:6516   */\n      dup4\n        /* \"#utility.yul\":6503:6521   */\n      add\n        /* \"#utility.yul\":6494:6500   */\n      dup7\n        /* \"#utility.yul\":6450:6522   */\n      tag_94\n      jump\t// in\n    tag_191:\n        /* \"#utility.yul\":6532:6604   */\n      tag_192\n        /* \"#utility.yul\":6600:6602   */\n      0x60\n        /* \"#utility.yul\":6589:6598   */\n      dup4\n        /* \"#utility.yul\":6585:6603   */\n      add\n        /* \"#utility.yul\":6576:6582   */\n      dup6\n        /* \"#utility.yul\":6532:6604   */\n      tag_94\n      jump\t// in\n    tag_192:\n        /* \"#utility.yul\":6614:6687   */\n      tag_193\n        /* \"#utility.yul\":6682:6685   */\n      0x80\n        /* \"#utility.yul\":6671:6680   */\n      dup4\n        /* \"#utility.yul\":6667:6686   */\n      add\n        /* \"#utility.yul\":6658:6664   */\n      dup5\n        /* \"#utility.yul\":6614:6687   */\n      tag_85\n      jump\t// in\n    tag_193:\n        /* \"#utility.yul\":5939:6694   */\n      swap7\n      swap6\n      pop\n      pop\n      pop\n      pop\n      pop\n      pop\n      jump\t// out\n        /* \"#utility.yul\":6700:6822   */\n    tag_95:\n        /* \"#utility.yul\":6773:6797   */\n      tag_195\n        /* \"#utility.yul\":6791:6796   */\n      dup2\n        /* \"#utility.yul\":6773:6797   */\n      tag_93\n      jump\t// in\n    tag_195:\n        /* \"#utility.yul\":6766:6771   */\n      dup2\n        /* \"#utility.yul\":6763:6798   */\n      eq\n        /* \"#utility.yul\":6753:6816   */\n      tag_196\n      jumpi\n        /* \"#utility.yul\":6812:6813   */\n      0x00\n        /* \"#utility.yul\":6809:6810   */\n      dup1\n        /* \"#utility.yul\":6802:6814   */\n      revert\n        /* \"#utility.yul\":6753:6816   */\n    tag_196:\n        /* \"#utility.yul\":6700:6822   */\n      pop\n      jump\t// out\n        /* \"#utility.yul\":6828:6967   */\n    tag_96:\n        /* \"#utility.yul\":6874:6879   */\n      0x00\n        /* \"#utility.yul\":6912:6918   */\n      dup2\n        /* \"#utility.yul\":6899:6919   */\n      calldataload\n        /* \"#utility.yul\":6890:6919   */\n      swap1\n      pop\n        /* \"#utility.yul\":6928:6961   */\n      tag_198\n        /* \"#utility.yul\":6955:6960   */\n      dup2\n        /* \"#utility.yul\":6928:6961   */\n      tag_95\n      jump\t// in\n    tag_198:\n        /* \"#utility.yul\":6828:6967   */\n      swap3\n      swap2\n      pop\n      pop\n      jump\t// out\n        /* \"#utility.yul\":6973:7627   */\n    tag_29:\n        /* \"#utility.yul\":7051:7057   */\n      0x00\n        /* \"#utility.yul\":7059:7065   */\n      dup1\n        /* \"#utility.yul\":7108:7110   */\n      0x40\n        /* \"#utility.yul\":7096:7105   */\n      dup4\n        /* \"#utility.yul\":7087:7094   */\n      dup6\n        /* \"#utility.yul\":7083:7106   */\n      sub\n        /* \"#utility.yul\":7079:7111   */\n      slt\n        /* \"#utility.yul\":7076:7195   */\n      iszero\n      tag_200\n      jumpi\n        /* \"#utility.yul\":7114:7193   */\n      tag_201\n      tag_72\n      jump\t// in\n    tag_201:\n        /* \"#utility.yul\":7076:7195   */\n    tag_200:\n        /* \"#utility.yul\":7262:7263   */\n      0x00\n        /* \"#utility.yul\":7251:7260   */\n      dup4\n        /* \"#utility.yul\":7247:7264   */\n      add\n        /* \"#utility.yul\":7234:7265   */\n      calldataload\n        /* \"#utility.yul\":7292:7310   */\n      0xffffffffffffffff\n        /* \"#utility.yul\":7284:7290   */\n      dup2\n        /* \"#utility.yul\":7281:7311   */\n      gt\n        /* \"#utility.yul\":7278:7395   */\n      iszero\n      tag_202\n      jumpi\n        /* \"#utility.yul\":7314:7393   */\n      tag_203\n      tag_73\n      jump\t// in\n    tag_203:\n        /* \"#utility.yul\":7278:7395   */\n    tag_202:\n        /* \"#utility.yul\":7419:7482   */\n      tag_204\n        /* \"#utility.yul\":7474:7481   */\n      dup6\n        /* \"#utility.yul\":7465:7471   */\n      dup3\n        /* \"#utility.yul\":7454:7463   */\n      dup7\n        /* \"#utility.yul\":7450:7472   */\n      add\n        /* \"#utility.yul\":7419:7482   */\n      tag_83\n      jump\t// in\n    tag_204:\n        /* \"#utility.yul\":7409:7482   */\n      swap3\n      pop\n        /* \"#utility.yul\":7205:7492   */\n      pop\n        /* \"#utility.yul\":7531:7533   */\n      0x20\n        /* \"#utility.yul\":7557:7610   */\n      tag_205\n        /* \"#utility.yul\":7602:7609   */\n      dup6\n        /* \"#utility.yul\":7593:7599   */\n      dup3\n        /* \"#utility.yul\":7582:7591   */\n      dup7\n        /* \"#utility.yul\":7578:7600   */\n      add\n        /* \"#utility.yul\":7557:7610   */\n      tag_96\n      jump\t// in\n    tag_205:\n        /* \"#utility.yul\":7547:7610   */\n      swap2\n      pop\n        /* \"#utility.yul\":7502:7620   */\n      pop\n        /* \"#utility.yul\":6973:7627   */\n      swap3\n      pop\n      swap3\n      swap1\n      pop\n      jump\t// out\n        /* \"#utility.yul\":7633:7813   */\n    tag_97:\n        /* \"#utility.yul\":7681:7758   */\n      0x4e487b7100000000000000000000000000000000000000000000000000000000\n        /* \"#utility.yul\":7678:7679   */\n      0x00\n        /* \"#utility.yul\":7671:7759   */\n      mstore\n        /* \"#utility.yul\":7778:7782   */\n      0x11\n        /* \"#utility.yul\":7775:7776   */\n      0x04\n        /* \"#utility.yul\":7768:7783   */\n      mstore\n        /* \"#utility.yul\":7802:7806   */\n      0x24\n        /* \"#utility.yul\":7799:7800   */\n      0x00\n        /* \"#utility.yul\":7792:7807   */\n      revert\n        /* \"#utility.yul\":7819:8013   */\n    tag_34:\n        /* \"#utility.yul\":7859:7863   */\n      0x00\n        /* \"#utility.yul\":7879:7899   */\n      tag_208\n        /* \"#utility.yul\":7897:7898   */\n      dup3\n        /* \"#utility.yul\":7879:7899   */\n      tag_84\n      jump\t// in\n    tag_208:\n        /* \"#utility.yul\":7874:7899   */\n      swap2\n      pop\n        /* \"#utility.yul\":7913:7933   */\n      tag_209\n        /* \"#utility.yul\":7931:7932   */\n      dup4\n        /* \"#utility.yul\":7913:7933   */\n      tag_84\n      jump\t// in\n    tag_209:\n        /* \"#utility.yul\":7908:7933   */\n      swap3\n      pop\n        /* \"#utility.yul\":7957:7958   */\n      dup3\n        /* \"#utility.yul\":7954:7955   */\n      dup3\n        /* \"#utility.yul\":7950:7959   */\n      sub\n        /* \"#utility.yul\":7942:7959   */\n      swap1\n      pop\n        /* \"#utility.yul\":7981:7982   */\n      dup2\n        /* \"#utility.yul\":7975:7979   */\n      dup2\n        /* \"#utility.yul\":7972:7983   */\n      gt\n        /* \"#utility.yul\":7969:8006   */\n      iszero\n      tag_210\n      jumpi\n        /* \"#utility.yul\":7986:8004   */\n      tag_211\n      tag_97\n      jump\t// in\n    tag_211:\n        /* \"#utility.yul\":7969:8006   */\n    tag_210:\n        /* \"#utility.yul\":7819:8013   */\n      swap3\n      swap2\n      pop\n      pop\n      jump\t// out\n        /* \"#utility.yul\":8019:8199   */\n    tag_37:\n        /* \"#utility.yul\":8067:8144   */\n      0x4e487b7100000000000000000000000000000000000000000000000000000000\n        /* \"#utility.yul\":8064:8065   */\n      0x00\n        /* \"#utility.yul\":8057:8145   */\n      mstore\n        /* \"#utility.yul\":8164:8168   */\n      0x32\n        /* \"#utility.yul\":8161:8162   */\n      0x04\n        /* \"#utility.yul\":8154:8169   */\n      mstore\n        /* \"#utility.yul\":8188:8192   */\n      0x24\n        /* \"#utility.yul\":8185:8186   */\n      0x00\n        /* \"#utility.yul\":8178:8193   */\n      revert\n        /* \"#utility.yul\":8205:8385   */\n    tag_98:\n        /* \"#utility.yul\":8253:8330   */\n      0x4e487b7100000000000000000000000000000000000000000000000000000000\n        /* \"#utility.yul\":8250:8251   */\n      0x00\n        /* \"#utility.yul\":8243:8331   */\n      mstore\n        /* \"#utility.yul\":8350:8354   */\n      0x22\n        /* \"#utility.yul\":8347:8348   */\n      0x04\n        /* \"#utility.yul\":8340:8355   */\n      mstore\n        /* \"#utility.yul\":8374:8378   */\n      0x24\n        /* \"#utility.yul\":8371:8372   */\n      0x00\n        /* \"#utility.yul\":8364:8379   */\n      revert\n        /* \"#utility.yul\":8391:8711   */\n    tag_57:\n        /* \"#utility.yul\":8435:8441   */\n      0x00\n        /* \"#utility.yul\":8472:8473   */\n      0x02\n        /* \"#utility.yul\":8466:8470   */\n      dup3\n        /* \"#utility.yul\":8462:8474   */\n      div\n        /* \"#utility.yul\":8452:8474   */\n      swap1\n      pop\n        /* \"#utility.yul\":8519:8520   */\n      0x01\n        /* \"#utility.yul\":8513:8517   */\n      dup3\n        /* \"#utility.yul\":8509:8521   */\n      and\n        /* \"#utility.yul\":8540:8558   */\n      dup1\n        /* \"#utility.yul\":8530:8611   */\n      tag_215\n      jumpi\n        /* \"#utility.yul\":8596:8600   */\n      0x7f\n        /* \"#utility.yul\":8588:8594   */\n      dup3\n        /* \"#utility.yul\":8584:8601   */\n      and\n        /* \"#utility.yul\":8574:8601   */\n      swap2\n      pop\n        /* \"#utility.yul\":8530:8611   */\n    tag_215:\n        /* \"#utility.yul\":8658:8660   */\n      0x20\n        /* \"#utility.yul\":8650:8656   */\n      dup3\n        /* \"#utility.yul\":8647:8661   */\n      lt\n        /* \"#utility.yul\":8627:8645   */\n      dup2\n        /* \"#utility.yul\":8624:8662   */\n      sub\n        /* \"#utility.yul\":8621:8705   */\n      tag_216\n      jumpi\n        /* \"#utility.yul\":8677:8695   */\n      tag_217\n      tag_98\n      jump\t// in\n    tag_217:\n        /* \"#utility.yul\":8621:8705   */\n    tag_216:\n        /* \"#utility.yul\":8442:8711   */\n      pop\n        /* \"#utility.yul\":8391:8711   */\n      swap2\n      swap1\n      pop\n      jump\t// out\n        /* \"#utility.yul\":8717:8858   */\n    tag_99:\n        /* \"#utility.yul\":8766:8770   */\n      0x00\n        /* \"#utility.yul\":8789:8792   */\n      dup2\n        /* \"#utility.yul\":8781:8792   */\n      swap1\n      pop\n        /* \"#utility.yul\":8812:8815   */\n      dup2\n        /* \"#utility.yul\":8809:8810   */\n      0x00\n        /* \"#utility.yul\":8802:8816   */\n      mstore\n        /* \"#utility.yul\":8846:8850   */\n      0x20\n        /* \"#utility.yul\":8843:8844   */\n      0x00\n        /* \"#utility.yul\":8833:8851   */\n      keccak256\n        /* \"#utility.yul\":8825:8851   */\n      swap1\n      pop\n        /* \"#utility.yul\":8717:8858   */\n      swap2\n      swap1\n      pop\n      jump\t// out\n        /* \"#utility.yul\":8864:8957   */\n    tag_100:\n        /* \"#utility.yul\":8901:8907   */\n      0x00\n        /* \"#utility.yul\":8948:8950   */\n      0x20\n        /* \"#utility.yul\":8943:8945   */\n      0x1f\n        /* \"#utility.yul\":8936:8941   */\n      dup4\n        /* \"#utility.yul\":8932:8946   */\n      add\n        /* \"#utility.yul\":8928:8951   */\n      div\n        /* \"#utility.yul\":8918:8951   */\n      swap1\n      pop\n        /* \"#utility.yul\":8864:8957   */\n      swap2\n      swap1\n      pop\n      jump\t// out\n        /* \"#utility.yul\":8963:9070   */\n    tag_101:\n        /* \"#utility.yul\":9007:9015   */\n      0x00\n        /* \"#utility.yul\":9057:9062   */\n      dup3\n        /* \"#utility.yul\":9051:9055   */\n      dup3\n        /* \"#utility.yul\":9047:9063   */\n      shl\n        /* \"#utility.yul\":9026:9063   */\n      swap1\n      pop\n        /* \"#utility.yul\":8963:9070   */\n      swap3\n      swap2\n      pop\n      pop\n      jump\t// out\n        /* \"#utility.yul\":9076:9469   */\n    tag_102:\n        /* \"#utility.yul\":9145:9151   */\n      0x00\n        /* \"#utility.yul\":9195:9196   */\n      0x08\n        /* \"#utility.yul\":9183:9193   */\n      dup4\n        /* \"#utility.yul\":9179:9197   */\n      mul\n        /* \"#utility.yul\":9218:9315   */\n      tag_222\n        /* \"#utility.yul\":9248:9314   */\n      0xffffffffffffffffffffffffffffffffffffffffffffffffffffffffffffffff\n        /* \"#utility.yul\":9237:9246   */\n      dup3\n        /* \"#utility.yul\":9218:9315   */\n      tag_101\n      jump\t// in\n    tag_222:\n        /* \"#utility.yul\":9336:9375   */\n      tag_223\n        /* \"#utility.yul\":9366:9374   */\n      dup7\n        /* \"#utility.yul\":9355:9364   */\n      dup4\n        /* \"#utility.yul\":9336:9375   */\n      tag_101\n      jump\t// in\n    tag_223:\n        /* \"#utility.yul\":9324:9375   */\n      swap6\n      pop\n        /* \"#utility.yul\":9408:9412   */\n      dup1\n        /* \"#utility.yul\":9404:9413   */\n      not\n        /* \"#utility.yul\":9397:9402   */\n      dup5\n        /* \"#utility.yul\":9393:9414   */\n      and\n        /* \"#utility.yul\":9384:9414   */\n      swap4\n      pop\n        /* \"#utility.yul\":9457:9461   */\n      dup1\n        /* \"#utility.yul\":9447:9455   */\n      dup7\n        /* \"#utility.yul\":9443:9462   */\n      and\n        /* \"#utility.yul\":9436:9441   */\n      dup5\n        /* \"#utility.yul\":9433:9463   */\n      or\n        /* \"#utility.yul\":9423:9463   */\n      swap3\n      pop\n        /* \"#utility.yul\":9152:9469   */\n      pop\n      pop\n        /* \"#utility.yul\":9076:9469   */\n      swap4\n      swap3\n      pop\n      pop\n      pop\n      jump\t// out\n        /* \"#utility.yul\":9475:9535   */\n    tag_103:\n        /* \"#utility.yul\":9503:9506   */\n      0x00\n        /* \"#utility.yul\":9524:9529   */\n      dup2\n        /* \"#utility.yul\":9517:9529   */\n      swap1\n      pop\n        /* \"#utility.yul\":9475:9535   */\n      swap2\n      swap1\n      pop\n      jump\t// out\n        /* \"#utility.yul\":9541:9683   */\n    tag_104:\n        /* \"#utility.yul\":9591:9600   */\n      0x00\n        /* \"#utility.yul\":9624:9677   */\n      tag_226\n        /* \"#utility.yul\":9642:9676   */\n      tag_227\n        /* \"#utility.yul\":9651:9675   */\n      tag_228\n        /* \"#utility.yul\":9669:9674   */\n      dup5\n        /* \"#utility.yul\":9651:9675   */\n      tag_84\n      jump\t// in\n    tag_228:\n        /* \"#utility.yul\":9642:9676   */\n      tag_103\n      jump\t// in\n    tag_227:\n        /* \"#utility.yul\":9624:9677   */\n      tag_84\n      jump\t// in\n    tag_226:\n        /* \"#utility.yul\":9611:9677   */\n      swap1\n      pop\n        /* \"#utility.yul\":9541:9683   */\n      swap2\n      swap1\n      pop\n      jump\t// out\n        /* \"#utility.yul\":9689:9764   */\n    tag_105:\n        /* \"#utility.yul\":9732:9735   */\n      0x00\n        /* \"#utility.yul\":9753:9758   */\n      dup2\n        /* \"#utility.yul\":9746:9758   */\n      swap1\n      pop\n        /* \"#utility.yul\":9689:9764   */\n      swap2\n      swap1\n      pop\n      jump\t// out\n        /* \"#utility.yul\":9770:10039   */\n    tag_106:\n        /* \"#utility.yul\":9880:9919   */\n      tag_231\n        /* \"#utility.yul\":9911:9918   */\n      dup4\n        /* \"#utility.yul\":9880:9919   */\n      tag_104\n      jump\t// in\n    tag_231:\n        /* \"#utility.yul\":9941:10032   */\n      tag_232\n        /* \"#utility.yul\":9990:10031   */\n      tag_233\n        /* \"#utility.yul\":10014:10030   */\n      dup3\n        /* \"#utility.yul\":9990:10031   */\n      tag_105\n      jump\t// in\n    tag_233:\n        /* \"#utility.yul\":9982:9988   */\n      dup5\n        /* \"#utility.yul\":9975:9979   */\n      dup5\n        /* \"#utility.yul\":9969:9980   */\n      sload\n        /* \"#utility.yul\":9941:10032   */\n      tag_102\n      jump\t// in\n    tag_232:\n        /* \"#utility.yul\":9935:9939   */\n      dup3\n        /* \"#utility.yul\":9928:10033   */\n      sstore\n        /* \"#utility.yul\":9846:10039   */\n      pop\n        /* \"#utility.yul\":9770:10039   */\n      pop\n      pop\n      pop\n      jump\t// out\n        /* \"#utility.yul\":10045:10118   */\n    tag_107:\n        /* \"#utility.yul\":10090:10093   */\n      0x00\n        /* \"#utility.yul\":10045:10118   */\n      swap1\n      jump\t// out\n        /* \"#utility.yul\":10124:10313   */\n    tag_108:\n        /* \"#utility.yul\":10201:10233   */\n      tag_236\n      tag_107\n      jump\t// in\n    tag_236:\n        /* \"#utility.yul\":10242:10307   */\n      tag_237\n        /* \"#utility.yul\":10300:10306   */\n      dup2\n        /* \"#utility.yul\":10292:10298   */\n      dup5\n        /* \"#utility.yul\":10286:10290   */\n      dup5\n        /* \"#utility.yul\":10242:10307   */\n      tag_106\n      jump\t// in\n    tag_237:\n        /* \"#utility.yul\":10177:10313   */\n      pop\n        /* \"#utility.yul\":10124:10313   */\n      pop\n      pop\n      jump\t// out\n        /* \"#utility.yul\":10319:10505   */\n    tag_109:\n        /* \"#utility.yul\":10379:10499   */\n    tag_239:\n        /* \"#utility.yul\":10396:10399   */\n      dup2\n        /* \"#utility.yul\":10389:10394   */\n      dup2\n        /* \"#utility.yul\":10386:10400   */\n      lt\n        /* \"#utility.yul\":10379:10499   */\n      iszero\n      tag_241\n      jumpi\n        /* \"#utility.yul\":10450:10489   */\n      tag_242\n        /* \"#utility.yul\":10487:10488   */\n      0x00\n        /* \"#utility.yul\":10480:10485   */\n      dup3\n        /* \"#utility.yul\":10450:10489   */\n      tag_108\n      jump\t// in\n    tag_242:\n        /* \"#utility.yul\":10423:10424   */\n      0x01\n        /* \"#utility.yul\":10416:10421   */\n      dup2\n        /* \"#utility.yul\":10412:10425   */\n      add\n        /* \"#utility.yul\":10403:10425   */\n      swap1\n      pop\n        /* \"#utility.yul\":10379:10499   */\n      jump(tag_239)\n    tag_241:\n        /* \"#utility.yul\":10319:10505   */\n      pop\n      pop\n      jump\t// out\n        /* \"#utility.yul\":10511:11054   */\n    tag_110:\n        /* \"#utility.yul\":10612:10614   */\n      0x1f\n        /* \"#utility.yul\":10607:10610   */\n      dup3\n        /* \"#utility.yul\":10604:10615   */\n      gt\n        /* \"#utility.yul\":10601:11047   */\n      iszero\n      tag_244\n      jumpi\n        /* \"#utility.yul\":10646:10684   */\n      tag_245\n        /* \"#utility.yul\":10678:10683   */\n      dup2\n        /* \"#utility.yul\":10646:10684   */\n      tag_99\n      jump\t// in\n    tag_245:\n        /* \"#utility.yul\":10730:10759   */\n      tag_246\n        /* \"#utility.yul\":10748:10758   */\n      dup5\n        /* \"#utility.yul\":10730:10759   */\n      tag_100\n      jump\t// in\n    tag_246:\n        /* \"#utility.yul\":10720:10728   */\n      dup2\n        /* \"#utility.yul\":10716:10760   */\n      add\n        /* \"#utility.yul\":10913:10915   */\n      0x20\n        /* \"#utility.yul\":10901:10911   */\n      dup6\n        /* \"#utility.yul\":10898:10916   */\n      lt\n        /* \"#utility.yul\":10895:10944   */\n      iszero\n      tag_247\n      jumpi\n        /* \"#utility.yul\":10934:10942   */\n      dup2\n        /* \"#utility.yul\":10919:10942   */\n      swap1\n      pop\n        /* \"#utility.yul\":10895:10944   */\n    tag_247:\n        /* \"#utility.yul\":10957:11037   */\n      tag_248\n        /* \"#utility.yul\":11013:11035   */\n      tag_249\n        /* \"#utility.yul\":11031:11034   */\n      dup6\n        /* \"#utility.yul\":11013:11035   */\n      tag_100\n      jump\t// in\n    tag_249:\n        /* \"#utility.yul\":11003:11011   */\n      dup4\n        /* \"#utility.yul\":10999:11036   */\n      add\n        /* \"#utility.yul\":10986:10997   */\n      dup3\n        /* \"#utility.yul\":10957:11037   */\n      tag_109\n      jump\t// in\n    tag_248:\n        /* \"#utility.yul\":10616:11047   */\n      pop\n      pop\n        /* \"#utility.yul\":10601:11047   */\n    tag_244:\n        /* \"#utility.yul\":10511:11054   */\n      pop\n      pop\n      pop\n      jump\t// out\n        /* \"#utility.yul\":11060:11177   */\n    tag_111:\n        /* \"#utility.yul\":11114:11122   */\n      0x00\n        /* \"#utility.yul\":11164:11169   */\n      dup3\n        /* \"#utility.yul\":11158:11162   */\n      dup3\n        /* \"#utility.yul\":11154:11170   */\n      shr\n        /* \"#utility.yul\":11133:11170   */\n      swap1\n      pop\n        /* \"#utility.yul\":11060:11177   */\n      swap3\n      swap2\n      pop\n      pop\n      jump\t// out\n        /* \"#utility.yul\":11183:11352   */\n    tag_112:\n        /* \"#utility.yul\":11227:11233   */\n      0x00\n        /* \"#utility.yul\":11260:11311   */\n      tag_252\n        /* \"#utility.yul\":11308:11309   */\n      0x00\n        /* \"#utility.yul\":11304:11310   */\n      not\n        /* \"#utility.yul\":11296:11301   */\n      dup5\n        /* \"#utility.yul\":11293:11294   */\n      0x08\n        /* \"#utility.yul\":11289:11302   */\n      mul\n        /* \"#utility.yul\":11260:11311   */\n      tag_111\n      jump\t// in\n    tag_252:\n        /* \"#utility.yul\":11256:11312   */\n      not\n        /* \"#utility.yul\":11341:11345   */\n      dup1\n        /* \"#utility.yul\":11335:11339   */\n      dup4\n        /* \"#utility.yul\":11331:11346   */\n      and\n        /* \"#utility.yul\":11321:11346   */\n      swap2\n      pop\n        /* \"#utility.yul\":11234:11352   */\n      pop\n        /* \"#utility.yul\":11183:11352   */\n      swap3\n      swap2\n      pop\n      pop\n      jump\t// out\n        /* \"#utility.yul\":11357:11652   */\n    tag_113:\n        /* \"#utility.yul\":11433:11437   */\n      0x00\n        /* \"#utility.yul\":11579:11608   */\n      tag_254\n        /* \"#utility.yul\":11604:11607   */\n      dup4\n        /* \"#utility.yul\":11598:11602   */\n      dup4\n        /* \"#utility.yul\":11579:11608   */\n      tag_112\n      jump\t// in\n    tag_254:\n        /* \"#utility.yul\":11571:11608   */\n      swap2\n      pop\n        /* \"#utility.yul\":11641:11644   */\n      dup3\n        /* \"#utility.yul\":11638:11639   */\n      0x02\n        /* \"#utility.yul\":11634:11645   */\n      mul\n        /* \"#utility.yul\":11628:11632   */\n      dup3\n        /* \"#utility.yul\":11625:11646   */\n      or\n        /* \"#utility.yul\":11617:11646   */\n      swap1\n      pop\n        /* \"#utility.yul\":11357:11652   */\n      swap3\n      swap2\n      pop\n      pop\n      jump\t// out\n        /* \"#utility.yul\":11657:13052   */\n    tag_40:\n        /* \"#utility.yul\":11774:11811   */\n      tag_256\n        /* \"#utility.yul\":11807:11810   */\n      dup3\n        /* \"#utility.yul\":11774:11811   */\n      tag_88\n      jump\t// in\n    tag_256:\n        /* \"#utility.yul\":11876:11894   */\n      0xffffffffffffffff\n        /* \"#utility.yul\":11868:11874   */\n      dup2\n        /* \"#utility.yul\":11865:11895   */\n      gt\n        /* \"#utility.yul\":11862:11918   */\n      iszero\n      tag_257\n      jumpi\n        /* \"#utility.yul\":11898:11916   */\n      tag_258\n      tag_77\n      jump\t// in\n    tag_258:\n        /* \"#utility.yul\":11862:11918   */\n    tag_257:\n        /* \"#utility.yul\":11942:11980   */\n      tag_259\n        /* \"#utility.yul\":11974:11978   */\n      dup3\n        /* \"#utility.yul\":11968:11979   */\n      sload\n        /* \"#utility.yul\":11942:11980   */\n      tag_57\n      jump\t// in\n    tag_259:\n        /* \"#utility.yul\":12027:12094   */\n      tag_260\n        /* \"#utility.yul\":12087:12093   */\n      dup3\n        /* \"#utility.yul\":12079:12085   */\n      dup3\n        /* \"#utility.yul\":12073:12077   */\n      dup6\n        /* \"#utility.yul\":12027:12094   */\n      tag_110\n      jump\t// in\n    tag_260:\n        /* \"#utility.yul\":12121:12122   */\n      0x00\n        /* \"#utility.yul\":12145:12149   */\n      0x20\n        /* \"#utility.yul\":12132:12149   */\n      swap1\n      pop\n        /* \"#utility.yul\":12177:12179   */\n      0x1f\n        /* \"#utility.yul\":12169:12175   */\n      dup4\n        /* \"#utility.yul\":12166:12180   */\n      gt\n        /* \"#utility.yul\":12194:12195   */\n      0x01\n        /* \"#utility.yul\":12189:12807   */\n      dup2\n      eq\n      tag_262\n      jumpi\n        /* \"#utility.yul\":12851:12852   */\n      0x00\n        /* \"#utility.yul\":12868:12874   */\n      dup5\n        /* \"#utility.yul\":12865:12942   */\n      iszero\n      tag_263\n      jumpi\n        /* \"#utility.yul\":12917:12926   */\n      dup3\n        /* \"#utility.yul\":12912:12915   */\n      dup8\n        /* \"#utility.yul\":12908:12927   */\n      add\n        /* \"#utility.yul\":12902:12928   */\n      mload\n        /* \"#utility.yul\":12893:12928   */\n      swap1\n      pop\n        /* \"#utility.yul\":12865:12942   */\n    tag_263:\n        /* \"#utility.yul\":12968:13035   */\n      tag_264\n        /* \"#utility.yul\":13028:13034   */\n      dup6\n        /* \"#utility.yul\":13021:13026   */\n      dup3\n        /* \"#utility.yul\":12968:13035   */\n      tag_113\n      jump\t// in\n    tag_264:\n        /* \"#utility.yul\":12962:12966   */\n      dup7\n        /* \"#utility.yul\":12955:13036   */\n      sstore\n        /* \"#utility.yul\":12824:13046   */\n      pop\n        /* \"#utility.yul\":12159:13046   */\n      jump(tag_261)\n        /* \"#utility.yul\":12189:12807   */\n    tag_262:\n        /* \"#utility.yul\":12241:12245   */\n      0x1f\n        /* \"#utility.yul\":12237:12246   */\n      not\n        /* \"#utility.yul\":12229:12235   */\n      dup5\n        /* \"#utility.yul\":12225:12247   */\n      and\n        /* \"#utility.yul\":12275:12312   */\n      tag_265\n        /* \"#utility.yul\":12307:12311   */\n      dup7\n        /* \"#utility.yul\":12275:12312   */\n      tag_99\n      jump\t// in\n    tag_265:\n        /* \"#utility.yul\":12334:12335   */\n      0x00\n        /* \"#utility.yul\":12348:12556   */\n    tag_266:\n        /* \"#utility.yul\":12362:12369   */\n      dup3\n        /* \"#utility.yul\":12359:12360   */\n      dup2\n        /* \"#utility.yul\":12356:12370   */\n      lt\n        /* \"#utility.yul\":12348:12556   */\n      iszero\n      tag_268\n      jumpi\n        /* \"#utility.yul\":12441:12450   */\n      dup5\n        /* \"#utility.yul\":12436:12439   */\n      dup10\n        /* \"#utility.yul\":12432:12451   */\n      add\n        /* \"#utility.yul\":12426:12452   */\n      mload\n        /* \"#utility.yul\":12418:12424   */\n      dup3\n        /* \"#utility.yul\":12411:12453   */\n      sstore\n        /* \"#utility.yul\":12492:12493   */\n      0x01\n        /* \"#utility.yul\":12484:12490   */\n      dup3\n        /* \"#utility.yul\":12480:12494   */\n      add\n        /* \"#utility.yul\":12470:12494   */\n      swap2\n      pop\n        /* \"#utility.yul\":12539:12541   */\n      0x20\n        /* \"#utility.yul\":12528:12537   */\n      dup6\n        /* \"#utility.yul\":12524:12542   */\n      add\n        /* \"#utility.yul\":12511:12542   */\n      swap5\n      pop\n        /* \"#utility.yul\":12385:12389   */\n      0x20\n        /* \"#utility.yul\":12382:12383   */\n      dup2\n        /* \"#utility.yul\":12378:12390   */\n      add\n        /* \"#utility.yul\":12373:12390   */\n      swap1\n      pop\n        /* \"#utility.yul\":12348:12556   */\n      jump(tag_266)\n    tag_268:\n        /* \"#utility.yul\":12584:12590   */\n      dup7\n        /* \"#utility.yul\":12575:12582   */\n      dup4\n        /* \"#utility.yul\":12572:12591   */\n      lt\n        /* \"#utility.yul\":12569:12748   */\n      iszero\n      tag_269\n      jumpi\n        /* \"#utility.yul\":12642:12651   */\n      dup5\n        /* \"#utility.yul\":12637:12640   */\n      dup10\n        /* \"#utility.yul\":12633:12652   */\n      add\n        /* \"#utility.yul\":12627:12653   */\n      mload\n        /* \"#utility.yul\":12685:12733   */\n      tag_270\n        /* \"#utility.yul\":12727:12731   */\n      0x1f\n        /* \"#utility.yul\":12719:12725   */\n      dup10\n        /* \"#utility.yul\":12715:12732   */\n      and\n        /* \"#utility.yul\":12704:12713   */\n      dup3\n        /* \"#utility.yul\":12685:12733   */\n      tag_112\n      jump\t// in\n    tag_270:\n        /* \"#utility.yul\":12677:12683   */\n      dup4\n        /* \"#utility.yul\":12670:12734   */\n      sstore\n        /* \"#utility.yul\":12592:12748   */\n      pop\n        /* \"#utility.yul\":12569:12748   */\n    tag_269:\n        /* \"#utility.yul\":12794:12795   */\n      0x01\n        /* \"#utility.yul\":12790:12791   */\n      0x02\n        /* \"#utility.yul\":12782:12788   */\n      dup9\n        /* \"#utility.yul\":12778:12792   */\n      mul\n        /* \"#utility.yul\":12774:12796   */\n      add\n        /* \"#utility.yul\":12768:12772   */\n      dup9\n        /* \"#utility.yul\":12761:12797   */\n      sstore\n        /* \"#utility.yul\":12196:12807   */\n      pop\n      pop\n      pop\n        /* \"#utility.yul\":12159:13046   */\n    tag_261:\n      pop\n        /* \"#utility.yul\":11749:13052   */\n      pop\n      pop\n      pop\n        /* \"#utility.yul\":11657:13052   */\n      pop\n      pop\n      jump\t// out\n        /* \"#utility.yul\":13058:13206   */\n    tag_114:\n        /* \"#utility.yul\":13160:13171   */\n      0x00\n        /* \"#utility.yul\":13197:13200   */\n      dup2\n        /* \"#utility.yul\":13182:13200   */\n      swap1\n      pop\n        /* \"#utility.yul\":13058:13206   */\n      swap3\n      swap2\n      pop\n      pop\n      jump\t// out\n        /* \"#utility.yul\":13212:13602   */\n    tag_115:\n        /* \"#utility.yul\":13318:13321   */\n      0x00\n        /* \"#utility.yul\":13346:13385   */\n      tag_273\n        /* \"#utility.yul\":13379:13384   */\n      dup3\n        /* \"#utility.yul\":13346:13385   */\n      tag_88\n      jump\t// in\n    tag_273:\n        /* \"#utility.yul\":13401:13490   */\n      tag_274\n        /* \"#utility.yul\":13483:13489   */\n      dup2\n        /* \"#utility.yul\":13478:13481   */\n      dup6\n        /* \"#utility.yul\":13401:13490   */\n      tag_114\n      jump\t// in\n    tag_274:\n        /* \"#utility.yul\":13394:13490   */\n      swap4\n      pop\n        /* \"#utility.yul\":13499:13564   */\n      tag_275\n        /* \"#utility.yul\":13557:13563   */\n      dup2\n        /* \"#utility.yul\":13552:13555   */\n      dup6\n        /* \"#utility.yul\":13545:13549   */\n      0x20\n        /* \"#utility.yul\":13538:13543   */\n      dup7\n        /* \"#utility.yul\":13534:13550   */\n      add\n        /* \"#utility.yul\":13499:13564   */\n      tag_90\n      jump\t// in\n    tag_275:\n        /* \"#utility.yul\":13589:13595   */\n      dup1\n        /* \"#utility.yul\":13584:13587   */\n      dup5\n        /* \"#utility.yul\":13580:13596   */\n      add\n        /* \"#utility.yul\":13573:13596   */\n      swap2\n      pop\n        /* \"#utility.yul\":13322:13602   */\n      pop\n        /* \"#utility.yul\":13212:13602   */\n      swap3\n      swap2\n      pop\n      pop\n      jump\t// out\n        /* \"#utility.yul\":13608:13883   */\n    tag_42:\n        /* \"#utility.yul\":13740:13743   */\n      0x00\n        /* \"#utility.yul\":13762:13857   */\n      tag_277\n        /* \"#utility.yul\":13853:13856   */\n      dup3\n        /* \"#utility.yul\":13844:13850   */\n      dup5\n        /* \"#utility.yul\":13762:13857   */\n      tag_115\n      jump\t// in\n    tag_277:\n        /* \"#utility.yul\":13755:13857   */\n      swap2\n      pop\n        /* \"#utility.yul\":13874:13877   */\n      dup2\n        /* \"#utility.yul\":13867:13877   */\n      swap1\n      pop\n        /* \"#utility.yul\":13608:13883   */\n      swap3\n      swap2\n      pop\n      pop\n      jump\t// out\n        /* \"#utility.yul\":13889:14060   */\n    tag_116:\n        /* \"#utility.yul\":14029:14052   */\n      0x426f756e747920646f6573206e6f742065786973740000000000000000000000\n        /* \"#utility.yul\":14025:14026   */\n      0x00\n        /* \"#utility.yul\":14017:14023   */\n      dup3\n        /* \"#utility.yul\":14013:14027   */\n      add\n        /* \"#utility.yul\":14006:14053   */\n      mstore\n        /* \"#utility.yul\":13889:14060   */\n      pop\n      jump\t// out\n        /* \"#utility.yul\":14066:14432   */\n    tag_117:\n        /* \"#utility.yul\":14208:14211   */\n      0x00\n        /* \"#utility.yul\":14229:14296   */\n      tag_280\n        /* \"#utility.yul\":14293:14295   */\n      0x15\n        /* \"#utility.yul\":14288:14291   */\n      dup4\n        /* \"#utility.yul\":14229:14296   */\n      tag_89\n      jump\t// in\n    tag_280:\n        /* \"#utility.yul\":14222:14296   */\n      swap2\n      pop\n        /* \"#utility.yul\":14305:14398   */\n      tag_281\n        /* \"#utility.yul\":14394:14397   */\n      dup3\n        /* \"#utility.yul\":14305:14398   */\n      tag_116\n      jump\t// in\n    tag_281:\n        /* \"#utility.yul\":14423:14425   */\n      0x20\n        /* \"#utility.yul\":14418:14421   */\n      dup3\n        /* \"#utility.yul\":14414:14426   */\n      add\n        /* \"#utility.yul\":14407:14426   */\n      swap1\n      pop\n        /* \"#utility.yul\":14066:14432   */\n      swap2\n      swap1\n      pop\n      jump\t// out\n        /* \"#utility.yul\":14438:14857   */\n    tag_47:\n        /* \"#utility.yul\":14604:14608   */\n      0x00\n        /* \"#utility.yul\":14642:14644   */\n      0x20\n        /* \"#utility.yul\":14631:14640   */\n      dup3\n        /* \"#utility.yul\":14627:14645   */\n      add\n        /* \"#utility.yul\":14619:14645   */\n      swap1\n      pop\n        /* \"#utility.yul\":14691:14700   */\n      dup2\n        /* \"#utility.yul\":14685:14689   */\n      dup2\n        /* \"#utility.yul\":14681:14701   */\n      sub\n        /* \"#utility.yul\":14677:14678   */\n      0x00\n        /* \"#utility.yul\":14666:14675   */\n      dup4\n        /* \"#utility.yul\":14662:14679   */\n      add\n        /* \"#utility.yul\":14655:14702   */\n      mstore\n        /* \"#utility.yul\":14719:14850   */\n      tag_283\n        /* \"#utility.yul\":14845:14849   */\n      dup2\n        /* \"#utility.yul\":14719:14850   */\n      tag_117\n      jump\t// in\n    tag_283:\n        /* \"#utility.yul\":14711:14850   */\n      swap1\n      pop\n        /* \"#utility.yul\":14438:14857   */\n      swap2\n      swap1\n      pop\n      jump\t// out\n\n    auxdata: 0xa2646970667358221220280fec216721fde79de77a5ca733913977e3bea9004efe7892640520f4745df464736f6c634300081a0033\n}\n",
				"bytecode": {
					"linkReferences": {},
					"object": "6080604052348015600e575f80fd5b50610da28061001c5f395ff3fe608060405234801561000f575f80fd5b5060043610610055575f3560e01c80633edb9e021461005957806346f81a871461008957806375234b47146100a5578063dc2f8744146100c1578063f1bb7f51146100f5575b5f80fd5b610073600480360381019061006e91906106bc565b610111565b604051610080919061071b565b60405180910390f35b6100a3600480360381019061009e919061075e565b61013e565b005b6100bf60048036038101906100ba91906106bc565b61025e565b005b6100db60048036038101906100d691906107b8565b610374565b6040516100ec959493929190610882565b60405180910390f35b61010f600480360381019061010a9190610904565b610478565b005b6001818051602081018201805184825260208301602085012081835280955050505050505f915090505481565b5f60018160018154018082558091505003905f5260205f209050505f8060015f8054905061016c919061098b565b8154811061017d5761017c6109be565b5b905f5260205f209060060201905082815f01908161019b9190610be5565b5081816001018190555033816002015f6101000a81548173ffffffffffffffffffffffffffffffffffffffff021916908373ffffffffffffffffffffffffffffffffffffffff1602179055505f816003015f6101000a81548173ffffffffffffffffffffffffffffffffffffffff021916908373ffffffffffffffffffffffffffffffffffffffff1602179055505f81600501819055505f805490506001846040516102479190610cee565b908152602001604051809103902081905550505050565b5f60018260405161026f9190610cee565b908152602001604051809103902054036102be576040517f08c379a00000000000000000000000000000000000000000000000000000000081526004016102b590610d4e565b60405180910390fd5b5f600180836040516102d09190610cee565b9081526020016040518091039020546102e9919061098b565b90505f8082815481106102ff576102fe6109be565b5b905f5260205f20906006020190508060040133908060018154018082558091505060019003905f5260205f20015f9091909190916101000a81548173ffffffffffffffffffffffffffffffffffffffff021916908373ffffffffffffffffffffffffffffffffffffffff160217905550505050565b5f8181548110610382575f80fd5b905f5260205f2090600602015f91509050805f0180546103a190610a18565b80601f01602080910402602001604051908101604052809291908181526020018280546103cd90610a18565b80156104185780601f106103ef57610100808354040283529160200191610418565b820191905f5260205f20905b8154815290600101906020018083116103fb57829003601f168201915b505050505090806001015490806002015f9054906101000a900473ffffffffffffffffffffffffffffffffffffffff1690806003015f9054906101000a900473ffffffffffffffffffffffffffffffffffffffff16908060050154905085565b5f6001836040516104899190610cee565b908152602001604051809103902054036104d8576040517f08c379a00000000000000000000000000000000000000000000000000000000081526004016104cf90610d4e565b60405180910390fd5b5f600180846040516104ea9190610cee565b908152602001604051809103902054610503919061098b565b90505f808281548110610519576105186109be565b5b905f5260205f209060060201905082816003015f6101000a81548173ffffffffffffffffffffffffffffffffffffffff021916908373ffffffffffffffffffffffffffffffffffffffff16021790555050505050565b5f604051905090565b5f80fd5b5f80fd5b5f80fd5b5f80fd5b5f601f19601f8301169050919050565b7f4e487b71000000000000000000000000000000000000000000000000000000005f52604160045260245ffd5b6105ce82610588565b810181811067ffffffffffffffff821117156105ed576105ec610598565b5b80604052505050565b5f6105ff61056f565b905061060b82826105c5565b919050565b5f67ffffffffffffffff82111561062a57610629610598565b5b61063382610588565b9050602081019050919050565b828183375f83830152505050565b5f61066061065b84610610565b6105f6565b90508281526020810184848401111561067c5761067b610584565b5b610687848285610640565b509392505050565b5f82601f8301126106a3576106a2610580565b5b81356106b384826020860161064e565b91505092915050565b5f602082840312156106d1576106d0610578565b5b5f82013567ffffffffffffffff8111156106ee576106ed61057c565b5b6106fa8482850161068f565b91505092915050565b5f819050919050565b61071581610703565b82525050565b5f60208201905061072e5f83018461070c565b92915050565b61073d81610703565b8114610747575f80fd5b50565b5f8135905061075881610734565b92915050565b5f806040838503121561077457610773610578565b5b5f83013567ffffffffffffffff8111156107915761079061057c565b5b61079d8582860161068f565b92505060206107ae8582860161074a565b9150509250929050565b5f602082840312156107cd576107cc610578565b5b5f6107da8482850161074a565b91505092915050565b5f81519050919050565b5f82825260208201905092915050565b8281835e5f83830152505050565b5f610815826107e3565b61081f81856107ed565b935061082f8185602086016107fd565b61083881610588565b840191505092915050565b5f73ffffffffffffffffffffffffffffffffffffffff82169050919050565b5f61086c82610843565b9050919050565b61087c81610862565b82525050565b5f60a0820190508181035f83015261089a818861080b565b90506108a9602083018761070c565b6108b66040830186610873565b6108c36060830185610873565b6108d0608083018461070c565b9695505050505050565b6108e381610862565b81146108ed575f80fd5b50565b5f813590506108fe816108da565b92915050565b5f806040838503121561091a57610919610578565b5b5f83013567ffffffffffffffff8111156109375761093661057c565b5b6109438582860161068f565b9250506020610954858286016108f0565b9150509250929050565b7f4e487b71000000000000000000000000000000000000000000000000000000005f52601160045260245ffd5b5f61099582610703565b91506109a083610703565b92508282039050818111156109b8576109b761095e565b5b92915050565b7f4e487b71000000000000000000000000000000000000000000000000000000005f52603260045260245ffd5b7f4e487b71000000000000000000000000000000000000000000000000000000005f52602260045260245ffd5b5f6002820490506001821680610a2f57607f821691505b602082108103610a4257610a416109eb565b5b50919050565b5f819050815f5260205f209050919050565b5f6020601f8301049050919050565b5f82821b905092915050565b5f60088302610aa47fffffffffffffffffffffffffffffffffffffffffffffffffffffffffffffffff82610a69565b610aae8683610a69565b95508019841693508086168417925050509392505050565b5f819050919050565b5f610ae9610ae4610adf84610703565b610ac6565b610703565b9050919050565b5f819050919050565b610b0283610acf565b610b16610b0e82610af0565b848454610a75565b825550505050565b5f90565b610b2a610b1e565b610b35818484610af9565b505050565b5b81811015610b5857610b4d5f82610b22565b600181019050610b3b565b5050565b601f821115610b9d57610b6e81610a48565b610b7784610a5a565b81016020851015610b86578190505b610b9a610b9285610a5a565b830182610b3a565b50505b505050565b5f82821c905092915050565b5f610bbd5f1984600802610ba2565b1980831691505092915050565b5f610bd58383610bae565b9150826002028217905092915050565b610bee826107e3565b67ffffffffffffffff811115610c0757610c06610598565b5b610c118254610a18565b610c1c828285610b5c565b5f60209050601f831160018114610c4d575f8415610c3b578287015190505b610c458582610bca565b865550610cac565b601f198416610c5b86610a48565b5f5b82811015610c8257848901518255600182019150602085019450602081019050610c5d565b86831015610c9f5784890151610c9b601f891682610bae565b8355505b6001600288020188555050505b505050505050565b5f81905092915050565b5f610cc8826107e3565b610cd28185610cb4565b9350610ce28185602086016107fd565b80840191505092915050565b5f610cf98284610cbe565b915081905092915050565b7f426f756e747920646f6573206e6f7420657869737400000000000000000000005f82015250565b5f610d386015836107ed565b9150610d4382610d04565b602082019050919050565b5f6020820190508181035f830152610d6581610d2c565b905091905056fea2646970667358221220280fec216721fde79de77a5ca733913977e3bea9004efe7892640520f4745df464736f6c634300081a0033",
					"opcodes": "PUSH1 0x80 PUSH1 0x40 MSTORE CALLVALUE DUP1 ISZERO PUSH1 0xE JUMPI PUSH0 DUP1 REVERT JUMPDEST POP PUSH2 0xDA2 DUP1 PUSH2 0x1C PUSH0 CODECOPY PUSH0 RETURN INVALID PUSH1 0x80 PUSH1 0x40 MSTORE CALLVALUE DUP1 ISZERO PUSH2 0xF JUMPI PUSH0 DUP1 REVERT JUMPDEST POP PUSH1 0x4 CALLDATASIZE LT PUSH2 0x55 JUMPI PUSH0 CALLDATALOAD PUSH1 0xE0 SHR DUP1 PUSH4 0x3EDB9E02 EQ PUSH2 0x59 JUMPI DUP1 PUSH4 0x46F81A87 EQ PUSH2 0x89 JUMPI DUP1 PUSH4 0x75234B47 EQ PUSH2 0xA5 JUMPI DUP1 PUSH4 0xDC2F8744 EQ PUSH2 0xC1 JUMPI DUP1 PUSH4 0xF1BB7F51 EQ PUSH2 0xF5 JUMPI JUMPDEST PUSH0 DUP1 REVERT JUMPDEST PUSH2 0x73 PUSH1 0x4 DUP1 CALLDATASIZE SUB DUP2 ADD SWAP1 PUSH2 0x6E SWAP2 SWAP1 PUSH2 0x6BC JUMP JUMPDEST PUSH2 0x111 JUMP JUMPDEST PUSH1 0x40 MLOAD PUSH2 0x80 SWAP2 SWAP1 PUSH2 0x71B JUMP JUMPDEST PUSH1 0x40 MLOAD DUP1 SWAP2 SUB SWAP1 RETURN JUMPDEST PUSH2 0xA3 PUSH1 0x4 DUP1 CALLDATASIZE SUB DUP2 ADD SWAP1 PUSH2 0x9E SWAP2 SWAP1 PUSH2 0x75E JUMP JUMPDEST PUSH2 0x13E JUMP JUMPDEST STOP JUMPDEST PUSH2 0xBF PUSH1 0x4 DUP1 CALLDATASIZE SUB DUP2 ADD SWAP1 PUSH2 0xBA SWAP2 SWAP1 PUSH2 0x6BC JUMP JUMPDEST PUSH2 0x25E JUMP JUMPDEST STOP JUMPDEST PUSH2 0xDB PUSH1 0x4 DUP1 CALLDATASIZE SUB DUP2 ADD SWAP1 PUSH2 0xD6 SWAP2 SWAP1 PUSH2 0x7B8 JUMP JUMPDEST PUSH2 0x374 JUMP JUMPDEST PUSH1 0x40 MLOAD PUSH2 0xEC SWAP6 SWAP5 SWAP4 SWAP3 SWAP2 SWAP1 PUSH2 0x882 JUMP JUMPDEST PUSH1 0x40 MLOAD DUP1 SWAP2 SUB SWAP1 RETURN JUMPDEST PUSH2 0x10F PUSH1 0x4 DUP1 CALLDATASIZE SUB DUP2 ADD SWAP1 PUSH2 0x10A SWAP2 SWAP1 PUSH2 0x904 JUMP JUMPDEST PUSH2 0x478 JUMP JUMPDEST STOP JUMPDEST PUSH1 0x1 DUP2 DUP1 MLOAD PUSH1 0x20 DUP2 ADD DUP3 ADD DUP1 MLOAD DUP5 DUP3 MSTORE PUSH1 0x20 DUP4 ADD PUSH1 0x20 DUP6 ADD KECCAK256 DUP2 DUP4 MSTORE DUP1 SWAP6 POP POP POP POP POP POP PUSH0 SWAP2 POP SWAP1 POP SLOAD DUP2 JUMP JUMPDEST PUSH0 PUSH1 0x1 DUP2 PUSH1 0x1 DUP2 SLOAD ADD DUP1 DUP3 SSTORE DUP1 SWAP2 POP POP SUB SWAP1 PUSH0 MSTORE PUSH1 0x20 PUSH0 KECCAK256 SWAP1 POP POP PUSH0 DUP1 PUSH1 0x1 PUSH0 DUP1 SLOAD SWAP1 POP PUSH2 0x16C SWAP2 SWAP1 PUSH2 0x98B JUMP JUMPDEST DUP2 SLOAD DUP2 LT PUSH2 0x17D JUMPI PUSH2 0x17C PUSH2 0x9BE JUMP JUMPDEST JUMPDEST SWAP1 PUSH0 MSTORE PUSH1 0x20 PUSH0 KECCAK256 SWAP1 PUSH1 0x6 MUL ADD SWAP1 POP DUP3 DUP2 PUSH0 ADD SWAP1 DUP2 PUSH2 0x19B SWAP2 SWAP1 PUSH2 0xBE5 JUMP JUMPDEST POP DUP2 DUP2 PUSH1 0x1 ADD DUP2 SWAP1 SSTORE POP CALLER DUP2 PUSH1 0x2 ADD PUSH0 PUSH2 0x100 EXP DUP2 SLOAD DUP2 PUSH20 0xFFFFFFFFFFFFFFFFFFFFFFFFFFFFFFFFFFFFFFFF MUL NOT AND SWAP1 DUP4 PUSH20 0xFFFFFFFFFFFFFFFFFFFFFFFFFFFFFFFFFFFFFFFF AND MUL OR SWAP1 SSTORE POP PUSH0 DUP2 PUSH1 0x3 ADD PUSH0 PUSH2 0x100 EXP DUP2 SLOAD DUP2 PUSH20 0xFFFFFFFFFFFFFFFFFFFFFFFFFFFFFFFFFFFFFFFF MUL NOT AND SWAP1 DUP4 PUSH20 0xFFFFFFFFFFFFFFFFFFFFFFFFFFFFFFFFFFFFFFFF AND MUL OR SWAP1 SSTORE POP PUSH0 DUP2 PUSH1 0x5 ADD DUP2 SWAP1 SSTORE POP PUSH0 DUP1 SLOAD SWAP1 POP PUSH1 0x1 DUP5 PUSH1 0x40 MLOAD PUSH2 0x247 SWAP2 SWAP1 PUSH2 0xCEE JUMP JUMPDEST SWAP1 DUP2 MSTORE PUSH1 0x20 ADD PUSH1 0x40 MLOAD DUP1 SWAP2 SUB SWAP1 KECCAK256 DUP2 SWAP1 SSTORE POP POP POP POP JUMP JUMPDEST PUSH0 PUSH1 0x1 DUP3 PUSH1 0x40 MLOAD PUSH2 0x26F SWAP2 SWAP1 PUSH2 0xCEE JUMP JUMPDEST SWAP1 DUP2 MSTORE PUSH1 0x20 ADD PUSH1 0x40 MLOAD DUP1 SWAP2 SUB SWAP1 KECCAK256 SLOAD SUB PUSH2 0x2BE JUMPI PUSH1 0x40 MLOAD PUSH32 0x8C379A000000000000000000000000000000000000000000000000000000000 DUP2 MSTORE PUSH1 0x4 ADD PUSH2 0x2B5 SWAP1 PUSH2 0xD4E JUMP JUMPDEST PUSH1 0x40 MLOAD DUP1 SWAP2 SUB SWAP1 REVERT JUMPDEST PUSH0 PUSH1 0x1 DUP1 DUP4 PUSH1 0x40 MLOAD PUSH2 0x2D0 SWAP2 SWAP1 PUSH2 0xCEE JUMP JUMPDEST SWAP1 DUP2 MSTORE PUSH1 0x20 ADD PUSH1 0x40 MLOAD DUP1 SWAP2 SUB SWAP1 KECCAK256 SLOAD PUSH2 0x2E9 SWAP2 SWAP1 PUSH2 0x98B JUMP JUMPDEST SWAP1 POP PUSH0 DUP1 DUP3 DUP2 SLOAD DUP2 LT PUSH2 0x2FF JUMPI PUSH2 0x2FE PUSH2 0x9BE JUMP JUMPDEST JUMPDEST SWAP1 PUSH0 MSTORE PUSH1 0x20 PUSH0 KECCAK256 SWAP1 PUSH1 0x6 MUL ADD SWAP1 POP DUP1 PUSH1 0x4 ADD CALLER SWAP1 DUP1 PUSH1 0x1 DUP2 SLOAD ADD DUP1 DUP3 SSTORE DUP1 SWAP2 POP POP PUSH1 0x1 SWAP1 SUB SWAP1 PUSH0 MSTORE PUSH1 0x20 PUSH0 KECCAK256 ADD PUSH0 SWAP1 SWAP2 SWAP1 SWAP2 SWAP1 SWAP2 PUSH2 0x100 EXP DUP2 SLOAD DUP2 PUSH20 0xFFFFFFFFFFFFFFFFFFFFFFFFFFFFFFFFFFFFFFFF MUL NOT AND SWAP1 DUP4 PUSH20 0xFFFFFFFFFFFFFFFFFFFFFFFFFFFFFFFFFFFFFFFF AND MUL OR SWAP1 SSTORE POP POP POP POP JUMP JUMPDEST PUSH0 DUP2 DUP2 SLOAD DUP2 LT PUSH2 0x382 JUMPI PUSH0 DUP1 REVERT JUMPDEST SWAP1 PUSH0 MSTORE PUSH1 0x20 PUSH0 KECCAK256 SWAP1 PUSH1 0x6 MUL ADD PUSH0 SWAP2 POP SWAP1 POP DUP1 PUSH0 ADD DUP1 SLOAD PUSH2 0x3A1 SWAP1 PUSH2 0xA18 JUMP JUMPDEST DUP1 PUSH1 0x1F ADD PUSH1 0x20 DUP1 SWAP2 DIV MUL PUSH1 0x20 ADD PUSH1 0x40 MLOAD SWAP1 DUP2 ADD PUSH1 0x40 MSTORE DUP1 SWAP3 SWAP2 SWAP1 DUP2 DUP2 MSTORE PUSH1 0x20 ADD DUP3 DUP1 SLOAD PUSH2 0x3CD SWAP1 PUSH2 0xA18 JUMP JUMPDEST DUP1 ISZERO PUSH2 0x418 JUMPI DUP1 PUSH1 0x1F LT PUSH2 0x3EF JUMPI PUSH2 0x100 DUP1 DUP4 SLOAD DIV MUL DUP4 MSTORE SWAP2 PUSH1 0x20 ADD SWAP2 PUSH2 0x418 JUMP JUMPDEST DUP3 ADD SWAP2 SWAP1 PUSH0 MSTORE PUSH1 0x20 PUSH0 KECCAK256 SWAP1 JUMPDEST DUP2 SLOAD DUP2 MSTORE SWAP1 PUSH1 0x1 ADD SWAP1 PUSH1 0x20 ADD DUP1 DUP4 GT PUSH2 0x3FB JUMPI DUP3 SWAP1 SUB PUSH1 0x1F AND DUP3 ADD SWAP2 JUMPDEST POP POP POP POP POP SWAP1 DUP1 PUSH1 0x1 ADD SLOAD SWAP1 DUP1 PUSH1 0x2 ADD PUSH0 SWAP1 SLOAD SWAP1 PUSH2 0x100 EXP SWAP1 DIV PUSH20 0xFFFFFFFFFFFFFFFFFFFFFFFFFFFFFFFFFFFFFFFF AND SWAP1 DUP1 PUSH1 0x3 ADD PUSH0 SWAP1 SLOAD SWAP1 PUSH2 0x100 EXP SWAP1 DIV PUSH20 0xFFFFFFFFFFFFFFFFFFFFFFFFFFFFFFFFFFFFFFFF AND SWAP1 DUP1 PUSH1 0x5 ADD SLOAD SWAP1 POP DUP6 JUMP JUMPDEST PUSH0 PUSH1 0x1 DUP4 PUSH1 0x40 MLOAD PUSH2 0x489 SWAP2 SWAP1 PUSH2 0xCEE JUMP JUMPDEST SWAP1 DUP2 MSTORE PUSH1 0x20 ADD PUSH1 0x40 MLOAD DUP1 SWAP2 SUB SWAP1 KECCAK256 SLOAD SUB PUSH2 0x4D8 JUMPI PUSH1 0x40 MLOAD PUSH32 0x8C379A000000000000000000000000000000000000000000000000000000000 DUP2 MSTORE PUSH1 0x4 ADD PUSH2 0x4CF SWAP1 PUSH2 0xD4E JUMP JUMPDEST PUSH1 0x40 MLOAD DUP1 SWAP2 SUB SWAP1 REVERT JUMPDEST PUSH0 PUSH1 0x1 DUP1 DUP5 PUSH1 0x40 MLOAD PUSH2 0x4EA SWAP2 SWAP1 PUSH2 0xCEE JUMP JUMPDEST SWAP1 DUP2 MSTORE PUSH1 0x20 ADD PUSH1 0x40 MLOAD DUP1 SWAP2 SUB SWAP1 KECCAK256 SLOAD PUSH2 0x503 SWAP2 SWAP1 PUSH2 0x98B JUMP JUMPDEST SWAP1 POP PUSH0 DUP1 DUP3 DUP2 SLOAD DUP2 LT PUSH2 0x519 JUMPI PUSH2 0x518 PUSH2 0x9BE JUMP JUMPDEST JUMPDEST SWAP1 PUSH0 MSTORE PUSH1 0x20 PUSH0 KECCAK256 SWAP1 PUSH1 0x6 MUL ADD SWAP1 POP DUP3 DUP2 PUSH1 0x3 ADD PUSH0 PUSH2 0x100 EXP DUP2 SLOAD DUP2 PUSH20 0xFFFFFFFFFFFFFFFFFFFFFFFFFFFFFFFFFFFFFFFF MUL NOT AND SWAP1 DUP4 PUSH20 0xFFFFFFFFFFFFFFFFFFFFFFFFFFFFFFFFFFFFFFFF AND MUL OR SWAP1 SSTORE POP POP POP POP POP JUMP JUMPDEST PUSH0 PUSH1 0x40 MLOAD SWAP1 POP SWAP1 JUMP JUMPDEST PUSH0 DUP1 REVERT JUMPDEST PUSH0 DUP1 REVERT JUMPDEST PUSH0 DUP1 REVERT JUMPDEST PUSH0 DUP1 REVERT JUMPDEST PUSH0 PUSH1 0x1F NOT PUSH1 0x1F DUP4 ADD AND SWAP1 POP SWAP2 SWAP1 POP JUMP JUMPDEST PUSH32 0x4E487B7100000000000000000000000000000000000000000000000000000000 PUSH0 MSTORE PUSH1 0x41 PUSH1 0x4 MSTORE PUSH1 0x24 PUSH0 REVERT JUMPDEST PUSH2 0x5CE DUP3 PUSH2 0x588 JUMP JUMPDEST DUP2 ADD DUP2 DUP2 LT PUSH8 0xFFFFFFFFFFFFFFFF DUP3 GT OR ISZERO PUSH2 0x5ED JUMPI PUSH2 0x5EC PUSH2 0x598 JUMP JUMPDEST JUMPDEST DUP1 PUSH1 0x40 MSTORE POP POP POP JUMP JUMPDEST PUSH0 PUSH2 0x5FF PUSH2 0x56F JUMP JUMPDEST SWAP1 POP PUSH2 0x60B DUP3 DUP3 PUSH2 0x5C5 JUMP JUMPDEST SWAP2 SWAP1 POP JUMP JUMPDEST PUSH0 PUSH8 0xFFFFFFFFFFFFFFFF DUP3 GT ISZERO PUSH2 0x62A JUMPI PUSH2 0x629 PUSH2 0x598 JUMP JUMPDEST JUMPDEST PUSH2 0x633 DUP3 PUSH2 0x588 JUMP JUMPDEST SWAP1 POP PUSH1 0x20 DUP2 ADD SWAP1 POP SWAP2 SWAP1 POP JUMP JUMPDEST DUP3 DUP2 DUP4 CALLDATACOPY PUSH0 DUP4 DUP4 ADD MSTORE POP POP POP JUMP JUMPDEST PUSH0 PUSH2 0x660 PUSH2 0x65B DUP5 PUSH2 0x610 JUMP JUMPDEST PUSH2 0x5F6 JUMP JUMPDEST SWAP1 POP DUP3 DUP2 MSTORE PUSH1 0x20 DUP2 ADD DUP5 DUP5 DUP5 ADD GT ISZERO PUSH2 0x67C JUMPI PUSH2 0x67B PUSH2 0x584 JUMP JUMPDEST JUMPDEST PUSH2 0x687 DUP5 DUP3 DUP6 PUSH2 0x640 JUMP JUMPDEST POP SWAP4 SWAP3 POP POP POP JUMP JUMPDEST PUSH0 DUP3 PUSH1 0x1F DUP4 ADD SLT PUSH2 0x6A3 JUMPI PUSH2 0x6A2 PUSH2 0x580 JUMP JUMPDEST JUMPDEST DUP2 CALLDATALOAD PUSH2 0x6B3 DUP5 DUP3 PUSH1 0x20 DUP7 ADD PUSH2 0x64E JUMP JUMPDEST SWAP2 POP POP SWAP3 SWAP2 POP POP JUMP JUMPDEST PUSH0 PUSH1 0x20 DUP3 DUP5 SUB SLT ISZERO PUSH2 0x6D1 JUMPI PUSH2 0x6D0 PUSH2 0x578 JUMP JUMPDEST JUMPDEST PUSH0 DUP3 ADD CALLDATALOAD PUSH8 0xFFFFFFFFFFFFFFFF DUP2 GT ISZERO PUSH2 0x6EE JUMPI PUSH2 0x6ED PUSH2 0x57C JUMP JUMPDEST JUMPDEST PUSH2 0x6FA DUP5 DUP3 DUP6 ADD PUSH2 0x68F JUMP JUMPDEST SWAP2 POP POP SWAP3 SWAP2 POP POP JUMP JUMPDEST PUSH0 DUP2 SWAP1 POP SWAP2 SWAP1 POP JUMP JUMPDEST PUSH2 0x715 DUP2 PUSH2 0x703 JUMP JUMPDEST DUP3 MSTORE POP POP JUMP JUMPDEST PUSH0 PUSH1 0x20 DUP3 ADD SWAP1 POP PUSH2 0x72E PUSH0 DUP4 ADD DUP5 PUSH2 0x70C JUMP JUMPDEST SWAP3 SWAP2 POP POP JUMP JUMPDEST PUSH2 0x73D DUP2 PUSH2 0x703 JUMP JUMPDEST DUP2 EQ PUSH2 0x747 JUMPI PUSH0 DUP1 REVERT JUMPDEST POP JUMP JUMPDEST PUSH0 DUP2 CALLDATALOAD SWAP1 POP PUSH2 0x758 DUP2 PUSH2 0x734 JUMP JUMPDEST SWAP3 SWAP2 POP POP JUMP JUMPDEST PUSH0 DUP1 PUSH1 0x40 DUP4 DUP6 SUB SLT ISZERO PUSH2 0x774 JUMPI PUSH2 0x773 PUSH2 0x578 JUMP JUMPDEST JUMPDEST PUSH0 DUP4 ADD CALLDATALOAD PUSH8 0xFFFFFFFFFFFFFFFF DUP2 GT ISZERO PUSH2 0x791 JUMPI PUSH2 0x790 PUSH2 0x57C JUMP JUMPDEST JUMPDEST PUSH2 0x79D DUP6 DUP3 DUP7 ADD PUSH2 0x68F JUMP JUMPDEST SWAP3 POP POP PUSH1 0x20 PUSH2 0x7AE DUP6 DUP3 DUP7 ADD PUSH2 0x74A JUMP JUMPDEST SWAP2 POP POP SWAP3 POP SWAP3 SWAP1 POP JUMP JUMPDEST PUSH0 PUSH1 0x20 DUP3 DUP5 SUB SLT ISZERO PUSH2 0x7CD JUMPI PUSH2 0x7CC PUSH2 0x578 JUMP JUMPDEST JUMPDEST PUSH0 PUSH2 0x7DA DUP5 DUP3 DUP6 ADD PUSH2 0x74A JUMP JUMPDEST SWAP2 POP POP SWAP3 SWAP2 POP POP JUMP JUMPDEST PUSH0 DUP2 MLOAD SWAP1 POP SWAP2 SWAP1 POP JUMP JUMPDEST PUSH0 DUP3 DUP3 MSTORE PUSH1 0x20 DUP3 ADD SWAP1 POP SWAP3 SWAP2 POP POP JUMP JUMPDEST DUP3 DUP2 DUP4 MCOPY PUSH0 DUP4 DUP4 ADD MSTORE POP POP POP JUMP JUMPDEST PUSH0 PUSH2 0x815 DUP3 PUSH2 0x7E3 JUMP JUMPDEST PUSH2 0x81F DUP2 DUP6 PUSH2 0x7ED JUMP JUMPDEST SWAP4 POP PUSH2 0x82F DUP2 DUP6 PUSH1 0x20 DUP7 ADD PUSH2 0x7FD JUMP JUMPDEST PUSH2 0x838 DUP2 PUSH2 0x588 JUMP JUMPDEST DUP5 ADD SWAP2 POP POP SWAP3 SWAP2 POP POP JUMP JUMPDEST PUSH0 PUSH20 0xFFFFFFFFFFFFFFFFFFFFFFFFFFFFFFFFFFFFFFFF DUP3 AND SWAP1 POP SWAP2 SWAP1 POP JUMP JUMPDEST PUSH0 PUSH2 0x86C DUP3 PUSH2 0x843 JUMP JUMPDEST SWAP1 POP SWAP2 SWAP1 POP JUMP JUMPDEST PUSH2 0x87C DUP2 PUSH2 0x862 JUMP JUMPDEST DUP3 MSTORE POP POP JUMP JUMPDEST PUSH0 PUSH1 0xA0 DUP3 ADD SWAP1 POP DUP2 DUP2 SUB PUSH0 DUP4 ADD MSTORE PUSH2 0x89A DUP2 DUP9 PUSH2 0x80B JUMP JUMPDEST SWAP1 POP PUSH2 0x8A9 PUSH1 0x20 DUP4 ADD DUP8 PUSH2 0x70C JUMP JUMPDEST PUSH2 0x8B6 PUSH1 0x40 DUP4 ADD DUP7 PUSH2 0x873 JUMP JUMPDEST PUSH2 0x8C3 PUSH1 0x60 DUP4 ADD DUP6 PUSH2 0x873 JUMP JUMPDEST PUSH2 0x8D0 PUSH1 0x80 DUP4 ADD DUP5 PUSH2 0x70C JUMP JUMPDEST SWAP7 SWAP6 POP POP POP POP POP POP JUMP JUMPDEST PUSH2 0x8E3 DUP2 PUSH2 0x862 JUMP JUMPDEST DUP2 EQ PUSH2 0x8ED JUMPI PUSH0 DUP1 REVERT JUMPDEST POP JUMP JUMPDEST PUSH0 DUP2 CALLDATALOAD SWAP1 POP PUSH2 0x8FE DUP2 PUSH2 0x8DA JUMP JUMPDEST SWAP3 SWAP2 POP POP JUMP JUMPDEST PUSH0 DUP1 PUSH1 0x40 DUP4 DUP6 SUB SLT ISZERO PUSH2 0x91A JUMPI PUSH2 0x919 PUSH2 0x578 JUMP JUMPDEST JUMPDEST PUSH0 DUP4 ADD CALLDATALOAD PUSH8 0xFFFFFFFFFFFFFFFF DUP2 GT ISZERO PUSH2 0x937 JUMPI PUSH2 0x936 PUSH2 0x57C JUMP JUMPDEST JUMPDEST PUSH2 0x943 DUP6 DUP3 DUP7 ADD PUSH2 0x68F JUMP JUMPDEST SWAP3 POP POP PUSH1 0x20 PUSH2 0x954 DUP6 DUP3 DUP7 ADD PUSH2 0x8F0 JUMP JUMPDEST SWAP2 POP POP SWAP3 POP SWAP3 SWAP1 POP JUMP JUMPDEST PUSH32 0x4E487B7100000000000000000000000000000000000000000000000000000000 PUSH0 MSTORE PUSH1 0x11 PUSH1 0x4 MSTORE PUSH1 0x24 PUSH0 REVERT JUMPDEST PUSH0 PUSH2 0x995 DUP3 PUSH2 0x703 JUMP JUMPDEST SWAP2 POP PUSH2 0x9A0 DUP4 PUSH2 0x703 JUMP JUMPDEST SWAP3 POP DUP3 DUP3 SUB SWAP1 POP DUP2 DUP2 GT ISZERO PUSH2 0x9B8 JUMPI PUSH2 0x9B7 PUSH2 0x95E JUMP JUMPDEST JUMPDEST SWAP3 SWAP2 POP POP JUMP JUMPDEST PUSH32 0x4E487B7100000000000000000000000000000000000000000000000000000000 PUSH0 MSTORE PUSH1 0x32 PUSH1 0x4 MSTORE PUSH1 0x24 PUSH0 REVERT JUMPDEST PUSH32 0x4E487B7100000000000000000000000000000000000000000000000000000000 PUSH0 MSTORE PUSH1 0x22 PUSH1 0x4 MSTORE PUSH1 0x24 PUSH0 REVERT JUMPDEST PUSH0 PUSH1 0x2 DUP3 DIV SWAP1 POP PUSH1 0x1 DUP3 AND DUP1 PUSH2 0xA2F JUMPI PUSH1 0x7F DUP3 AND SWAP2 POP JUMPDEST PUSH1 0x20 DUP3 LT DUP2 SUB PUSH2 0xA42 JUMPI PUSH2 0xA41 PUSH2 0x9EB JUMP JUMPDEST JUMPDEST POP SWAP2 SWAP1 POP JUMP JUMPDEST PUSH0 DUP2 SWAP1 POP DUP2 PUSH0 MSTORE PUSH1 0x20 PUSH0 KECCAK256 SWAP1 POP SWAP2 SWAP1 POP JUMP JUMPDEST PUSH0 PUSH1 0x20 PUSH1 0x1F DUP4 ADD DIV SWAP1 POP SWAP2 SWAP1 POP JUMP JUMPDEST PUSH0 DUP3 DUP3 SHL SWAP1 POP SWAP3 SWAP2 POP POP JUMP JUMPDEST PUSH0 PUSH1 0x8 DUP4 MUL PUSH2 0xAA4 PUSH32 0xFFFFFFFFFFFFFFFFFFFFFFFFFFFFFFFFFFFFFFFFFFFFFFFFFFFFFFFFFFFFFFFF DUP3 PUSH2 0xA69 JUMP JUMPDEST PUSH2 0xAAE DUP7 DUP4 PUSH2 0xA69 JUMP JUMPDEST SWAP6 POP DUP1 NOT DUP5 AND SWAP4 POP DUP1 DUP7 AND DUP5 OR SWAP3 POP POP POP SWAP4 SWAP3 POP POP POP JUMP JUMPDEST PUSH0 DUP2 SWAP1 POP SWAP2 SWAP1 POP JUMP JUMPDEST PUSH0 PUSH2 0xAE9 PUSH2 0xAE4 PUSH2 0xADF DUP5 PUSH2 0x703 JUMP JUMPDEST PUSH2 0xAC6 JUMP JUMPDEST PUSH2 0x703 JUMP JUMPDEST SWAP1 POP SWAP2 SWAP1 POP JUMP JUMPDEST PUSH0 DUP2 SWAP1 POP SWAP2 SWAP1 POP JUMP JUMPDEST PUSH2 0xB02 DUP4 PUSH2 0xACF JUMP JUMPDEST PUSH2 0xB16 PUSH2 0xB0E DUP3 PUSH2 0xAF0 JUMP JUMPDEST DUP5 DUP5 SLOAD PUSH2 0xA75 JUMP JUMPDEST DUP3 SSTORE POP POP POP POP JUMP JUMPDEST PUSH0 SWAP1 JUMP JUMPDEST PUSH2 0xB2A PUSH2 0xB1E JUMP JUMPDEST PUSH2 0xB35 DUP2 DUP5 DUP5 PUSH2 0xAF9 JUMP JUMPDEST POP POP POP JUMP JUMPDEST JUMPDEST DUP2 DUP2 LT ISZERO PUSH2 0xB58 JUMPI PUSH2 0xB4D PUSH0 DUP3 PUSH2 0xB22 JUMP JUMPDEST PUSH1 0x1 DUP2 ADD SWAP1 POP PUSH2 0xB3B JUMP JUMPDEST POP POP JUMP JUMPDEST PUSH1 0x1F DUP3 GT ISZERO PUSH2 0xB9D JUMPI PUSH2 0xB6E DUP2 PUSH2 0xA48 JUMP JUMPDEST PUSH2 0xB77 DUP5 PUSH2 0xA5A JUMP JUMPDEST DUP2 ADD PUSH1 0x20 DUP6 LT ISZERO PUSH2 0xB86 JUMPI DUP2 SWAP1 POP JUMPDEST PUSH2 0xB9A PUSH2 0xB92 DUP6 PUSH2 0xA5A JUMP JUMPDEST DUP4 ADD DUP3 PUSH2 0xB3A JUMP JUMPDEST POP POP JUMPDEST POP POP POP JUMP JUMPDEST PUSH0 DUP3 DUP3 SHR SWAP1 POP SWAP3 SWAP2 POP POP JUMP JUMPDEST PUSH0 PUSH2 0xBBD PUSH0 NOT DUP5 PUSH1 0x8 MUL PUSH2 0xBA2 JUMP JUMPDEST NOT DUP1 DUP4 AND SWAP2 POP POP SWAP3 SWAP2 POP POP JUMP JUMPDEST PUSH0 PUSH2 0xBD5 DUP4 DUP4 PUSH2 0xBAE JUMP JUMPDEST SWAP2 POP DUP3 PUSH1 0x2 MUL DUP3 OR SWAP1 POP SWAP3 SWAP2 POP POP JUMP JUMPDEST PUSH2 0xBEE DUP3 PUSH2 0x7E3 JUMP JUMPDEST PUSH8 0xFFFFFFFFFFFFFFFF DUP2 GT ISZERO PUSH2 0xC07 JUMPI PUSH2 0xC06 PUSH2 0x598 JUMP JUMPDEST JUMPDEST PUSH2 0xC11 DUP3 SLOAD PUSH2 0xA18 JUMP JUMPDEST PUSH2 0xC1C DUP3 DUP3 DUP6 PUSH2 0xB5C JUMP JUMPDEST PUSH0 PUSH1 0x20 SWAP1 POP PUSH1 0x1F DUP4 GT PUSH1 0x1 DUP2 EQ PUSH2 0xC4D JUMPI PUSH0 DUP5 ISZERO PUSH2 0xC3B JUMPI DUP3 DUP8 ADD MLOAD SWAP1 POP JUMPDEST PUSH2 0xC45 DUP6 DUP3 PUSH2 0xBCA JUMP JUMPDEST DUP7 SSTORE POP PUSH2 0xCAC JUMP JUMPDEST PUSH1 0x1F NOT DUP5 AND PUSH2 0xC5B DUP7 PUSH2 0xA48 JUMP JUMPDEST PUSH0 JUMPDEST DUP3 DUP2 LT ISZERO PUSH2 0xC82 JUMPI DUP5 DUP10 ADD MLOAD DUP3 SSTORE PUSH1 0x1 DUP3 ADD SWAP2 POP PUSH1 0x20 DUP6 ADD SWAP5 POP PUSH1 0x20 DUP2 ADD SWAP1 POP PUSH2 0xC5D JUMP JUMPDEST DUP7 DUP4 LT ISZERO PUSH2 0xC9F JUMPI DUP5 DUP10 ADD MLOAD PUSH2 0xC9B PUSH1 0x1F DUP10 AND DUP3 PUSH2 0xBAE JUMP JUMPDEST DUP4 SSTORE POP JUMPDEST PUSH1 0x1 PUSH1 0x2 DUP9 MUL ADD DUP9 SSTORE POP POP POP JUMPDEST POP POP POP POP POP POP JUMP JUMPDEST PUSH0 DUP2 SWAP1 POP SWAP3 SWAP2 POP POP JUMP JUMPDEST PUSH0 PUSH2 0xCC8 DUP3 PUSH2 0x7E3 JUMP JUMPDEST PUSH2 0xCD2 DUP2 DUP6 PUSH2 0xCB4 JUMP JUMPDEST SWAP4 POP PUSH2 0xCE2 DUP2 DUP6 PUSH1 0x20 DUP7 ADD PUSH2 0x7FD JUMP JUMPDEST DUP1 DUP5 ADD SWAP2 POP POP SWAP3 SWAP2 POP POP JUMP JUMPDEST PUSH0 PUSH2 0xCF9 DUP3 DUP5 PUSH2 0xCBE JUMP JUMPDEST SWAP2 POP DUP2 SWAP1 POP SWAP3 SWAP2 POP POP JUMP JUMPDEST PUSH32 0x426F756E747920646F6573206E6F742065786973740000000000000000000000 PUSH0 DUP3 ADD MSTORE POP JUMP JUMPDEST PUSH0 PUSH2 0xD38 PUSH1 0x15 DUP4 PUSH2 0x7ED JUMP JUMPDEST SWAP2 POP PUSH2 0xD43 DUP3 PUSH2 0xD04 JUMP JUMPDEST PUSH1 0x20 DUP3 ADD SWAP1 POP SWAP2 SWAP1 POP JUMP JUMPDEST PUSH0 PUSH1 0x20 DUP3 ADD SWAP1 POP DUP2 DUP2 SUB PUSH0 DUP4 ADD MSTORE PUSH2 0xD65 DUP2 PUSH2 0xD2C JUMP JUMPDEST SWAP1 POP SWAP2 SWAP1 POP JUMP INVALID LOG2 PUSH5 0x6970667358 0x22 SLT KECCAK256 0x28 0xF 0xEC 0x21 PUSH8 0x21FDE79DE77A5CA7 CALLER SWAP2 CODECOPY PUSH24 0xE3BEA9004EFE7892640520F4745DF464736F6C634300081A STOP CALLER "
				},
				"gasEstimates": {
					"creation": {
						"codeDepositCost": "698000",
						"executionCost": "732",
						"totalCost": "698732"
					},
					"external": {
						"Apply(string)": "infinite",
						"BountyIdToIndex(string)": "infinite",
						"assign(string,address)": "infinite",
						"bounties(uint256)": "infinite",
						"create(string,uint256)": "infinite"
					}
				},
				"methodIdentifiers": {
					"Apply(string)": "75234b47",
					"BountyIdToIndex(string)": "3edb9e02",
					"assign(string,address)": "f1bb7f51",
					"bounties(uint256)": "dc2f8744",
					"create(string,uint256)": "46f81a87"
				}
			},
			"storageLayout": {
				"storage": [
					{
						"astId": 22,
						"contract": "contracts/users/users_info.sol:users_info",
						"label": "bounties",
						"offset": 0,
						"slot": "0",
						"type": "t_array(t_struct(Bounties)18_storage)dyn_storage"
					},
					{
						"astId": 26,
						"contract": "contracts/users/users_info.sol:users_info",
						"label": "BountyIdToIndex",
						"offset": 0,
						"slot": "1",
						"type": "t_mapping(t_string_memory_ptr,t_uint256)"
					}
				],
				"types": {
					"t_address": {
						"encoding": "inplace",
						"label": "address",
						"numberOfBytes": "20"
					},
					"t_array(t_address)dyn_storage": {
						"base": "t_address",
						"encoding": "dynamic_array",
						"label": "address[]",
						"numberOfBytes": "32"
					},
					"t_array(t_struct(Bounties)18_storage)dyn_storage": {
						"base": "t_struct(Bounties)18_storage",
						"encoding": "dynamic_array",
						"label": "struct users_info.Bounties[]",
						"numberOfBytes": "32"
					},
					"t_mapping(t_string_memory_ptr,t_uint256)": {
						"encoding": "mapping",
						"key": "t_string_memory_ptr",
						"label": "mapping(string => uint256)",
						"numberOfBytes": "32",
						"value": "t_uint256"
					},
					"t_string_memory_ptr": {
						"encoding": "bytes",
						"label": "string",
						"numberOfBytes": "32"
					},
					"t_string_storage": {
						"encoding": "bytes",
						"label": "string",
						"numberOfBytes": "32"
					},
					"t_struct(Bounties)18_storage": {
						"encoding": "inplace",
						"label": "struct users_info.Bounties",
						"members": [
							{
								"astId": 6,
								"contract": "contracts/users/users_info.sol:users_info",
								"label": "id",
								"offset": 0,
								"slot": "0",
								"type": "t_string_storage"
							},
							{
								"astId": 8,
								"contract": "contracts/users/users_info.sol:users_info",
								"label": "amount",
								"offset": 0,
								"slot": "1",
								"type": "t_uint256"
							},
							{
								"astId": 10,
								"contract": "contracts/users/users_info.sol:users_info",
								"label": "creator",
								"offset": 0,
								"slot": "2",
								"type": "t_address"
							},
							{
								"astId": 12,
								"contract": "contracts/users/users_info.sol:users_info",
								"label": "availer",
								"offset": 0,
								"slot": "3",
								"type": "t_address"
							},
							{
								"astId": 15,
								"contract": "contracts/users/users_info.sol:users_info",
								"label": "applicants",
								"offset": 0,
								"slot": "4",
								"type": "t_array(t_address)dyn_storage"
							},
							{
								"astId": 17,
								"contract": "contracts/users/users_info.sol:users_info",
								"label": "SubmissionTime",
								"offset": 0,
								"slot": "5",
								"type": "t_uint256"
							}
						],
						"numberOfBytes": "192"
					},
					"t_uint256": {
						"encoding": "inplace",
						"label": "uint256",
						"numberOfBytes": "32"
					}
				}
			},
			"userdoc": {
				"kind": "user",
				"methods": {},
				"version": 1
			}
		}
	}
}