{
	"contracts/users/users_info.sol": {
		"users_info": {
			"abi": [
				{
					"anonymous": false,
					"inputs": [],
					"name": "BountyAvailed",
					"type": "event"
				},
				{
					"anonymous": false,
					"inputs": [],
					"name": "BountyCreated",
					"type": "event"
				},
				{
					"inputs": [
						{
							"internalType": "string",
							"name": "",
							"type": "string"
						}
					],
					"name": "BountyIdToAvailer",
					"outputs": [
						{
							"internalType": "uint256",
							"name": "",
							"type": "uint256"
						}
					],
					"stateMutability": "view",
					"type": "function"
				},
				{
					"inputs": [
						{
							"internalType": "string",
							"name": "",
							"type": "string"
						}
					],
					"name": "BountyIdToIndex",
					"outputs": [
						{
							"internalType": "uint256",
							"name": "",
							"type": "uint256"
						}
					],
					"stateMutability": "view",
					"type": "function"
				},
				{
					"inputs": [
						{
							"internalType": "string",
							"name": "id",
							"type": "string"
						},
						{
							"internalType": "string[]",
							"name": "links",
							"type": "string[]"
						},
						{
							"components": [
								{
									"internalType": "string",
									"name": "cid",
									"type": "string"
								},
								{
									"internalType": "uint256",
									"name": "size",
									"type": "uint256"
								}
							],
							"internalType": "struct users_info.File[]",
							"name": "documents",
							"type": "tuple[]"
						}
					],
					"name": "avail",
					"outputs": [],
					"stateMutability": "nonpayable",
					"type": "function"
				},
				{
					"inputs": [
						{
							"internalType": "uint256",
							"name": "",
							"type": "uint256"
						}
					],
					"name": "availers",
					"outputs": [
						{
							"internalType": "address",
							"name": "availer",
							"type": "address"
						}
					],
					"stateMutability": "view",
					"type": "function"
				},
				{
					"inputs": [
						{
							"internalType": "uint256",
							"name": "",
							"type": "uint256"
						}
					],
					"name": "bounties",
					"outputs": [
						{
							"internalType": "string",
							"name": "id",
							"type": "string"
						},
						{
							"internalType": "string",
							"name": "title",
							"type": "string"
						},
						{
							"internalType": "string",
							"name": "description",
							"type": "string"
						},
						{
							"internalType": "uint256",
							"name": "amount",
							"type": "uint256"
						},
						{
							"internalType": "address",
							"name": "creator",
							"type": "address"
						},
						{
							"internalType": "bool",
							"name": "isAvailed",
							"type": "bool"
						},
						{
							"internalType": "address",
							"name": "availer",
							"type": "address"
						}
					],
					"stateMutability": "view",
					"type": "function"
				},
				{
					"inputs": [
						{
							"internalType": "string",
							"name": "id",
							"type": "string"
						},
						{
							"internalType": "string",
							"name": "title",
							"type": "string"
						},
						{
							"internalType": "string",
							"name": "description",
							"type": "string"
						},
						{
							"internalType": "string[]",
							"name": "links",
							"type": "string[]"
						},
						{
							"components": [
								{
									"internalType": "string",
									"name": "cid",
									"type": "string"
								},
								{
									"internalType": "uint256",
									"name": "size",
									"type": "uint256"
								}
							],
							"internalType": "struct users_info.File[]",
							"name": "documents",
							"type": "tuple[]"
						},
						{
							"internalType": "uint256",
							"name": "amount",
							"type": "uint256"
						}
					],
					"name": "create",
					"outputs": [],
					"stateMutability": "nonpayable",
					"type": "function"
				}
			],
			"devdoc": {
				"kind": "dev",
				"methods": {},
				"version": 1
			},
			"evm": {
				"assembly": "    /* \"contracts/users/users_info.sol\":69:2853  contract users_info {... */\n  mstore(0x40, 0x80)\n  callvalue\n  dup1\n  iszero\n  tag_1\n  jumpi\n  0x00\n  dup1\n  revert\ntag_1:\n  pop\n  dataSize(sub_0)\n  dup1\n  dataOffset(sub_0)\n  0x00\n  codecopy\n  0x00\n  return\nstop\n\nsub_0: assembly {\n        /* \"contracts/users/users_info.sol\":69:2853  contract users_info {... */\n      mstore(0x40, 0x80)\n      callvalue\n      dup1\n      iszero\n      tag_1\n      jumpi\n      0x00\n      dup1\n      revert\n    tag_1:\n      pop\n      jumpi(tag_2, lt(calldatasize, 0x04))\n      shr(0xe0, calldataload(0x00))\n      dup1\n      0x091907c6\n      eq\n      tag_3\n      jumpi\n      dup1\n      0x18da9b12\n      eq\n      tag_4\n      jumpi\n      dup1\n      0x28fd9d6d\n      eq\n      tag_5\n      jumpi\n      dup1\n      0x3edb9e02\n      eq\n      tag_6\n      jumpi\n      dup1\n      0x6ec6884f\n      eq\n      tag_7\n      jumpi\n      dup1\n      0xdc2f8744\n      eq\n      tag_8\n      jumpi\n    tag_2:\n      0x00\n      dup1\n      revert\n        /* \"contracts/users/users_info.sol\":1854:2849  function avail(... */\n    tag_3:\n      tag_9\n      0x04\n      dup1\n      calldatasize\n      sub\n      dup2\n      add\n      swap1\n      tag_10\n      swap2\n      swap1\n      tag_11\n      jump\t// in\n    tag_10:\n      tag_12\n      jump\t// in\n    tag_9:\n      stop\n        /* \"contracts/users/users_info.sol\":764:815  mapping(string => uint256) public BountyIdToAvailer */\n    tag_4:\n      tag_13\n      0x04\n      dup1\n      calldatasize\n      sub\n      dup2\n      add\n      swap1\n      tag_14\n      swap2\n      swap1\n      tag_15\n      jump\t// in\n    tag_14:\n      tag_16\n      jump\t// in\n    tag_13:\n      mload(0x40)\n      tag_17\n      swap2\n      swap1\n      tag_18\n      jump\t// in\n    tag_17:\n      mload(0x40)\n      dup1\n      swap2\n      sub\n      swap1\n      return\n        /* \"contracts/users/users_info.sol\":822:1847  function create(... */\n    tag_5:\n      tag_19\n      0x04\n      dup1\n      calldatasize\n      sub\n      dup2\n      add\n      swap1\n      tag_20\n      swap2\n      swap1\n      tag_21\n      jump\t// in\n    tag_20:\n      tag_22\n      jump\t// in\n    tag_19:\n      stop\n        /* \"contracts/users/users_info.sol\":708:757  mapping(string => uint256) public BountyIdToIndex */\n    tag_6:\n      tag_23\n      0x04\n      dup1\n      calldatasize\n      sub\n      dup2\n      add\n      swap1\n      tag_24\n      swap2\n      swap1\n      tag_15\n      jump\t// in\n    tag_24:\n      tag_25\n      jump\t// in\n    tag_23:\n      mload(0x40)\n      tag_26\n      swap2\n      swap1\n      tag_18\n      jump\t// in\n    tag_26:\n      mload(0x40)\n      dup1\n      swap2\n      sub\n      swap1\n      return\n        /* \"contracts/users/users_info.sol\":676:701  Availer[] public availers */\n    tag_7:\n      tag_27\n      0x04\n      dup1\n      calldatasize\n      sub\n      dup2\n      add\n      swap1\n      tag_28\n      swap2\n      swap1\n      tag_29\n      jump\t// in\n    tag_28:\n      tag_30\n      jump\t// in\n    tag_27:\n      mload(0x40)\n      tag_31\n      swap2\n      swap1\n      tag_32\n      jump\t// in\n    tag_31:\n      mload(0x40)\n      dup1\n      swap2\n      sub\n      swap1\n      return\n        /* \"contracts/users/users_info.sol\":644:670  Bounties[] public bounties */\n    tag_8:\n      tag_33\n      0x04\n      dup1\n      calldatasize\n      sub\n      dup2\n      add\n      swap1\n      tag_34\n      swap2\n      swap1\n      tag_29\n      jump\t// in\n    tag_34:\n      tag_35\n      jump\t// in\n    tag_33:\n      mload(0x40)\n      tag_36\n      swap8\n      swap7\n      swap6\n      swap5\n      swap4\n      swap3\n      swap2\n      swap1\n      tag_37\n      jump\t// in\n    tag_36:\n      mload(0x40)\n      dup1\n      swap2\n      sub\n      swap1\n      return\n        /* \"contracts/users/users_info.sol\":1854:2849  function avail(... */\n    tag_12:\n        /* \"contracts/users/users_info.sol\":2058:2059  0 */\n      0x00\n        /* \"contracts/users/users_info.sol\":2035:2050  BountyIdToIndex */\n      0x02\n        /* \"contracts/users/users_info.sol\":2051:2053  id */\n      dup5\n        /* \"contracts/users/users_info.sol\":2035:2054  BountyIdToIndex[id] */\n      mload(0x40)\n      tag_39\n      swap2\n      swap1\n      tag_40\n      jump\t// in\n    tag_39:\n      swap1\n      dup2\n      mstore\n      0x20\n      add\n      mload(0x40)\n      dup1\n      swap2\n      sub\n      swap1\n      keccak256\n      sload\n        /* \"contracts/users/users_info.sol\":2035:2059  BountyIdToIndex[id] != 0 */\n      sub\n        /* \"contracts/users/users_info.sol\":2027:2085  require(BountyIdToIndex[id] != 0, \"Bounty does not exist\") */\n      tag_41\n      jumpi\n      mload(0x40)\n      0x08c379a000000000000000000000000000000000000000000000000000000000\n      dup2\n      mstore\n      0x04\n      add\n      tag_42\n      swap1\n      tag_43\n      jump\t// in\n    tag_42:\n      mload(0x40)\n      dup1\n      swap2\n      sub\n      swap1\n      revert\n    tag_41:\n        /* \"contracts/users/users_info.sol\":2096:2109  uint256 index */\n      0x00\n        /* \"contracts/users/users_info.sol\":2134:2135  1 */\n      0x01\n        /* \"contracts/users/users_info.sol\":2112:2127  BountyIdToIndex */\n      0x02\n        /* \"contracts/users/users_info.sol\":2128:2130  id */\n      dup6\n        /* \"contracts/users/users_info.sol\":2112:2131  BountyIdToIndex[id] */\n      mload(0x40)\n      tag_44\n      swap2\n      swap1\n      tag_40\n      jump\t// in\n    tag_44:\n      swap1\n      dup2\n      mstore\n      0x20\n      add\n      mload(0x40)\n      dup1\n      swap2\n      sub\n      swap1\n      keccak256\n      sload\n        /* \"contracts/users/users_info.sol\":2112:2135  BountyIdToIndex[id] - 1 */\n      tag_45\n      swap2\n      swap1\n      tag_46\n      jump\t// in\n    tag_45:\n        /* \"contracts/users/users_info.sol\":2096:2135  uint256 index = BountyIdToIndex[id] - 1 */\n      swap1\n      pop\n        /* \"contracts/users/users_info.sol\":2146:2169  Bounties storage bounty */\n      0x00\n        /* \"contracts/users/users_info.sol\":2172:2180  bounties */\n      dup1\n        /* \"contracts/users/users_info.sol\":2181:2186  index */\n      dup3\n        /* \"contracts/users/users_info.sol\":2172:2187  bounties[index] */\n      dup2\n      sload\n      dup2\n      lt\n      tag_47\n      jumpi\n      tag_48\n      tag_49\n      jump\t// in\n    tag_48:\n    tag_47:\n      swap1\n      0x00\n      mstore\n      keccak256(0x00, 0x20)\n      swap1\n      0x08\n      mul\n      add\n        /* \"contracts/users/users_info.sol\":2146:2187  Bounties storage bounty = bounties[index] */\n      swap1\n      pop\n        /* \"contracts/users/users_info.sol\":2207:2213  bounty */\n      dup1\n        /* \"contracts/users/users_info.sol\":2207:2223  bounty.isAvailed */\n      0x06\n      add\n      0x14\n      swap1\n      sload\n      swap1\n      0x0100\n      exp\n      swap1\n      div\n      0xff\n      and\n        /* \"contracts/users/users_info.sol\":2206:2223  !bounty.isAvailed */\n      iszero\n        /* \"contracts/users/users_info.sol\":2198:2254  require(!bounty.isAvailed , \"Bounty is already availed\") */\n      tag_51\n      jumpi\n      mload(0x40)\n      0x08c379a000000000000000000000000000000000000000000000000000000000\n      dup2\n      mstore\n      0x04\n      add\n      tag_52\n      swap1\n      tag_53\n      jump\t// in\n    tag_52:\n      mload(0x40)\n      dup1\n      swap2\n      sub\n      swap1\n      revert\n    tag_51:\n        /* \"contracts/users/users_info.sol\":2307:2315  availers */\n      0x01\n        /* \"contracts/users/users_info.sol\":2307:2322  availers.push() */\n      dup1\n      dup2\n      0x01\n      dup2\n      sload\n      add\n      dup1\n      dup3\n      sstore\n      dup1\n      swap2\n      pop\n      pop\n      sub\n      swap1\n      0x00\n      mstore\n      keccak256(0x00, 0x20)\n      swap1\n      pop\n      pop\n        /* \"contracts/users/users_info.sol\":2332:2358  Availer storage newAvailer */\n      0x00\n        /* \"contracts/users/users_info.sol\":2361:2369  availers */\n      0x01\n        /* \"contracts/users/users_info.sol\":2386:2387  1 */\n      dup1\n        /* \"contracts/users/users_info.sol\":2370:2378  availers */\n      dup1\n        /* \"contracts/users/users_info.sol\":2370:2385  availers.length */\n      dup1\n      sload\n      swap1\n      pop\n        /* \"contracts/users/users_info.sol\":2370:2387  availers.length-1 */\n      tag_55\n      swap2\n      swap1\n      tag_46\n      jump\t// in\n    tag_55:\n        /* \"contracts/users/users_info.sol\":2361:2388  availers[availers.length-1] */\n      dup2\n      sload\n      dup2\n      lt\n      tag_56\n      jumpi\n      tag_57\n      tag_49\n      jump\t// in\n    tag_57:\n    tag_56:\n      swap1\n      0x00\n      mstore\n      keccak256(0x00, 0x20)\n      swap1\n      0x03\n      mul\n      add\n        /* \"contracts/users/users_info.sol\":2332:2388  Availer storage newAvailer = availers[availers.length-1] */\n      swap1\n      pop\n        /* \"contracts/users/users_info.sol\":2420:2430  msg.sender */\n      caller\n        /* \"contracts/users/users_info.sol\":2399:2409  newAvailer */\n      dup2\n        /* \"contracts/users/users_info.sol\":2399:2417  newAvailer.availer */\n      0x00\n      add\n      0x00\n        /* \"contracts/users/users_info.sol\":2399:2430  newAvailer.availer = msg.sender */\n      0x0100\n      exp\n      dup2\n      sload\n      dup2\n      0xffffffffffffffffffffffffffffffffffffffff\n      mul\n      not\n      and\n      swap1\n      dup4\n      0xffffffffffffffffffffffffffffffffffffffff\n      and\n      mul\n      or\n      swap1\n      sstore\n      pop\n        /* \"contracts/users/users_info.sol\":2445:2454  uint256 i */\n      0x00\n        /* \"contracts/users/users_info.sol\":2441:2537  for(uint256 i = 0; i<links.length; i++) {... */\n    tag_59:\n        /* \"contracts/users/users_info.sol\":2462:2467  links */\n      dup6\n        /* \"contracts/users/users_info.sol\":2462:2474  links.length */\n      mload\n        /* \"contracts/users/users_info.sol\":2460:2461  i */\n      dup2\n        /* \"contracts/users/users_info.sol\":2460:2474  i<links.length */\n      lt\n        /* \"contracts/users/users_info.sol\":2441:2537  for(uint256 i = 0; i<links.length; i++) {... */\n      iszero\n      tag_60\n      jumpi\n        /* \"contracts/users/users_info.sol\":2495:2505  newAvailer */\n      dup2\n        /* \"contracts/users/users_info.sol\":2495:2511  newAvailer.links */\n      0x02\n      add\n        /* \"contracts/users/users_info.sol\":2517:2522  links */\n      dup7\n        /* \"contracts/users/users_info.sol\":2523:2524  i */\n      dup3\n        /* \"contracts/users/users_info.sol\":2517:2525  links[i] */\n      dup2\n      mload\n      dup2\n      lt\n      tag_62\n      jumpi\n      tag_63\n      tag_49\n      jump\t// in\n    tag_63:\n    tag_62:\n      0x20\n      mul\n      0x20\n      add\n      add\n      mload\n        /* \"contracts/users/users_info.sol\":2495:2526  newAvailer.links.push(links[i]) */\n      swap1\n      dup1\n      0x01\n      dup2\n      sload\n      add\n      dup1\n      dup3\n      sstore\n      dup1\n      swap2\n      pop\n      pop\n      0x01\n      swap1\n      sub\n      swap1\n      0x00\n      mstore\n      keccak256(0x00, 0x20)\n      add\n      0x00\n      swap1\n      swap2\n      swap1\n      swap2\n      swap1\n      swap2\n      pop\n      swap1\n      dup2\n      tag_65\n      swap2\n      swap1\n      tag_66\n      jump\t// in\n    tag_65:\n      pop\n        /* \"contracts/users/users_info.sol\":2476:2479  i++ */\n      dup1\n      dup1\n      0x01\n      add\n      swap2\n      pop\n      pop\n        /* \"contracts/users/users_info.sol\":2441:2537  for(uint256 i = 0; i<links.length; i++) {... */\n      jump(tag_59)\n    tag_60:\n      pop\n        /* \"contracts/users/users_info.sol\":2551:2560  uint256 i */\n      0x00\n        /* \"contracts/users/users_info.sol\":2547:2655  for(uint256 i = 0; i<documents.length; i++) {... */\n    tag_67:\n        /* \"contracts/users/users_info.sol\":2568:2577  documents */\n      dup5\n        /* \"contracts/users/users_info.sol\":2568:2584  documents.length */\n      mload\n        /* \"contracts/users/users_info.sol\":2566:2567  i */\n      dup2\n        /* \"contracts/users/users_info.sol\":2566:2584  i<documents.length */\n      lt\n        /* \"contracts/users/users_info.sol\":2547:2655  for(uint256 i = 0; i<documents.length; i++) {... */\n      iszero\n      tag_68\n      jumpi\n        /* \"contracts/users/users_info.sol\":2605:2615  newAvailer */\n      dup2\n        /* \"contracts/users/users_info.sol\":2605:2625  newAvailer.documents */\n      0x01\n      add\n        /* \"contracts/users/users_info.sol\":2631:2640  documents */\n      dup6\n        /* \"contracts/users/users_info.sol\":2641:2642  i */\n      dup3\n        /* \"contracts/users/users_info.sol\":2631:2643  documents[i] */\n      dup2\n      mload\n      dup2\n      lt\n      tag_70\n      jumpi\n      tag_71\n      tag_49\n      jump\t// in\n    tag_71:\n    tag_70:\n      0x20\n      mul\n      0x20\n      add\n      add\n      mload\n        /* \"contracts/users/users_info.sol\":2605:2644  newAvailer.documents.push(documents[i]) */\n      swap1\n      dup1\n      0x01\n      dup2\n      sload\n      add\n      dup1\n      dup3\n      sstore\n      dup1\n      swap2\n      pop\n      pop\n      0x01\n      swap1\n      sub\n      swap1\n      0x00\n      mstore\n      keccak256(0x00, 0x20)\n      swap1\n      0x02\n      mul\n      add\n      0x00\n      swap1\n      swap2\n      swap1\n      swap2\n      swap1\n      swap2\n      pop\n      0x00\n      dup3\n      add\n      mload\n      dup2\n      0x00\n      add\n      swap1\n      dup2\n      tag_73\n      swap2\n      swap1\n      tag_66\n      jump\t// in\n    tag_73:\n      pop\n      0x20\n      dup3\n      add\n      mload\n      dup2\n      0x01\n      add\n      sstore\n      pop\n      pop\n        /* \"contracts/users/users_info.sol\":2586:2589  i++ */\n      dup1\n      dup1\n      0x01\n      add\n      swap2\n      pop\n      pop\n        /* \"contracts/users/users_info.sol\":2547:2655  for(uint256 i = 0; i<documents.length; i++) {... */\n      jump(tag_67)\n    tag_68:\n      pop\n        /* \"contracts/users/users_info.sol\":2720:2724  true */\n      0x01\n        /* \"contracts/users/users_info.sol\":2701:2707  bounty */\n      dup3\n        /* \"contracts/users/users_info.sol\":2701:2717  bounty.isAvailed */\n      0x06\n      add\n      0x14\n        /* \"contracts/users/users_info.sol\":2701:2724  bounty.isAvailed = true */\n      0x0100\n      exp\n      dup2\n      sload\n      dup2\n      0xff\n      mul\n      not\n      and\n      swap1\n      dup4\n      iszero\n      iszero\n      mul\n      or\n      swap1\n      sstore\n      pop\n        /* \"contracts/users/users_info.sol\":2751:2761  msg.sender */\n      caller\n        /* \"contracts/users/users_info.sol\":2734:2740  bounty */\n      dup3\n        /* \"contracts/users/users_info.sol\":2734:2748  bounty.availer */\n      0x07\n      add\n      0x00\n        /* \"contracts/users/users_info.sol\":2734:2761  bounty.availer = msg.sender */\n      0x0100\n      exp\n      dup2\n      sload\n      dup2\n      0xffffffffffffffffffffffffffffffffffffffff\n      mul\n      not\n      and\n      swap1\n      dup4\n      0xffffffffffffffffffffffffffffffffffffffff\n      and\n      mul\n      or\n      swap1\n      sstore\n      pop\n        /* \"contracts/users/users_info.sol\":2796:2804  availers */\n      0x01\n        /* \"contracts/users/users_info.sol\":2796:2811  availers.length */\n      dup1\n      sload\n      swap1\n      pop\n        /* \"contracts/users/users_info.sol\":2772:2789  BountyIdToAvailer */\n      0x03\n        /* \"contracts/users/users_info.sol\":2790:2792  id */\n      dup8\n        /* \"contracts/users/users_info.sol\":2772:2793  BountyIdToAvailer[id] */\n      mload(0x40)\n      tag_74\n      swap2\n      swap1\n      tag_40\n      jump\t// in\n    tag_74:\n      swap1\n      dup2\n      mstore\n      0x20\n      add\n      mload(0x40)\n      dup1\n      swap2\n      sub\n      swap1\n      keccak256\n        /* \"contracts/users/users_info.sol\":2772:2811  BountyIdToAvailer[id] = availers.length */\n      dup2\n      swap1\n      sstore\n      pop\n        /* \"contracts/users/users_info.sol\":2827:2842  BountyAvailed() */\n      0x1c3e67c4ec352916daab0edfab1f8f78f6e600cb5833b3df9f929b0df4daafc6\n      mload(0x40)\n      mload(0x40)\n      dup1\n      swap2\n      sub\n      swap1\n      log1\n        /* \"contracts/users/users_info.sol\":1972:2849  {... */\n      pop\n      pop\n      pop\n        /* \"contracts/users/users_info.sol\":1854:2849  function avail(... */\n      pop\n      pop\n      pop\n      jump\t// out\n        /* \"contracts/users/users_info.sol\":764:815  mapping(string => uint256) public BountyIdToAvailer */\n    tag_16:\n      0x03\n      dup2\n      dup1\n      mload\n      0x20\n      dup2\n      add\n      dup3\n      add\n      dup1\n      mload\n      dup5\n      dup3\n      mstore\n      0x20\n      dup4\n      add\n      0x20\n      dup6\n      add\n      keccak256\n      dup2\n      dup4\n      mstore\n      dup1\n      swap6\n      pop\n      pop\n      pop\n      pop\n      pop\n      pop\n      0x00\n      swap2\n      pop\n      swap1\n      pop\n      sload\n      dup2\n      jump\t// out\n        /* \"contracts/users/users_info.sol\":822:1847  function create(... */\n    tag_22:\n        /* \"contracts/users/users_info.sol\":1083:1091  bounties */\n      0x00\n        /* \"contracts/users/users_info.sol\":1083:1098  bounties.push() */\n      0x01\n      dup2\n      0x01\n      dup2\n      sload\n      add\n      dup1\n      dup3\n      sstore\n      dup1\n      swap2\n      pop\n      pop\n      sub\n      swap1\n      0x00\n      mstore\n      keccak256(0x00, 0x20)\n      swap1\n      pop\n      pop\n        /* \"contracts/users/users_info.sol\":1108:1134  Bounties storage newBounty */\n      0x00\n        /* \"contracts/users/users_info.sol\":1137:1145  bounties */\n      dup1\n        /* \"contracts/users/users_info.sol\":1164:1165  1 */\n      0x01\n        /* \"contracts/users/users_info.sol\":1146:1154  bounties */\n      0x00\n        /* \"contracts/users/users_info.sol\":1146:1161  bounties.length */\n      dup1\n      sload\n      swap1\n      pop\n        /* \"contracts/users/users_info.sol\":1146:1165  bounties.length - 1 */\n      tag_77\n      swap2\n      swap1\n      tag_46\n      jump\t// in\n    tag_77:\n        /* \"contracts/users/users_info.sol\":1137:1166  bounties[bounties.length - 1] */\n      dup2\n      sload\n      dup2\n      lt\n      tag_78\n      jumpi\n      tag_79\n      tag_49\n      jump\t// in\n    tag_79:\n    tag_78:\n      swap1\n      0x00\n      mstore\n      keccak256(0x00, 0x20)\n      swap1\n      0x08\n      mul\n      add\n        /* \"contracts/users/users_info.sol\":1108:1166  Bounties storage newBounty = bounties[bounties.length - 1] */\n      swap1\n      pop\n        /* \"contracts/users/users_info.sol\":1192:1194  id */\n      dup7\n        /* \"contracts/users/users_info.sol\":1177:1186  newBounty */\n      dup2\n        /* \"contracts/users/users_info.sol\":1177:1189  newBounty.id */\n      0x00\n      add\n        /* \"contracts/users/users_info.sol\":1177:1194  newBounty.id = id */\n      swap1\n      dup2\n      tag_81\n      swap2\n      swap1\n      tag_66\n      jump\t// in\n    tag_81:\n      pop\n        /* \"contracts/users/users_info.sol\":1222:1227  title */\n      dup6\n        /* \"contracts/users/users_info.sol\":1204:1213  newBounty */\n      dup2\n        /* \"contracts/users/users_info.sol\":1204:1219  newBounty.title */\n      0x01\n      add\n        /* \"contracts/users/users_info.sol\":1204:1227  newBounty.title = title */\n      swap1\n      dup2\n      tag_82\n      swap2\n      swap1\n      tag_66\n      jump\t// in\n    tag_82:\n      pop\n        /* \"contracts/users/users_info.sol\":1261:1272  description */\n      dup5\n        /* \"contracts/users/users_info.sol\":1237:1246  newBounty */\n      dup2\n        /* \"contracts/users/users_info.sol\":1237:1258  newBounty.description */\n      0x02\n      add\n        /* \"contracts/users/users_info.sol\":1237:1272  newBounty.description = description */\n      swap1\n      dup2\n      tag_83\n      swap2\n      swap1\n      tag_66\n      jump\t// in\n    tag_83:\n      pop\n        /* \"contracts/users/users_info.sol\":1301:1307  amount */\n      dup2\n        /* \"contracts/users/users_info.sol\":1282:1291  newBounty */\n      dup2\n        /* \"contracts/users/users_info.sol\":1282:1298  newBounty.amount */\n      0x05\n      add\n        /* \"contracts/users/users_info.sol\":1282:1307  newBounty.amount = amount */\n      dup2\n      swap1\n      sstore\n      pop\n        /* \"contracts/users/users_info.sol\":1337:1347  msg.sender */\n      caller\n        /* \"contracts/users/users_info.sol\":1317:1326  newBounty */\n      dup2\n        /* \"contracts/users/users_info.sol\":1317:1334  newBounty.creator */\n      0x06\n      add\n      0x00\n        /* \"contracts/users/users_info.sol\":1317:1347  newBounty.creator = msg.sender */\n      0x0100\n      exp\n      dup2\n      sload\n      dup2\n      0xffffffffffffffffffffffffffffffffffffffff\n      mul\n      not\n      and\n      swap1\n      dup4\n      0xffffffffffffffffffffffffffffffffffffffff\n      and\n      mul\n      or\n      swap1\n      sstore\n      pop\n        /* \"contracts/users/users_info.sol\":1379:1384  false */\n      0x00\n        /* \"contracts/users/users_info.sol\":1357:1366  newBounty */\n      dup2\n        /* \"contracts/users/users_info.sol\":1357:1376  newBounty.isAvailed */\n      0x06\n      add\n      0x14\n        /* \"contracts/users/users_info.sol\":1357:1384  newBounty.isAvailed = false */\n      0x0100\n      exp\n      dup2\n      sload\n      dup2\n      0xff\n      mul\n      not\n      and\n      swap1\n      dup4\n      iszero\n      iszero\n      mul\n      or\n      swap1\n      sstore\n      pop\n        /* \"contracts/users/users_info.sol\":1422:1423  0 */\n      0x00\n        /* \"contracts/users/users_info.sol\":1394:1403  newBounty */\n      dup2\n        /* \"contracts/users/users_info.sol\":1394:1411  newBounty.availer */\n      0x07\n      add\n      0x00\n        /* \"contracts/users/users_info.sol\":1394:1424  newBounty.availer = address(0) */\n      0x0100\n      exp\n      dup2\n      sload\n      dup2\n      0xffffffffffffffffffffffffffffffffffffffff\n      mul\n      not\n      and\n      swap1\n      dup4\n      0xffffffffffffffffffffffffffffffffffffffff\n      and\n      mul\n      or\n      swap1\n      sstore\n      pop\n        /* \"contracts/users/users_info.sol\":1439:1448  uint256 i */\n      0x00\n        /* \"contracts/users/users_info.sol\":1435:1532  for(uint256 i = 0; i < links.length; i++) {... */\n    tag_84:\n        /* \"contracts/users/users_info.sol\":1458:1463  links */\n      dup5\n        /* \"contracts/users/users_info.sol\":1458:1470  links.length */\n      mload\n        /* \"contracts/users/users_info.sol\":1454:1455  i */\n      dup2\n        /* \"contracts/users/users_info.sol\":1454:1470  i < links.length */\n      lt\n        /* \"contracts/users/users_info.sol\":1435:1532  for(uint256 i = 0; i < links.length; i++) {... */\n      iszero\n      tag_85\n      jumpi\n        /* \"contracts/users/users_info.sol\":1491:1500  newBounty */\n      dup2\n        /* \"contracts/users/users_info.sol\":1491:1506  newBounty.links */\n      0x03\n      add\n        /* \"contracts/users/users_info.sol\":1512:1517  links */\n      dup6\n        /* \"contracts/users/users_info.sol\":1518:1519  i */\n      dup3\n        /* \"contracts/users/users_info.sol\":1512:1520  links[i] */\n      dup2\n      mload\n      dup2\n      lt\n      tag_87\n      jumpi\n      tag_88\n      tag_49\n      jump\t// in\n    tag_88:\n    tag_87:\n      0x20\n      mul\n      0x20\n      add\n      add\n      mload\n        /* \"contracts/users/users_info.sol\":1491:1521  newBounty.links.push(links[i]) */\n      swap1\n      dup1\n      0x01\n      dup2\n      sload\n      add\n      dup1\n      dup3\n      sstore\n      dup1\n      swap2\n      pop\n      pop\n      0x01\n      swap1\n      sub\n      swap1\n      0x00\n      mstore\n      keccak256(0x00, 0x20)\n      add\n      0x00\n      swap1\n      swap2\n      swap1\n      swap2\n      swap1\n      swap2\n      pop\n      swap1\n      dup2\n      tag_90\n      swap2\n      swap1\n      tag_66\n      jump\t// in\n    tag_90:\n      pop\n        /* \"contracts/users/users_info.sol\":1472:1475  i++ */\n      dup1\n      dup1\n      0x01\n      add\n      swap2\n      pop\n      pop\n        /* \"contracts/users/users_info.sol\":1435:1532  for(uint256 i = 0; i < links.length; i++) {... */\n      jump(tag_84)\n    tag_85:\n      pop\n        /* \"contracts/users/users_info.sol\":1546:1555  uint256 i */\n      0x00\n        /* \"contracts/users/users_info.sol\":1542:1651  for(uint256 i = 0; i < documents.length; i++) {... */\n    tag_91:\n        /* \"contracts/users/users_info.sol\":1565:1574  documents */\n      dup4\n        /* \"contracts/users/users_info.sol\":1565:1581  documents.length */\n      mload\n        /* \"contracts/users/users_info.sol\":1561:1562  i */\n      dup2\n        /* \"contracts/users/users_info.sol\":1561:1581  i < documents.length */\n      lt\n        /* \"contracts/users/users_info.sol\":1542:1651  for(uint256 i = 0; i < documents.length; i++) {... */\n      iszero\n      tag_92\n      jumpi\n        /* \"contracts/users/users_info.sol\":1602:1611  newBounty */\n      dup2\n        /* \"contracts/users/users_info.sol\":1602:1621  newBounty.documents */\n      0x04\n      add\n        /* \"contracts/users/users_info.sol\":1627:1636  documents */\n      dup5\n        /* \"contracts/users/users_info.sol\":1637:1638  i */\n      dup3\n        /* \"contracts/users/users_info.sol\":1627:1639  documents[i] */\n      dup2\n      mload\n      dup2\n      lt\n      tag_94\n      jumpi\n      tag_95\n      tag_49\n      jump\t// in\n    tag_95:\n    tag_94:\n      0x20\n      mul\n      0x20\n      add\n      add\n      mload\n        /* \"contracts/users/users_info.sol\":1602:1640  newBounty.documents.push(documents[i]) */\n      swap1\n      dup1\n      0x01\n      dup2\n      sload\n      add\n      dup1\n      dup3\n      sstore\n      dup1\n      swap2\n      pop\n      pop\n      0x01\n      swap1\n      sub\n      swap1\n      0x00\n      mstore\n      keccak256(0x00, 0x20)\n      swap1\n      0x02\n      mul\n      add\n      0x00\n      swap1\n      swap2\n      swap1\n      swap2\n      swap1\n      swap2\n      pop\n      0x00\n      dup3\n      add\n      mload\n      dup2\n      0x00\n      add\n      swap1\n      dup2\n      tag_97\n      swap2\n      swap1\n      tag_66\n      jump\t// in\n    tag_97:\n      pop\n      0x20\n      dup3\n      add\n      mload\n      dup2\n      0x01\n      add\n      sstore\n      pop\n      pop\n        /* \"contracts/users/users_info.sol\":1583:1586  i++ */\n      dup1\n      dup1\n      0x01\n      add\n      swap2\n      pop\n      pop\n        /* \"contracts/users/users_info.sol\":1542:1651  for(uint256 i = 0; i < documents.length; i++) {... */\n      jump(tag_91)\n    tag_92:\n      pop\n        /* \"contracts/users/users_info.sol\":1683:1691  bounties */\n      0x00\n        /* \"contracts/users/users_info.sol\":1683:1698  bounties.length */\n      dup1\n      sload\n      swap1\n      pop\n        /* \"contracts/users/users_info.sol\":1661:1676  BountyIdToIndex */\n      0x02\n        /* \"contracts/users/users_info.sol\":1677:1679  id */\n      dup9\n        /* \"contracts/users/users_info.sol\":1661:1680  BountyIdToIndex[id] */\n      mload(0x40)\n      tag_98\n      swap2\n      swap1\n      tag_40\n      jump\t// in\n    tag_98:\n      swap1\n      dup2\n      mstore\n      0x20\n      add\n      mload(0x40)\n      dup1\n      swap2\n      sub\n      swap1\n      keccak256\n        /* \"contracts/users/users_info.sol\":1661:1698  BountyIdToIndex[id] = bounties.length */\n      dup2\n      swap1\n      sstore\n      pop\n        /* \"contracts/users/users_info.sol\":1816:1831  BountyCreated() */\n      0x305ac49f0fd058ac0c830a3a5a104a5531acafef3f3d8fecf3dfbe52e0e45214\n      mload(0x40)\n      mload(0x40)\n      dup1\n      swap2\n      sub\n      swap1\n      log1\n        /* \"contracts/users/users_info.sol\":1030:1847  {... */\n      pop\n        /* \"contracts/users/users_info.sol\":822:1847  function create(... */\n      pop\n      pop\n      pop\n      pop\n      pop\n      pop\n      jump\t// out\n        /* \"contracts/users/users_info.sol\":708:757  mapping(string => uint256) public BountyIdToIndex */\n    tag_25:\n      0x02\n      dup2\n      dup1\n      mload\n      0x20\n      dup2\n      add\n      dup3\n      add\n      dup1\n      mload\n      dup5\n      dup3\n      mstore\n      0x20\n      dup4\n      add\n      0x20\n      dup6\n      add\n      keccak256\n      dup2\n      dup4\n      mstore\n      dup1\n      swap6\n      pop\n      pop\n      pop\n      pop\n      pop\n      pop\n      0x00\n      swap2\n      pop\n      swap1\n      pop\n      sload\n      dup2\n      jump\t// out\n        /* \"contracts/users/users_info.sol\":676:701  Availer[] public availers */\n    tag_30:\n      0x01\n      dup2\n      dup2\n      sload\n      dup2\n      lt\n      tag_99\n      jumpi\n      0x00\n      dup1\n      revert\n    tag_99:\n      swap1\n      0x00\n      mstore\n      keccak256(0x00, 0x20)\n      swap1\n      0x03\n      mul\n      add\n      0x00\n      swap2\n      pop\n      swap1\n      pop\n      dup1\n      0x00\n      add\n      0x00\n      swap1\n      sload\n      swap1\n      0x0100\n      exp\n      swap1\n      div\n      0xffffffffffffffffffffffffffffffffffffffff\n      and\n      swap1\n      pop\n      dup2\n      jump\t// out\n        /* \"contracts/users/users_info.sol\":644:670  Bounties[] public bounties */\n    tag_35:\n      0x00\n      dup2\n      dup2\n      sload\n      dup2\n      lt\n      tag_101\n      jumpi\n      0x00\n      dup1\n      revert\n    tag_101:\n      swap1\n      0x00\n      mstore\n      keccak256(0x00, 0x20)\n      swap1\n      0x08\n      mul\n      add\n      0x00\n      swap2\n      pop\n      swap1\n      pop\n      dup1\n      0x00\n      add\n      dup1\n      sload\n      tag_103\n      swap1\n      tag_104\n      jump\t// in\n    tag_103:\n      dup1\n      0x1f\n      add\n      0x20\n      dup1\n      swap2\n      div\n      mul\n      0x20\n      add\n      mload(0x40)\n      swap1\n      dup2\n      add\n      0x40\n      mstore\n      dup1\n      swap3\n      swap2\n      swap1\n      dup2\n      dup2\n      mstore\n      0x20\n      add\n      dup3\n      dup1\n      sload\n      tag_105\n      swap1\n      tag_104\n      jump\t// in\n    tag_105:\n      dup1\n      iszero\n      tag_106\n      jumpi\n      dup1\n      0x1f\n      lt\n      tag_107\n      jumpi\n      0x0100\n      dup1\n      dup4\n      sload\n      div\n      mul\n      dup4\n      mstore\n      swap2\n      0x20\n      add\n      swap2\n      jump(tag_106)\n    tag_107:\n      dup3\n      add\n      swap2\n      swap1\n      0x00\n      mstore\n      keccak256(0x00, 0x20)\n      swap1\n    tag_108:\n      dup2\n      sload\n      dup2\n      mstore\n      swap1\n      0x01\n      add\n      swap1\n      0x20\n      add\n      dup1\n      dup4\n      gt\n      tag_108\n      jumpi\n      dup3\n      swap1\n      sub\n      0x1f\n      and\n      dup3\n      add\n      swap2\n    tag_106:\n      pop\n      pop\n      pop\n      pop\n      pop\n      swap1\n      dup1\n      0x01\n      add\n      dup1\n      sload\n      tag_109\n      swap1\n      tag_104\n      jump\t// in\n    tag_109:\n      dup1\n      0x1f\n      add\n      0x20\n      dup1\n      swap2\n      div\n      mul\n      0x20\n      add\n      mload(0x40)\n      swap1\n      dup2\n      add\n      0x40\n      mstore\n      dup1\n      swap3\n      swap2\n      swap1\n      dup2\n      dup2\n      mstore\n      0x20\n      add\n      dup3\n      dup1\n      sload\n      tag_110\n      swap1\n      tag_104\n      jump\t// in\n    tag_110:\n      dup1\n      iszero\n      tag_111\n      jumpi\n      dup1\n      0x1f\n      lt\n      tag_112\n      jumpi\n      0x0100\n      dup1\n      dup4\n      sload\n      div\n      mul\n      dup4\n      mstore\n      swap2\n      0x20\n      add\n      swap2\n      jump(tag_111)\n    tag_112:\n      dup3\n      add\n      swap2\n      swap1\n      0x00\n      mstore\n      keccak256(0x00, 0x20)\n      swap1\n    tag_113:\n      dup2\n      sload\n      dup2\n      mstore\n      swap1\n      0x01\n      add\n      swap1\n      0x20\n      add\n      dup1\n      dup4\n      gt\n      tag_113\n      jumpi\n      dup3\n      swap1\n      sub\n      0x1f\n      and\n      dup3\n      add\n      swap2\n    tag_111:\n      pop\n      pop\n      pop\n      pop\n      pop\n      swap1\n      dup1\n      0x02\n      add\n      dup1\n      sload\n      tag_114\n      swap1\n      tag_104\n      jump\t// in\n    tag_114:\n      dup1\n      0x1f\n      add\n      0x20\n      dup1\n      swap2\n      div\n      mul\n      0x20\n      add\n      mload(0x40)\n      swap1\n      dup2\n      add\n      0x40\n      mstore\n      dup1\n      swap3\n      swap2\n      swap1\n      dup2\n      dup2\n      mstore\n      0x20\n      add\n      dup3\n      dup1\n      sload\n      tag_115\n      swap1\n      tag_104\n      jump\t// in\n    tag_115:\n      dup1\n      iszero\n      tag_116\n      jumpi\n      dup1\n      0x1f\n      lt\n      tag_117\n      jumpi\n      0x0100\n      dup1\n      dup4\n      sload\n      div\n      mul\n      dup4\n      mstore\n      swap2\n      0x20\n      add\n      swap2\n      jump(tag_116)\n    tag_117:\n      dup3\n      add\n      swap2\n      swap1\n      0x00\n      mstore\n      keccak256(0x00, 0x20)\n      swap1\n    tag_118:\n      dup2\n      sload\n      dup2\n      mstore\n      swap1\n      0x01\n      add\n      swap1\n      0x20\n      add\n      dup1\n      dup4\n      gt\n      tag_118\n      jumpi\n      dup3\n      swap1\n      sub\n      0x1f\n      and\n      dup3\n      add\n      swap2\n    tag_116:\n      pop\n      pop\n      pop\n      pop\n      pop\n      swap1\n      dup1\n      0x05\n      add\n      sload\n      swap1\n      dup1\n      0x06\n      add\n      0x00\n      swap1\n      sload\n      swap1\n      0x0100\n      exp\n      swap1\n      div\n      0xffffffffffffffffffffffffffffffffffffffff\n      and\n      swap1\n      dup1\n      0x06\n      add\n      0x14\n      swap1\n      sload\n      swap1\n      0x0100\n      exp\n      swap1\n      div\n      0xff\n      and\n      swap1\n      dup1\n      0x07\n      add\n      0x00\n      swap1\n      sload\n      swap1\n      0x0100\n      exp\n      swap1\n      div\n      0xffffffffffffffffffffffffffffffffffffffff\n      and\n      swap1\n      pop\n      dup8\n      jump\t// out\n        /* \"#utility.yul\":7:82   */\n    tag_119:\n        /* \"#utility.yul\":40:46   */\n      0x00\n        /* \"#utility.yul\":73:75   */\n      0x40\n        /* \"#utility.yul\":67:76   */\n      mload\n        /* \"#utility.yul\":57:76   */\n      swap1\n      pop\n        /* \"#utility.yul\":7:82   */\n      swap1\n      jump\t// out\n        /* \"#utility.yul\":88:205   */\n    tag_120:\n        /* \"#utility.yul\":197:198   */\n      0x00\n        /* \"#utility.yul\":194:195   */\n      dup1\n        /* \"#utility.yul\":187:199   */\n      revert\n        /* \"#utility.yul\":211:328   */\n    tag_121:\n        /* \"#utility.yul\":320:321   */\n      0x00\n        /* \"#utility.yul\":317:318   */\n      dup1\n        /* \"#utility.yul\":310:322   */\n      revert\n        /* \"#utility.yul\":334:451   */\n    tag_122:\n        /* \"#utility.yul\":443:444   */\n      0x00\n        /* \"#utility.yul\":440:441   */\n      dup1\n        /* \"#utility.yul\":433:445   */\n      revert\n        /* \"#utility.yul\":457:574   */\n    tag_123:\n        /* \"#utility.yul\":566:567   */\n      0x00\n        /* \"#utility.yul\":563:564   */\n      dup1\n        /* \"#utility.yul\":556:568   */\n      revert\n        /* \"#utility.yul\":580:682   */\n    tag_124:\n        /* \"#utility.yul\":621:627   */\n      0x00\n        /* \"#utility.yul\":672:674   */\n      0x1f\n        /* \"#utility.yul\":668:675   */\n      not\n        /* \"#utility.yul\":663:665   */\n      0x1f\n        /* \"#utility.yul\":656:661   */\n      dup4\n        /* \"#utility.yul\":652:666   */\n      add\n        /* \"#utility.yul\":648:676   */\n      and\n        /* \"#utility.yul\":638:676   */\n      swap1\n      pop\n        /* \"#utility.yul\":580:682   */\n      swap2\n      swap1\n      pop\n      jump\t// out\n        /* \"#utility.yul\":688:868   */\n    tag_125:\n        /* \"#utility.yul\":736:813   */\n      0x4e487b7100000000000000000000000000000000000000000000000000000000\n        /* \"#utility.yul\":733:734   */\n      0x00\n        /* \"#utility.yul\":726:814   */\n      mstore\n        /* \"#utility.yul\":833:837   */\n      0x41\n        /* \"#utility.yul\":830:831   */\n      0x04\n        /* \"#utility.yul\":823:838   */\n      mstore\n        /* \"#utility.yul\":857:861   */\n      0x24\n        /* \"#utility.yul\":854:855   */\n      0x00\n        /* \"#utility.yul\":847:862   */\n      revert\n        /* \"#utility.yul\":874:1155   */\n    tag_126:\n        /* \"#utility.yul\":957:984   */\n      tag_187\n        /* \"#utility.yul\":979:983   */\n      dup3\n        /* \"#utility.yul\":957:984   */\n      tag_124\n      jump\t// in\n    tag_187:\n        /* \"#utility.yul\":949:955   */\n      dup2\n        /* \"#utility.yul\":945:985   */\n      add\n        /* \"#utility.yul\":1087:1093   */\n      dup2\n        /* \"#utility.yul\":1075:1085   */\n      dup2\n        /* \"#utility.yul\":1072:1094   */\n      lt\n        /* \"#utility.yul\":1051:1069   */\n      0xffffffffffffffff\n        /* \"#utility.yul\":1039:1049   */\n      dup3\n        /* \"#utility.yul\":1036:1070   */\n      gt\n        /* \"#utility.yul\":1033:1095   */\n      or\n        /* \"#utility.yul\":1030:1118   */\n      iszero\n      tag_188\n      jumpi\n        /* \"#utility.yul\":1098:1116   */\n      tag_189\n      tag_125\n      jump\t// in\n    tag_189:\n        /* \"#utility.yul\":1030:1118   */\n    tag_188:\n        /* \"#utility.yul\":1138:1148   */\n      dup1\n        /* \"#utility.yul\":1134:1136   */\n      0x40\n        /* \"#utility.yul\":1127:1149   */\n      mstore\n        /* \"#utility.yul\":917:1155   */\n      pop\n        /* \"#utility.yul\":874:1155   */\n      pop\n      pop\n      jump\t// out\n        /* \"#utility.yul\":1161:1290   */\n    tag_127:\n        /* \"#utility.yul\":1195:1201   */\n      0x00\n        /* \"#utility.yul\":1222:1242   */\n      tag_191\n      tag_119\n      jump\t// in\n    tag_191:\n        /* \"#utility.yul\":1212:1242   */\n      swap1\n      pop\n        /* \"#utility.yul\":1251:1284   */\n      tag_192\n        /* \"#utility.yul\":1279:1283   */\n      dup3\n        /* \"#utility.yul\":1271:1277   */\n      dup3\n        /* \"#utility.yul\":1251:1284   */\n      tag_126\n      jump\t// in\n    tag_192:\n        /* \"#utility.yul\":1161:1290   */\n      swap2\n      swap1\n      pop\n      jump\t// out\n        /* \"#utility.yul\":1296:1604   */\n    tag_128:\n        /* \"#utility.yul\":1358:1362   */\n      0x00\n        /* \"#utility.yul\":1448:1466   */\n      0xffffffffffffffff\n        /* \"#utility.yul\":1440:1446   */\n      dup3\n        /* \"#utility.yul\":1437:1467   */\n      gt\n        /* \"#utility.yul\":1434:1490   */\n      iszero\n      tag_194\n      jumpi\n        /* \"#utility.yul\":1470:1488   */\n      tag_195\n      tag_125\n      jump\t// in\n    tag_195:\n        /* \"#utility.yul\":1434:1490   */\n    tag_194:\n        /* \"#utility.yul\":1508:1537   */\n      tag_196\n        /* \"#utility.yul\":1530:1536   */\n      dup3\n        /* \"#utility.yul\":1508:1537   */\n      tag_124\n      jump\t// in\n    tag_196:\n        /* \"#utility.yul\":1500:1537   */\n      swap1\n      pop\n        /* \"#utility.yul\":1592:1596   */\n      0x20\n        /* \"#utility.yul\":1586:1590   */\n      dup2\n        /* \"#utility.yul\":1582:1597   */\n      add\n        /* \"#utility.yul\":1574:1597   */\n      swap1\n      pop\n        /* \"#utility.yul\":1296:1604   */\n      swap2\n      swap1\n      pop\n      jump\t// out\n        /* \"#utility.yul\":1610:1758   */\n    tag_129:\n        /* \"#utility.yul\":1708:1714   */\n      dup3\n        /* \"#utility.yul\":1703:1706   */\n      dup2\n        /* \"#utility.yul\":1698:1701   */\n      dup4\n        /* \"#utility.yul\":1685:1715   */\n      calldatacopy\n        /* \"#utility.yul\":1749:1750   */\n      0x00\n        /* \"#utility.yul\":1740:1746   */\n      dup4\n        /* \"#utility.yul\":1735:1738   */\n      dup4\n        /* \"#utility.yul\":1731:1747   */\n      add\n        /* \"#utility.yul\":1724:1751   */\n      mstore\n        /* \"#utility.yul\":1610:1758   */\n      pop\n      pop\n      pop\n      jump\t// out\n        /* \"#utility.yul\":1764:2189   */\n    tag_130:\n        /* \"#utility.yul\":1842:1847   */\n      0x00\n        /* \"#utility.yul\":1867:1933   */\n      tag_199\n        /* \"#utility.yul\":1883:1932   */\n      tag_200\n        /* \"#utility.yul\":1925:1931   */\n      dup5\n        /* \"#utility.yul\":1883:1932   */\n      tag_128\n      jump\t// in\n    tag_200:\n        /* \"#utility.yul\":1867:1933   */\n      tag_127\n      jump\t// in\n    tag_199:\n        /* \"#utility.yul\":1858:1933   */\n      swap1\n      pop\n        /* \"#utility.yul\":1956:1962   */\n      dup3\n        /* \"#utility.yul\":1949:1954   */\n      dup2\n        /* \"#utility.yul\":1942:1963   */\n      mstore\n        /* \"#utility.yul\":1994:1998   */\n      0x20\n        /* \"#utility.yul\":1987:1992   */\n      dup2\n        /* \"#utility.yul\":1983:1999   */\n      add\n        /* \"#utility.yul\":2032:2035   */\n      dup5\n        /* \"#utility.yul\":2023:2029   */\n      dup5\n        /* \"#utility.yul\":2018:2021   */\n      dup5\n        /* \"#utility.yul\":2014:2030   */\n      add\n        /* \"#utility.yul\":2011:2036   */\n      gt\n        /* \"#utility.yul\":2008:2120   */\n      iszero\n      tag_201\n      jumpi\n        /* \"#utility.yul\":2039:2118   */\n      tag_202\n      tag_123\n      jump\t// in\n    tag_202:\n        /* \"#utility.yul\":2008:2120   */\n    tag_201:\n        /* \"#utility.yul\":2129:2183   */\n      tag_203\n        /* \"#utility.yul\":2176:2182   */\n      dup5\n        /* \"#utility.yul\":2171:2174   */\n      dup3\n        /* \"#utility.yul\":2166:2169   */\n      dup6\n        /* \"#utility.yul\":2129:2183   */\n      tag_129\n      jump\t// in\n    tag_203:\n        /* \"#utility.yul\":1848:2189   */\n      pop\n        /* \"#utility.yul\":1764:2189   */\n      swap4\n      swap3\n      pop\n      pop\n      pop\n      jump\t// out\n        /* \"#utility.yul\":2209:2549   */\n    tag_131:\n        /* \"#utility.yul\":2265:2270   */\n      0x00\n        /* \"#utility.yul\":2314:2317   */\n      dup3\n        /* \"#utility.yul\":2307:2311   */\n      0x1f\n        /* \"#utility.yul\":2299:2305   */\n      dup4\n        /* \"#utility.yul\":2295:2312   */\n      add\n        /* \"#utility.yul\":2291:2318   */\n      slt\n        /* \"#utility.yul\":2281:2403   */\n      tag_205\n      jumpi\n        /* \"#utility.yul\":2322:2401   */\n      tag_206\n      tag_122\n      jump\t// in\n    tag_206:\n        /* \"#utility.yul\":2281:2403   */\n    tag_205:\n        /* \"#utility.yul\":2439:2445   */\n      dup2\n        /* \"#utility.yul\":2426:2446   */\n      calldataload\n        /* \"#utility.yul\":2464:2543   */\n      tag_207\n        /* \"#utility.yul\":2539:2542   */\n      dup5\n        /* \"#utility.yul\":2531:2537   */\n      dup3\n        /* \"#utility.yul\":2524:2528   */\n      0x20\n        /* \"#utility.yul\":2516:2522   */\n      dup7\n        /* \"#utility.yul\":2512:2529   */\n      add\n        /* \"#utility.yul\":2464:2543   */\n      tag_130\n      jump\t// in\n    tag_207:\n        /* \"#utility.yul\":2455:2543   */\n      swap2\n      pop\n        /* \"#utility.yul\":2271:2549   */\n      pop\n        /* \"#utility.yul\":2209:2549   */\n      swap3\n      swap2\n      pop\n      pop\n      jump\t// out\n        /* \"#utility.yul\":2555:2876   */\n    tag_132:\n        /* \"#utility.yul\":2642:2646   */\n      0x00\n        /* \"#utility.yul\":2732:2750   */\n      0xffffffffffffffff\n        /* \"#utility.yul\":2724:2730   */\n      dup3\n        /* \"#utility.yul\":2721:2751   */\n      gt\n        /* \"#utility.yul\":2718:2774   */\n      iszero\n      tag_209\n      jumpi\n        /* \"#utility.yul\":2754:2772   */\n      tag_210\n      tag_125\n      jump\t// in\n    tag_210:\n        /* \"#utility.yul\":2718:2774   */\n    tag_209:\n        /* \"#utility.yul\":2804:2808   */\n      0x20\n        /* \"#utility.yul\":2796:2802   */\n      dup3\n        /* \"#utility.yul\":2792:2809   */\n      mul\n        /* \"#utility.yul\":2784:2809   */\n      swap1\n      pop\n        /* \"#utility.yul\":2864:2868   */\n      0x20\n        /* \"#utility.yul\":2858:2862   */\n      dup2\n        /* \"#utility.yul\":2854:2869   */\n      add\n        /* \"#utility.yul\":2846:2869   */\n      swap1\n      pop\n        /* \"#utility.yul\":2555:2876   */\n      swap2\n      swap1\n      pop\n      jump\t// out\n        /* \"#utility.yul\":2882:2999   */\n    tag_133:\n        /* \"#utility.yul\":2991:2992   */\n      0x00\n        /* \"#utility.yul\":2988:2989   */\n      dup1\n        /* \"#utility.yul\":2981:2993   */\n      revert\n        /* \"#utility.yul\":3021:3966   */\n    tag_134:\n        /* \"#utility.yul\":3127:3132   */\n      0x00\n        /* \"#utility.yul\":3152:3243   */\n      tag_213\n        /* \"#utility.yul\":3168:3242   */\n      tag_214\n        /* \"#utility.yul\":3235:3241   */\n      dup5\n        /* \"#utility.yul\":3168:3242   */\n      tag_132\n      jump\t// in\n    tag_214:\n        /* \"#utility.yul\":3152:3243   */\n      tag_127\n      jump\t// in\n    tag_213:\n        /* \"#utility.yul\":3143:3243   */\n      swap1\n      pop\n        /* \"#utility.yul\":3263:3268   */\n      dup1\n        /* \"#utility.yul\":3292:3298   */\n      dup4\n        /* \"#utility.yul\":3285:3290   */\n      dup3\n        /* \"#utility.yul\":3278:3299   */\n      mstore\n        /* \"#utility.yul\":3326:3330   */\n      0x20\n        /* \"#utility.yul\":3319:3324   */\n      dup3\n        /* \"#utility.yul\":3315:3331   */\n      add\n        /* \"#utility.yul\":3308:3331   */\n      swap1\n      pop\n        /* \"#utility.yul\":3379:3383   */\n      0x20\n        /* \"#utility.yul\":3371:3377   */\n      dup5\n        /* \"#utility.yul\":3367:3384   */\n      mul\n        /* \"#utility.yul\":3359:3365   */\n      dup4\n        /* \"#utility.yul\":3355:3385   */\n      add\n        /* \"#utility.yul\":3408:3411   */\n      dup6\n        /* \"#utility.yul\":3400:3406   */\n      dup2\n        /* \"#utility.yul\":3397:3412   */\n      gt\n        /* \"#utility.yul\":3394:3516   */\n      iszero\n      tag_215\n      jumpi\n        /* \"#utility.yul\":3427:3506   */\n      tag_216\n      tag_133\n      jump\t// in\n    tag_216:\n        /* \"#utility.yul\":3394:3516   */\n    tag_215:\n        /* \"#utility.yul\":3542:3548   */\n      dup4\n        /* \"#utility.yul\":3525:3960   */\n    tag_217:\n        /* \"#utility.yul\":3559:3565   */\n      dup2\n        /* \"#utility.yul\":3554:3557   */\n      dup2\n        /* \"#utility.yul\":3551:3566   */\n      lt\n        /* \"#utility.yul\":3525:3960   */\n      iszero\n      tag_219\n      jumpi\n        /* \"#utility.yul\":3648:3651   */\n      dup1\n        /* \"#utility.yul\":3635:3652   */\n      calldataload\n        /* \"#utility.yul\":3684:3702   */\n      0xffffffffffffffff\n        /* \"#utility.yul\":3671:3682   */\n      dup2\n        /* \"#utility.yul\":3668:3703   */\n      gt\n        /* \"#utility.yul\":3665:3787   */\n      iszero\n      tag_220\n      jumpi\n        /* \"#utility.yul\":3706:3785   */\n      tag_221\n      tag_122\n      jump\t// in\n    tag_221:\n        /* \"#utility.yul\":3665:3787   */\n    tag_220:\n        /* \"#utility.yul\":3830:3841   */\n      dup1\n        /* \"#utility.yul\":3822:3828   */\n      dup7\n        /* \"#utility.yul\":3818:3842   */\n      add\n        /* \"#utility.yul\":3868:3915   */\n      tag_222\n        /* \"#utility.yul\":3911:3914   */\n      dup10\n        /* \"#utility.yul\":3899:3909   */\n      dup3\n        /* \"#utility.yul\":3868:3915   */\n      tag_131\n      jump\t// in\n    tag_222:\n        /* \"#utility.yul\":3863:3866   */\n      dup6\n        /* \"#utility.yul\":3856:3916   */\n      mstore\n        /* \"#utility.yul\":3945:3949   */\n      0x20\n        /* \"#utility.yul\":3940:3943   */\n      dup6\n        /* \"#utility.yul\":3936:3950   */\n      add\n        /* \"#utility.yul\":3929:3950   */\n      swap5\n      pop\n        /* \"#utility.yul\":3601:3960   */\n      pop\n      pop\n        /* \"#utility.yul\":3585:3589   */\n      0x20\n        /* \"#utility.yul\":3580:3583   */\n      dup2\n        /* \"#utility.yul\":3576:3590   */\n      add\n        /* \"#utility.yul\":3569:3590   */\n      swap1\n      pop\n        /* \"#utility.yul\":3525:3960   */\n      jump(tag_217)\n    tag_219:\n        /* \"#utility.yul\":3529:3550   */\n      pop\n        /* \"#utility.yul\":3133:3966   */\n      pop\n      pop\n        /* \"#utility.yul\":3021:3966   */\n      swap4\n      swap3\n      pop\n      pop\n      pop\n      jump\t// out\n        /* \"#utility.yul\":3988:4378   */\n    tag_135:\n        /* \"#utility.yul\":4069:4074   */\n      0x00\n        /* \"#utility.yul\":4118:4121   */\n      dup3\n        /* \"#utility.yul\":4111:4115   */\n      0x1f\n        /* \"#utility.yul\":4103:4109   */\n      dup4\n        /* \"#utility.yul\":4099:4116   */\n      add\n        /* \"#utility.yul\":4095:4122   */\n      slt\n        /* \"#utility.yul\":4085:4207   */\n      tag_224\n      jumpi\n        /* \"#utility.yul\":4126:4205   */\n      tag_225\n      tag_122\n      jump\t// in\n    tag_225:\n        /* \"#utility.yul\":4085:4207   */\n    tag_224:\n        /* \"#utility.yul\":4243:4249   */\n      dup2\n        /* \"#utility.yul\":4230:4250   */\n      calldataload\n        /* \"#utility.yul\":4268:4372   */\n      tag_226\n        /* \"#utility.yul\":4368:4371   */\n      dup5\n        /* \"#utility.yul\":4360:4366   */\n      dup3\n        /* \"#utility.yul\":4353:4357   */\n      0x20\n        /* \"#utility.yul\":4345:4351   */\n      dup7\n        /* \"#utility.yul\":4341:4358   */\n      add\n        /* \"#utility.yul\":4268:4372   */\n      tag_134\n      jump\t// in\n    tag_226:\n        /* \"#utility.yul\":4259:4372   */\n      swap2\n      pop\n        /* \"#utility.yul\":4075:4378   */\n      pop\n        /* \"#utility.yul\":3988:4378   */\n      swap3\n      swap2\n      pop\n      pop\n      jump\t// out\n        /* \"#utility.yul\":4384:4715   */\n    tag_136:\n        /* \"#utility.yul\":4481:4485   */\n      0x00\n        /* \"#utility.yul\":4571:4589   */\n      0xffffffffffffffff\n        /* \"#utility.yul\":4563:4569   */\n      dup3\n        /* \"#utility.yul\":4560:4590   */\n      gt\n        /* \"#utility.yul\":4557:4613   */\n      iszero\n      tag_228\n      jumpi\n        /* \"#utility.yul\":4593:4611   */\n      tag_229\n      tag_125\n      jump\t// in\n    tag_229:\n        /* \"#utility.yul\":4557:4613   */\n    tag_228:\n        /* \"#utility.yul\":4643:4647   */\n      0x20\n        /* \"#utility.yul\":4635:4641   */\n      dup3\n        /* \"#utility.yul\":4631:4648   */\n      mul\n        /* \"#utility.yul\":4623:4648   */\n      swap1\n      pop\n        /* \"#utility.yul\":4703:4707   */\n      0x20\n        /* \"#utility.yul\":4697:4701   */\n      dup2\n        /* \"#utility.yul\":4693:4708   */\n      add\n        /* \"#utility.yul\":4685:4708   */\n      swap1\n      pop\n        /* \"#utility.yul\":4384:4715   */\n      swap2\n      swap1\n      pop\n      jump\t// out\n        /* \"#utility.yul\":4721:4838   */\n    tag_137:\n        /* \"#utility.yul\":4830:4831   */\n      0x00\n        /* \"#utility.yul\":4827:4828   */\n      dup1\n        /* \"#utility.yul\":4820:4832   */\n      revert\n        /* \"#utility.yul\":4844:4961   */\n    tag_138:\n        /* \"#utility.yul\":4953:4954   */\n      0x00\n        /* \"#utility.yul\":4950:4951   */\n      dup1\n        /* \"#utility.yul\":4943:4955   */\n      revert\n        /* \"#utility.yul\":4967:5044   */\n    tag_139:\n        /* \"#utility.yul\":5004:5011   */\n      0x00\n        /* \"#utility.yul\":5033:5038   */\n      dup2\n        /* \"#utility.yul\":5022:5038   */\n      swap1\n      pop\n        /* \"#utility.yul\":4967:5044   */\n      swap2\n      swap1\n      pop\n      jump\t// out\n        /* \"#utility.yul\":5050:5172   */\n    tag_140:\n        /* \"#utility.yul\":5123:5147   */\n      tag_234\n        /* \"#utility.yul\":5141:5146   */\n      dup2\n        /* \"#utility.yul\":5123:5147   */\n      tag_139\n      jump\t// in\n    tag_234:\n        /* \"#utility.yul\":5116:5121   */\n      dup2\n        /* \"#utility.yul\":5113:5148   */\n      eq\n        /* \"#utility.yul\":5103:5166   */\n      tag_235\n      jumpi\n        /* \"#utility.yul\":5162:5163   */\n      0x00\n        /* \"#utility.yul\":5159:5160   */\n      dup1\n        /* \"#utility.yul\":5152:5164   */\n      revert\n        /* \"#utility.yul\":5103:5166   */\n    tag_235:\n        /* \"#utility.yul\":5050:5172   */\n      pop\n      jump\t// out\n        /* \"#utility.yul\":5178:5317   */\n    tag_141:\n        /* \"#utility.yul\":5224:5229   */\n      0x00\n        /* \"#utility.yul\":5262:5268   */\n      dup2\n        /* \"#utility.yul\":5249:5269   */\n      calldataload\n        /* \"#utility.yul\":5240:5269   */\n      swap1\n      pop\n        /* \"#utility.yul\":5278:5311   */\n      tag_237\n        /* \"#utility.yul\":5305:5310   */\n      dup2\n        /* \"#utility.yul\":5278:5311   */\n      tag_140\n      jump\t// in\n    tag_237:\n        /* \"#utility.yul\":5178:5317   */\n      swap3\n      swap2\n      pop\n      pop\n      jump\t// out\n        /* \"#utility.yul\":5353:6091   */\n    tag_142:\n        /* \"#utility.yul\":5422:5427   */\n      0x00\n        /* \"#utility.yul\":5466:5470   */\n      0x40\n        /* \"#utility.yul\":5454:5463   */\n      dup3\n        /* \"#utility.yul\":5449:5452   */\n      dup5\n        /* \"#utility.yul\":5445:5464   */\n      sub\n        /* \"#utility.yul\":5441:5471   */\n      slt\n        /* \"#utility.yul\":5438:5555   */\n      iszero\n      tag_239\n      jumpi\n        /* \"#utility.yul\":5474:5553   */\n      tag_240\n      tag_137\n      jump\t// in\n    tag_240:\n        /* \"#utility.yul\":5438:5555   */\n    tag_239:\n        /* \"#utility.yul\":5573:5594   */\n      tag_241\n        /* \"#utility.yul\":5589:5593   */\n      0x40\n        /* \"#utility.yul\":5573:5594   */\n      tag_127\n      jump\t// in\n    tag_241:\n        /* \"#utility.yul\":5564:5594   */\n      swap1\n      pop\n        /* \"#utility.yul\":5680:5681   */\n      0x00\n        /* \"#utility.yul\":5669:5678   */\n      dup3\n        /* \"#utility.yul\":5665:5682   */\n      add\n        /* \"#utility.yul\":5652:5683   */\n      calldataload\n        /* \"#utility.yul\":5710:5728   */\n      0xffffffffffffffff\n        /* \"#utility.yul\":5702:5708   */\n      dup2\n        /* \"#utility.yul\":5699:5729   */\n      gt\n        /* \"#utility.yul\":5696:5813   */\n      iszero\n      tag_242\n      jumpi\n        /* \"#utility.yul\":5732:5811   */\n      tag_243\n      tag_138\n      jump\t// in\n    tag_243:\n        /* \"#utility.yul\":5696:5813   */\n    tag_242:\n        /* \"#utility.yul\":5852:5911   */\n      tag_244\n        /* \"#utility.yul\":5907:5910   */\n      dup5\n        /* \"#utility.yul\":5898:5904   */\n      dup3\n        /* \"#utility.yul\":5887:5896   */\n      dup6\n        /* \"#utility.yul\":5883:5905   */\n      add\n        /* \"#utility.yul\":5852:5911   */\n      tag_131\n      jump\t// in\n    tag_244:\n        /* \"#utility.yul\":5845:5849   */\n      0x00\n        /* \"#utility.yul\":5838:5843   */\n      dup4\n        /* \"#utility.yul\":5834:5850   */\n      add\n        /* \"#utility.yul\":5827:5912   */\n      mstore\n        /* \"#utility.yul\":5604:5923   */\n      pop\n        /* \"#utility.yul\":5982:5984   */\n      0x20\n        /* \"#utility.yul\":6023:6072   */\n      tag_245\n        /* \"#utility.yul\":6068:6071   */\n      dup5\n        /* \"#utility.yul\":6059:6065   */\n      dup3\n        /* \"#utility.yul\":6048:6057   */\n      dup6\n        /* \"#utility.yul\":6044:6066   */\n      add\n        /* \"#utility.yul\":6023:6072   */\n      tag_141\n      jump\t// in\n    tag_245:\n        /* \"#utility.yul\":6016:6020   */\n      0x20\n        /* \"#utility.yul\":6009:6014   */\n      dup4\n        /* \"#utility.yul\":6005:6021   */\n      add\n        /* \"#utility.yul\":5998:6073   */\n      mstore\n        /* \"#utility.yul\":5933:6084   */\n      pop\n        /* \"#utility.yul\":5353:6091   */\n      swap3\n      swap2\n      pop\n      pop\n      jump\t// out\n        /* \"#utility.yul\":6129:7104   */\n    tag_143:\n        /* \"#utility.yul\":6245:6250   */\n      0x00\n        /* \"#utility.yul\":6270:6371   */\n      tag_247\n        /* \"#utility.yul\":6286:6370   */\n      tag_248\n        /* \"#utility.yul\":6363:6369   */\n      dup5\n        /* \"#utility.yul\":6286:6370   */\n      tag_136\n      jump\t// in\n    tag_248:\n        /* \"#utility.yul\":6270:6371   */\n      tag_127\n      jump\t// in\n    tag_247:\n        /* \"#utility.yul\":6261:6371   */\n      swap1\n      pop\n        /* \"#utility.yul\":6391:6396   */\n      dup1\n        /* \"#utility.yul\":6420:6426   */\n      dup4\n        /* \"#utility.yul\":6413:6418   */\n      dup3\n        /* \"#utility.yul\":6406:6427   */\n      mstore\n        /* \"#utility.yul\":6454:6458   */\n      0x20\n        /* \"#utility.yul\":6447:6452   */\n      dup3\n        /* \"#utility.yul\":6443:6459   */\n      add\n        /* \"#utility.yul\":6436:6459   */\n      swap1\n      pop\n        /* \"#utility.yul\":6507:6511   */\n      0x20\n        /* \"#utility.yul\":6499:6505   */\n      dup5\n        /* \"#utility.yul\":6495:6512   */\n      mul\n        /* \"#utility.yul\":6487:6493   */\n      dup4\n        /* \"#utility.yul\":6483:6513   */\n      add\n        /* \"#utility.yul\":6536:6539   */\n      dup6\n        /* \"#utility.yul\":6528:6534   */\n      dup2\n        /* \"#utility.yul\":6525:6540   */\n      gt\n        /* \"#utility.yul\":6522:6644   */\n      iszero\n      tag_249\n      jumpi\n        /* \"#utility.yul\":6555:6634   */\n      tag_250\n      tag_133\n      jump\t// in\n    tag_250:\n        /* \"#utility.yul\":6522:6644   */\n    tag_249:\n        /* \"#utility.yul\":6670:6676   */\n      dup4\n        /* \"#utility.yul\":6653:7098   */\n    tag_251:\n        /* \"#utility.yul\":6687:6693   */\n      dup2\n        /* \"#utility.yul\":6682:6685   */\n      dup2\n        /* \"#utility.yul\":6679:6694   */\n      lt\n        /* \"#utility.yul\":6653:7098   */\n      iszero\n      tag_253\n      jumpi\n        /* \"#utility.yul\":6776:6779   */\n      dup1\n        /* \"#utility.yul\":6763:6780   */\n      calldataload\n        /* \"#utility.yul\":6812:6830   */\n      0xffffffffffffffff\n        /* \"#utility.yul\":6799:6810   */\n      dup2\n        /* \"#utility.yul\":6796:6831   */\n      gt\n        /* \"#utility.yul\":6793:6915   */\n      iszero\n      tag_254\n      jumpi\n        /* \"#utility.yul\":6834:6913   */\n      tag_255\n      tag_122\n      jump\t// in\n    tag_255:\n        /* \"#utility.yul\":6793:6915   */\n    tag_254:\n        /* \"#utility.yul\":6958:6969   */\n      dup1\n        /* \"#utility.yul\":6950:6956   */\n      dup7\n        /* \"#utility.yul\":6946:6970   */\n      add\n        /* \"#utility.yul\":6996:7053   */\n      tag_256\n        /* \"#utility.yul\":7049:7052   */\n      dup10\n        /* \"#utility.yul\":7037:7047   */\n      dup3\n        /* \"#utility.yul\":6996:7053   */\n      tag_142\n      jump\t// in\n    tag_256:\n        /* \"#utility.yul\":6991:6994   */\n      dup6\n        /* \"#utility.yul\":6984:7054   */\n      mstore\n        /* \"#utility.yul\":7083:7087   */\n      0x20\n        /* \"#utility.yul\":7078:7081   */\n      dup6\n        /* \"#utility.yul\":7074:7088   */\n      add\n        /* \"#utility.yul\":7067:7088   */\n      swap5\n      pop\n        /* \"#utility.yul\":6729:7098   */\n      pop\n      pop\n        /* \"#utility.yul\":6713:6717   */\n      0x20\n        /* \"#utility.yul\":6708:6711   */\n      dup2\n        /* \"#utility.yul\":6704:6718   */\n      add\n        /* \"#utility.yul\":6697:6718   */\n      swap1\n      pop\n        /* \"#utility.yul\":6653:7098   */\n      jump(tag_251)\n    tag_253:\n        /* \"#utility.yul\":6657:6678   */\n      pop\n        /* \"#utility.yul\":6251:7104   */\n      pop\n      pop\n        /* \"#utility.yul\":6129:7104   */\n      swap4\n      swap3\n      pop\n      pop\n      pop\n      jump\t// out\n        /* \"#utility.yul\":7142:7552   */\n    tag_144:\n        /* \"#utility.yul\":7233:7238   */\n      0x00\n        /* \"#utility.yul\":7282:7285   */\n      dup3\n        /* \"#utility.yul\":7275:7279   */\n      0x1f\n        /* \"#utility.yul\":7267:7273   */\n      dup4\n        /* \"#utility.yul\":7263:7280   */\n      add\n        /* \"#utility.yul\":7259:7286   */\n      slt\n        /* \"#utility.yul\":7249:7371   */\n      tag_258\n      jumpi\n        /* \"#utility.yul\":7290:7369   */\n      tag_259\n      tag_122\n      jump\t// in\n    tag_259:\n        /* \"#utility.yul\":7249:7371   */\n    tag_258:\n        /* \"#utility.yul\":7407:7413   */\n      dup2\n        /* \"#utility.yul\":7394:7414   */\n      calldataload\n        /* \"#utility.yul\":7432:7546   */\n      tag_260\n        /* \"#utility.yul\":7542:7545   */\n      dup5\n        /* \"#utility.yul\":7534:7540   */\n      dup3\n        /* \"#utility.yul\":7527:7531   */\n      0x20\n        /* \"#utility.yul\":7519:7525   */\n      dup7\n        /* \"#utility.yul\":7515:7532   */\n      add\n        /* \"#utility.yul\":7432:7546   */\n      tag_143\n      jump\t// in\n    tag_260:\n        /* \"#utility.yul\":7423:7546   */\n      swap2\n      pop\n        /* \"#utility.yul\":7239:7552   */\n      pop\n        /* \"#utility.yul\":7142:7552   */\n      swap3\n      swap2\n      pop\n      pop\n      jump\t// out\n        /* \"#utility.yul\":7558:8837   */\n    tag_11:\n        /* \"#utility.yul\":7725:7731   */\n      0x00\n        /* \"#utility.yul\":7733:7739   */\n      dup1\n        /* \"#utility.yul\":7741:7747   */\n      0x00\n        /* \"#utility.yul\":7790:7792   */\n      0x60\n        /* \"#utility.yul\":7778:7787   */\n      dup5\n        /* \"#utility.yul\":7769:7776   */\n      dup7\n        /* \"#utility.yul\":7765:7788   */\n      sub\n        /* \"#utility.yul\":7761:7793   */\n      slt\n        /* \"#utility.yul\":7758:7877   */\n      iszero\n      tag_262\n      jumpi\n        /* \"#utility.yul\":7796:7875   */\n      tag_263\n      tag_120\n      jump\t// in\n    tag_263:\n        /* \"#utility.yul\":7758:7877   */\n    tag_262:\n        /* \"#utility.yul\":7944:7945   */\n      0x00\n        /* \"#utility.yul\":7933:7942   */\n      dup5\n        /* \"#utility.yul\":7929:7946   */\n      add\n        /* \"#utility.yul\":7916:7947   */\n      calldataload\n        /* \"#utility.yul\":7974:7992   */\n      0xffffffffffffffff\n        /* \"#utility.yul\":7966:7972   */\n      dup2\n        /* \"#utility.yul\":7963:7993   */\n      gt\n        /* \"#utility.yul\":7960:8077   */\n      iszero\n      tag_264\n      jumpi\n        /* \"#utility.yul\":7996:8075   */\n      tag_265\n      tag_121\n      jump\t// in\n    tag_265:\n        /* \"#utility.yul\":7960:8077   */\n    tag_264:\n        /* \"#utility.yul\":8101:8164   */\n      tag_266\n        /* \"#utility.yul\":8156:8163   */\n      dup7\n        /* \"#utility.yul\":8147:8153   */\n      dup3\n        /* \"#utility.yul\":8136:8145   */\n      dup8\n        /* \"#utility.yul\":8132:8154   */\n      add\n        /* \"#utility.yul\":8101:8164   */\n      tag_131\n      jump\t// in\n    tag_266:\n        /* \"#utility.yul\":8091:8164   */\n      swap4\n      pop\n        /* \"#utility.yul\":7887:8174   */\n      pop\n        /* \"#utility.yul\":8241:8243   */\n      0x20\n        /* \"#utility.yul\":8230:8239   */\n      dup5\n        /* \"#utility.yul\":8226:8244   */\n      add\n        /* \"#utility.yul\":8213:8245   */\n      calldataload\n        /* \"#utility.yul\":8272:8290   */\n      0xffffffffffffffff\n        /* \"#utility.yul\":8264:8270   */\n      dup2\n        /* \"#utility.yul\":8261:8291   */\n      gt\n        /* \"#utility.yul\":8258:8375   */\n      iszero\n      tag_267\n      jumpi\n        /* \"#utility.yul\":8294:8373   */\n      tag_268\n      tag_121\n      jump\t// in\n    tag_268:\n        /* \"#utility.yul\":8258:8375   */\n    tag_267:\n        /* \"#utility.yul\":8399:8487   */\n      tag_269\n        /* \"#utility.yul\":8479:8486   */\n      dup7\n        /* \"#utility.yul\":8470:8476   */\n      dup3\n        /* \"#utility.yul\":8459:8468   */\n      dup8\n        /* \"#utility.yul\":8455:8477   */\n      add\n        /* \"#utility.yul\":8399:8487   */\n      tag_135\n      jump\t// in\n    tag_269:\n        /* \"#utility.yul\":8389:8487   */\n      swap3\n      pop\n        /* \"#utility.yul\":8184:8497   */\n      pop\n        /* \"#utility.yul\":8564:8566   */\n      0x40\n        /* \"#utility.yul\":8553:8562   */\n      dup5\n        /* \"#utility.yul\":8549:8567   */\n      add\n        /* \"#utility.yul\":8536:8568   */\n      calldataload\n        /* \"#utility.yul\":8595:8613   */\n      0xffffffffffffffff\n        /* \"#utility.yul\":8587:8593   */\n      dup2\n        /* \"#utility.yul\":8584:8614   */\n      gt\n        /* \"#utility.yul\":8581:8698   */\n      iszero\n      tag_270\n      jumpi\n        /* \"#utility.yul\":8617:8696   */\n      tag_271\n      tag_121\n      jump\t// in\n    tag_271:\n        /* \"#utility.yul\":8581:8698   */\n    tag_270:\n        /* \"#utility.yul\":8722:8820   */\n      tag_272\n        /* \"#utility.yul\":8812:8819   */\n      dup7\n        /* \"#utility.yul\":8803:8809   */\n      dup3\n        /* \"#utility.yul\":8792:8801   */\n      dup8\n        /* \"#utility.yul\":8788:8810   */\n      add\n        /* \"#utility.yul\":8722:8820   */\n      tag_144\n      jump\t// in\n    tag_272:\n        /* \"#utility.yul\":8712:8820   */\n      swap2\n      pop\n        /* \"#utility.yul\":8507:8830   */\n      pop\n        /* \"#utility.yul\":7558:8837   */\n      swap3\n      pop\n      swap3\n      pop\n      swap3\n      jump\t// out\n        /* \"#utility.yul\":8843:9352   */\n    tag_15:\n        /* \"#utility.yul\":8912:8918   */\n      0x00\n        /* \"#utility.yul\":8961:8963   */\n      0x20\n        /* \"#utility.yul\":8949:8958   */\n      dup3\n        /* \"#utility.yul\":8940:8947   */\n      dup5\n        /* \"#utility.yul\":8936:8959   */\n      sub\n        /* \"#utility.yul\":8932:8964   */\n      slt\n        /* \"#utility.yul\":8929:9048   */\n      iszero\n      tag_274\n      jumpi\n        /* \"#utility.yul\":8967:9046   */\n      tag_275\n      tag_120\n      jump\t// in\n    tag_275:\n        /* \"#utility.yul\":8929:9048   */\n    tag_274:\n        /* \"#utility.yul\":9115:9116   */\n      0x00\n        /* \"#utility.yul\":9104:9113   */\n      dup3\n        /* \"#utility.yul\":9100:9117   */\n      add\n        /* \"#utility.yul\":9087:9118   */\n      calldataload\n        /* \"#utility.yul\":9145:9163   */\n      0xffffffffffffffff\n        /* \"#utility.yul\":9137:9143   */\n      dup2\n        /* \"#utility.yul\":9134:9164   */\n      gt\n        /* \"#utility.yul\":9131:9248   */\n      iszero\n      tag_276\n      jumpi\n        /* \"#utility.yul\":9167:9246   */\n      tag_277\n      tag_121\n      jump\t// in\n    tag_277:\n        /* \"#utility.yul\":9131:9248   */\n    tag_276:\n        /* \"#utility.yul\":9272:9335   */\n      tag_278\n        /* \"#utility.yul\":9327:9334   */\n      dup5\n        /* \"#utility.yul\":9318:9324   */\n      dup3\n        /* \"#utility.yul\":9307:9316   */\n      dup6\n        /* \"#utility.yul\":9303:9325   */\n      add\n        /* \"#utility.yul\":9272:9335   */\n      tag_131\n      jump\t// in\n    tag_278:\n        /* \"#utility.yul\":9262:9335   */\n      swap2\n      pop\n        /* \"#utility.yul\":9058:9345   */\n      pop\n        /* \"#utility.yul\":8843:9352   */\n      swap3\n      swap2\n      pop\n      pop\n      jump\t// out\n        /* \"#utility.yul\":9358:9476   */\n    tag_145:\n        /* \"#utility.yul\":9445:9469   */\n      tag_280\n        /* \"#utility.yul\":9463:9468   */\n      dup2\n        /* \"#utility.yul\":9445:9469   */\n      tag_139\n      jump\t// in\n    tag_280:\n        /* \"#utility.yul\":9440:9443   */\n      dup3\n        /* \"#utility.yul\":9433:9470   */\n      mstore\n        /* \"#utility.yul\":9358:9476   */\n      pop\n      pop\n      jump\t// out\n        /* \"#utility.yul\":9482:9704   */\n    tag_18:\n        /* \"#utility.yul\":9575:9579   */\n      0x00\n        /* \"#utility.yul\":9613:9615   */\n      0x20\n        /* \"#utility.yul\":9602:9611   */\n      dup3\n        /* \"#utility.yul\":9598:9616   */\n      add\n        /* \"#utility.yul\":9590:9616   */\n      swap1\n      pop\n        /* \"#utility.yul\":9626:9697   */\n      tag_282\n        /* \"#utility.yul\":9694:9695   */\n      0x00\n        /* \"#utility.yul\":9683:9692   */\n      dup4\n        /* \"#utility.yul\":9679:9696   */\n      add\n        /* \"#utility.yul\":9670:9676   */\n      dup5\n        /* \"#utility.yul\":9626:9697   */\n      tag_145\n      jump\t// in\n    tag_282:\n        /* \"#utility.yul\":9482:9704   */\n      swap3\n      swap2\n      pop\n      pop\n      jump\t// out\n        /* \"#utility.yul\":9710:11787   */\n    tag_21:\n        /* \"#utility.yul\":9924:9930   */\n      0x00\n        /* \"#utility.yul\":9932:9938   */\n      dup1\n        /* \"#utility.yul\":9940:9946   */\n      0x00\n        /* \"#utility.yul\":9948:9954   */\n      dup1\n        /* \"#utility.yul\":9956:9962   */\n      0x00\n        /* \"#utility.yul\":9964:9970   */\n      dup1\n        /* \"#utility.yul\":10013:10016   */\n      0xc0\n        /* \"#utility.yul\":10001:10010   */\n      dup8\n        /* \"#utility.yul\":9992:9999   */\n      dup10\n        /* \"#utility.yul\":9988:10011   */\n      sub\n        /* \"#utility.yul\":9984:10017   */\n      slt\n        /* \"#utility.yul\":9981:10101   */\n      iszero\n      tag_284\n      jumpi\n        /* \"#utility.yul\":10020:10099   */\n      tag_285\n      tag_120\n      jump\t// in\n    tag_285:\n        /* \"#utility.yul\":9981:10101   */\n    tag_284:\n        /* \"#utility.yul\":10168:10169   */\n      0x00\n        /* \"#utility.yul\":10157:10166   */\n      dup8\n        /* \"#utility.yul\":10153:10170   */\n      add\n        /* \"#utility.yul\":10140:10171   */\n      calldataload\n        /* \"#utility.yul\":10198:10216   */\n      0xffffffffffffffff\n        /* \"#utility.yul\":10190:10196   */\n      dup2\n        /* \"#utility.yul\":10187:10217   */\n      gt\n        /* \"#utility.yul\":10184:10301   */\n      iszero\n      tag_286\n      jumpi\n        /* \"#utility.yul\":10220:10299   */\n      tag_287\n      tag_121\n      jump\t// in\n    tag_287:\n        /* \"#utility.yul\":10184:10301   */\n    tag_286:\n        /* \"#utility.yul\":10325:10388   */\n      tag_288\n        /* \"#utility.yul\":10380:10387   */\n      dup10\n        /* \"#utility.yul\":10371:10377   */\n      dup3\n        /* \"#utility.yul\":10360:10369   */\n      dup11\n        /* \"#utility.yul\":10356:10378   */\n      add\n        /* \"#utility.yul\":10325:10388   */\n      tag_131\n      jump\t// in\n    tag_288:\n        /* \"#utility.yul\":10315:10388   */\n      swap7\n      pop\n        /* \"#utility.yul\":10111:10398   */\n      pop\n        /* \"#utility.yul\":10465:10467   */\n      0x20\n        /* \"#utility.yul\":10454:10463   */\n      dup8\n        /* \"#utility.yul\":10450:10468   */\n      add\n        /* \"#utility.yul\":10437:10469   */\n      calldataload\n        /* \"#utility.yul\":10496:10514   */\n      0xffffffffffffffff\n        /* \"#utility.yul\":10488:10494   */\n      dup2\n        /* \"#utility.yul\":10485:10515   */\n      gt\n        /* \"#utility.yul\":10482:10599   */\n      iszero\n      tag_289\n      jumpi\n        /* \"#utility.yul\":10518:10597   */\n      tag_290\n      tag_121\n      jump\t// in\n    tag_290:\n        /* \"#utility.yul\":10482:10599   */\n    tag_289:\n        /* \"#utility.yul\":10623:10686   */\n      tag_291\n        /* \"#utility.yul\":10678:10685   */\n      dup10\n        /* \"#utility.yul\":10669:10675   */\n      dup3\n        /* \"#utility.yul\":10658:10667   */\n      dup11\n        /* \"#utility.yul\":10654:10676   */\n      add\n        /* \"#utility.yul\":10623:10686   */\n      tag_131\n      jump\t// in\n    tag_291:\n        /* \"#utility.yul\":10613:10686   */\n      swap6\n      pop\n        /* \"#utility.yul\":10408:10696   */\n      pop\n        /* \"#utility.yul\":10763:10765   */\n      0x40\n        /* \"#utility.yul\":10752:10761   */\n      dup8\n        /* \"#utility.yul\":10748:10766   */\n      add\n        /* \"#utility.yul\":10735:10767   */\n      calldataload\n        /* \"#utility.yul\":10794:10812   */\n      0xffffffffffffffff\n        /* \"#utility.yul\":10786:10792   */\n      dup2\n        /* \"#utility.yul\":10783:10813   */\n      gt\n        /* \"#utility.yul\":10780:10897   */\n      iszero\n      tag_292\n      jumpi\n        /* \"#utility.yul\":10816:10895   */\n      tag_293\n      tag_121\n      jump\t// in\n    tag_293:\n        /* \"#utility.yul\":10780:10897   */\n    tag_292:\n        /* \"#utility.yul\":10921:10984   */\n      tag_294\n        /* \"#utility.yul\":10976:10983   */\n      dup10\n        /* \"#utility.yul\":10967:10973   */\n      dup3\n        /* \"#utility.yul\":10956:10965   */\n      dup11\n        /* \"#utility.yul\":10952:10974   */\n      add\n        /* \"#utility.yul\":10921:10984   */\n      tag_131\n      jump\t// in\n    tag_294:\n        /* \"#utility.yul\":10911:10984   */\n      swap5\n      pop\n        /* \"#utility.yul\":10706:10994   */\n      pop\n        /* \"#utility.yul\":11061:11063   */\n      0x60\n        /* \"#utility.yul\":11050:11059   */\n      dup8\n        /* \"#utility.yul\":11046:11064   */\n      add\n        /* \"#utility.yul\":11033:11065   */\n      calldataload\n        /* \"#utility.yul\":11092:11110   */\n      0xffffffffffffffff\n        /* \"#utility.yul\":11084:11090   */\n      dup2\n        /* \"#utility.yul\":11081:11111   */\n      gt\n        /* \"#utility.yul\":11078:11195   */\n      iszero\n      tag_295\n      jumpi\n        /* \"#utility.yul\":11114:11193   */\n      tag_296\n      tag_121\n      jump\t// in\n    tag_296:\n        /* \"#utility.yul\":11078:11195   */\n    tag_295:\n        /* \"#utility.yul\":11219:11307   */\n      tag_297\n        /* \"#utility.yul\":11299:11306   */\n      dup10\n        /* \"#utility.yul\":11290:11296   */\n      dup3\n        /* \"#utility.yul\":11279:11288   */\n      dup11\n        /* \"#utility.yul\":11275:11297   */\n      add\n        /* \"#utility.yul\":11219:11307   */\n      tag_135\n      jump\t// in\n    tag_297:\n        /* \"#utility.yul\":11209:11307   */\n      swap4\n      pop\n        /* \"#utility.yul\":11004:11317   */\n      pop\n        /* \"#utility.yul\":11384:11387   */\n      0x80\n        /* \"#utility.yul\":11373:11382   */\n      dup8\n        /* \"#utility.yul\":11369:11388   */\n      add\n        /* \"#utility.yul\":11356:11389   */\n      calldataload\n        /* \"#utility.yul\":11416:11434   */\n      0xffffffffffffffff\n        /* \"#utility.yul\":11408:11414   */\n      dup2\n        /* \"#utility.yul\":11405:11435   */\n      gt\n        /* \"#utility.yul\":11402:11519   */\n      iszero\n      tag_298\n      jumpi\n        /* \"#utility.yul\":11438:11517   */\n      tag_299\n      tag_121\n      jump\t// in\n    tag_299:\n        /* \"#utility.yul\":11402:11519   */\n    tag_298:\n        /* \"#utility.yul\":11543:11641   */\n      tag_300\n        /* \"#utility.yul\":11633:11640   */\n      dup10\n        /* \"#utility.yul\":11624:11630   */\n      dup3\n        /* \"#utility.yul\":11613:11622   */\n      dup11\n        /* \"#utility.yul\":11609:11631   */\n      add\n        /* \"#utility.yul\":11543:11641   */\n      tag_144\n      jump\t// in\n    tag_300:\n        /* \"#utility.yul\":11533:11641   */\n      swap3\n      pop\n        /* \"#utility.yul\":11327:11651   */\n      pop\n        /* \"#utility.yul\":11690:11693   */\n      0xa0\n        /* \"#utility.yul\":11717:11770   */\n      tag_301\n        /* \"#utility.yul\":11762:11769   */\n      dup10\n        /* \"#utility.yul\":11753:11759   */\n      dup3\n        /* \"#utility.yul\":11742:11751   */\n      dup11\n        /* \"#utility.yul\":11738:11760   */\n      add\n        /* \"#utility.yul\":11717:11770   */\n      tag_141\n      jump\t// in\n    tag_301:\n        /* \"#utility.yul\":11707:11770   */\n      swap2\n      pop\n        /* \"#utility.yul\":11661:11780   */\n      pop\n        /* \"#utility.yul\":9710:11787   */\n      swap3\n      swap6\n      pop\n      swap3\n      swap6\n      pop\n      swap3\n      swap6\n      jump\t// out\n        /* \"#utility.yul\":11793:12122   */\n    tag_29:\n        /* \"#utility.yul\":11852:11858   */\n      0x00\n        /* \"#utility.yul\":11901:11903   */\n      0x20\n        /* \"#utility.yul\":11889:11898   */\n      dup3\n        /* \"#utility.yul\":11880:11887   */\n      dup5\n        /* \"#utility.yul\":11876:11899   */\n      sub\n        /* \"#utility.yul\":11872:11904   */\n      slt\n        /* \"#utility.yul\":11869:11988   */\n      iszero\n      tag_303\n      jumpi\n        /* \"#utility.yul\":11907:11986   */\n      tag_304\n      tag_120\n      jump\t// in\n    tag_304:\n        /* \"#utility.yul\":11869:11988   */\n    tag_303:\n        /* \"#utility.yul\":12027:12028   */\n      0x00\n        /* \"#utility.yul\":12052:12105   */\n      tag_305\n        /* \"#utility.yul\":12097:12104   */\n      dup5\n        /* \"#utility.yul\":12088:12094   */\n      dup3\n        /* \"#utility.yul\":12077:12086   */\n      dup6\n        /* \"#utility.yul\":12073:12095   */\n      add\n        /* \"#utility.yul\":12052:12105   */\n      tag_141\n      jump\t// in\n    tag_305:\n        /* \"#utility.yul\":12042:12105   */\n      swap2\n      pop\n        /* \"#utility.yul\":11998:12115   */\n      pop\n        /* \"#utility.yul\":11793:12122   */\n      swap3\n      swap2\n      pop\n      pop\n      jump\t// out\n        /* \"#utility.yul\":12128:12254   */\n    tag_146:\n        /* \"#utility.yul\":12165:12172   */\n      0x00\n        /* \"#utility.yul\":12205:12247   */\n      0xffffffffffffffffffffffffffffffffffffffff\n        /* \"#utility.yul\":12198:12203   */\n      dup3\n        /* \"#utility.yul\":12194:12248   */\n      and\n        /* \"#utility.yul\":12183:12248   */\n      swap1\n      pop\n        /* \"#utility.yul\":12128:12254   */\n      swap2\n      swap1\n      pop\n      jump\t// out\n        /* \"#utility.yul\":12260:12356   */\n    tag_147:\n        /* \"#utility.yul\":12297:12304   */\n      0x00\n        /* \"#utility.yul\":12326:12350   */\n      tag_308\n        /* \"#utility.yul\":12344:12349   */\n      dup3\n        /* \"#utility.yul\":12326:12350   */\n      tag_146\n      jump\t// in\n    tag_308:\n        /* \"#utility.yul\":12315:12350   */\n      swap1\n      pop\n        /* \"#utility.yul\":12260:12356   */\n      swap2\n      swap1\n      pop\n      jump\t// out\n        /* \"#utility.yul\":12362:12480   */\n    tag_148:\n        /* \"#utility.yul\":12449:12473   */\n      tag_310\n        /* \"#utility.yul\":12467:12472   */\n      dup2\n        /* \"#utility.yul\":12449:12473   */\n      tag_147\n      jump\t// in\n    tag_310:\n        /* \"#utility.yul\":12444:12447   */\n      dup3\n        /* \"#utility.yul\":12437:12474   */\n      mstore\n        /* \"#utility.yul\":12362:12480   */\n      pop\n      pop\n      jump\t// out\n        /* \"#utility.yul\":12486:12708   */\n    tag_32:\n        /* \"#utility.yul\":12579:12583   */\n      0x00\n        /* \"#utility.yul\":12617:12619   */\n      0x20\n        /* \"#utility.yul\":12606:12615   */\n      dup3\n        /* \"#utility.yul\":12602:12620   */\n      add\n        /* \"#utility.yul\":12594:12620   */\n      swap1\n      pop\n        /* \"#utility.yul\":12630:12701   */\n      tag_312\n        /* \"#utility.yul\":12698:12699   */\n      0x00\n        /* \"#utility.yul\":12687:12696   */\n      dup4\n        /* \"#utility.yul\":12683:12700   */\n      add\n        /* \"#utility.yul\":12674:12680   */\n      dup5\n        /* \"#utility.yul\":12630:12701   */\n      tag_148\n      jump\t// in\n    tag_312:\n        /* \"#utility.yul\":12486:12708   */\n      swap3\n      swap2\n      pop\n      pop\n      jump\t// out\n        /* \"#utility.yul\":12714:12813   */\n    tag_149:\n        /* \"#utility.yul\":12766:12772   */\n      0x00\n        /* \"#utility.yul\":12800:12805   */\n      dup2\n        /* \"#utility.yul\":12794:12806   */\n      mload\n        /* \"#utility.yul\":12784:12806   */\n      swap1\n      pop\n        /* \"#utility.yul\":12714:12813   */\n      swap2\n      swap1\n      pop\n      jump\t// out\n        /* \"#utility.yul\":12819:12988   */\n    tag_150:\n        /* \"#utility.yul\":12903:12914   */\n      0x00\n        /* \"#utility.yul\":12937:12943   */\n      dup3\n        /* \"#utility.yul\":12932:12935   */\n      dup3\n        /* \"#utility.yul\":12925:12944   */\n      mstore\n        /* \"#utility.yul\":12977:12981   */\n      0x20\n        /* \"#utility.yul\":12972:12975   */\n      dup3\n        /* \"#utility.yul\":12968:12982   */\n      add\n        /* \"#utility.yul\":12953:12982   */\n      swap1\n      pop\n        /* \"#utility.yul\":12819:12988   */\n      swap3\n      swap2\n      pop\n      pop\n      jump\t// out\n        /* \"#utility.yul\":12994:13133   */\n    tag_151:\n        /* \"#utility.yul\":13083:13089   */\n      dup3\n        /* \"#utility.yul\":13078:13081   */\n      dup2\n        /* \"#utility.yul\":13073:13076   */\n      dup4\n        /* \"#utility.yul\":13067:13090   */\n      mcopy\n        /* \"#utility.yul\":13124:13125   */\n      0x00\n        /* \"#utility.yul\":13115:13121   */\n      dup4\n        /* \"#utility.yul\":13110:13113   */\n      dup4\n        /* \"#utility.yul\":13106:13122   */\n      add\n        /* \"#utility.yul\":13099:13126   */\n      mstore\n        /* \"#utility.yul\":12994:13133   */\n      pop\n      pop\n      pop\n      jump\t// out\n        /* \"#utility.yul\":13139:13516   */\n    tag_152:\n        /* \"#utility.yul\":13227:13230   */\n      0x00\n        /* \"#utility.yul\":13255:13294   */\n      tag_317\n        /* \"#utility.yul\":13288:13293   */\n      dup3\n        /* \"#utility.yul\":13255:13294   */\n      tag_149\n      jump\t// in\n    tag_317:\n        /* \"#utility.yul\":13310:13381   */\n      tag_318\n        /* \"#utility.yul\":13374:13380   */\n      dup2\n        /* \"#utility.yul\":13369:13372   */\n      dup6\n        /* \"#utility.yul\":13310:13381   */\n      tag_150\n      jump\t// in\n    tag_318:\n        /* \"#utility.yul\":13303:13381   */\n      swap4\n      pop\n        /* \"#utility.yul\":13390:13455   */\n      tag_319\n        /* \"#utility.yul\":13448:13454   */\n      dup2\n        /* \"#utility.yul\":13443:13446   */\n      dup6\n        /* \"#utility.yul\":13436:13440   */\n      0x20\n        /* \"#utility.yul\":13429:13434   */\n      dup7\n        /* \"#utility.yul\":13425:13441   */\n      add\n        /* \"#utility.yul\":13390:13455   */\n      tag_151\n      jump\t// in\n    tag_319:\n        /* \"#utility.yul\":13480:13509   */\n      tag_320\n        /* \"#utility.yul\":13502:13508   */\n      dup2\n        /* \"#utility.yul\":13480:13509   */\n      tag_124\n      jump\t// in\n    tag_320:\n        /* \"#utility.yul\":13475:13478   */\n      dup5\n        /* \"#utility.yul\":13471:13510   */\n      add\n        /* \"#utility.yul\":13464:13510   */\n      swap2\n      pop\n        /* \"#utility.yul\":13231:13516   */\n      pop\n        /* \"#utility.yul\":13139:13516   */\n      swap3\n      swap2\n      pop\n      pop\n      jump\t// out\n        /* \"#utility.yul\":13522:13612   */\n    tag_153:\n        /* \"#utility.yul\":13556:13563   */\n      0x00\n        /* \"#utility.yul\":13599:13604   */\n      dup2\n        /* \"#utility.yul\":13592:13605   */\n      iszero\n        /* \"#utility.yul\":13585:13606   */\n      iszero\n        /* \"#utility.yul\":13574:13606   */\n      swap1\n      pop\n        /* \"#utility.yul\":13522:13612   */\n      swap2\n      swap1\n      pop\n      jump\t// out\n        /* \"#utility.yul\":13618:13727   */\n    tag_154:\n        /* \"#utility.yul\":13699:13720   */\n      tag_323\n        /* \"#utility.yul\":13714:13719   */\n      dup2\n        /* \"#utility.yul\":13699:13720   */\n      tag_153\n      jump\t// in\n    tag_323:\n        /* \"#utility.yul\":13694:13697   */\n      dup3\n        /* \"#utility.yul\":13687:13721   */\n      mstore\n        /* \"#utility.yul\":13618:13727   */\n      pop\n      pop\n      jump\t// out\n        /* \"#utility.yul\":13733:14880   */\n    tag_37:\n        /* \"#utility.yul\":14048:14052   */\n      0x00\n        /* \"#utility.yul\":14086:14089   */\n      0xe0\n        /* \"#utility.yul\":14075:14084   */\n      dup3\n        /* \"#utility.yul\":14071:14090   */\n      add\n        /* \"#utility.yul\":14063:14090   */\n      swap1\n      pop\n        /* \"#utility.yul\":14136:14145   */\n      dup2\n        /* \"#utility.yul\":14130:14134   */\n      dup2\n        /* \"#utility.yul\":14126:14146   */\n      sub\n        /* \"#utility.yul\":14122:14123   */\n      0x00\n        /* \"#utility.yul\":14111:14120   */\n      dup4\n        /* \"#utility.yul\":14107:14124   */\n      add\n        /* \"#utility.yul\":14100:14147   */\n      mstore\n        /* \"#utility.yul\":14164:14242   */\n      tag_325\n        /* \"#utility.yul\":14237:14241   */\n      dup2\n        /* \"#utility.yul\":14228:14234   */\n      dup11\n        /* \"#utility.yul\":14164:14242   */\n      tag_152\n      jump\t// in\n    tag_325:\n        /* \"#utility.yul\":14156:14242   */\n      swap1\n      pop\n        /* \"#utility.yul\":14289:14298   */\n      dup2\n        /* \"#utility.yul\":14283:14287   */\n      dup2\n        /* \"#utility.yul\":14279:14299   */\n      sub\n        /* \"#utility.yul\":14274:14276   */\n      0x20\n        /* \"#utility.yul\":14263:14272   */\n      dup4\n        /* \"#utility.yul\":14259:14277   */\n      add\n        /* \"#utility.yul\":14252:14300   */\n      mstore\n        /* \"#utility.yul\":14317:14395   */\n      tag_326\n        /* \"#utility.yul\":14390:14394   */\n      dup2\n        /* \"#utility.yul\":14381:14387   */\n      dup10\n        /* \"#utility.yul\":14317:14395   */\n      tag_152\n      jump\t// in\n    tag_326:\n        /* \"#utility.yul\":14309:14395   */\n      swap1\n      pop\n        /* \"#utility.yul\":14442:14451   */\n      dup2\n        /* \"#utility.yul\":14436:14440   */\n      dup2\n        /* \"#utility.yul\":14432:14452   */\n      sub\n        /* \"#utility.yul\":14427:14429   */\n      0x40\n        /* \"#utility.yul\":14416:14425   */\n      dup4\n        /* \"#utility.yul\":14412:14430   */\n      add\n        /* \"#utility.yul\":14405:14453   */\n      mstore\n        /* \"#utility.yul\":14470:14548   */\n      tag_327\n        /* \"#utility.yul\":14543:14547   */\n      dup2\n        /* \"#utility.yul\":14534:14540   */\n      dup9\n        /* \"#utility.yul\":14470:14548   */\n      tag_152\n      jump\t// in\n    tag_327:\n        /* \"#utility.yul\":14462:14548   */\n      swap1\n      pop\n        /* \"#utility.yul\":14558:14630   */\n      tag_328\n        /* \"#utility.yul\":14626:14628   */\n      0x60\n        /* \"#utility.yul\":14615:14624   */\n      dup4\n        /* \"#utility.yul\":14611:14629   */\n      add\n        /* \"#utility.yul\":14602:14608   */\n      dup8\n        /* \"#utility.yul\":14558:14630   */\n      tag_145\n      jump\t// in\n    tag_328:\n        /* \"#utility.yul\":14640:14713   */\n      tag_329\n        /* \"#utility.yul\":14708:14711   */\n      0x80\n        /* \"#utility.yul\":14697:14706   */\n      dup4\n        /* \"#utility.yul\":14693:14712   */\n      add\n        /* \"#utility.yul\":14684:14690   */\n      dup7\n        /* \"#utility.yul\":14640:14713   */\n      tag_148\n      jump\t// in\n    tag_329:\n        /* \"#utility.yul\":14723:14790   */\n      tag_330\n        /* \"#utility.yul\":14785:14788   */\n      0xa0\n        /* \"#utility.yul\":14774:14783   */\n      dup4\n        /* \"#utility.yul\":14770:14789   */\n      add\n        /* \"#utility.yul\":14761:14767   */\n      dup6\n        /* \"#utility.yul\":14723:14790   */\n      tag_154\n      jump\t// in\n    tag_330:\n        /* \"#utility.yul\":14800:14873   */\n      tag_331\n        /* \"#utility.yul\":14868:14871   */\n      0xc0\n        /* \"#utility.yul\":14857:14866   */\n      dup4\n        /* \"#utility.yul\":14853:14872   */\n      add\n        /* \"#utility.yul\":14844:14850   */\n      dup5\n        /* \"#utility.yul\":14800:14873   */\n      tag_148\n      jump\t// in\n    tag_331:\n        /* \"#utility.yul\":13733:14880   */\n      swap9\n      swap8\n      pop\n      pop\n      pop\n      pop\n      pop\n      pop\n      pop\n      pop\n      jump\t// out\n        /* \"#utility.yul\":14886:15034   */\n    tag_155:\n        /* \"#utility.yul\":14988:14999   */\n      0x00\n        /* \"#utility.yul\":15025:15028   */\n      dup2\n        /* \"#utility.yul\":15010:15028   */\n      swap1\n      pop\n        /* \"#utility.yul\":14886:15034   */\n      swap3\n      swap2\n      pop\n      pop\n      jump\t// out\n        /* \"#utility.yul\":15040:15430   */\n    tag_156:\n        /* \"#utility.yul\":15146:15149   */\n      0x00\n        /* \"#utility.yul\":15174:15213   */\n      tag_334\n        /* \"#utility.yul\":15207:15212   */\n      dup3\n        /* \"#utility.yul\":15174:15213   */\n      tag_149\n      jump\t// in\n    tag_334:\n        /* \"#utility.yul\":15229:15318   */\n      tag_335\n        /* \"#utility.yul\":15311:15317   */\n      dup2\n        /* \"#utility.yul\":15306:15309   */\n      dup6\n        /* \"#utility.yul\":15229:15318   */\n      tag_155\n      jump\t// in\n    tag_335:\n        /* \"#utility.yul\":15222:15318   */\n      swap4\n      pop\n        /* \"#utility.yul\":15327:15392   */\n      tag_336\n        /* \"#utility.yul\":15385:15391   */\n      dup2\n        /* \"#utility.yul\":15380:15383   */\n      dup6\n        /* \"#utility.yul\":15373:15377   */\n      0x20\n        /* \"#utility.yul\":15366:15371   */\n      dup7\n        /* \"#utility.yul\":15362:15378   */\n      add\n        /* \"#utility.yul\":15327:15392   */\n      tag_151\n      jump\t// in\n    tag_336:\n        /* \"#utility.yul\":15417:15423   */\n      dup1\n        /* \"#utility.yul\":15412:15415   */\n      dup5\n        /* \"#utility.yul\":15408:15424   */\n      add\n        /* \"#utility.yul\":15401:15424   */\n      swap2\n      pop\n        /* \"#utility.yul\":15150:15430   */\n      pop\n        /* \"#utility.yul\":15040:15430   */\n      swap3\n      swap2\n      pop\n      pop\n      jump\t// out\n        /* \"#utility.yul\":15436:15711   */\n    tag_40:\n        /* \"#utility.yul\":15568:15571   */\n      0x00\n        /* \"#utility.yul\":15590:15685   */\n      tag_338\n        /* \"#utility.yul\":15681:15684   */\n      dup3\n        /* \"#utility.yul\":15672:15678   */\n      dup5\n        /* \"#utility.yul\":15590:15685   */\n      tag_156\n      jump\t// in\n    tag_338:\n        /* \"#utility.yul\":15583:15685   */\n      swap2\n      pop\n        /* \"#utility.yul\":15702:15705   */\n      dup2\n        /* \"#utility.yul\":15695:15705   */\n      swap1\n      pop\n        /* \"#utility.yul\":15436:15711   */\n      swap3\n      swap2\n      pop\n      pop\n      jump\t// out\n        /* \"#utility.yul\":15717:15888   */\n    tag_157:\n        /* \"#utility.yul\":15857:15880   */\n      0x426f756e747920646f6573206e6f742065786973740000000000000000000000\n        /* \"#utility.yul\":15853:15854   */\n      0x00\n        /* \"#utility.yul\":15845:15851   */\n      dup3\n        /* \"#utility.yul\":15841:15855   */\n      add\n        /* \"#utility.yul\":15834:15881   */\n      mstore\n        /* \"#utility.yul\":15717:15888   */\n      pop\n      jump\t// out\n        /* \"#utility.yul\":15894:16260   */\n    tag_158:\n        /* \"#utility.yul\":16036:16039   */\n      0x00\n        /* \"#utility.yul\":16057:16124   */\n      tag_341\n        /* \"#utility.yul\":16121:16123   */\n      0x15\n        /* \"#utility.yul\":16116:16119   */\n      dup4\n        /* \"#utility.yul\":16057:16124   */\n      tag_150\n      jump\t// in\n    tag_341:\n        /* \"#utility.yul\":16050:16124   */\n      swap2\n      pop\n        /* \"#utility.yul\":16133:16226   */\n      tag_342\n        /* \"#utility.yul\":16222:16225   */\n      dup3\n        /* \"#utility.yul\":16133:16226   */\n      tag_157\n      jump\t// in\n    tag_342:\n        /* \"#utility.yul\":16251:16253   */\n      0x20\n        /* \"#utility.yul\":16246:16249   */\n      dup3\n        /* \"#utility.yul\":16242:16254   */\n      add\n        /* \"#utility.yul\":16235:16254   */\n      swap1\n      pop\n        /* \"#utility.yul\":15894:16260   */\n      swap2\n      swap1\n      pop\n      jump\t// out\n        /* \"#utility.yul\":16266:16685   */\n    tag_43:\n        /* \"#utility.yul\":16432:16436   */\n      0x00\n        /* \"#utility.yul\":16470:16472   */\n      0x20\n        /* \"#utility.yul\":16459:16468   */\n      dup3\n        /* \"#utility.yul\":16455:16473   */\n      add\n        /* \"#utility.yul\":16447:16473   */\n      swap1\n      pop\n        /* \"#utility.yul\":16519:16528   */\n      dup2\n        /* \"#utility.yul\":16513:16517   */\n      dup2\n        /* \"#utility.yul\":16509:16529   */\n      sub\n        /* \"#utility.yul\":16505:16506   */\n      0x00\n        /* \"#utility.yul\":16494:16503   */\n      dup4\n        /* \"#utility.yul\":16490:16507   */\n      add\n        /* \"#utility.yul\":16483:16530   */\n      mstore\n        /* \"#utility.yul\":16547:16678   */\n      tag_344\n        /* \"#utility.yul\":16673:16677   */\n      dup2\n        /* \"#utility.yul\":16547:16678   */\n      tag_158\n      jump\t// in\n    tag_344:\n        /* \"#utility.yul\":16539:16678   */\n      swap1\n      pop\n        /* \"#utility.yul\":16266:16685   */\n      swap2\n      swap1\n      pop\n      jump\t// out\n        /* \"#utility.yul\":16691:16871   */\n    tag_159:\n        /* \"#utility.yul\":16739:16816   */\n      0x4e487b7100000000000000000000000000000000000000000000000000000000\n        /* \"#utility.yul\":16736:16737   */\n      0x00\n        /* \"#utility.yul\":16729:16817   */\n      mstore\n        /* \"#utility.yul\":16836:16840   */\n      0x11\n        /* \"#utility.yul\":16833:16834   */\n      0x04\n        /* \"#utility.yul\":16826:16841   */\n      mstore\n        /* \"#utility.yul\":16860:16864   */\n      0x24\n        /* \"#utility.yul\":16857:16858   */\n      0x00\n        /* \"#utility.yul\":16850:16865   */\n      revert\n        /* \"#utility.yul\":16877:17071   */\n    tag_46:\n        /* \"#utility.yul\":16917:16921   */\n      0x00\n        /* \"#utility.yul\":16937:16957   */\n      tag_347\n        /* \"#utility.yul\":16955:16956   */\n      dup3\n        /* \"#utility.yul\":16937:16957   */\n      tag_139\n      jump\t// in\n    tag_347:\n        /* \"#utility.yul\":16932:16957   */\n      swap2\n      pop\n        /* \"#utility.yul\":16971:16991   */\n      tag_348\n        /* \"#utility.yul\":16989:16990   */\n      dup4\n        /* \"#utility.yul\":16971:16991   */\n      tag_139\n      jump\t// in\n    tag_348:\n        /* \"#utility.yul\":16966:16991   */\n      swap3\n      pop\n        /* \"#utility.yul\":17015:17016   */\n      dup3\n        /* \"#utility.yul\":17012:17013   */\n      dup3\n        /* \"#utility.yul\":17008:17017   */\n      sub\n        /* \"#utility.yul\":17000:17017   */\n      swap1\n      pop\n        /* \"#utility.yul\":17039:17040   */\n      dup2\n        /* \"#utility.yul\":17033:17037   */\n      dup2\n        /* \"#utility.yul\":17030:17041   */\n      gt\n        /* \"#utility.yul\":17027:17064   */\n      iszero\n      tag_349\n      jumpi\n        /* \"#utility.yul\":17044:17062   */\n      tag_350\n      tag_159\n      jump\t// in\n    tag_350:\n        /* \"#utility.yul\":17027:17064   */\n    tag_349:\n        /* \"#utility.yul\":16877:17071   */\n      swap3\n      swap2\n      pop\n      pop\n      jump\t// out\n        /* \"#utility.yul\":17077:17257   */\n    tag_49:\n        /* \"#utility.yul\":17125:17202   */\n      0x4e487b7100000000000000000000000000000000000000000000000000000000\n        /* \"#utility.yul\":17122:17123   */\n      0x00\n        /* \"#utility.yul\":17115:17203   */\n      mstore\n        /* \"#utility.yul\":17222:17226   */\n      0x32\n        /* \"#utility.yul\":17219:17220   */\n      0x04\n        /* \"#utility.yul\":17212:17227   */\n      mstore\n        /* \"#utility.yul\":17246:17250   */\n      0x24\n        /* \"#utility.yul\":17243:17244   */\n      0x00\n        /* \"#utility.yul\":17236:17251   */\n      revert\n        /* \"#utility.yul\":17263:17438   */\n    tag_160:\n        /* \"#utility.yul\":17403:17430   */\n      0x426f756e747920697320616c726561647920617661696c656400000000000000\n        /* \"#utility.yul\":17399:17400   */\n      0x00\n        /* \"#utility.yul\":17391:17397   */\n      dup3\n        /* \"#utility.yul\":17387:17401   */\n      add\n        /* \"#utility.yul\":17380:17431   */\n      mstore\n        /* \"#utility.yul\":17263:17438   */\n      pop\n      jump\t// out\n        /* \"#utility.yul\":17444:17810   */\n    tag_161:\n        /* \"#utility.yul\":17586:17589   */\n      0x00\n        /* \"#utility.yul\":17607:17674   */\n      tag_354\n        /* \"#utility.yul\":17671:17673   */\n      0x19\n        /* \"#utility.yul\":17666:17669   */\n      dup4\n        /* \"#utility.yul\":17607:17674   */\n      tag_150\n      jump\t// in\n    tag_354:\n        /* \"#utility.yul\":17600:17674   */\n      swap2\n      pop\n        /* \"#utility.yul\":17683:17776   */\n      tag_355\n        /* \"#utility.yul\":17772:17775   */\n      dup3\n        /* \"#utility.yul\":17683:17776   */\n      tag_160\n      jump\t// in\n    tag_355:\n        /* \"#utility.yul\":17801:17803   */\n      0x20\n        /* \"#utility.yul\":17796:17799   */\n      dup3\n        /* \"#utility.yul\":17792:17804   */\n      add\n        /* \"#utility.yul\":17785:17804   */\n      swap1\n      pop\n        /* \"#utility.yul\":17444:17810   */\n      swap2\n      swap1\n      pop\n      jump\t// out\n        /* \"#utility.yul\":17816:18235   */\n    tag_53:\n        /* \"#utility.yul\":17982:17986   */\n      0x00\n        /* \"#utility.yul\":18020:18022   */\n      0x20\n        /* \"#utility.yul\":18009:18018   */\n      dup3\n        /* \"#utility.yul\":18005:18023   */\n      add\n        /* \"#utility.yul\":17997:18023   */\n      swap1\n      pop\n        /* \"#utility.yul\":18069:18078   */\n      dup2\n        /* \"#utility.yul\":18063:18067   */\n      dup2\n        /* \"#utility.yul\":18059:18079   */\n      sub\n        /* \"#utility.yul\":18055:18056   */\n      0x00\n        /* \"#utility.yul\":18044:18053   */\n      dup4\n        /* \"#utility.yul\":18040:18057   */\n      add\n        /* \"#utility.yul\":18033:18080   */\n      mstore\n        /* \"#utility.yul\":18097:18228   */\n      tag_357\n        /* \"#utility.yul\":18223:18227   */\n      dup2\n        /* \"#utility.yul\":18097:18228   */\n      tag_161\n      jump\t// in\n    tag_357:\n        /* \"#utility.yul\":18089:18228   */\n      swap1\n      pop\n        /* \"#utility.yul\":17816:18235   */\n      swap2\n      swap1\n      pop\n      jump\t// out\n        /* \"#utility.yul\":18241:18421   */\n    tag_162:\n        /* \"#utility.yul\":18289:18366   */\n      0x4e487b7100000000000000000000000000000000000000000000000000000000\n        /* \"#utility.yul\":18286:18287   */\n      0x00\n        /* \"#utility.yul\":18279:18367   */\n      mstore\n        /* \"#utility.yul\":18386:18390   */\n      0x22\n        /* \"#utility.yul\":18383:18384   */\n      0x04\n        /* \"#utility.yul\":18376:18391   */\n      mstore\n        /* \"#utility.yul\":18410:18414   */\n      0x24\n        /* \"#utility.yul\":18407:18408   */\n      0x00\n        /* \"#utility.yul\":18400:18415   */\n      revert\n        /* \"#utility.yul\":18427:18747   */\n    tag_104:\n        /* \"#utility.yul\":18471:18477   */\n      0x00\n        /* \"#utility.yul\":18508:18509   */\n      0x02\n        /* \"#utility.yul\":18502:18506   */\n      dup3\n        /* \"#utility.yul\":18498:18510   */\n      div\n        /* \"#utility.yul\":18488:18510   */\n      swap1\n      pop\n        /* \"#utility.yul\":18555:18556   */\n      0x01\n        /* \"#utility.yul\":18549:18553   */\n      dup3\n        /* \"#utility.yul\":18545:18557   */\n      and\n        /* \"#utility.yul\":18576:18594   */\n      dup1\n        /* \"#utility.yul\":18566:18647   */\n      tag_360\n      jumpi\n        /* \"#utility.yul\":18632:18636   */\n      0x7f\n        /* \"#utility.yul\":18624:18630   */\n      dup3\n        /* \"#utility.yul\":18620:18637   */\n      and\n        /* \"#utility.yul\":18610:18637   */\n      swap2\n      pop\n        /* \"#utility.yul\":18566:18647   */\n    tag_360:\n        /* \"#utility.yul\":18694:18696   */\n      0x20\n        /* \"#utility.yul\":18686:18692   */\n      dup3\n        /* \"#utility.yul\":18683:18697   */\n      lt\n        /* \"#utility.yul\":18663:18681   */\n      dup2\n        /* \"#utility.yul\":18660:18698   */\n      sub\n        /* \"#utility.yul\":18657:18741   */\n      tag_361\n      jumpi\n        /* \"#utility.yul\":18713:18731   */\n      tag_362\n      tag_162\n      jump\t// in\n    tag_362:\n        /* \"#utility.yul\":18657:18741   */\n    tag_361:\n        /* \"#utility.yul\":18478:18747   */\n      pop\n        /* \"#utility.yul\":18427:18747   */\n      swap2\n      swap1\n      pop\n      jump\t// out\n        /* \"#utility.yul\":18753:18894   */\n    tag_163:\n        /* \"#utility.yul\":18802:18806   */\n      0x00\n        /* \"#utility.yul\":18825:18828   */\n      dup2\n        /* \"#utility.yul\":18817:18828   */\n      swap1\n      pop\n        /* \"#utility.yul\":18848:18851   */\n      dup2\n        /* \"#utility.yul\":18845:18846   */\n      0x00\n        /* \"#utility.yul\":18838:18852   */\n      mstore\n        /* \"#utility.yul\":18882:18886   */\n      0x20\n        /* \"#utility.yul\":18879:18880   */\n      0x00\n        /* \"#utility.yul\":18869:18887   */\n      keccak256\n        /* \"#utility.yul\":18861:18887   */\n      swap1\n      pop\n        /* \"#utility.yul\":18753:18894   */\n      swap2\n      swap1\n      pop\n      jump\t// out\n        /* \"#utility.yul\":18900:18993   */\n    tag_164:\n        /* \"#utility.yul\":18937:18943   */\n      0x00\n        /* \"#utility.yul\":18984:18986   */\n      0x20\n        /* \"#utility.yul\":18979:18981   */\n      0x1f\n        /* \"#utility.yul\":18972:18977   */\n      dup4\n        /* \"#utility.yul\":18968:18982   */\n      add\n        /* \"#utility.yul\":18964:18987   */\n      div\n        /* \"#utility.yul\":18954:18987   */\n      swap1\n      pop\n        /* \"#utility.yul\":18900:18993   */\n      swap2\n      swap1\n      pop\n      jump\t// out\n        /* \"#utility.yul\":18999:19106   */\n    tag_165:\n        /* \"#utility.yul\":19043:19051   */\n      0x00\n        /* \"#utility.yul\":19093:19098   */\n      dup3\n        /* \"#utility.yul\":19087:19091   */\n      dup3\n        /* \"#utility.yul\":19083:19099   */\n      shl\n        /* \"#utility.yul\":19062:19099   */\n      swap1\n      pop\n        /* \"#utility.yul\":18999:19106   */\n      swap3\n      swap2\n      pop\n      pop\n      jump\t// out\n        /* \"#utility.yul\":19112:19505   */\n    tag_166:\n        /* \"#utility.yul\":19181:19187   */\n      0x00\n        /* \"#utility.yul\":19231:19232   */\n      0x08\n        /* \"#utility.yul\":19219:19229   */\n      dup4\n        /* \"#utility.yul\":19215:19233   */\n      mul\n        /* \"#utility.yul\":19254:19351   */\n      tag_367\n        /* \"#utility.yul\":19284:19350   */\n      0xffffffffffffffffffffffffffffffffffffffffffffffffffffffffffffffff\n        /* \"#utility.yul\":19273:19282   */\n      dup3\n        /* \"#utility.yul\":19254:19351   */\n      tag_165\n      jump\t// in\n    tag_367:\n        /* \"#utility.yul\":19372:19411   */\n      tag_368\n        /* \"#utility.yul\":19402:19410   */\n      dup7\n        /* \"#utility.yul\":19391:19400   */\n      dup4\n        /* \"#utility.yul\":19372:19411   */\n      tag_165\n      jump\t// in\n    tag_368:\n        /* \"#utility.yul\":19360:19411   */\n      swap6\n      pop\n        /* \"#utility.yul\":19444:19448   */\n      dup1\n        /* \"#utility.yul\":19440:19449   */\n      not\n        /* \"#utility.yul\":19433:19438   */\n      dup5\n        /* \"#utility.yul\":19429:19450   */\n      and\n        /* \"#utility.yul\":19420:19450   */\n      swap4\n      pop\n        /* \"#utility.yul\":19493:19497   */\n      dup1\n        /* \"#utility.yul\":19483:19491   */\n      dup7\n        /* \"#utility.yul\":19479:19498   */\n      and\n        /* \"#utility.yul\":19472:19477   */\n      dup5\n        /* \"#utility.yul\":19469:19499   */\n      or\n        /* \"#utility.yul\":19459:19499   */\n      swap3\n      pop\n        /* \"#utility.yul\":19188:19505   */\n      pop\n      pop\n        /* \"#utility.yul\":19112:19505   */\n      swap4\n      swap3\n      pop\n      pop\n      pop\n      jump\t// out\n        /* \"#utility.yul\":19511:19571   */\n    tag_167:\n        /* \"#utility.yul\":19539:19542   */\n      0x00\n        /* \"#utility.yul\":19560:19565   */\n      dup2\n        /* \"#utility.yul\":19553:19565   */\n      swap1\n      pop\n        /* \"#utility.yul\":19511:19571   */\n      swap2\n      swap1\n      pop\n      jump\t// out\n        /* \"#utility.yul\":19577:19719   */\n    tag_168:\n        /* \"#utility.yul\":19627:19636   */\n      0x00\n        /* \"#utility.yul\":19660:19713   */\n      tag_371\n        /* \"#utility.yul\":19678:19712   */\n      tag_372\n        /* \"#utility.yul\":19687:19711   */\n      tag_373\n        /* \"#utility.yul\":19705:19710   */\n      dup5\n        /* \"#utility.yul\":19687:19711   */\n      tag_139\n      jump\t// in\n    tag_373:\n        /* \"#utility.yul\":19678:19712   */\n      tag_167\n      jump\t// in\n    tag_372:\n        /* \"#utility.yul\":19660:19713   */\n      tag_139\n      jump\t// in\n    tag_371:\n        /* \"#utility.yul\":19647:19713   */\n      swap1\n      pop\n        /* \"#utility.yul\":19577:19719   */\n      swap2\n      swap1\n      pop\n      jump\t// out\n        /* \"#utility.yul\":19725:19800   */\n    tag_169:\n        /* \"#utility.yul\":19768:19771   */\n      0x00\n        /* \"#utility.yul\":19789:19794   */\n      dup2\n        /* \"#utility.yul\":19782:19794   */\n      swap1\n      pop\n        /* \"#utility.yul\":19725:19800   */\n      swap2\n      swap1\n      pop\n      jump\t// out\n        /* \"#utility.yul\":19806:20075   */\n    tag_170:\n        /* \"#utility.yul\":19916:19955   */\n      tag_376\n        /* \"#utility.yul\":19947:19954   */\n      dup4\n        /* \"#utility.yul\":19916:19955   */\n      tag_168\n      jump\t// in\n    tag_376:\n        /* \"#utility.yul\":19977:20068   */\n      tag_377\n        /* \"#utility.yul\":20026:20067   */\n      tag_378\n        /* \"#utility.yul\":20050:20066   */\n      dup3\n        /* \"#utility.yul\":20026:20067   */\n      tag_169\n      jump\t// in\n    tag_378:\n        /* \"#utility.yul\":20018:20024   */\n      dup5\n        /* \"#utility.yul\":20011:20015   */\n      dup5\n        /* \"#utility.yul\":20005:20016   */\n      sload\n        /* \"#utility.yul\":19977:20068   */\n      tag_166\n      jump\t// in\n    tag_377:\n        /* \"#utility.yul\":19971:19975   */\n      dup3\n        /* \"#utility.yul\":19964:20069   */\n      sstore\n        /* \"#utility.yul\":19882:20075   */\n      pop\n        /* \"#utility.yul\":19806:20075   */\n      pop\n      pop\n      pop\n      jump\t// out\n        /* \"#utility.yul\":20081:20154   */\n    tag_171:\n        /* \"#utility.yul\":20126:20129   */\n      0x00\n        /* \"#utility.yul\":20081:20154   */\n      swap1\n      jump\t// out\n        /* \"#utility.yul\":20160:20349   */\n    tag_172:\n        /* \"#utility.yul\":20237:20269   */\n      tag_381\n      tag_171\n      jump\t// in\n    tag_381:\n        /* \"#utility.yul\":20278:20343   */\n      tag_382\n        /* \"#utility.yul\":20336:20342   */\n      dup2\n        /* \"#utility.yul\":20328:20334   */\n      dup5\n        /* \"#utility.yul\":20322:20326   */\n      dup5\n        /* \"#utility.yul\":20278:20343   */\n      tag_170\n      jump\t// in\n    tag_382:\n        /* \"#utility.yul\":20213:20349   */\n      pop\n        /* \"#utility.yul\":20160:20349   */\n      pop\n      pop\n      jump\t// out\n        /* \"#utility.yul\":20355:20541   */\n    tag_173:\n        /* \"#utility.yul\":20415:20535   */\n    tag_384:\n        /* \"#utility.yul\":20432:20435   */\n      dup2\n        /* \"#utility.yul\":20425:20430   */\n      dup2\n        /* \"#utility.yul\":20422:20436   */\n      lt\n        /* \"#utility.yul\":20415:20535   */\n      iszero\n      tag_386\n      jumpi\n        /* \"#utility.yul\":20486:20525   */\n      tag_387\n        /* \"#utility.yul\":20523:20524   */\n      0x00\n        /* \"#utility.yul\":20516:20521   */\n      dup3\n        /* \"#utility.yul\":20486:20525   */\n      tag_172\n      jump\t// in\n    tag_387:\n        /* \"#utility.yul\":20459:20460   */\n      0x01\n        /* \"#utility.yul\":20452:20457   */\n      dup2\n        /* \"#utility.yul\":20448:20461   */\n      add\n        /* \"#utility.yul\":20439:20461   */\n      swap1\n      pop\n        /* \"#utility.yul\":20415:20535   */\n      jump(tag_384)\n    tag_386:\n        /* \"#utility.yul\":20355:20541   */\n      pop\n      pop\n      jump\t// out\n        /* \"#utility.yul\":20547:21090   */\n    tag_174:\n        /* \"#utility.yul\":20648:20650   */\n      0x1f\n        /* \"#utility.yul\":20643:20646   */\n      dup3\n        /* \"#utility.yul\":20640:20651   */\n      gt\n        /* \"#utility.yul\":20637:21083   */\n      iszero\n      tag_389\n      jumpi\n        /* \"#utility.yul\":20682:20720   */\n      tag_390\n        /* \"#utility.yul\":20714:20719   */\n      dup2\n        /* \"#utility.yul\":20682:20720   */\n      tag_163\n      jump\t// in\n    tag_390:\n        /* \"#utility.yul\":20766:20795   */\n      tag_391\n        /* \"#utility.yul\":20784:20794   */\n      dup5\n        /* \"#utility.yul\":20766:20795   */\n      tag_164\n      jump\t// in\n    tag_391:\n        /* \"#utility.yul\":20756:20764   */\n      dup2\n        /* \"#utility.yul\":20752:20796   */\n      add\n        /* \"#utility.yul\":20949:20951   */\n      0x20\n        /* \"#utility.yul\":20937:20947   */\n      dup6\n        /* \"#utility.yul\":20934:20952   */\n      lt\n        /* \"#utility.yul\":20931:20980   */\n      iszero\n      tag_392\n      jumpi\n        /* \"#utility.yul\":20970:20978   */\n      dup2\n        /* \"#utility.yul\":20955:20978   */\n      swap1\n      pop\n        /* \"#utility.yul\":20931:20980   */\n    tag_392:\n        /* \"#utility.yul\":20993:21073   */\n      tag_393\n        /* \"#utility.yul\":21049:21071   */\n      tag_394\n        /* \"#utility.yul\":21067:21070   */\n      dup6\n        /* \"#utility.yul\":21049:21071   */\n      tag_164\n      jump\t// in\n    tag_394:\n        /* \"#utility.yul\":21039:21047   */\n      dup4\n        /* \"#utility.yul\":21035:21072   */\n      add\n        /* \"#utility.yul\":21022:21033   */\n      dup3\n        /* \"#utility.yul\":20993:21073   */\n      tag_173\n      jump\t// in\n    tag_393:\n        /* \"#utility.yul\":20652:21083   */\n      pop\n      pop\n        /* \"#utility.yul\":20637:21083   */\n    tag_389:\n        /* \"#utility.yul\":20547:21090   */\n      pop\n      pop\n      pop\n      jump\t// out\n        /* \"#utility.yul\":21096:21213   */\n    tag_175:\n        /* \"#utility.yul\":21150:21158   */\n      0x00\n        /* \"#utility.yul\":21200:21205   */\n      dup3\n        /* \"#utility.yul\":21194:21198   */\n      dup3\n        /* \"#utility.yul\":21190:21206   */\n      shr\n        /* \"#utility.yul\":21169:21206   */\n      swap1\n      pop\n        /* \"#utility.yul\":21096:21213   */\n      swap3\n      swap2\n      pop\n      pop\n      jump\t// out\n        /* \"#utility.yul\":21219:21388   */\n    tag_176:\n        /* \"#utility.yul\":21263:21269   */\n      0x00\n        /* \"#utility.yul\":21296:21347   */\n      tag_397\n        /* \"#utility.yul\":21344:21345   */\n      0x00\n        /* \"#utility.yul\":21340:21346   */\n      not\n        /* \"#utility.yul\":21332:21337   */\n      dup5\n        /* \"#utility.yul\":21329:21330   */\n      0x08\n        /* \"#utility.yul\":21325:21338   */\n      mul\n        /* \"#utility.yul\":21296:21347   */\n      tag_175\n      jump\t// in\n    tag_397:\n        /* \"#utility.yul\":21292:21348   */\n      not\n        /* \"#utility.yul\":21377:21381   */\n      dup1\n        /* \"#utility.yul\":21371:21375   */\n      dup4\n        /* \"#utility.yul\":21367:21382   */\n      and\n        /* \"#utility.yul\":21357:21382   */\n      swap2\n      pop\n        /* \"#utility.yul\":21270:21388   */\n      pop\n        /* \"#utility.yul\":21219:21388   */\n      swap3\n      swap2\n      pop\n      pop\n      jump\t// out\n        /* \"#utility.yul\":21393:21688   */\n    tag_177:\n        /* \"#utility.yul\":21469:21473   */\n      0x00\n        /* \"#utility.yul\":21615:21644   */\n      tag_399\n        /* \"#utility.yul\":21640:21643   */\n      dup4\n        /* \"#utility.yul\":21634:21638   */\n      dup4\n        /* \"#utility.yul\":21615:21644   */\n      tag_176\n      jump\t// in\n    tag_399:\n        /* \"#utility.yul\":21607:21644   */\n      swap2\n      pop\n        /* \"#utility.yul\":21677:21680   */\n      dup3\n        /* \"#utility.yul\":21674:21675   */\n      0x02\n        /* \"#utility.yul\":21670:21681   */\n      mul\n        /* \"#utility.yul\":21664:21668   */\n      dup3\n        /* \"#utility.yul\":21661:21682   */\n      or\n        /* \"#utility.yul\":21653:21682   */\n      swap1\n      pop\n        /* \"#utility.yul\":21393:21688   */\n      swap3\n      swap2\n      pop\n      pop\n      jump\t// out\n        /* \"#utility.yul\":21693:23088   */\n    tag_66:\n        /* \"#utility.yul\":21810:21847   */\n      tag_401\n        /* \"#utility.yul\":21843:21846   */\n      dup3\n        /* \"#utility.yul\":21810:21847   */\n      tag_149\n      jump\t// in\n    tag_401:\n        /* \"#utility.yul\":21912:21930   */\n      0xffffffffffffffff\n        /* \"#utility.yul\":21904:21910   */\n      dup2\n        /* \"#utility.yul\":21901:21931   */\n      gt\n        /* \"#utility.yul\":21898:21954   */\n      iszero\n      tag_402\n      jumpi\n        /* \"#utility.yul\":21934:21952   */\n      tag_403\n      tag_125\n      jump\t// in\n    tag_403:\n        /* \"#utility.yul\":21898:21954   */\n    tag_402:\n        /* \"#utility.yul\":21978:22016   */\n      tag_404\n        /* \"#utility.yul\":22010:22014   */\n      dup3\n        /* \"#utility.yul\":22004:22015   */\n      sload\n        /* \"#utility.yul\":21978:22016   */\n      tag_104\n      jump\t// in\n    tag_404:\n        /* \"#utility.yul\":22063:22130   */\n      tag_405\n        /* \"#utility.yul\":22123:22129   */\n      dup3\n        /* \"#utility.yul\":22115:22121   */\n      dup3\n        /* \"#utility.yul\":22109:22113   */\n      dup6\n        /* \"#utility.yul\":22063:22130   */\n      tag_174\n      jump\t// in\n    tag_405:\n        /* \"#utility.yul\":22157:22158   */\n      0x00\n        /* \"#utility.yul\":22181:22185   */\n      0x20\n        /* \"#utility.yul\":22168:22185   */\n      swap1\n      pop\n        /* \"#utility.yul\":22213:22215   */\n      0x1f\n        /* \"#utility.yul\":22205:22211   */\n      dup4\n        /* \"#utility.yul\":22202:22216   */\n      gt\n        /* \"#utility.yul\":22230:22231   */\n      0x01\n        /* \"#utility.yul\":22225:22843   */\n      dup2\n      eq\n      tag_407\n      jumpi\n        /* \"#utility.yul\":22887:22888   */\n      0x00\n        /* \"#utility.yul\":22904:22910   */\n      dup5\n        /* \"#utility.yul\":22901:22978   */\n      iszero\n      tag_408\n      jumpi\n        /* \"#utility.yul\":22953:22962   */\n      dup3\n        /* \"#utility.yul\":22948:22951   */\n      dup8\n        /* \"#utility.yul\":22944:22963   */\n      add\n        /* \"#utility.yul\":22938:22964   */\n      mload\n        /* \"#utility.yul\":22929:22964   */\n      swap1\n      pop\n        /* \"#utility.yul\":22901:22978   */\n    tag_408:\n        /* \"#utility.yul\":23004:23071   */\n      tag_409\n        /* \"#utility.yul\":23064:23070   */\n      dup6\n        /* \"#utility.yul\":23057:23062   */\n      dup3\n        /* \"#utility.yul\":23004:23071   */\n      tag_177\n      jump\t// in\n    tag_409:\n        /* \"#utility.yul\":22998:23002   */\n      dup7\n        /* \"#utility.yul\":22991:23072   */\n      sstore\n        /* \"#utility.yul\":22860:23082   */\n      pop\n        /* \"#utility.yul\":22195:23082   */\n      jump(tag_406)\n        /* \"#utility.yul\":22225:22843   */\n    tag_407:\n        /* \"#utility.yul\":22277:22281   */\n      0x1f\n        /* \"#utility.yul\":22273:22282   */\n      not\n        /* \"#utility.yul\":22265:22271   */\n      dup5\n        /* \"#utility.yul\":22261:22283   */\n      and\n        /* \"#utility.yul\":22311:22348   */\n      tag_410\n        /* \"#utility.yul\":22343:22347   */\n      dup7\n        /* \"#utility.yul\":22311:22348   */\n      tag_163\n      jump\t// in\n    tag_410:\n        /* \"#utility.yul\":22370:22371   */\n      0x00\n        /* \"#utility.yul\":22384:22592   */\n    tag_411:\n        /* \"#utility.yul\":22398:22405   */\n      dup3\n        /* \"#utility.yul\":22395:22396   */\n      dup2\n        /* \"#utility.yul\":22392:22406   */\n      lt\n        /* \"#utility.yul\":22384:22592   */\n      iszero\n      tag_413\n      jumpi\n        /* \"#utility.yul\":22477:22486   */\n      dup5\n        /* \"#utility.yul\":22472:22475   */\n      dup10\n        /* \"#utility.yul\":22468:22487   */\n      add\n        /* \"#utility.yul\":22462:22488   */\n      mload\n        /* \"#utility.yul\":22454:22460   */\n      dup3\n        /* \"#utility.yul\":22447:22489   */\n      sstore\n        /* \"#utility.yul\":22528:22529   */\n      0x01\n        /* \"#utility.yul\":22520:22526   */\n      dup3\n        /* \"#utility.yul\":22516:22530   */\n      add\n        /* \"#utility.yul\":22506:22530   */\n      swap2\n      pop\n        /* \"#utility.yul\":22575:22577   */\n      0x20\n        /* \"#utility.yul\":22564:22573   */\n      dup6\n        /* \"#utility.yul\":22560:22578   */\n      add\n        /* \"#utility.yul\":22547:22578   */\n      swap5\n      pop\n        /* \"#utility.yul\":22421:22425   */\n      0x20\n        /* \"#utility.yul\":22418:22419   */\n      dup2\n        /* \"#utility.yul\":22414:22426   */\n      add\n        /* \"#utility.yul\":22409:22426   */\n      swap1\n      pop\n        /* \"#utility.yul\":22384:22592   */\n      jump(tag_411)\n    tag_413:\n        /* \"#utility.yul\":22620:22626   */\n      dup7\n        /* \"#utility.yul\":22611:22618   */\n      dup4\n        /* \"#utility.yul\":22608:22627   */\n      lt\n        /* \"#utility.yul\":22605:22784   */\n      iszero\n      tag_414\n      jumpi\n        /* \"#utility.yul\":22678:22687   */\n      dup5\n        /* \"#utility.yul\":22673:22676   */\n      dup10\n        /* \"#utility.yul\":22669:22688   */\n      add\n        /* \"#utility.yul\":22663:22689   */\n      mload\n        /* \"#utility.yul\":22721:22769   */\n      tag_415\n        /* \"#utility.yul\":22763:22767   */\n      0x1f\n        /* \"#utility.yul\":22755:22761   */\n      dup10\n        /* \"#utility.yul\":22751:22768   */\n      and\n        /* \"#utility.yul\":22740:22749   */\n      dup3\n        /* \"#utility.yul\":22721:22769   */\n      tag_176\n      jump\t// in\n    tag_415:\n        /* \"#utility.yul\":22713:22719   */\n      dup4\n        /* \"#utility.yul\":22706:22770   */\n      sstore\n        /* \"#utility.yul\":22628:22784   */\n      pop\n        /* \"#utility.yul\":22605:22784   */\n    tag_414:\n        /* \"#utility.yul\":22830:22831   */\n      0x01\n        /* \"#utility.yul\":22826:22827   */\n      0x02\n        /* \"#utility.yul\":22818:22824   */\n      dup9\n        /* \"#utility.yul\":22814:22828   */\n      mul\n        /* \"#utility.yul\":22810:22832   */\n      add\n        /* \"#utility.yul\":22804:22808   */\n      dup9\n        /* \"#utility.yul\":22797:22833   */\n      sstore\n        /* \"#utility.yul\":22232:22843   */\n      pop\n      pop\n      pop\n        /* \"#utility.yul\":22195:23082   */\n    tag_406:\n      pop\n        /* \"#utility.yul\":21785:23088   */\n      pop\n      pop\n      pop\n        /* \"#utility.yul\":21693:23088   */\n      pop\n      pop\n      jump\t// out\n\n    auxdata: 0xa264697066735822122043a78ec07c76ff66b4cff891284f006d3f4c9d2eadaeb3e7de2689f5040a97e864736f6c634300081a0033\n}\n",
				"bytecode": {
					"linkReferences": {},
					"object": "6080604052348015600e575f80fd5b506115cd8061001c5f395ff3fe608060405234801561000f575f80fd5b5060043610610060575f3560e01c8063091907c61461006457806318da9b121461008057806328fd9d6d146100b05780633edb9e02146100cc5780636ec6884f146100fc578063dc2f87441461012c575b5f80fd5b61007e60048036038101906100799190610d7a565b610162565b005b61009a60048036038101906100959190610e1e565b610492565b6040516100a79190610e74565b60405180910390f35b6100ca60048036038101906100c59190610e8d565b6104bf565b005b6100e660048036038101906100e19190610e1e565b61072b565b6040516100f39190610e74565b60405180910390f35b61011660048036038101906101119190610fa2565b610758565b604051610123919061100c565b60405180910390f35b61014660048036038101906101419190610fa2565b6107a0565b604051610159979695949392919061109f565b60405180910390f35b5f600284604051610173919061115b565b908152602001604051809103902054036101c2576040517f08c379a00000000000000000000000000000000000000000000000000000000081526004016101b9906111bb565b60405180910390fd5b5f60016002856040516101d5919061115b565b9081526020016040518091039020546101ee9190611206565b90505f80828154811061020457610203611239565b5b905f5260205f20906008020190508060060160149054906101000a900460ff1615610264576040517f08c379a000000000000000000000000000000000000000000000000000000000815260040161025b906112b0565b60405180910390fd5b6001808160018154018082558091505003905f5260205f209050505f60018080805490506102929190611206565b815481106102a3576102a2611239565b5b905f5260205f209060030201905033815f015f6101000a81548173ffffffffffffffffffffffffffffffffffffffff021916908373ffffffffffffffffffffffffffffffffffffffff1602179055505f5b8551811015610358578160020186828151811061031457610313611239565b5b6020026020010151908060018154018082558091505060019003905f5260205f20015f90919091909150908161034a91906114c8565b5080806001019150506102f4565b505f5b84518110156103d6578160010185828151811061037b5761037a611239565b5b6020026020010151908060018154018082558091505060019003905f5260205f2090600202015f909190919091505f820151815f0190816103bc91906114c8565b50602082015181600101555050808060010191505061035b565b5060018260060160146101000a81548160ff02191690831515021790555033826007015f6101000a81548173ffffffffffffffffffffffffffffffffffffffff021916908373ffffffffffffffffffffffffffffffffffffffff16021790555060018054905060038760405161044c919061115b565b9081526020016040518091039020819055507f1c3e67c4ec352916daab0edfab1f8f78f6e600cb5833b3df9f929b0df4daafc660405160405180910390a1505050505050565b6003818051602081018201805184825260208301602085012081835280955050505050505f915090505481565b5f60018160018154018082558091505003905f5260205f209050505f8060015f805490506104ed9190611206565b815481106104fe576104fd611239565b5b905f5260205f209060080201905086815f01908161051c91906114c8565b508581600101908161052e91906114c8565b508481600201908161054091906114c8565b5081816005018190555033816006015f6101000a81548173ffffffffffffffffffffffffffffffffffffffff021916908373ffffffffffffffffffffffffffffffffffffffff1602179055505f8160060160146101000a81548160ff0219169083151502179055505f816007015f6101000a81548173ffffffffffffffffffffffffffffffffffffffff021916908373ffffffffffffffffffffffffffffffffffffffff1602179055505f5b8451811015610650578160030185828151811061060c5761060b611239565b5b6020026020010151908060018154018082558091505060019003905f5260205f20015f90919091909150908161064291906114c8565b5080806001019150506105ec565b505f5b83518110156106ce578160040184828151811061067357610672611239565b5b6020026020010151908060018154018082558091505060019003905f5260205f2090600202015f909190919091505f820151815f0190816106b491906114c8565b506020820151816001015550508080600101915050610653565b505f805490506002886040516106e4919061115b565b9081526020016040518091039020819055507f305ac49f0fd058ac0c830a3a5a104a5531acafef3f3d8fecf3dfbe52e0e4521460405160405180910390a150505050505050565b6002818051602081018201805184825260208301602085012081835280955050505050505f915090505481565b60018181548110610767575f80fd5b905f5260205f2090600302015f91509050805f015f9054906101000a900473ffffffffffffffffffffffffffffffffffffffff16905081565b5f81815481106107ae575f80fd5b905f5260205f2090600802015f91509050805f0180546107cd906112fb565b80601f01602080910402602001604051908101604052809291908181526020018280546107f9906112fb565b80156108445780601f1061081b57610100808354040283529160200191610844565b820191905f5260205f20905b81548152906001019060200180831161082757829003601f168201915b505050505090806001018054610859906112fb565b80601f0160208091040260200160405190810160405280929190818152602001828054610885906112fb565b80156108d05780601f106108a7576101008083540402835291602001916108d0565b820191905f5260205f20905b8154815290600101906020018083116108b357829003601f168201915b5050505050908060020180546108e5906112fb565b80601f0160208091040260200160405190810160405280929190818152602001828054610911906112fb565b801561095c5780601f106109335761010080835404028352916020019161095c565b820191905f5260205f20905b81548152906001019060200180831161093f57829003601f168201915b505050505090806005015490806006015f9054906101000a900473ffffffffffffffffffffffffffffffffffffffff16908060060160149054906101000a900460ff1690806007015f9054906101000a900473ffffffffffffffffffffffffffffffffffffffff16905087565b5f604051905090565b5f80fd5b5f80fd5b5f80fd5b5f80fd5b5f601f19601f8301169050919050565b7f4e487b71000000000000000000000000000000000000000000000000000000005f52604160045260245ffd5b610a28826109e2565b810181811067ffffffffffffffff82111715610a4757610a466109f2565b5b80604052505050565b5f610a596109c9565b9050610a658282610a1f565b919050565b5f67ffffffffffffffff821115610a8457610a836109f2565b5b610a8d826109e2565b9050602081019050919050565b828183375f83830152505050565b5f610aba610ab584610a6a565b610a50565b905082815260208101848484011115610ad657610ad56109de565b5b610ae1848285610a9a565b509392505050565b5f82601f830112610afd57610afc6109da565b5b8135610b0d848260208601610aa8565b91505092915050565b5f67ffffffffffffffff821115610b3057610b2f6109f2565b5b602082029050602081019050919050565b5f80fd5b5f610b57610b5284610b16565b610a50565b90508083825260208201905060208402830185811115610b7a57610b79610b41565b5b835b81811015610bc157803567ffffffffffffffff811115610b9f57610b9e6109da565b5b808601610bac8982610ae9565b85526020850194505050602081019050610b7c565b5050509392505050565b5f82601f830112610bdf57610bde6109da565b5b8135610bef848260208601610b45565b91505092915050565b5f67ffffffffffffffff821115610c1257610c116109f2565b5b602082029050602081019050919050565b5f80fd5b5f80fd5b5f819050919050565b610c3d81610c2b565b8114610c47575f80fd5b50565b5f81359050610c5881610c34565b92915050565b5f60408284031215610c7357610c72610c23565b5b610c7d6040610a50565b90505f82013567ffffffffffffffff811115610c9c57610c9b610c27565b5b610ca884828501610ae9565b5f830152506020610cbb84828501610c4a565b60208301525092915050565b5f610cd9610cd484610bf8565b610a50565b90508083825260208201905060208402830185811115610cfc57610cfb610b41565b5b835b81811015610d4357803567ffffffffffffffff811115610d2157610d206109da565b5b808601610d2e8982610c5e565b85526020850194505050602081019050610cfe565b5050509392505050565b5f82601f830112610d6157610d606109da565b5b8135610d71848260208601610cc7565b91505092915050565b5f805f60608486031215610d9157610d906109d2565b5b5f84013567ffffffffffffffff811115610dae57610dad6109d6565b5b610dba86828701610ae9565b935050602084013567ffffffffffffffff811115610ddb57610dda6109d6565b5b610de786828701610bcb565b925050604084013567ffffffffffffffff811115610e0857610e076109d6565b5b610e1486828701610d4d565b9150509250925092565b5f60208284031215610e3357610e326109d2565b5b5f82013567ffffffffffffffff811115610e5057610e4f6109d6565b5b610e5c84828501610ae9565b91505092915050565b610e6e81610c2b565b82525050565b5f602082019050610e875f830184610e65565b92915050565b5f805f805f8060c08789031215610ea757610ea66109d2565b5b5f87013567ffffffffffffffff811115610ec457610ec36109d6565b5b610ed089828a01610ae9565b965050602087013567ffffffffffffffff811115610ef157610ef06109d6565b5b610efd89828a01610ae9565b955050604087013567ffffffffffffffff811115610f1e57610f1d6109d6565b5b610f2a89828a01610ae9565b945050606087013567ffffffffffffffff811115610f4b57610f4a6109d6565b5b610f5789828a01610bcb565b935050608087013567ffffffffffffffff811115610f7857610f776109d6565b5b610f8489828a01610d4d565b92505060a0610f9589828a01610c4a565b9150509295509295509295565b5f60208284031215610fb757610fb66109d2565b5b5f610fc484828501610c4a565b91505092915050565b5f73ffffffffffffffffffffffffffffffffffffffff82169050919050565b5f610ff682610fcd565b9050919050565b61100681610fec565b82525050565b5f60208201905061101f5f830184610ffd565b92915050565b5f81519050919050565b5f82825260208201905092915050565b8281835e5f83830152505050565b5f61105782611025565b611061818561102f565b935061107181856020860161103f565b61107a816109e2565b840191505092915050565b5f8115159050919050565b61109981611085565b82525050565b5f60e0820190508181035f8301526110b7818a61104d565b905081810360208301526110cb818961104d565b905081810360408301526110df818861104d565b90506110ee6060830187610e65565b6110fb6080830186610ffd565b61110860a0830185611090565b61111560c0830184610ffd565b98975050505050505050565b5f81905092915050565b5f61113582611025565b61113f8185611121565b935061114f81856020860161103f565b80840191505092915050565b5f611166828461112b565b915081905092915050565b7f426f756e747920646f6573206e6f7420657869737400000000000000000000005f82015250565b5f6111a560158361102f565b91506111b082611171565b602082019050919050565b5f6020820190508181035f8301526111d281611199565b9050919050565b7f4e487b71000000000000000000000000000000000000000000000000000000005f52601160045260245ffd5b5f61121082610c2b565b915061121b83610c2b565b9250828203905081811115611233576112326111d9565b5b92915050565b7f4e487b71000000000000000000000000000000000000000000000000000000005f52603260045260245ffd5b7f426f756e747920697320616c726561647920617661696c6564000000000000005f82015250565b5f61129a60198361102f565b91506112a582611266565b602082019050919050565b5f6020820190508181035f8301526112c78161128e565b9050919050565b7f4e487b71000000000000000000000000000000000000000000000000000000005f52602260045260245ffd5b5f600282049050600182168061131257607f821691505b602082108103611325576113246112ce565b5b50919050565b5f819050815f5260205f209050919050565b5f6020601f8301049050919050565b5f82821b905092915050565b5f600883026113877fffffffffffffffffffffffffffffffffffffffffffffffffffffffffffffffff8261134c565b611391868361134c565b95508019841693508086168417925050509392505050565b5f819050919050565b5f6113cc6113c76113c284610c2b565b6113a9565b610c2b565b9050919050565b5f819050919050565b6113e5836113b2565b6113f96113f1826113d3565b848454611358565b825550505050565b5f90565b61140d611401565b6114188184846113dc565b505050565b5b8181101561143b576114305f82611405565b60018101905061141e565b5050565b601f821115611480576114518161132b565b61145a8461133d565b81016020851015611469578190505b61147d6114758561133d565b83018261141d565b50505b505050565b5f82821c905092915050565b5f6114a05f1984600802611485565b1980831691505092915050565b5f6114b88383611491565b9150826002028217905092915050565b6114d182611025565b67ffffffffffffffff8111156114ea576114e96109f2565b5b6114f482546112fb565b6114ff82828561143f565b5f60209050601f831160018114611530575f841561151e578287015190505b61152885826114ad565b86555061158f565b601f19841661153e8661132b565b5f5b8281101561156557848901518255600182019150602085019450602081019050611540565b86831015611582578489015161157e601f891682611491565b8355505b6001600288020188555050505b50505050505056fea264697066735822122043a78ec07c76ff66b4cff891284f006d3f4c9d2eadaeb3e7de2689f5040a97e864736f6c634300081a0033",
					"opcodes": "PUSH1 0x80 PUSH1 0x40 MSTORE CALLVALUE DUP1 ISZERO PUSH1 0xE JUMPI PUSH0 DUP1 REVERT JUMPDEST POP PUSH2 0x15CD DUP1 PUSH2 0x1C PUSH0 CODECOPY PUSH0 RETURN INVALID PUSH1 0x80 PUSH1 0x40 MSTORE CALLVALUE DUP1 ISZERO PUSH2 0xF JUMPI PUSH0 DUP1 REVERT JUMPDEST POP PUSH1 0x4 CALLDATASIZE LT PUSH2 0x60 JUMPI PUSH0 CALLDATALOAD PUSH1 0xE0 SHR DUP1 PUSH4 0x91907C6 EQ PUSH2 0x64 JUMPI DUP1 PUSH4 0x18DA9B12 EQ PUSH2 0x80 JUMPI DUP1 PUSH4 0x28FD9D6D EQ PUSH2 0xB0 JUMPI DUP1 PUSH4 0x3EDB9E02 EQ PUSH2 0xCC JUMPI DUP1 PUSH4 0x6EC6884F EQ PUSH2 0xFC JUMPI DUP1 PUSH4 0xDC2F8744 EQ PUSH2 0x12C JUMPI JUMPDEST PUSH0 DUP1 REVERT JUMPDEST PUSH2 0x7E PUSH1 0x4 DUP1 CALLDATASIZE SUB DUP2 ADD SWAP1 PUSH2 0x79 SWAP2 SWAP1 PUSH2 0xD7A JUMP JUMPDEST PUSH2 0x162 JUMP JUMPDEST STOP JUMPDEST PUSH2 0x9A PUSH1 0x4 DUP1 CALLDATASIZE SUB DUP2 ADD SWAP1 PUSH2 0x95 SWAP2 SWAP1 PUSH2 0xE1E JUMP JUMPDEST PUSH2 0x492 JUMP JUMPDEST PUSH1 0x40 MLOAD PUSH2 0xA7 SWAP2 SWAP1 PUSH2 0xE74 JUMP JUMPDEST PUSH1 0x40 MLOAD DUP1 SWAP2 SUB SWAP1 RETURN JUMPDEST PUSH2 0xCA PUSH1 0x4 DUP1 CALLDATASIZE SUB DUP2 ADD SWAP1 PUSH2 0xC5 SWAP2 SWAP1 PUSH2 0xE8D JUMP JUMPDEST PUSH2 0x4BF JUMP JUMPDEST STOP JUMPDEST PUSH2 0xE6 PUSH1 0x4 DUP1 CALLDATASIZE SUB DUP2 ADD SWAP1 PUSH2 0xE1 SWAP2 SWAP1 PUSH2 0xE1E JUMP JUMPDEST PUSH2 0x72B JUMP JUMPDEST PUSH1 0x40 MLOAD PUSH2 0xF3 SWAP2 SWAP1 PUSH2 0xE74 JUMP JUMPDEST PUSH1 0x40 MLOAD DUP1 SWAP2 SUB SWAP1 RETURN JUMPDEST PUSH2 0x116 PUSH1 0x4 DUP1 CALLDATASIZE SUB DUP2 ADD SWAP1 PUSH2 0x111 SWAP2 SWAP1 PUSH2 0xFA2 JUMP JUMPDEST PUSH2 0x758 JUMP JUMPDEST PUSH1 0x40 MLOAD PUSH2 0x123 SWAP2 SWAP1 PUSH2 0x100C JUMP JUMPDEST PUSH1 0x40 MLOAD DUP1 SWAP2 SUB SWAP1 RETURN JUMPDEST PUSH2 0x146 PUSH1 0x4 DUP1 CALLDATASIZE SUB DUP2 ADD SWAP1 PUSH2 0x141 SWAP2 SWAP1 PUSH2 0xFA2 JUMP JUMPDEST PUSH2 0x7A0 JUMP JUMPDEST PUSH1 0x40 MLOAD PUSH2 0x159 SWAP8 SWAP7 SWAP6 SWAP5 SWAP4 SWAP3 SWAP2 SWAP1 PUSH2 0x109F JUMP JUMPDEST PUSH1 0x40 MLOAD DUP1 SWAP2 SUB SWAP1 RETURN JUMPDEST PUSH0 PUSH1 0x2 DUP5 PUSH1 0x40 MLOAD PUSH2 0x173 SWAP2 SWAP1 PUSH2 0x115B JUMP JUMPDEST SWAP1 DUP2 MSTORE PUSH1 0x20 ADD PUSH1 0x40 MLOAD DUP1 SWAP2 SUB SWAP1 KECCAK256 SLOAD SUB PUSH2 0x1C2 JUMPI PUSH1 0x40 MLOAD PUSH32 0x8C379A000000000000000000000000000000000000000000000000000000000 DUP2 MSTORE PUSH1 0x4 ADD PUSH2 0x1B9 SWAP1 PUSH2 0x11BB JUMP JUMPDEST PUSH1 0x40 MLOAD DUP1 SWAP2 SUB SWAP1 REVERT JUMPDEST PUSH0 PUSH1 0x1 PUSH1 0x2 DUP6 PUSH1 0x40 MLOAD PUSH2 0x1D5 SWAP2 SWAP1 PUSH2 0x115B JUMP JUMPDEST SWAP1 DUP2 MSTORE PUSH1 0x20 ADD PUSH1 0x40 MLOAD DUP1 SWAP2 SUB SWAP1 KECCAK256 SLOAD PUSH2 0x1EE SWAP2 SWAP1 PUSH2 0x1206 JUMP JUMPDEST SWAP1 POP PUSH0 DUP1 DUP3 DUP2 SLOAD DUP2 LT PUSH2 0x204 JUMPI PUSH2 0x203 PUSH2 0x1239 JUMP JUMPDEST JUMPDEST SWAP1 PUSH0 MSTORE PUSH1 0x20 PUSH0 KECCAK256 SWAP1 PUSH1 0x8 MUL ADD SWAP1 POP DUP1 PUSH1 0x6 ADD PUSH1 0x14 SWAP1 SLOAD SWAP1 PUSH2 0x100 EXP SWAP1 DIV PUSH1 0xFF AND ISZERO PUSH2 0x264 JUMPI PUSH1 0x40 MLOAD PUSH32 0x8C379A000000000000000000000000000000000000000000000000000000000 DUP2 MSTORE PUSH1 0x4 ADD PUSH2 0x25B SWAP1 PUSH2 0x12B0 JUMP JUMPDEST PUSH1 0x40 MLOAD DUP1 SWAP2 SUB SWAP1 REVERT JUMPDEST PUSH1 0x1 DUP1 DUP2 PUSH1 0x1 DUP2 SLOAD ADD DUP1 DUP3 SSTORE DUP1 SWAP2 POP POP SUB SWAP1 PUSH0 MSTORE PUSH1 0x20 PUSH0 KECCAK256 SWAP1 POP POP PUSH0 PUSH1 0x1 DUP1 DUP1 DUP1 SLOAD SWAP1 POP PUSH2 0x292 SWAP2 SWAP1 PUSH2 0x1206 JUMP JUMPDEST DUP2 SLOAD DUP2 LT PUSH2 0x2A3 JUMPI PUSH2 0x2A2 PUSH2 0x1239 JUMP JUMPDEST JUMPDEST SWAP1 PUSH0 MSTORE PUSH1 0x20 PUSH0 KECCAK256 SWAP1 PUSH1 0x3 MUL ADD SWAP1 POP CALLER DUP2 PUSH0 ADD PUSH0 PUSH2 0x100 EXP DUP2 SLOAD DUP2 PUSH20 0xFFFFFFFFFFFFFFFFFFFFFFFFFFFFFFFFFFFFFFFF MUL NOT AND SWAP1 DUP4 PUSH20 0xFFFFFFFFFFFFFFFFFFFFFFFFFFFFFFFFFFFFFFFF AND MUL OR SWAP1 SSTORE POP PUSH0 JUMPDEST DUP6 MLOAD DUP2 LT ISZERO PUSH2 0x358 JUMPI DUP2 PUSH1 0x2 ADD DUP7 DUP3 DUP2 MLOAD DUP2 LT PUSH2 0x314 JUMPI PUSH2 0x313 PUSH2 0x1239 JUMP JUMPDEST JUMPDEST PUSH1 0x20 MUL PUSH1 0x20 ADD ADD MLOAD SWAP1 DUP1 PUSH1 0x1 DUP2 SLOAD ADD DUP1 DUP3 SSTORE DUP1 SWAP2 POP POP PUSH1 0x1 SWAP1 SUB SWAP1 PUSH0 MSTORE PUSH1 0x20 PUSH0 KECCAK256 ADD PUSH0 SWAP1 SWAP2 SWAP1 SWAP2 SWAP1 SWAP2 POP SWAP1 DUP2 PUSH2 0x34A SWAP2 SWAP1 PUSH2 0x14C8 JUMP JUMPDEST POP DUP1 DUP1 PUSH1 0x1 ADD SWAP2 POP POP PUSH2 0x2F4 JUMP JUMPDEST POP PUSH0 JUMPDEST DUP5 MLOAD DUP2 LT ISZERO PUSH2 0x3D6 JUMPI DUP2 PUSH1 0x1 ADD DUP6 DUP3 DUP2 MLOAD DUP2 LT PUSH2 0x37B JUMPI PUSH2 0x37A PUSH2 0x1239 JUMP JUMPDEST JUMPDEST PUSH1 0x20 MUL PUSH1 0x20 ADD ADD MLOAD SWAP1 DUP1 PUSH1 0x1 DUP2 SLOAD ADD DUP1 DUP3 SSTORE DUP1 SWAP2 POP POP PUSH1 0x1 SWAP1 SUB SWAP1 PUSH0 MSTORE PUSH1 0x20 PUSH0 KECCAK256 SWAP1 PUSH1 0x2 MUL ADD PUSH0 SWAP1 SWAP2 SWAP1 SWAP2 SWAP1 SWAP2 POP PUSH0 DUP3 ADD MLOAD DUP2 PUSH0 ADD SWAP1 DUP2 PUSH2 0x3BC SWAP2 SWAP1 PUSH2 0x14C8 JUMP JUMPDEST POP PUSH1 0x20 DUP3 ADD MLOAD DUP2 PUSH1 0x1 ADD SSTORE POP POP DUP1 DUP1 PUSH1 0x1 ADD SWAP2 POP POP PUSH2 0x35B JUMP JUMPDEST POP PUSH1 0x1 DUP3 PUSH1 0x6 ADD PUSH1 0x14 PUSH2 0x100 EXP DUP2 SLOAD DUP2 PUSH1 0xFF MUL NOT AND SWAP1 DUP4 ISZERO ISZERO MUL OR SWAP1 SSTORE POP CALLER DUP3 PUSH1 0x7 ADD PUSH0 PUSH2 0x100 EXP DUP2 SLOAD DUP2 PUSH20 0xFFFFFFFFFFFFFFFFFFFFFFFFFFFFFFFFFFFFFFFF MUL NOT AND SWAP1 DUP4 PUSH20 0xFFFFFFFFFFFFFFFFFFFFFFFFFFFFFFFFFFFFFFFF AND MUL OR SWAP1 SSTORE POP PUSH1 0x1 DUP1 SLOAD SWAP1 POP PUSH1 0x3 DUP8 PUSH1 0x40 MLOAD PUSH2 0x44C SWAP2 SWAP1 PUSH2 0x115B JUMP JUMPDEST SWAP1 DUP2 MSTORE PUSH1 0x20 ADD PUSH1 0x40 MLOAD DUP1 SWAP2 SUB SWAP1 KECCAK256 DUP2 SWAP1 SSTORE POP PUSH32 0x1C3E67C4EC352916DAAB0EDFAB1F8F78F6E600CB5833B3DF9F929B0DF4DAAFC6 PUSH1 0x40 MLOAD PUSH1 0x40 MLOAD DUP1 SWAP2 SUB SWAP1 LOG1 POP POP POP POP POP POP JUMP JUMPDEST PUSH1 0x3 DUP2 DUP1 MLOAD PUSH1 0x20 DUP2 ADD DUP3 ADD DUP1 MLOAD DUP5 DUP3 MSTORE PUSH1 0x20 DUP4 ADD PUSH1 0x20 DUP6 ADD KECCAK256 DUP2 DUP4 MSTORE DUP1 SWAP6 POP POP POP POP POP POP PUSH0 SWAP2 POP SWAP1 POP SLOAD DUP2 JUMP JUMPDEST PUSH0 PUSH1 0x1 DUP2 PUSH1 0x1 DUP2 SLOAD ADD DUP1 DUP3 SSTORE DUP1 SWAP2 POP POP SUB SWAP1 PUSH0 MSTORE PUSH1 0x20 PUSH0 KECCAK256 SWAP1 POP POP PUSH0 DUP1 PUSH1 0x1 PUSH0 DUP1 SLOAD SWAP1 POP PUSH2 0x4ED SWAP2 SWAP1 PUSH2 0x1206 JUMP JUMPDEST DUP2 SLOAD DUP2 LT PUSH2 0x4FE JUMPI PUSH2 0x4FD PUSH2 0x1239 JUMP JUMPDEST JUMPDEST SWAP1 PUSH0 MSTORE PUSH1 0x20 PUSH0 KECCAK256 SWAP1 PUSH1 0x8 MUL ADD SWAP1 POP DUP7 DUP2 PUSH0 ADD SWAP1 DUP2 PUSH2 0x51C SWAP2 SWAP1 PUSH2 0x14C8 JUMP JUMPDEST POP DUP6 DUP2 PUSH1 0x1 ADD SWAP1 DUP2 PUSH2 0x52E SWAP2 SWAP1 PUSH2 0x14C8 JUMP JUMPDEST POP DUP5 DUP2 PUSH1 0x2 ADD SWAP1 DUP2 PUSH2 0x540 SWAP2 SWAP1 PUSH2 0x14C8 JUMP JUMPDEST POP DUP2 DUP2 PUSH1 0x5 ADD DUP2 SWAP1 SSTORE POP CALLER DUP2 PUSH1 0x6 ADD PUSH0 PUSH2 0x100 EXP DUP2 SLOAD DUP2 PUSH20 0xFFFFFFFFFFFFFFFFFFFFFFFFFFFFFFFFFFFFFFFF MUL NOT AND SWAP1 DUP4 PUSH20 0xFFFFFFFFFFFFFFFFFFFFFFFFFFFFFFFFFFFFFFFF AND MUL OR SWAP1 SSTORE POP PUSH0 DUP2 PUSH1 0x6 ADD PUSH1 0x14 PUSH2 0x100 EXP DUP2 SLOAD DUP2 PUSH1 0xFF MUL NOT AND SWAP1 DUP4 ISZERO ISZERO MUL OR SWAP1 SSTORE POP PUSH0 DUP2 PUSH1 0x7 ADD PUSH0 PUSH2 0x100 EXP DUP2 SLOAD DUP2 PUSH20 0xFFFFFFFFFFFFFFFFFFFFFFFFFFFFFFFFFFFFFFFF MUL NOT AND SWAP1 DUP4 PUSH20 0xFFFFFFFFFFFFFFFFFFFFFFFFFFFFFFFFFFFFFFFF AND MUL OR SWAP1 SSTORE POP PUSH0 JUMPDEST DUP5 MLOAD DUP2 LT ISZERO PUSH2 0x650 JUMPI DUP2 PUSH1 0x3 ADD DUP6 DUP3 DUP2 MLOAD DUP2 LT PUSH2 0x60C JUMPI PUSH2 0x60B PUSH2 0x1239 JUMP JUMPDEST JUMPDEST PUSH1 0x20 MUL PUSH1 0x20 ADD ADD MLOAD SWAP1 DUP1 PUSH1 0x1 DUP2 SLOAD ADD DUP1 DUP3 SSTORE DUP1 SWAP2 POP POP PUSH1 0x1 SWAP1 SUB SWAP1 PUSH0 MSTORE PUSH1 0x20 PUSH0 KECCAK256 ADD PUSH0 SWAP1 SWAP2 SWAP1 SWAP2 SWAP1 SWAP2 POP SWAP1 DUP2 PUSH2 0x642 SWAP2 SWAP1 PUSH2 0x14C8 JUMP JUMPDEST POP DUP1 DUP1 PUSH1 0x1 ADD SWAP2 POP POP PUSH2 0x5EC JUMP JUMPDEST POP PUSH0 JUMPDEST DUP4 MLOAD DUP2 LT ISZERO PUSH2 0x6CE JUMPI DUP2 PUSH1 0x4 ADD DUP5 DUP3 DUP2 MLOAD DUP2 LT PUSH2 0x673 JUMPI PUSH2 0x672 PUSH2 0x1239 JUMP JUMPDEST JUMPDEST PUSH1 0x20 MUL PUSH1 0x20 ADD ADD MLOAD SWAP1 DUP1 PUSH1 0x1 DUP2 SLOAD ADD DUP1 DUP3 SSTORE DUP1 SWAP2 POP POP PUSH1 0x1 SWAP1 SUB SWAP1 PUSH0 MSTORE PUSH1 0x20 PUSH0 KECCAK256 SWAP1 PUSH1 0x2 MUL ADD PUSH0 SWAP1 SWAP2 SWAP1 SWAP2 SWAP1 SWAP2 POP PUSH0 DUP3 ADD MLOAD DUP2 PUSH0 ADD SWAP1 DUP2 PUSH2 0x6B4 SWAP2 SWAP1 PUSH2 0x14C8 JUMP JUMPDEST POP PUSH1 0x20 DUP3 ADD MLOAD DUP2 PUSH1 0x1 ADD SSTORE POP POP DUP1 DUP1 PUSH1 0x1 ADD SWAP2 POP POP PUSH2 0x653 JUMP JUMPDEST POP PUSH0 DUP1 SLOAD SWAP1 POP PUSH1 0x2 DUP9 PUSH1 0x40 MLOAD PUSH2 0x6E4 SWAP2 SWAP1 PUSH2 0x115B JUMP JUMPDEST SWAP1 DUP2 MSTORE PUSH1 0x20 ADD PUSH1 0x40 MLOAD DUP1 SWAP2 SUB SWAP1 KECCAK256 DUP2 SWAP1 SSTORE POP PUSH32 0x305AC49F0FD058AC0C830A3A5A104A5531ACAFEF3F3D8FECF3DFBE52E0E45214 PUSH1 0x40 MLOAD PUSH1 0x40 MLOAD DUP1 SWAP2 SUB SWAP1 LOG1 POP POP POP POP POP POP POP JUMP JUMPDEST PUSH1 0x2 DUP2 DUP1 MLOAD PUSH1 0x20 DUP2 ADD DUP3 ADD DUP1 MLOAD DUP5 DUP3 MSTORE PUSH1 0x20 DUP4 ADD PUSH1 0x20 DUP6 ADD KECCAK256 DUP2 DUP4 MSTORE DUP1 SWAP6 POP POP POP POP POP POP PUSH0 SWAP2 POP SWAP1 POP SLOAD DUP2 JUMP JUMPDEST PUSH1 0x1 DUP2 DUP2 SLOAD DUP2 LT PUSH2 0x767 JUMPI PUSH0 DUP1 REVERT JUMPDEST SWAP1 PUSH0 MSTORE PUSH1 0x20 PUSH0 KECCAK256 SWAP1 PUSH1 0x3 MUL ADD PUSH0 SWAP2 POP SWAP1 POP DUP1 PUSH0 ADD PUSH0 SWAP1 SLOAD SWAP1 PUSH2 0x100 EXP SWAP1 DIV PUSH20 0xFFFFFFFFFFFFFFFFFFFFFFFFFFFFFFFFFFFFFFFF AND SWAP1 POP DUP2 JUMP JUMPDEST PUSH0 DUP2 DUP2 SLOAD DUP2 LT PUSH2 0x7AE JUMPI PUSH0 DUP1 REVERT JUMPDEST SWAP1 PUSH0 MSTORE PUSH1 0x20 PUSH0 KECCAK256 SWAP1 PUSH1 0x8 MUL ADD PUSH0 SWAP2 POP SWAP1 POP DUP1 PUSH0 ADD DUP1 SLOAD PUSH2 0x7CD SWAP1 PUSH2 0x12FB JUMP JUMPDEST DUP1 PUSH1 0x1F ADD PUSH1 0x20 DUP1 SWAP2 DIV MUL PUSH1 0x20 ADD PUSH1 0x40 MLOAD SWAP1 DUP2 ADD PUSH1 0x40 MSTORE DUP1 SWAP3 SWAP2 SWAP1 DUP2 DUP2 MSTORE PUSH1 0x20 ADD DUP3 DUP1 SLOAD PUSH2 0x7F9 SWAP1 PUSH2 0x12FB JUMP JUMPDEST DUP1 ISZERO PUSH2 0x844 JUMPI DUP1 PUSH1 0x1F LT PUSH2 0x81B JUMPI PUSH2 0x100 DUP1 DUP4 SLOAD DIV MUL DUP4 MSTORE SWAP2 PUSH1 0x20 ADD SWAP2 PUSH2 0x844 JUMP JUMPDEST DUP3 ADD SWAP2 SWAP1 PUSH0 MSTORE PUSH1 0x20 PUSH0 KECCAK256 SWAP1 JUMPDEST DUP2 SLOAD DUP2 MSTORE SWAP1 PUSH1 0x1 ADD SWAP1 PUSH1 0x20 ADD DUP1 DUP4 GT PUSH2 0x827 JUMPI DUP3 SWAP1 SUB PUSH1 0x1F AND DUP3 ADD SWAP2 JUMPDEST POP POP POP POP POP SWAP1 DUP1 PUSH1 0x1 ADD DUP1 SLOAD PUSH2 0x859 SWAP1 PUSH2 0x12FB JUMP JUMPDEST DUP1 PUSH1 0x1F ADD PUSH1 0x20 DUP1 SWAP2 DIV MUL PUSH1 0x20 ADD PUSH1 0x40 MLOAD SWAP1 DUP2 ADD PUSH1 0x40 MSTORE DUP1 SWAP3 SWAP2 SWAP1 DUP2 DUP2 MSTORE PUSH1 0x20 ADD DUP3 DUP1 SLOAD PUSH2 0x885 SWAP1 PUSH2 0x12FB JUMP JUMPDEST DUP1 ISZERO PUSH2 0x8D0 JUMPI DUP1 PUSH1 0x1F LT PUSH2 0x8A7 JUMPI PUSH2 0x100 DUP1 DUP4 SLOAD DIV MUL DUP4 MSTORE SWAP2 PUSH1 0x20 ADD SWAP2 PUSH2 0x8D0 JUMP JUMPDEST DUP3 ADD SWAP2 SWAP1 PUSH0 MSTORE PUSH1 0x20 PUSH0 KECCAK256 SWAP1 JUMPDEST DUP2 SLOAD DUP2 MSTORE SWAP1 PUSH1 0x1 ADD SWAP1 PUSH1 0x20 ADD DUP1 DUP4 GT PUSH2 0x8B3 JUMPI DUP3 SWAP1 SUB PUSH1 0x1F AND DUP3 ADD SWAP2 JUMPDEST POP POP POP POP POP SWAP1 DUP1 PUSH1 0x2 ADD DUP1 SLOAD PUSH2 0x8E5 SWAP1 PUSH2 0x12FB JUMP JUMPDEST DUP1 PUSH1 0x1F ADD PUSH1 0x20 DUP1 SWAP2 DIV MUL PUSH1 0x20 ADD PUSH1 0x40 MLOAD SWAP1 DUP2 ADD PUSH1 0x40 MSTORE DUP1 SWAP3 SWAP2 SWAP1 DUP2 DUP2 MSTORE PUSH1 0x20 ADD DUP3 DUP1 SLOAD PUSH2 0x911 SWAP1 PUSH2 0x12FB JUMP JUMPDEST DUP1 ISZERO PUSH2 0x95C JUMPI DUP1 PUSH1 0x1F LT PUSH2 0x933 JUMPI PUSH2 0x100 DUP1 DUP4 SLOAD DIV MUL DUP4 MSTORE SWAP2 PUSH1 0x20 ADD SWAP2 PUSH2 0x95C JUMP JUMPDEST DUP3 ADD SWAP2 SWAP1 PUSH0 MSTORE PUSH1 0x20 PUSH0 KECCAK256 SWAP1 JUMPDEST DUP2 SLOAD DUP2 MSTORE SWAP1 PUSH1 0x1 ADD SWAP1 PUSH1 0x20 ADD DUP1 DUP4 GT PUSH2 0x93F JUMPI DUP3 SWAP1 SUB PUSH1 0x1F AND DUP3 ADD SWAP2 JUMPDEST POP POP POP POP POP SWAP1 DUP1 PUSH1 0x5 ADD SLOAD SWAP1 DUP1 PUSH1 0x6 ADD PUSH0 SWAP1 SLOAD SWAP1 PUSH2 0x100 EXP SWAP1 DIV PUSH20 0xFFFFFFFFFFFFFFFFFFFFFFFFFFFFFFFFFFFFFFFF AND SWAP1 DUP1 PUSH1 0x6 ADD PUSH1 0x14 SWAP1 SLOAD SWAP1 PUSH2 0x100 EXP SWAP1 DIV PUSH1 0xFF AND SWAP1 DUP1 PUSH1 0x7 ADD PUSH0 SWAP1 SLOAD SWAP1 PUSH2 0x100 EXP SWAP1 DIV PUSH20 0xFFFFFFFFFFFFFFFFFFFFFFFFFFFFFFFFFFFFFFFF AND SWAP1 POP DUP8 JUMP JUMPDEST PUSH0 PUSH1 0x40 MLOAD SWAP1 POP SWAP1 JUMP JUMPDEST PUSH0 DUP1 REVERT JUMPDEST PUSH0 DUP1 REVERT JUMPDEST PUSH0 DUP1 REVERT JUMPDEST PUSH0 DUP1 REVERT JUMPDEST PUSH0 PUSH1 0x1F NOT PUSH1 0x1F DUP4 ADD AND SWAP1 POP SWAP2 SWAP1 POP JUMP JUMPDEST PUSH32 0x4E487B7100000000000000000000000000000000000000000000000000000000 PUSH0 MSTORE PUSH1 0x41 PUSH1 0x4 MSTORE PUSH1 0x24 PUSH0 REVERT JUMPDEST PUSH2 0xA28 DUP3 PUSH2 0x9E2 JUMP JUMPDEST DUP2 ADD DUP2 DUP2 LT PUSH8 0xFFFFFFFFFFFFFFFF DUP3 GT OR ISZERO PUSH2 0xA47 JUMPI PUSH2 0xA46 PUSH2 0x9F2 JUMP JUMPDEST JUMPDEST DUP1 PUSH1 0x40 MSTORE POP POP POP JUMP JUMPDEST PUSH0 PUSH2 0xA59 PUSH2 0x9C9 JUMP JUMPDEST SWAP1 POP PUSH2 0xA65 DUP3 DUP3 PUSH2 0xA1F JUMP JUMPDEST SWAP2 SWAP1 POP JUMP JUMPDEST PUSH0 PUSH8 0xFFFFFFFFFFFFFFFF DUP3 GT ISZERO PUSH2 0xA84 JUMPI PUSH2 0xA83 PUSH2 0x9F2 JUMP JUMPDEST JUMPDEST PUSH2 0xA8D DUP3 PUSH2 0x9E2 JUMP JUMPDEST SWAP1 POP PUSH1 0x20 DUP2 ADD SWAP1 POP SWAP2 SWAP1 POP JUMP JUMPDEST DUP3 DUP2 DUP4 CALLDATACOPY PUSH0 DUP4 DUP4 ADD MSTORE POP POP POP JUMP JUMPDEST PUSH0 PUSH2 0xABA PUSH2 0xAB5 DUP5 PUSH2 0xA6A JUMP JUMPDEST PUSH2 0xA50 JUMP JUMPDEST SWAP1 POP DUP3 DUP2 MSTORE PUSH1 0x20 DUP2 ADD DUP5 DUP5 DUP5 ADD GT ISZERO PUSH2 0xAD6 JUMPI PUSH2 0xAD5 PUSH2 0x9DE JUMP JUMPDEST JUMPDEST PUSH2 0xAE1 DUP5 DUP3 DUP6 PUSH2 0xA9A JUMP JUMPDEST POP SWAP4 SWAP3 POP POP POP JUMP JUMPDEST PUSH0 DUP3 PUSH1 0x1F DUP4 ADD SLT PUSH2 0xAFD JUMPI PUSH2 0xAFC PUSH2 0x9DA JUMP JUMPDEST JUMPDEST DUP2 CALLDATALOAD PUSH2 0xB0D DUP5 DUP3 PUSH1 0x20 DUP7 ADD PUSH2 0xAA8 JUMP JUMPDEST SWAP2 POP POP SWAP3 SWAP2 POP POP JUMP JUMPDEST PUSH0 PUSH8 0xFFFFFFFFFFFFFFFF DUP3 GT ISZERO PUSH2 0xB30 JUMPI PUSH2 0xB2F PUSH2 0x9F2 JUMP JUMPDEST JUMPDEST PUSH1 0x20 DUP3 MUL SWAP1 POP PUSH1 0x20 DUP2 ADD SWAP1 POP SWAP2 SWAP1 POP JUMP JUMPDEST PUSH0 DUP1 REVERT JUMPDEST PUSH0 PUSH2 0xB57 PUSH2 0xB52 DUP5 PUSH2 0xB16 JUMP JUMPDEST PUSH2 0xA50 JUMP JUMPDEST SWAP1 POP DUP1 DUP4 DUP3 MSTORE PUSH1 0x20 DUP3 ADD SWAP1 POP PUSH1 0x20 DUP5 MUL DUP4 ADD DUP6 DUP2 GT ISZERO PUSH2 0xB7A JUMPI PUSH2 0xB79 PUSH2 0xB41 JUMP JUMPDEST JUMPDEST DUP4 JUMPDEST DUP2 DUP2 LT ISZERO PUSH2 0xBC1 JUMPI DUP1 CALLDATALOAD PUSH8 0xFFFFFFFFFFFFFFFF DUP2 GT ISZERO PUSH2 0xB9F JUMPI PUSH2 0xB9E PUSH2 0x9DA JUMP JUMPDEST JUMPDEST DUP1 DUP7 ADD PUSH2 0xBAC DUP10 DUP3 PUSH2 0xAE9 JUMP JUMPDEST DUP6 MSTORE PUSH1 0x20 DUP6 ADD SWAP5 POP POP POP PUSH1 0x20 DUP2 ADD SWAP1 POP PUSH2 0xB7C JUMP JUMPDEST POP POP POP SWAP4 SWAP3 POP POP POP JUMP JUMPDEST PUSH0 DUP3 PUSH1 0x1F DUP4 ADD SLT PUSH2 0xBDF JUMPI PUSH2 0xBDE PUSH2 0x9DA JUMP JUMPDEST JUMPDEST DUP2 CALLDATALOAD PUSH2 0xBEF DUP5 DUP3 PUSH1 0x20 DUP7 ADD PUSH2 0xB45 JUMP JUMPDEST SWAP2 POP POP SWAP3 SWAP2 POP POP JUMP JUMPDEST PUSH0 PUSH8 0xFFFFFFFFFFFFFFFF DUP3 GT ISZERO PUSH2 0xC12 JUMPI PUSH2 0xC11 PUSH2 0x9F2 JUMP JUMPDEST JUMPDEST PUSH1 0x20 DUP3 MUL SWAP1 POP PUSH1 0x20 DUP2 ADD SWAP1 POP SWAP2 SWAP1 POP JUMP JUMPDEST PUSH0 DUP1 REVERT JUMPDEST PUSH0 DUP1 REVERT JUMPDEST PUSH0 DUP2 SWAP1 POP SWAP2 SWAP1 POP JUMP JUMPDEST PUSH2 0xC3D DUP2 PUSH2 0xC2B JUMP JUMPDEST DUP2 EQ PUSH2 0xC47 JUMPI PUSH0 DUP1 REVERT JUMPDEST POP JUMP JUMPDEST PUSH0 DUP2 CALLDATALOAD SWAP1 POP PUSH2 0xC58 DUP2 PUSH2 0xC34 JUMP JUMPDEST SWAP3 SWAP2 POP POP JUMP JUMPDEST PUSH0 PUSH1 0x40 DUP3 DUP5 SUB SLT ISZERO PUSH2 0xC73 JUMPI PUSH2 0xC72 PUSH2 0xC23 JUMP JUMPDEST JUMPDEST PUSH2 0xC7D PUSH1 0x40 PUSH2 0xA50 JUMP JUMPDEST SWAP1 POP PUSH0 DUP3 ADD CALLDATALOAD PUSH8 0xFFFFFFFFFFFFFFFF DUP2 GT ISZERO PUSH2 0xC9C JUMPI PUSH2 0xC9B PUSH2 0xC27 JUMP JUMPDEST JUMPDEST PUSH2 0xCA8 DUP5 DUP3 DUP6 ADD PUSH2 0xAE9 JUMP JUMPDEST PUSH0 DUP4 ADD MSTORE POP PUSH1 0x20 PUSH2 0xCBB DUP5 DUP3 DUP6 ADD PUSH2 0xC4A JUMP JUMPDEST PUSH1 0x20 DUP4 ADD MSTORE POP SWAP3 SWAP2 POP POP JUMP JUMPDEST PUSH0 PUSH2 0xCD9 PUSH2 0xCD4 DUP5 PUSH2 0xBF8 JUMP JUMPDEST PUSH2 0xA50 JUMP JUMPDEST SWAP1 POP DUP1 DUP4 DUP3 MSTORE PUSH1 0x20 DUP3 ADD SWAP1 POP PUSH1 0x20 DUP5 MUL DUP4 ADD DUP6 DUP2 GT ISZERO PUSH2 0xCFC JUMPI PUSH2 0xCFB PUSH2 0xB41 JUMP JUMPDEST JUMPDEST DUP4 JUMPDEST DUP2 DUP2 LT ISZERO PUSH2 0xD43 JUMPI DUP1 CALLDATALOAD PUSH8 0xFFFFFFFFFFFFFFFF DUP2 GT ISZERO PUSH2 0xD21 JUMPI PUSH2 0xD20 PUSH2 0x9DA JUMP JUMPDEST JUMPDEST DUP1 DUP7 ADD PUSH2 0xD2E DUP10 DUP3 PUSH2 0xC5E JUMP JUMPDEST DUP6 MSTORE PUSH1 0x20 DUP6 ADD SWAP5 POP POP POP PUSH1 0x20 DUP2 ADD SWAP1 POP PUSH2 0xCFE JUMP JUMPDEST POP POP POP SWAP4 SWAP3 POP POP POP JUMP JUMPDEST PUSH0 DUP3 PUSH1 0x1F DUP4 ADD SLT PUSH2 0xD61 JUMPI PUSH2 0xD60 PUSH2 0x9DA JUMP JUMPDEST JUMPDEST DUP2 CALLDATALOAD PUSH2 0xD71 DUP5 DUP3 PUSH1 0x20 DUP7 ADD PUSH2 0xCC7 JUMP JUMPDEST SWAP2 POP POP SWAP3 SWAP2 POP POP JUMP JUMPDEST PUSH0 DUP1 PUSH0 PUSH1 0x60 DUP5 DUP7 SUB SLT ISZERO PUSH2 0xD91 JUMPI PUSH2 0xD90 PUSH2 0x9D2 JUMP JUMPDEST JUMPDEST PUSH0 DUP5 ADD CALLDATALOAD PUSH8 0xFFFFFFFFFFFFFFFF DUP2 GT ISZERO PUSH2 0xDAE JUMPI PUSH2 0xDAD PUSH2 0x9D6 JUMP JUMPDEST JUMPDEST PUSH2 0xDBA DUP7 DUP3 DUP8 ADD PUSH2 0xAE9 JUMP JUMPDEST SWAP4 POP POP PUSH1 0x20 DUP5 ADD CALLDATALOAD PUSH8 0xFFFFFFFFFFFFFFFF DUP2 GT ISZERO PUSH2 0xDDB JUMPI PUSH2 0xDDA PUSH2 0x9D6 JUMP JUMPDEST JUMPDEST PUSH2 0xDE7 DUP7 DUP3 DUP8 ADD PUSH2 0xBCB JUMP JUMPDEST SWAP3 POP POP PUSH1 0x40 DUP5 ADD CALLDATALOAD PUSH8 0xFFFFFFFFFFFFFFFF DUP2 GT ISZERO PUSH2 0xE08 JUMPI PUSH2 0xE07 PUSH2 0x9D6 JUMP JUMPDEST JUMPDEST PUSH2 0xE14 DUP7 DUP3 DUP8 ADD PUSH2 0xD4D JUMP JUMPDEST SWAP2 POP POP SWAP3 POP SWAP3 POP SWAP3 JUMP JUMPDEST PUSH0 PUSH1 0x20 DUP3 DUP5 SUB SLT ISZERO PUSH2 0xE33 JUMPI PUSH2 0xE32 PUSH2 0x9D2 JUMP JUMPDEST JUMPDEST PUSH0 DUP3 ADD CALLDATALOAD PUSH8 0xFFFFFFFFFFFFFFFF DUP2 GT ISZERO PUSH2 0xE50 JUMPI PUSH2 0xE4F PUSH2 0x9D6 JUMP JUMPDEST JUMPDEST PUSH2 0xE5C DUP5 DUP3 DUP6 ADD PUSH2 0xAE9 JUMP JUMPDEST SWAP2 POP POP SWAP3 SWAP2 POP POP JUMP JUMPDEST PUSH2 0xE6E DUP2 PUSH2 0xC2B JUMP JUMPDEST DUP3 MSTORE POP POP JUMP JUMPDEST PUSH0 PUSH1 0x20 DUP3 ADD SWAP1 POP PUSH2 0xE87 PUSH0 DUP4 ADD DUP5 PUSH2 0xE65 JUMP JUMPDEST SWAP3 SWAP2 POP POP JUMP JUMPDEST PUSH0 DUP1 PUSH0 DUP1 PUSH0 DUP1 PUSH1 0xC0 DUP8 DUP10 SUB SLT ISZERO PUSH2 0xEA7 JUMPI PUSH2 0xEA6 PUSH2 0x9D2 JUMP JUMPDEST JUMPDEST PUSH0 DUP8 ADD CALLDATALOAD PUSH8 0xFFFFFFFFFFFFFFFF DUP2 GT ISZERO PUSH2 0xEC4 JUMPI PUSH2 0xEC3 PUSH2 0x9D6 JUMP JUMPDEST JUMPDEST PUSH2 0xED0 DUP10 DUP3 DUP11 ADD PUSH2 0xAE9 JUMP JUMPDEST SWAP7 POP POP PUSH1 0x20 DUP8 ADD CALLDATALOAD PUSH8 0xFFFFFFFFFFFFFFFF DUP2 GT ISZERO PUSH2 0xEF1 JUMPI PUSH2 0xEF0 PUSH2 0x9D6 JUMP JUMPDEST JUMPDEST PUSH2 0xEFD DUP10 DUP3 DUP11 ADD PUSH2 0xAE9 JUMP JUMPDEST SWAP6 POP POP PUSH1 0x40 DUP8 ADD CALLDATALOAD PUSH8 0xFFFFFFFFFFFFFFFF DUP2 GT ISZERO PUSH2 0xF1E JUMPI PUSH2 0xF1D PUSH2 0x9D6 JUMP JUMPDEST JUMPDEST PUSH2 0xF2A DUP10 DUP3 DUP11 ADD PUSH2 0xAE9 JUMP JUMPDEST SWAP5 POP POP PUSH1 0x60 DUP8 ADD CALLDATALOAD PUSH8 0xFFFFFFFFFFFFFFFF DUP2 GT ISZERO PUSH2 0xF4B JUMPI PUSH2 0xF4A PUSH2 0x9D6 JUMP JUMPDEST JUMPDEST PUSH2 0xF57 DUP10 DUP3 DUP11 ADD PUSH2 0xBCB JUMP JUMPDEST SWAP4 POP POP PUSH1 0x80 DUP8 ADD CALLDATALOAD PUSH8 0xFFFFFFFFFFFFFFFF DUP2 GT ISZERO PUSH2 0xF78 JUMPI PUSH2 0xF77 PUSH2 0x9D6 JUMP JUMPDEST JUMPDEST PUSH2 0xF84 DUP10 DUP3 DUP11 ADD PUSH2 0xD4D JUMP JUMPDEST SWAP3 POP POP PUSH1 0xA0 PUSH2 0xF95 DUP10 DUP3 DUP11 ADD PUSH2 0xC4A JUMP JUMPDEST SWAP2 POP POP SWAP3 SWAP6 POP SWAP3 SWAP6 POP SWAP3 SWAP6 JUMP JUMPDEST PUSH0 PUSH1 0x20 DUP3 DUP5 SUB SLT ISZERO PUSH2 0xFB7 JUMPI PUSH2 0xFB6 PUSH2 0x9D2 JUMP JUMPDEST JUMPDEST PUSH0 PUSH2 0xFC4 DUP5 DUP3 DUP6 ADD PUSH2 0xC4A JUMP JUMPDEST SWAP2 POP POP SWAP3 SWAP2 POP POP JUMP JUMPDEST PUSH0 PUSH20 0xFFFFFFFFFFFFFFFFFFFFFFFFFFFFFFFFFFFFFFFF DUP3 AND SWAP1 POP SWAP2 SWAP1 POP JUMP JUMPDEST PUSH0 PUSH2 0xFF6 DUP3 PUSH2 0xFCD JUMP JUMPDEST SWAP1 POP SWAP2 SWAP1 POP JUMP JUMPDEST PUSH2 0x1006 DUP2 PUSH2 0xFEC JUMP JUMPDEST DUP3 MSTORE POP POP JUMP JUMPDEST PUSH0 PUSH1 0x20 DUP3 ADD SWAP1 POP PUSH2 0x101F PUSH0 DUP4 ADD DUP5 PUSH2 0xFFD JUMP JUMPDEST SWAP3 SWAP2 POP POP JUMP JUMPDEST PUSH0 DUP2 MLOAD SWAP1 POP SWAP2 SWAP1 POP JUMP JUMPDEST PUSH0 DUP3 DUP3 MSTORE PUSH1 0x20 DUP3 ADD SWAP1 POP SWAP3 SWAP2 POP POP JUMP JUMPDEST DUP3 DUP2 DUP4 MCOPY PUSH0 DUP4 DUP4 ADD MSTORE POP POP POP JUMP JUMPDEST PUSH0 PUSH2 0x1057 DUP3 PUSH2 0x1025 JUMP JUMPDEST PUSH2 0x1061 DUP2 DUP6 PUSH2 0x102F JUMP JUMPDEST SWAP4 POP PUSH2 0x1071 DUP2 DUP6 PUSH1 0x20 DUP7 ADD PUSH2 0x103F JUMP JUMPDEST PUSH2 0x107A DUP2 PUSH2 0x9E2 JUMP JUMPDEST DUP5 ADD SWAP2 POP POP SWAP3 SWAP2 POP POP JUMP JUMPDEST PUSH0 DUP2 ISZERO ISZERO SWAP1 POP SWAP2 SWAP1 POP JUMP JUMPDEST PUSH2 0x1099 DUP2 PUSH2 0x1085 JUMP JUMPDEST DUP3 MSTORE POP POP JUMP JUMPDEST PUSH0 PUSH1 0xE0 DUP3 ADD SWAP1 POP DUP2 DUP2 SUB PUSH0 DUP4 ADD MSTORE PUSH2 0x10B7 DUP2 DUP11 PUSH2 0x104D JUMP JUMPDEST SWAP1 POP DUP2 DUP2 SUB PUSH1 0x20 DUP4 ADD MSTORE PUSH2 0x10CB DUP2 DUP10 PUSH2 0x104D JUMP JUMPDEST SWAP1 POP DUP2 DUP2 SUB PUSH1 0x40 DUP4 ADD MSTORE PUSH2 0x10DF DUP2 DUP9 PUSH2 0x104D JUMP JUMPDEST SWAP1 POP PUSH2 0x10EE PUSH1 0x60 DUP4 ADD DUP8 PUSH2 0xE65 JUMP JUMPDEST PUSH2 0x10FB PUSH1 0x80 DUP4 ADD DUP7 PUSH2 0xFFD JUMP JUMPDEST PUSH2 0x1108 PUSH1 0xA0 DUP4 ADD DUP6 PUSH2 0x1090 JUMP JUMPDEST PUSH2 0x1115 PUSH1 0xC0 DUP4 ADD DUP5 PUSH2 0xFFD JUMP JUMPDEST SWAP9 SWAP8 POP POP POP POP POP POP POP POP JUMP JUMPDEST PUSH0 DUP2 SWAP1 POP SWAP3 SWAP2 POP POP JUMP JUMPDEST PUSH0 PUSH2 0x1135 DUP3 PUSH2 0x1025 JUMP JUMPDEST PUSH2 0x113F DUP2 DUP6 PUSH2 0x1121 JUMP JUMPDEST SWAP4 POP PUSH2 0x114F DUP2 DUP6 PUSH1 0x20 DUP7 ADD PUSH2 0x103F JUMP JUMPDEST DUP1 DUP5 ADD SWAP2 POP POP SWAP3 SWAP2 POP POP JUMP JUMPDEST PUSH0 PUSH2 0x1166 DUP3 DUP5 PUSH2 0x112B JUMP JUMPDEST SWAP2 POP DUP2 SWAP1 POP SWAP3 SWAP2 POP POP JUMP JUMPDEST PUSH32 0x426F756E747920646F6573206E6F742065786973740000000000000000000000 PUSH0 DUP3 ADD MSTORE POP JUMP JUMPDEST PUSH0 PUSH2 0x11A5 PUSH1 0x15 DUP4 PUSH2 0x102F JUMP JUMPDEST SWAP2 POP PUSH2 0x11B0 DUP3 PUSH2 0x1171 JUMP JUMPDEST PUSH1 0x20 DUP3 ADD SWAP1 POP SWAP2 SWAP1 POP JUMP JUMPDEST PUSH0 PUSH1 0x20 DUP3 ADD SWAP1 POP DUP2 DUP2 SUB PUSH0 DUP4 ADD MSTORE PUSH2 0x11D2 DUP2 PUSH2 0x1199 JUMP JUMPDEST SWAP1 POP SWAP2 SWAP1 POP JUMP JUMPDEST PUSH32 0x4E487B7100000000000000000000000000000000000000000000000000000000 PUSH0 MSTORE PUSH1 0x11 PUSH1 0x4 MSTORE PUSH1 0x24 PUSH0 REVERT JUMPDEST PUSH0 PUSH2 0x1210 DUP3 PUSH2 0xC2B JUMP JUMPDEST SWAP2 POP PUSH2 0x121B DUP4 PUSH2 0xC2B JUMP JUMPDEST SWAP3 POP DUP3 DUP3 SUB SWAP1 POP DUP2 DUP2 GT ISZERO PUSH2 0x1233 JUMPI PUSH2 0x1232 PUSH2 0x11D9 JUMP JUMPDEST JUMPDEST SWAP3 SWAP2 POP POP JUMP JUMPDEST PUSH32 0x4E487B7100000000000000000000000000000000000000000000000000000000 PUSH0 MSTORE PUSH1 0x32 PUSH1 0x4 MSTORE PUSH1 0x24 PUSH0 REVERT JUMPDEST PUSH32 0x426F756E747920697320616C726561647920617661696C656400000000000000 PUSH0 DUP3 ADD MSTORE POP JUMP JUMPDEST PUSH0 PUSH2 0x129A PUSH1 0x19 DUP4 PUSH2 0x102F JUMP JUMPDEST SWAP2 POP PUSH2 0x12A5 DUP3 PUSH2 0x1266 JUMP JUMPDEST PUSH1 0x20 DUP3 ADD SWAP1 POP SWAP2 SWAP1 POP JUMP JUMPDEST PUSH0 PUSH1 0x20 DUP3 ADD SWAP1 POP DUP2 DUP2 SUB PUSH0 DUP4 ADD MSTORE PUSH2 0x12C7 DUP2 PUSH2 0x128E JUMP JUMPDEST SWAP1 POP SWAP2 SWAP1 POP JUMP JUMPDEST PUSH32 0x4E487B7100000000000000000000000000000000000000000000000000000000 PUSH0 MSTORE PUSH1 0x22 PUSH1 0x4 MSTORE PUSH1 0x24 PUSH0 REVERT JUMPDEST PUSH0 PUSH1 0x2 DUP3 DIV SWAP1 POP PUSH1 0x1 DUP3 AND DUP1 PUSH2 0x1312 JUMPI PUSH1 0x7F DUP3 AND SWAP2 POP JUMPDEST PUSH1 0x20 DUP3 LT DUP2 SUB PUSH2 0x1325 JUMPI PUSH2 0x1324 PUSH2 0x12CE JUMP JUMPDEST JUMPDEST POP SWAP2 SWAP1 POP JUMP JUMPDEST PUSH0 DUP2 SWAP1 POP DUP2 PUSH0 MSTORE PUSH1 0x20 PUSH0 KECCAK256 SWAP1 POP SWAP2 SWAP1 POP JUMP JUMPDEST PUSH0 PUSH1 0x20 PUSH1 0x1F DUP4 ADD DIV SWAP1 POP SWAP2 SWAP1 POP JUMP JUMPDEST PUSH0 DUP3 DUP3 SHL SWAP1 POP SWAP3 SWAP2 POP POP JUMP JUMPDEST PUSH0 PUSH1 0x8 DUP4 MUL PUSH2 0x1387 PUSH32 0xFFFFFFFFFFFFFFFFFFFFFFFFFFFFFFFFFFFFFFFFFFFFFFFFFFFFFFFFFFFFFFFF DUP3 PUSH2 0x134C JUMP JUMPDEST PUSH2 0x1391 DUP7 DUP4 PUSH2 0x134C JUMP JUMPDEST SWAP6 POP DUP1 NOT DUP5 AND SWAP4 POP DUP1 DUP7 AND DUP5 OR SWAP3 POP POP POP SWAP4 SWAP3 POP POP POP JUMP JUMPDEST PUSH0 DUP2 SWAP1 POP SWAP2 SWAP1 POP JUMP JUMPDEST PUSH0 PUSH2 0x13CC PUSH2 0x13C7 PUSH2 0x13C2 DUP5 PUSH2 0xC2B JUMP JUMPDEST PUSH2 0x13A9 JUMP JUMPDEST PUSH2 0xC2B JUMP JUMPDEST SWAP1 POP SWAP2 SWAP1 POP JUMP JUMPDEST PUSH0 DUP2 SWAP1 POP SWAP2 SWAP1 POP JUMP JUMPDEST PUSH2 0x13E5 DUP4 PUSH2 0x13B2 JUMP JUMPDEST PUSH2 0x13F9 PUSH2 0x13F1 DUP3 PUSH2 0x13D3 JUMP JUMPDEST DUP5 DUP5 SLOAD PUSH2 0x1358 JUMP JUMPDEST DUP3 SSTORE POP POP POP POP JUMP JUMPDEST PUSH0 SWAP1 JUMP JUMPDEST PUSH2 0x140D PUSH2 0x1401 JUMP JUMPDEST PUSH2 0x1418 DUP2 DUP5 DUP5 PUSH2 0x13DC JUMP JUMPDEST POP POP POP JUMP JUMPDEST JUMPDEST DUP2 DUP2 LT ISZERO PUSH2 0x143B JUMPI PUSH2 0x1430 PUSH0 DUP3 PUSH2 0x1405 JUMP JUMPDEST PUSH1 0x1 DUP2 ADD SWAP1 POP PUSH2 0x141E JUMP JUMPDEST POP POP JUMP JUMPDEST PUSH1 0x1F DUP3 GT ISZERO PUSH2 0x1480 JUMPI PUSH2 0x1451 DUP2 PUSH2 0x132B JUMP JUMPDEST PUSH2 0x145A DUP5 PUSH2 0x133D JUMP JUMPDEST DUP2 ADD PUSH1 0x20 DUP6 LT ISZERO PUSH2 0x1469 JUMPI DUP2 SWAP1 POP JUMPDEST PUSH2 0x147D PUSH2 0x1475 DUP6 PUSH2 0x133D JUMP JUMPDEST DUP4 ADD DUP3 PUSH2 0x141D JUMP JUMPDEST POP POP JUMPDEST POP POP POP JUMP JUMPDEST PUSH0 DUP3 DUP3 SHR SWAP1 POP SWAP3 SWAP2 POP POP JUMP JUMPDEST PUSH0 PUSH2 0x14A0 PUSH0 NOT DUP5 PUSH1 0x8 MUL PUSH2 0x1485 JUMP JUMPDEST NOT DUP1 DUP4 AND SWAP2 POP POP SWAP3 SWAP2 POP POP JUMP JUMPDEST PUSH0 PUSH2 0x14B8 DUP4 DUP4 PUSH2 0x1491 JUMP JUMPDEST SWAP2 POP DUP3 PUSH1 0x2 MUL DUP3 OR SWAP1 POP SWAP3 SWAP2 POP POP JUMP JUMPDEST PUSH2 0x14D1 DUP3 PUSH2 0x1025 JUMP JUMPDEST PUSH8 0xFFFFFFFFFFFFFFFF DUP2 GT ISZERO PUSH2 0x14EA JUMPI PUSH2 0x14E9 PUSH2 0x9F2 JUMP JUMPDEST JUMPDEST PUSH2 0x14F4 DUP3 SLOAD PUSH2 0x12FB JUMP JUMPDEST PUSH2 0x14FF DUP3 DUP3 DUP6 PUSH2 0x143F JUMP JUMPDEST PUSH0 PUSH1 0x20 SWAP1 POP PUSH1 0x1F DUP4 GT PUSH1 0x1 DUP2 EQ PUSH2 0x1530 JUMPI PUSH0 DUP5 ISZERO PUSH2 0x151E JUMPI DUP3 DUP8 ADD MLOAD SWAP1 POP JUMPDEST PUSH2 0x1528 DUP6 DUP3 PUSH2 0x14AD JUMP JUMPDEST DUP7 SSTORE POP PUSH2 0x158F JUMP JUMPDEST PUSH1 0x1F NOT DUP5 AND PUSH2 0x153E DUP7 PUSH2 0x132B JUMP JUMPDEST PUSH0 JUMPDEST DUP3 DUP2 LT ISZERO PUSH2 0x1565 JUMPI DUP5 DUP10 ADD MLOAD DUP3 SSTORE PUSH1 0x1 DUP3 ADD SWAP2 POP PUSH1 0x20 DUP6 ADD SWAP5 POP PUSH1 0x20 DUP2 ADD SWAP1 POP PUSH2 0x1540 JUMP JUMPDEST DUP7 DUP4 LT ISZERO PUSH2 0x1582 JUMPI DUP5 DUP10 ADD MLOAD PUSH2 0x157E PUSH1 0x1F DUP10 AND DUP3 PUSH2 0x1491 JUMP JUMPDEST DUP4 SSTORE POP JUMPDEST PUSH1 0x1 PUSH1 0x2 DUP9 MUL ADD DUP9 SSTORE POP POP POP JUMPDEST POP POP POP POP POP POP JUMP INVALID LOG2 PUSH5 0x6970667358 0x22 SLT KECCAK256 NUMBER 0xA7 DUP15 0xC0 PUSH29 0x76FF66B4CFF891284F006D3F4C9D2EADAEB3E7DE2689F5040A97E86473 PUSH16 0x6C634300081A00330000000000000000 "
				},
				"gasEstimates": {
					"creation": {
						"codeDepositCost": "1116200",
						"executionCost": "1158",
						"totalCost": "1117358"
					},
					"external": {
						"BountyIdToAvailer(string)": "infinite",
						"BountyIdToIndex(string)": "infinite",
						"avail(string,string[],(string,uint256)[])": "infinite",
						"availers(uint256)": "5044",
						"bounties(uint256)": "infinite",
						"create(string,string,string,string[],(string,uint256)[],uint256)": "infinite"
					}
				},
				"methodIdentifiers": {
					"BountyIdToAvailer(string)": "18da9b12",
					"BountyIdToIndex(string)": "3edb9e02",
					"avail(string,string[],(string,uint256)[])": "091907c6",
					"availers(uint256)": "6ec6884f",
					"bounties(uint256)": "dc2f8744",
					"create(string,string,string,string[],(string,uint256)[],uint256)": "28fd9d6d"
				}
			},
			"storageLayout": {
				"storage": [
					{
						"astId": 46,
						"contract": "contracts/users/users_info.sol:users_info",
						"label": "bounties",
						"offset": 0,
						"slot": "0",
						"type": "t_array(t_struct(Bounties)32_storage)dyn_storage"
					},
					{
						"astId": 50,
						"contract": "contracts/users/users_info.sol:users_info",
						"label": "availers",
						"offset": 0,
						"slot": "1",
						"type": "t_array(t_struct(Availer)42_storage)dyn_storage"
					},
					{
						"astId": 54,
						"contract": "contracts/users/users_info.sol:users_info",
						"label": "BountyIdToIndex",
						"offset": 0,
						"slot": "2",
						"type": "t_mapping(t_string_memory_ptr,t_uint256)"
					},
					{
						"astId": 58,
						"contract": "contracts/users/users_info.sol:users_info",
						"label": "BountyIdToAvailer",
						"offset": 0,
						"slot": "3",
						"type": "t_mapping(t_string_memory_ptr,t_uint256)"
					}
				],
				"types": {
					"t_address": {
						"encoding": "inplace",
						"label": "address",
						"numberOfBytes": "20"
					},
					"t_array(t_string_storage)dyn_storage": {
						"base": "t_string_storage",
						"encoding": "dynamic_array",
						"label": "string[]",
						"numberOfBytes": "32"
					},
					"t_array(t_struct(Availer)42_storage)dyn_storage": {
						"base": "t_struct(Availer)42_storage",
						"encoding": "dynamic_array",
						"label": "struct users_info.Availer[]",
						"numberOfBytes": "32"
					},
					"t_array(t_struct(Bounties)32_storage)dyn_storage": {
						"base": "t_struct(Bounties)32_storage",
						"encoding": "dynamic_array",
						"label": "struct users_info.Bounties[]",
						"numberOfBytes": "32"
					},
					"t_array(t_struct(File)10_storage)dyn_storage": {
						"base": "t_struct(File)10_storage",
						"encoding": "dynamic_array",
						"label": "struct users_info.File[]",
						"numberOfBytes": "32"
					},
					"t_bool": {
						"encoding": "inplace",
						"label": "bool",
						"numberOfBytes": "1"
					},
					"t_mapping(t_string_memory_ptr,t_uint256)": {
						"encoding": "mapping",
						"key": "t_string_memory_ptr",
						"label": "mapping(string => uint256)",
						"numberOfBytes": "32",
						"value": "t_uint256"
					},
					"t_string_memory_ptr": {
						"encoding": "bytes",
						"label": "string",
						"numberOfBytes": "32"
					},
					"t_string_storage": {
						"encoding": "bytes",
						"label": "string",
						"numberOfBytes": "32"
					},
					"t_struct(Availer)42_storage": {
						"encoding": "inplace",
						"label": "struct users_info.Availer",
						"members": [
							{
								"astId": 34,
								"contract": "contracts/users/users_info.sol:users_info",
								"label": "availer",
								"offset": 0,
								"slot": "0",
								"type": "t_address"
							},
							{
								"astId": 38,
								"contract": "contracts/users/users_info.sol:users_info",
								"label": "documents",
								"offset": 0,
								"slot": "1",
								"type": "t_array(t_struct(File)10_storage)dyn_storage"
							},
							{
								"astId": 41,
								"contract": "contracts/users/users_info.sol:users_info",
								"label": "links",
								"offset": 0,
								"slot": "2",
								"type": "t_array(t_string_storage)dyn_storage"
							}
						],
						"numberOfBytes": "96"
					},
					"t_struct(Bounties)32_storage": {
						"encoding": "inplace",
						"label": "struct users_info.Bounties",
						"members": [
							{
								"astId": 12,
								"contract": "contracts/users/users_info.sol:users_info",
								"label": "id",
								"offset": 0,
								"slot": "0",
								"type": "t_string_storage"
							},
							{
								"astId": 14,
								"contract": "contracts/users/users_info.sol:users_info",
								"label": "title",
								"offset": 0,
								"slot": "1",
								"type": "t_string_storage"
							},
							{
								"astId": 16,
								"contract": "contracts/users/users_info.sol:users_info",
								"label": "description",
								"offset": 0,
								"slot": "2",
								"type": "t_string_storage"
							},
							{
								"astId": 19,
								"contract": "contracts/users/users_info.sol:users_info",
								"label": "links",
								"offset": 0,
								"slot": "3",
								"type": "t_array(t_string_storage)dyn_storage"
							},
							{
								"astId": 23,
								"contract": "contracts/users/users_info.sol:users_info",
								"label": "documents",
								"offset": 0,
								"slot": "4",
								"type": "t_array(t_struct(File)10_storage)dyn_storage"
							},
							{
								"astId": 25,
								"contract": "contracts/users/users_info.sol:users_info",
								"label": "amount",
								"offset": 0,
								"slot": "5",
								"type": "t_uint256"
							},
							{
								"astId": 27,
								"contract": "contracts/users/users_info.sol:users_info",
								"label": "creator",
								"offset": 0,
								"slot": "6",
								"type": "t_address"
							},
							{
								"astId": 29,
								"contract": "contracts/users/users_info.sol:users_info",
								"label": "isAvailed",
								"offset": 20,
								"slot": "6",
								"type": "t_bool"
							},
							{
								"astId": 31,
								"contract": "contracts/users/users_info.sol:users_info",
								"label": "availer",
								"offset": 0,
								"slot": "7",
								"type": "t_address"
							}
						],
						"numberOfBytes": "256"
					},
					"t_struct(File)10_storage": {
						"encoding": "inplace",
						"label": "struct users_info.File",
						"members": [
							{
								"astId": 7,
								"contract": "contracts/users/users_info.sol:users_info",
								"label": "cid",
								"offset": 0,
								"slot": "0",
								"type": "t_string_storage"
							},
							{
								"astId": 9,
								"contract": "contracts/users/users_info.sol:users_info",
								"label": "size",
								"offset": 0,
								"slot": "1",
								"type": "t_uint256"
							}
						],
						"numberOfBytes": "64"
					},
					"t_uint256": {
						"encoding": "inplace",
						"label": "uint256",
						"numberOfBytes": "32"
					}
				}
			},
			"userdoc": {
				"kind": "user",
				"methods": {},
				"version": 1
			}
		}
	}
}