{
	"data": {
		"bytecode": {
			"linkReferences": {},
			"object": "6080604052348015600e575f80fd5b50610c008061001c5f395ff3fe608060405234801561000f575f80fd5b506004361061004a575f3560e01c80633edb9e021461004e57806346f81a871461007e57806375234b471461009a578063dc2f8744146100b6575b5f80fd5b6100686004803603810190610063919061059e565b6100ea565b60405161007591906105fd565b60405180910390f35b61009860048036038101906100939190610640565b610117565b005b6100b460048036038101906100af919061059e565b610237565b005b6100d060048036038101906100cb919061069a565b61034d565b6040516100e1959493929190610764565b60405180910390f35b6001818051602081018201805184825260208301602085012081835280955050505050505f915090505481565b5f60018160018154018082558091505003905f5260205f209050505f8060015f8054905061014591906107e9565b815481106101565761015561081c565b5b905f5260205f209060060201905082815f0190816101749190610a43565b5081816001018190555033816002015f6101000a81548173ffffffffffffffffffffffffffffffffffffffff021916908373ffffffffffffffffffffffffffffffffffffffff1602179055505f816003015f6101000a81548173ffffffffffffffffffffffffffffffffffffffff021916908373ffffffffffffffffffffffffffffffffffffffff1602179055505f81600501819055505f805490506001846040516102209190610b4c565b908152602001604051809103902081905550505050565b5f6001826040516102489190610b4c565b90815260200160405180910390205403610297576040517f08c379a000000000000000000000000000000000000000000000000000000000815260040161028e90610bac565b60405180910390fd5b5f600180836040516102a99190610b4c565b9081526020016040518091039020546102c291906107e9565b90505f8082815481106102d8576102d761081c565b5b905f5260205f20906006020190508060040133908060018154018082558091505060019003905f5260205f20015f9091909190916101000a81548173ffffffffffffffffffffffffffffffffffffffff021916908373ffffffffffffffffffffffffffffffffffffffff160217905550505050565b5f818154811061035b575f80fd5b905f5260205f2090600602015f91509050805f01805461037a90610876565b80601f01602080910402602001604051908101604052809291908181526020018280546103a690610876565b80156103f15780601f106103c8576101008083540402835291602001916103f1565b820191905f5260205f20905b8154815290600101906020018083116103d457829003601f168201915b505050505090806001015490806002015f9054906101000a900473ffffffffffffffffffffffffffffffffffffffff1690806003015f9054906101000a900473ffffffffffffffffffffffffffffffffffffffff16908060050154905085565b5f604051905090565b5f80fd5b5f80fd5b5f80fd5b5f80fd5b5f601f19601f8301169050919050565b7f4e487b71000000000000000000000000000000000000000000000000000000005f52604160045260245ffd5b6104b08261046a565b810181811067ffffffffffffffff821117156104cf576104ce61047a565b5b80604052505050565b5f6104e1610451565b90506104ed82826104a7565b919050565b5f67ffffffffffffffff82111561050c5761050b61047a565b5b6105158261046a565b9050602081019050919050565b828183375f83830152505050565b5f61054261053d846104f2565b6104d8565b90508281526020810184848401111561055e5761055d610466565b5b610569848285610522565b509392505050565b5f82601f83011261058557610584610462565b5b8135610595848260208601610530565b91505092915050565b5f602082840312156105b3576105b261045a565b5b5f82013567ffffffffffffffff8111156105d0576105cf61045e565b5b6105dc84828501610571565b91505092915050565b5f819050919050565b6105f7816105e5565b82525050565b5f6020820190506106105f8301846105ee565b92915050565b61061f816105e5565b8114610629575f80fd5b50565b5f8135905061063a81610616565b92915050565b5f80604083850312156106565761065561045a565b5b5f83013567ffffffffffffffff8111156106735761067261045e565b5b61067f85828601610571565b92505060206106908582860161062c565b9150509250929050565b5f602082840312156106af576106ae61045a565b5b5f6106bc8482850161062c565b91505092915050565b5f81519050919050565b5f82825260208201905092915050565b8281835e5f83830152505050565b5f6106f7826106c5565b61070181856106cf565b93506107118185602086016106df565b61071a8161046a565b840191505092915050565b5f73ffffffffffffffffffffffffffffffffffffffff82169050919050565b5f61074e82610725565b9050919050565b61075e81610744565b82525050565b5f60a0820190508181035f83015261077c81886106ed565b905061078b60208301876105ee565b6107986040830186610755565b6107a56060830185610755565b6107b260808301846105ee565b9695505050505050565b7f4e487b71000000000000000000000000000000000000000000000000000000005f52601160045260245ffd5b5f6107f3826105e5565b91506107fe836105e5565b9250828203905081811115610816576108156107bc565b5b92915050565b7f4e487b71000000000000000000000000000000000000000000000000000000005f52603260045260245ffd5b7f4e487b71000000000000000000000000000000000000000000000000000000005f52602260045260245ffd5b5f600282049050600182168061088d57607f821691505b6020821081036108a05761089f610849565b5b50919050565b5f819050815f5260205f209050919050565b5f6020601f8301049050919050565b5f82821b905092915050565b5f600883026109027fffffffffffffffffffffffffffffffffffffffffffffffffffffffffffffffff826108c7565b61090c86836108c7565b95508019841693508086168417925050509392505050565b5f819050919050565b5f61094761094261093d846105e5565b610924565b6105e5565b9050919050565b5f819050919050565b6109608361092d565b61097461096c8261094e565b8484546108d3565b825550505050565b5f90565b61098861097c565b610993818484610957565b505050565b5b818110156109b6576109ab5f82610980565b600181019050610999565b5050565b601f8211156109fb576109cc816108a6565b6109d5846108b8565b810160208510156109e4578190505b6109f86109f0856108b8565b830182610998565b50505b505050565b5f82821c905092915050565b5f610a1b5f1984600802610a00565b1980831691505092915050565b5f610a338383610a0c565b9150826002028217905092915050565b610a4c826106c5565b67ffffffffffffffff811115610a6557610a6461047a565b5b610a6f8254610876565b610a7a8282856109ba565b5f60209050601f831160018114610aab575f8415610a99578287015190505b610aa38582610a28565b865550610b0a565b601f198416610ab9866108a6565b5f5b82811015610ae057848901518255600182019150602085019450602081019050610abb565b86831015610afd5784890151610af9601f891682610a0c565b8355505b6001600288020188555050505b505050505050565b5f81905092915050565b5f610b26826106c5565b610b308185610b12565b9350610b408185602086016106df565b80840191505092915050565b5f610b578284610b1c565b915081905092915050565b7f426f756e747920646f6573206e6f7420657869737400000000000000000000005f82015250565b5f610b966015836106cf565b9150610ba182610b62565b602082019050919050565b5f6020820190508181035f830152610bc381610b8a565b905091905056fea2646970667358221220f4caaa8f919699e0897a37ebf914535b580bd19b3251df818b90c9f10ec0d5c664736f6c634300081a0033",
			"opcodes": "PUSH1 0x80 PUSH1 0x40 MSTORE CALLVALUE DUP1 ISZERO PUSH1 0xE JUMPI PUSH0 DUP1 REVERT JUMPDEST POP PUSH2 0xC00 DUP1 PUSH2 0x1C PUSH0 CODECOPY PUSH0 RETURN INVALID PUSH1 0x80 PUSH1 0x40 MSTORE CALLVALUE DUP1 ISZERO PUSH2 0xF JUMPI PUSH0 DUP1 REVERT JUMPDEST POP PUSH1 0x4 CALLDATASIZE LT PUSH2 0x4A JUMPI PUSH0 CALLDATALOAD PUSH1 0xE0 SHR DUP1 PUSH4 0x3EDB9E02 EQ PUSH2 0x4E JUMPI DUP1 PUSH4 0x46F81A87 EQ PUSH2 0x7E JUMPI DUP1 PUSH4 0x75234B47 EQ PUSH2 0x9A JUMPI DUP1 PUSH4 0xDC2F8744 EQ PUSH2 0xB6 JUMPI JUMPDEST PUSH0 DUP1 REVERT JUMPDEST PUSH2 0x68 PUSH1 0x4 DUP1 CALLDATASIZE SUB DUP2 ADD SWAP1 PUSH2 0x63 SWAP2 SWAP1 PUSH2 0x59E JUMP JUMPDEST PUSH2 0xEA JUMP JUMPDEST PUSH1 0x40 MLOAD PUSH2 0x75 SWAP2 SWAP1 PUSH2 0x5FD JUMP JUMPDEST PUSH1 0x40 MLOAD DUP1 SWAP2 SUB SWAP1 RETURN JUMPDEST PUSH2 0x98 PUSH1 0x4 DUP1 CALLDATASIZE SUB DUP2 ADD SWAP1 PUSH2 0x93 SWAP2 SWAP1 PUSH2 0x640 JUMP JUMPDEST PUSH2 0x117 JUMP JUMPDEST STOP JUMPDEST PUSH2 0xB4 PUSH1 0x4 DUP1 CALLDATASIZE SUB DUP2 ADD SWAP1 PUSH2 0xAF SWAP2 SWAP1 PUSH2 0x59E JUMP JUMPDEST PUSH2 0x237 JUMP JUMPDEST STOP JUMPDEST PUSH2 0xD0 PUSH1 0x4 DUP1 CALLDATASIZE SUB DUP2 ADD SWAP1 PUSH2 0xCB SWAP2 SWAP1 PUSH2 0x69A JUMP JUMPDEST PUSH2 0x34D JUMP JUMPDEST PUSH1 0x40 MLOAD PUSH2 0xE1 SWAP6 SWAP5 SWAP4 SWAP3 SWAP2 SWAP1 PUSH2 0x764 JUMP JUMPDEST PUSH1 0x40 MLOAD DUP1 SWAP2 SUB SWAP1 RETURN JUMPDEST PUSH1 0x1 DUP2 DUP1 MLOAD PUSH1 0x20 DUP2 ADD DUP3 ADD DUP1 MLOAD DUP5 DUP3 MSTORE PUSH1 0x20 DUP4 ADD PUSH1 0x20 DUP6 ADD KECCAK256 DUP2 DUP4 MSTORE DUP1 SWAP6 POP POP POP POP POP POP PUSH0 SWAP2 POP SWAP1 POP SLOAD DUP2 JUMP JUMPDEST PUSH0 PUSH1 0x1 DUP2 PUSH1 0x1 DUP2 SLOAD ADD DUP1 DUP3 SSTORE DUP1 SWAP2 POP POP SUB SWAP1 PUSH0 MSTORE PUSH1 0x20 PUSH0 KECCAK256 SWAP1 POP POP PUSH0 DUP1 PUSH1 0x1 PUSH0 DUP1 SLOAD SWAP1 POP PUSH2 0x145 SWAP2 SWAP1 PUSH2 0x7E9 JUMP JUMPDEST DUP2 SLOAD DUP2 LT PUSH2 0x156 JUMPI PUSH2 0x155 PUSH2 0x81C JUMP JUMPDEST JUMPDEST SWAP1 PUSH0 MSTORE PUSH1 0x20 PUSH0 KECCAK256 SWAP1 PUSH1 0x6 MUL ADD SWAP1 POP DUP3 DUP2 PUSH0 ADD SWAP1 DUP2 PUSH2 0x174 SWAP2 SWAP1 PUSH2 0xA43 JUMP JUMPDEST POP DUP2 DUP2 PUSH1 0x1 ADD DUP2 SWAP1 SSTORE POP CALLER DUP2 PUSH1 0x2 ADD PUSH0 PUSH2 0x100 EXP DUP2 SLOAD DUP2 PUSH20 0xFFFFFFFFFFFFFFFFFFFFFFFFFFFFFFFFFFFFFFFF MUL NOT AND SWAP1 DUP4 PUSH20 0xFFFFFFFFFFFFFFFFFFFFFFFFFFFFFFFFFFFFFFFF AND MUL OR SWAP1 SSTORE POP PUSH0 DUP2 PUSH1 0x3 ADD PUSH0 PUSH2 0x100 EXP DUP2 SLOAD DUP2 PUSH20 0xFFFFFFFFFFFFFFFFFFFFFFFFFFFFFFFFFFFFFFFF MUL NOT AND SWAP1 DUP4 PUSH20 0xFFFFFFFFFFFFFFFFFFFFFFFFFFFFFFFFFFFFFFFF AND MUL OR SWAP1 SSTORE POP PUSH0 DUP2 PUSH1 0x5 ADD DUP2 SWAP1 SSTORE POP PUSH0 DUP1 SLOAD SWAP1 POP PUSH1 0x1 DUP5 PUSH1 0x40 MLOAD PUSH2 0x220 SWAP2 SWAP1 PUSH2 0xB4C JUMP JUMPDEST SWAP1 DUP2 MSTORE PUSH1 0x20 ADD PUSH1 0x40 MLOAD DUP1 SWAP2 SUB SWAP1 KECCAK256 DUP2 SWAP1 SSTORE POP POP POP POP JUMP JUMPDEST PUSH0 PUSH1 0x1 DUP3 PUSH1 0x40 MLOAD PUSH2 0x248 SWAP2 SWAP1 PUSH2 0xB4C JUMP JUMPDEST SWAP1 DUP2 MSTORE PUSH1 0x20 ADD PUSH1 0x40 MLOAD DUP1 SWAP2 SUB SWAP1 KECCAK256 SLOAD SUB PUSH2 0x297 JUMPI PUSH1 0x40 MLOAD PUSH32 0x8C379A000000000000000000000000000000000000000000000000000000000 DUP2 MSTORE PUSH1 0x4 ADD PUSH2 0x28E SWAP1 PUSH2 0xBAC JUMP JUMPDEST PUSH1 0x40 MLOAD DUP1 SWAP2 SUB SWAP1 REVERT JUMPDEST PUSH0 PUSH1 0x1 DUP1 DUP4 PUSH1 0x40 MLOAD PUSH2 0x2A9 SWAP2 SWAP1 PUSH2 0xB4C JUMP JUMPDEST SWAP1 DUP2 MSTORE PUSH1 0x20 ADD PUSH1 0x40 MLOAD DUP1 SWAP2 SUB SWAP1 KECCAK256 SLOAD PUSH2 0x2C2 SWAP2 SWAP1 PUSH2 0x7E9 JUMP JUMPDEST SWAP1 POP PUSH0 DUP1 DUP3 DUP2 SLOAD DUP2 LT PUSH2 0x2D8 JUMPI PUSH2 0x2D7 PUSH2 0x81C JUMP JUMPDEST JUMPDEST SWAP1 PUSH0 MSTORE PUSH1 0x20 PUSH0 KECCAK256 SWAP1 PUSH1 0x6 MUL ADD SWAP1 POP DUP1 PUSH1 0x4 ADD CALLER SWAP1 DUP1 PUSH1 0x1 DUP2 SLOAD ADD DUP1 DUP3 SSTORE DUP1 SWAP2 POP POP PUSH1 0x1 SWAP1 SUB SWAP1 PUSH0 MSTORE PUSH1 0x20 PUSH0 KECCAK256 ADD PUSH0 SWAP1 SWAP2 SWAP1 SWAP2 SWAP1 SWAP2 PUSH2 0x100 EXP DUP2 SLOAD DUP2 PUSH20 0xFFFFFFFFFFFFFFFFFFFFFFFFFFFFFFFFFFFFFFFF MUL NOT AND SWAP1 DUP4 PUSH20 0xFFFFFFFFFFFFFFFFFFFFFFFFFFFFFFFFFFFFFFFF AND MUL OR SWAP1 SSTORE POP POP POP POP JUMP JUMPDEST PUSH0 DUP2 DUP2 SLOAD DUP2 LT PUSH2 0x35B JUMPI PUSH0 DUP1 REVERT JUMPDEST SWAP1 PUSH0 MSTORE PUSH1 0x20 PUSH0 KECCAK256 SWAP1 PUSH1 0x6 MUL ADD PUSH0 SWAP2 POP SWAP1 POP DUP1 PUSH0 ADD DUP1 SLOAD PUSH2 0x37A SWAP1 PUSH2 0x876 JUMP JUMPDEST DUP1 PUSH1 0x1F ADD PUSH1 0x20 DUP1 SWAP2 DIV MUL PUSH1 0x20 ADD PUSH1 0x40 MLOAD SWAP1 DUP2 ADD PUSH1 0x40 MSTORE DUP1 SWAP3 SWAP2 SWAP1 DUP2 DUP2 MSTORE PUSH1 0x20 ADD DUP3 DUP1 SLOAD PUSH2 0x3A6 SWAP1 PUSH2 0x876 JUMP JUMPDEST DUP1 ISZERO PUSH2 0x3F1 JUMPI DUP1 PUSH1 0x1F LT PUSH2 0x3C8 JUMPI PUSH2 0x100 DUP1 DUP4 SLOAD DIV MUL DUP4 MSTORE SWAP2 PUSH1 0x20 ADD SWAP2 PUSH2 0x3F1 JUMP JUMPDEST DUP3 ADD SWAP2 SWAP1 PUSH0 MSTORE PUSH1 0x20 PUSH0 KECCAK256 SWAP1 JUMPDEST DUP2 SLOAD DUP2 MSTORE SWAP1 PUSH1 0x1 ADD SWAP1 PUSH1 0x20 ADD DUP1 DUP4 GT PUSH2 0x3D4 JUMPI DUP3 SWAP1 SUB PUSH1 0x1F AND DUP3 ADD SWAP2 JUMPDEST POP POP POP POP POP SWAP1 DUP1 PUSH1 0x1 ADD SLOAD SWAP1 DUP1 PUSH1 0x2 ADD PUSH0 SWAP1 SLOAD SWAP1 PUSH2 0x100 EXP SWAP1 DIV PUSH20 0xFFFFFFFFFFFFFFFFFFFFFFFFFFFFFFFFFFFFFFFF AND SWAP1 DUP1 PUSH1 0x3 ADD PUSH0 SWAP1 SLOAD SWAP1 PUSH2 0x100 EXP SWAP1 DIV PUSH20 0xFFFFFFFFFFFFFFFFFFFFFFFFFFFFFFFFFFFFFFFF AND SWAP1 DUP1 PUSH1 0x5 ADD SLOAD SWAP1 POP DUP6 JUMP JUMPDEST PUSH0 PUSH1 0x40 MLOAD SWAP1 POP SWAP1 JUMP JUMPDEST PUSH0 DUP1 REVERT JUMPDEST PUSH0 DUP1 REVERT JUMPDEST PUSH0 DUP1 REVERT JUMPDEST PUSH0 DUP1 REVERT JUMPDEST PUSH0 PUSH1 0x1F NOT PUSH1 0x1F DUP4 ADD AND SWAP1 POP SWAP2 SWAP1 POP JUMP JUMPDEST PUSH32 0x4E487B7100000000000000000000000000000000000000000000000000000000 PUSH0 MSTORE PUSH1 0x41 PUSH1 0x4 MSTORE PUSH1 0x24 PUSH0 REVERT JUMPDEST PUSH2 0x4B0 DUP3 PUSH2 0x46A JUMP JUMPDEST DUP2 ADD DUP2 DUP2 LT PUSH8 0xFFFFFFFFFFFFFFFF DUP3 GT OR ISZERO PUSH2 0x4CF JUMPI PUSH2 0x4CE PUSH2 0x47A JUMP JUMPDEST JUMPDEST DUP1 PUSH1 0x40 MSTORE POP POP POP JUMP JUMPDEST PUSH0 PUSH2 0x4E1 PUSH2 0x451 JUMP JUMPDEST SWAP1 POP PUSH2 0x4ED DUP3 DUP3 PUSH2 0x4A7 JUMP JUMPDEST SWAP2 SWAP1 POP JUMP JUMPDEST PUSH0 PUSH8 0xFFFFFFFFFFFFFFFF DUP3 GT ISZERO PUSH2 0x50C JUMPI PUSH2 0x50B PUSH2 0x47A JUMP JUMPDEST JUMPDEST PUSH2 0x515 DUP3 PUSH2 0x46A JUMP JUMPDEST SWAP1 POP PUSH1 0x20 DUP2 ADD SWAP1 POP SWAP2 SWAP1 POP JUMP JUMPDEST DUP3 DUP2 DUP4 CALLDATACOPY PUSH0 DUP4 DUP4 ADD MSTORE POP POP POP JUMP JUMPDEST PUSH0 PUSH2 0x542 PUSH2 0x53D DUP5 PUSH2 0x4F2 JUMP JUMPDEST PUSH2 0x4D8 JUMP JUMPDEST SWAP1 POP DUP3 DUP2 MSTORE PUSH1 0x20 DUP2 ADD DUP5 DUP5 DUP5 ADD GT ISZERO PUSH2 0x55E JUMPI PUSH2 0x55D PUSH2 0x466 JUMP JUMPDEST JUMPDEST PUSH2 0x569 DUP5 DUP3 DUP6 PUSH2 0x522 JUMP JUMPDEST POP SWAP4 SWAP3 POP POP POP JUMP JUMPDEST PUSH0 DUP3 PUSH1 0x1F DUP4 ADD SLT PUSH2 0x585 JUMPI PUSH2 0x584 PUSH2 0x462 JUMP JUMPDEST JUMPDEST DUP2 CALLDATALOAD PUSH2 0x595 DUP5 DUP3 PUSH1 0x20 DUP7 ADD PUSH2 0x530 JUMP JUMPDEST SWAP2 POP POP SWAP3 SWAP2 POP POP JUMP JUMPDEST PUSH0 PUSH1 0x20 DUP3 DUP5 SUB SLT ISZERO PUSH2 0x5B3 JUMPI PUSH2 0x5B2 PUSH2 0x45A JUMP JUMPDEST JUMPDEST PUSH0 DUP3 ADD CALLDATALOAD PUSH8 0xFFFFFFFFFFFFFFFF DUP2 GT ISZERO PUSH2 0x5D0 JUMPI PUSH2 0x5CF PUSH2 0x45E JUMP JUMPDEST JUMPDEST PUSH2 0x5DC DUP5 DUP3 DUP6 ADD PUSH2 0x571 JUMP JUMPDEST SWAP2 POP POP SWAP3 SWAP2 POP POP JUMP JUMPDEST PUSH0 DUP2 SWAP1 POP SWAP2 SWAP1 POP JUMP JUMPDEST PUSH2 0x5F7 DUP2 PUSH2 0x5E5 JUMP JUMPDEST DUP3 MSTORE POP POP JUMP JUMPDEST PUSH0 PUSH1 0x20 DUP3 ADD SWAP1 POP PUSH2 0x610 PUSH0 DUP4 ADD DUP5 PUSH2 0x5EE JUMP JUMPDEST SWAP3 SWAP2 POP POP JUMP JUMPDEST PUSH2 0x61F DUP2 PUSH2 0x5E5 JUMP JUMPDEST DUP2 EQ PUSH2 0x629 JUMPI PUSH0 DUP1 REVERT JUMPDEST POP JUMP JUMPDEST PUSH0 DUP2 CALLDATALOAD SWAP1 POP PUSH2 0x63A DUP2 PUSH2 0x616 JUMP JUMPDEST SWAP3 SWAP2 POP POP JUMP JUMPDEST PUSH0 DUP1 PUSH1 0x40 DUP4 DUP6 SUB SLT ISZERO PUSH2 0x656 JUMPI PUSH2 0x655 PUSH2 0x45A JUMP JUMPDEST JUMPDEST PUSH0 DUP4 ADD CALLDATALOAD PUSH8 0xFFFFFFFFFFFFFFFF DUP2 GT ISZERO PUSH2 0x673 JUMPI PUSH2 0x672 PUSH2 0x45E JUMP JUMPDEST JUMPDEST PUSH2 0x67F DUP6 DUP3 DUP7 ADD PUSH2 0x571 JUMP JUMPDEST SWAP3 POP POP PUSH1 0x20 PUSH2 0x690 DUP6 DUP3 DUP7 ADD PUSH2 0x62C JUMP JUMPDEST SWAP2 POP POP SWAP3 POP SWAP3 SWAP1 POP JUMP JUMPDEST PUSH0 PUSH1 0x20 DUP3 DUP5 SUB SLT ISZERO PUSH2 0x6AF JUMPI PUSH2 0x6AE PUSH2 0x45A JUMP JUMPDEST JUMPDEST PUSH0 PUSH2 0x6BC DUP5 DUP3 DUP6 ADD PUSH2 0x62C JUMP JUMPDEST SWAP2 POP POP SWAP3 SWAP2 POP POP JUMP JUMPDEST PUSH0 DUP2 MLOAD SWAP1 POP SWAP2 SWAP1 POP JUMP JUMPDEST PUSH0 DUP3 DUP3 MSTORE PUSH1 0x20 DUP3 ADD SWAP1 POP SWAP3 SWAP2 POP POP JUMP JUMPDEST DUP3 DUP2 DUP4 MCOPY PUSH0 DUP4 DUP4 ADD MSTORE POP POP POP JUMP JUMPDEST PUSH0 PUSH2 0x6F7 DUP3 PUSH2 0x6C5 JUMP JUMPDEST PUSH2 0x701 DUP2 DUP6 PUSH2 0x6CF JUMP JUMPDEST SWAP4 POP PUSH2 0x711 DUP2 DUP6 PUSH1 0x20 DUP7 ADD PUSH2 0x6DF JUMP JUMPDEST PUSH2 0x71A DUP2 PUSH2 0x46A JUMP JUMPDEST DUP5 ADD SWAP2 POP POP SWAP3 SWAP2 POP POP JUMP JUMPDEST PUSH0 PUSH20 0xFFFFFFFFFFFFFFFFFFFFFFFFFFFFFFFFFFFFFFFF DUP3 AND SWAP1 POP SWAP2 SWAP1 POP JUMP JUMPDEST PUSH0 PUSH2 0x74E DUP3 PUSH2 0x725 JUMP JUMPDEST SWAP1 POP SWAP2 SWAP1 POP JUMP JUMPDEST PUSH2 0x75E DUP2 PUSH2 0x744 JUMP JUMPDEST DUP3 MSTORE POP POP JUMP JUMPDEST PUSH0 PUSH1 0xA0 DUP3 ADD SWAP1 POP DUP2 DUP2 SUB PUSH0 DUP4 ADD MSTORE PUSH2 0x77C DUP2 DUP9 PUSH2 0x6ED JUMP JUMPDEST SWAP1 POP PUSH2 0x78B PUSH1 0x20 DUP4 ADD DUP8 PUSH2 0x5EE JUMP JUMPDEST PUSH2 0x798 PUSH1 0x40 DUP4 ADD DUP7 PUSH2 0x755 JUMP JUMPDEST PUSH2 0x7A5 PUSH1 0x60 DUP4 ADD DUP6 PUSH2 0x755 JUMP JUMPDEST PUSH2 0x7B2 PUSH1 0x80 DUP4 ADD DUP5 PUSH2 0x5EE JUMP JUMPDEST SWAP7 SWAP6 POP POP POP POP POP POP JUMP JUMPDEST PUSH32 0x4E487B7100000000000000000000000000000000000000000000000000000000 PUSH0 MSTORE PUSH1 0x11 PUSH1 0x4 MSTORE PUSH1 0x24 PUSH0 REVERT JUMPDEST PUSH0 PUSH2 0x7F3 DUP3 PUSH2 0x5E5 JUMP JUMPDEST SWAP2 POP PUSH2 0x7FE DUP4 PUSH2 0x5E5 JUMP JUMPDEST SWAP3 POP DUP3 DUP3 SUB SWAP1 POP DUP2 DUP2 GT ISZERO PUSH2 0x816 JUMPI PUSH2 0x815 PUSH2 0x7BC JUMP JUMPDEST JUMPDEST SWAP3 SWAP2 POP POP JUMP JUMPDEST PUSH32 0x4E487B7100000000000000000000000000000000000000000000000000000000 PUSH0 MSTORE PUSH1 0x32 PUSH1 0x4 MSTORE PUSH1 0x24 PUSH0 REVERT JUMPDEST PUSH32 0x4E487B7100000000000000000000000000000000000000000000000000000000 PUSH0 MSTORE PUSH1 0x22 PUSH1 0x4 MSTORE PUSH1 0x24 PUSH0 REVERT JUMPDEST PUSH0 PUSH1 0x2 DUP3 DIV SWAP1 POP PUSH1 0x1 DUP3 AND DUP1 PUSH2 0x88D JUMPI PUSH1 0x7F DUP3 AND SWAP2 POP JUMPDEST PUSH1 0x20 DUP3 LT DUP2 SUB PUSH2 0x8A0 JUMPI PUSH2 0x89F PUSH2 0x849 JUMP JUMPDEST JUMPDEST POP SWAP2 SWAP1 POP JUMP JUMPDEST PUSH0 DUP2 SWAP1 POP DUP2 PUSH0 MSTORE PUSH1 0x20 PUSH0 KECCAK256 SWAP1 POP SWAP2 SWAP1 POP JUMP JUMPDEST PUSH0 PUSH1 0x20 PUSH1 0x1F DUP4 ADD DIV SWAP1 POP SWAP2 SWAP1 POP JUMP JUMPDEST PUSH0 DUP3 DUP3 SHL SWAP1 POP SWAP3 SWAP2 POP POP JUMP JUMPDEST PUSH0 PUSH1 0x8 DUP4 MUL PUSH2 0x902 PUSH32 0xFFFFFFFFFFFFFFFFFFFFFFFFFFFFFFFFFFFFFFFFFFFFFFFFFFFFFFFFFFFFFFFF DUP3 PUSH2 0x8C7 JUMP JUMPDEST PUSH2 0x90C DUP7 DUP4 PUSH2 0x8C7 JUMP JUMPDEST SWAP6 POP DUP1 NOT DUP5 AND SWAP4 POP DUP1 DUP7 AND DUP5 OR SWAP3 POP POP POP SWAP4 SWAP3 POP POP POP JUMP JUMPDEST PUSH0 DUP2 SWAP1 POP SWAP2 SWAP1 POP JUMP JUMPDEST PUSH0 PUSH2 0x947 PUSH2 0x942 PUSH2 0x93D DUP5 PUSH2 0x5E5 JUMP JUMPDEST PUSH2 0x924 JUMP JUMPDEST PUSH2 0x5E5 JUMP JUMPDEST SWAP1 POP SWAP2 SWAP1 POP JUMP JUMPDEST PUSH0 DUP2 SWAP1 POP SWAP2 SWAP1 POP JUMP JUMPDEST PUSH2 0x960 DUP4 PUSH2 0x92D JUMP JUMPDEST PUSH2 0x974 PUSH2 0x96C DUP3 PUSH2 0x94E JUMP JUMPDEST DUP5 DUP5 SLOAD PUSH2 0x8D3 JUMP JUMPDEST DUP3 SSTORE POP POP POP POP JUMP JUMPDEST PUSH0 SWAP1 JUMP JUMPDEST PUSH2 0x988 PUSH2 0x97C JUMP JUMPDEST PUSH2 0x993 DUP2 DUP5 DUP5 PUSH2 0x957 JUMP JUMPDEST POP POP POP JUMP JUMPDEST JUMPDEST DUP2 DUP2 LT ISZERO PUSH2 0x9B6 JUMPI PUSH2 0x9AB PUSH0 DUP3 PUSH2 0x980 JUMP JUMPDEST PUSH1 0x1 DUP2 ADD SWAP1 POP PUSH2 0x999 JUMP JUMPDEST POP POP JUMP JUMPDEST PUSH1 0x1F DUP3 GT ISZERO PUSH2 0x9FB JUMPI PUSH2 0x9CC DUP2 PUSH2 0x8A6 JUMP JUMPDEST PUSH2 0x9D5 DUP5 PUSH2 0x8B8 JUMP JUMPDEST DUP2 ADD PUSH1 0x20 DUP6 LT ISZERO PUSH2 0x9E4 JUMPI DUP2 SWAP1 POP JUMPDEST PUSH2 0x9F8 PUSH2 0x9F0 DUP6 PUSH2 0x8B8 JUMP JUMPDEST DUP4 ADD DUP3 PUSH2 0x998 JUMP JUMPDEST POP POP JUMPDEST POP POP POP JUMP JUMPDEST PUSH0 DUP3 DUP3 SHR SWAP1 POP SWAP3 SWAP2 POP POP JUMP JUMPDEST PUSH0 PUSH2 0xA1B PUSH0 NOT DUP5 PUSH1 0x8 MUL PUSH2 0xA00 JUMP JUMPDEST NOT DUP1 DUP4 AND SWAP2 POP POP SWAP3 SWAP2 POP POP JUMP JUMPDEST PUSH0 PUSH2 0xA33 DUP4 DUP4 PUSH2 0xA0C JUMP JUMPDEST SWAP2 POP DUP3 PUSH1 0x2 MUL DUP3 OR SWAP1 POP SWAP3 SWAP2 POP POP JUMP JUMPDEST PUSH2 0xA4C DUP3 PUSH2 0x6C5 JUMP JUMPDEST PUSH8 0xFFFFFFFFFFFFFFFF DUP2 GT ISZERO PUSH2 0xA65 JUMPI PUSH2 0xA64 PUSH2 0x47A JUMP JUMPDEST JUMPDEST PUSH2 0xA6F DUP3 SLOAD PUSH2 0x876 JUMP JUMPDEST PUSH2 0xA7A DUP3 DUP3 DUP6 PUSH2 0x9BA JUMP JUMPDEST PUSH0 PUSH1 0x20 SWAP1 POP PUSH1 0x1F DUP4 GT PUSH1 0x1 DUP2 EQ PUSH2 0xAAB JUMPI PUSH0 DUP5 ISZERO PUSH2 0xA99 JUMPI DUP3 DUP8 ADD MLOAD SWAP1 POP JUMPDEST PUSH2 0xAA3 DUP6 DUP3 PUSH2 0xA28 JUMP JUMPDEST DUP7 SSTORE POP PUSH2 0xB0A JUMP JUMPDEST PUSH1 0x1F NOT DUP5 AND PUSH2 0xAB9 DUP7 PUSH2 0x8A6 JUMP JUMPDEST PUSH0 JUMPDEST DUP3 DUP2 LT ISZERO PUSH2 0xAE0 JUMPI DUP5 DUP10 ADD MLOAD DUP3 SSTORE PUSH1 0x1 DUP3 ADD SWAP2 POP PUSH1 0x20 DUP6 ADD SWAP5 POP PUSH1 0x20 DUP2 ADD SWAP1 POP PUSH2 0xABB JUMP JUMPDEST DUP7 DUP4 LT ISZERO PUSH2 0xAFD JUMPI DUP5 DUP10 ADD MLOAD PUSH2 0xAF9 PUSH1 0x1F DUP10 AND DUP3 PUSH2 0xA0C JUMP JUMPDEST DUP4 SSTORE POP JUMPDEST PUSH1 0x1 PUSH1 0x2 DUP9 MUL ADD DUP9 SSTORE POP POP POP JUMPDEST POP POP POP POP POP POP JUMP JUMPDEST PUSH0 DUP2 SWAP1 POP SWAP3 SWAP2 POP POP JUMP JUMPDEST PUSH0 PUSH2 0xB26 DUP3 PUSH2 0x6C5 JUMP JUMPDEST PUSH2 0xB30 DUP2 DUP6 PUSH2 0xB12 JUMP JUMPDEST SWAP4 POP PUSH2 0xB40 DUP2 DUP6 PUSH1 0x20 DUP7 ADD PUSH2 0x6DF JUMP JUMPDEST DUP1 DUP5 ADD SWAP2 POP POP SWAP3 SWAP2 POP POP JUMP JUMPDEST PUSH0 PUSH2 0xB57 DUP3 DUP5 PUSH2 0xB1C JUMP JUMPDEST SWAP2 POP DUP2 SWAP1 POP SWAP3 SWAP2 POP POP JUMP JUMPDEST PUSH32 0x426F756E747920646F6573206E6F742065786973740000000000000000000000 PUSH0 DUP3 ADD MSTORE POP JUMP JUMPDEST PUSH0 PUSH2 0xB96 PUSH1 0x15 DUP4 PUSH2 0x6CF JUMP JUMPDEST SWAP2 POP PUSH2 0xBA1 DUP3 PUSH2 0xB62 JUMP JUMPDEST PUSH1 0x20 DUP3 ADD SWAP1 POP SWAP2 SWAP1 POP JUMP JUMPDEST PUSH0 PUSH1 0x20 DUP3 ADD SWAP1 POP DUP2 DUP2 SUB PUSH0 DUP4 ADD MSTORE PUSH2 0xBC3 DUP2 PUSH2 0xB8A JUMP JUMPDEST SWAP1 POP SWAP2 SWAP1 POP JUMP INVALID LOG2 PUSH5 0x6970667358 0x22 SLT KECCAK256 DELEGATECALL 0xCA 0xAA DUP16 SWAP2 SWAP7 SWAP10 0xE0 DUP10 PUSH27 0x37EBF914535B580BD19B3251DF818B90C9F10EC0D5C664736F6C63 NUMBER STOP ADDMOD BYTE STOP CALLER "
		},
		"gasEstimates": {
			"creation": {
				"codeDepositCost": "614400",
				"executionCost": "643",
				"totalCost": "615043"
			},
			"external": {
				"Apply(string)": "infinite",
				"BountyIdToIndex(string)": "infinite",
				"bounties(uint256)": "infinite",
				"create(string,uint256)": "infinite"
			}
		},
		"methodIdentifiers": {
			"Apply(string)": "75234b47",
			"BountyIdToIndex(string)": "3edb9e02",
			"bounties(uint256)": "dc2f8744",
			"create(string,uint256)": "46f81a87"
		}
	},
	"abi": [
		{
			"inputs": [
				{
					"internalType": "string",
					"name": "id",
					"type": "string"
				}
			],
			"name": "Apply",
			"outputs": [],
			"stateMutability": "nonpayable",
			"type": "function"
		},
		{
			"inputs": [
				{
					"internalType": "string",
					"name": "",
					"type": "string"
				}
			],
			"name": "BountyIdToIndex",
			"outputs": [
				{
					"internalType": "uint256",
					"name": "",
					"type": "uint256"
				}
			],
			"stateMutability": "view",
			"type": "function"
		},
		{
			"inputs": [
				{
					"internalType": "uint256",
					"name": "",
					"type": "uint256"
				}
			],
			"name": "bounties",
			"outputs": [
				{
					"internalType": "string",
					"name": "id",
					"type": "string"
				},
				{
					"internalType": "uint256",
					"name": "amount",
					"type": "uint256"
				},
				{
					"internalType": "address",
					"name": "creator",
					"type": "address"
				},
				{
					"internalType": "address",
					"name": "availer",
					"type": "address"
				},
				{
					"internalType": "uint256",
					"name": "SubmissionTime",
					"type": "uint256"
				}
			],
			"stateMutability": "view",
			"type": "function"
		},
		{
			"inputs": [
				{
					"internalType": "string",
					"name": "id",
					"type": "string"
				},
				{
					"internalType": "uint256",
					"name": "amount",
					"type": "uint256"
				}
			],
			"name": "create",
			"outputs": [],
			"stateMutability": "nonpayable",
			"type": "function"
		}
	]
}