{
	"data": {
		"bytecode": {
			"linkReferences": {},
			"object": "6080604052348015600e575f80fd5b506113248061001c5f395ff3fe608060405234801561000f575f80fd5b5060043610610060575f3560e01c806318da9b12146100645780633edb9e021461009457806352d2618f146100c45780636ec6884f146100e057806399c92ef714610110578063dc2f87441461012c575b5f80fd5b61007e60048036038101906100799190610a18565b610162565b60405161008b9190610a77565b60405180910390f35b6100ae60048036038101906100a99190610a18565b61018f565b6040516100bb9190610a77565b60405180910390f35b6100de60048036038101906100d99190610b9c565b6101bc565b005b6100fa60048036038101906100f59190610c83565b6103a9565b6040516101079190610ced565b60405180910390f35b61012a60048036038101906101259190610d06565b6103f1565b005b61014660048036038101906101419190610c83565b6106a2565b6040516101599796959493929190610df6565b60405180910390f35b6003818051602081018201805184825260208301602085012081835280955050505050505f915090505481565b6002818051602081018201805184825260208301602085012081835280955050505050505f915090505481565b5f60018160018154018082558091505003905f5260205f209050505f8060015f805490506101ea9190610ea5565b815481106101fb576101fa610ed8565b5b905f5260205f209060070201905085815f01908161021991906110ff565b508481600101908161022b91906110ff565b508381600201908161023d91906110ff565b5081816004018190555033816005015f6101000a81548173ffffffffffffffffffffffffffffffffffffffff021916908373ffffffffffffffffffffffffffffffffffffffff1602179055505f8160050160146101000a81548160ff0219169083151502179055505f816006015f6101000a81548173ffffffffffffffffffffffffffffffffffffffff021916908373ffffffffffffffffffffffffffffffffffffffff1602179055505f5b835181101561034d578160030184828151811061030957610308610ed8565b5b6020026020010151908060018154018082558091505060019003905f5260205f20015f90919091909150908161033f91906110ff565b5080806001019150506102e9565b505f805490506002876040516103639190611208565b9081526020016040518091039020819055507f305ac49f0fd058ac0c830a3a5a104a5531acafef3f3d8fecf3dfbe52e0e4521460405160405180910390a1505050505050565b600181815481106103b8575f80fd5b905f5260205f2090600302015f91509050805f015f9054906101000a900473ffffffffffffffffffffffffffffffffffffffff16905081565b5f6002836040516104029190611208565b90815260200160405180910390205403610451576040517f08c379a000000000000000000000000000000000000000000000000000000000815260040161044890611268565b60405180910390fd5b5f60016002846040516104649190611208565b90815260200160405180910390205461047d9190610ea5565b90505f80828154811061049357610492610ed8565b5b905f5260205f20906007020190508060050160149054906101000a900460ff16156104f3576040517f08c379a00000000000000000000000000000000000000000000000000000000081526004016104ea906112d0565b60405180910390fd5b6001808160018154018082558091505003905f5260205f209050505f60018080805490506105219190610ea5565b8154811061053257610531610ed8565b5b905f5260205f209060030201905033815f015f6101000a81548173ffffffffffffffffffffffffffffffffffffffff021916908373ffffffffffffffffffffffffffffffffffffffff1602179055505f5b84518110156105e757816002018582815181106105a3576105a2610ed8565b5b6020026020010151908060018154018082558091505060019003905f5260205f20015f9091909190915090816105d991906110ff565b508080600101915050610583565b5060018260050160146101000a81548160ff02191690831515021790555033826006015f6101000a81548173ffffffffffffffffffffffffffffffffffffffff021916908373ffffffffffffffffffffffffffffffffffffffff16021790555060018054905060038660405161065d9190611208565b9081526020016040518091039020819055507f1c3e67c4ec352916daab0edfab1f8f78f6e600cb5833b3df9f929b0df4daafc660405160405180910390a15050505050565b5f81815481106106b0575f80fd5b905f5260205f2090600702015f91509050805f0180546106cf90610f32565b80601f01602080910402602001604051908101604052809291908181526020018280546106fb90610f32565b80156107465780601f1061071d57610100808354040283529160200191610746565b820191905f5260205f20905b81548152906001019060200180831161072957829003601f168201915b50505050509080600101805461075b90610f32565b80601f016020809104026020016040519081016040528092919081815260200182805461078790610f32565b80156107d25780601f106107a9576101008083540402835291602001916107d2565b820191905f5260205f20905b8154815290600101906020018083116107b557829003601f168201915b5050505050908060020180546107e790610f32565b80601f016020809104026020016040519081016040528092919081815260200182805461081390610f32565b801561085e5780601f106108355761010080835404028352916020019161085e565b820191905f5260205f20905b81548152906001019060200180831161084157829003601f168201915b505050505090806004015490806005015f9054906101000a900473ffffffffffffffffffffffffffffffffffffffff16908060050160149054906101000a900460ff1690806006015f9054906101000a900473ffffffffffffffffffffffffffffffffffffffff16905087565b5f604051905090565b5f80fd5b5f80fd5b5f80fd5b5f80fd5b5f601f19601f8301169050919050565b7f4e487b71000000000000000000000000000000000000000000000000000000005f52604160045260245ffd5b61092a826108e4565b810181811067ffffffffffffffff82111715610949576109486108f4565b5b80604052505050565b5f61095b6108cb565b90506109678282610921565b919050565b5f67ffffffffffffffff821115610986576109856108f4565b5b61098f826108e4565b9050602081019050919050565b828183375f83830152505050565b5f6109bc6109b78461096c565b610952565b9050828152602081018484840111156109d8576109d76108e0565b5b6109e384828561099c565b509392505050565b5f82601f8301126109ff576109fe6108dc565b5b8135610a0f8482602086016109aa565b91505092915050565b5f60208284031215610a2d57610a2c6108d4565b5b5f82013567ffffffffffffffff811115610a4a57610a496108d8565b5b610a56848285016109eb565b91505092915050565b5f819050919050565b610a7181610a5f565b82525050565b5f602082019050610a8a5f830184610a68565b92915050565b5f67ffffffffffffffff821115610aaa57610aa96108f4565b5b602082029050602081019050919050565b5f80fd5b5f610ad1610acc84610a90565b610952565b90508083825260208201905060208402830185811115610af457610af3610abb565b5b835b81811015610b3b57803567ffffffffffffffff811115610b1957610b186108dc565b5b808601610b2689826109eb565b85526020850194505050602081019050610af6565b5050509392505050565b5f82601f830112610b5957610b586108dc565b5b8135610b69848260208601610abf565b91505092915050565b610b7b81610a5f565b8114610b85575f80fd5b50565b5f81359050610b9681610b72565b92915050565b5f805f805f60a08688031215610bb557610bb46108d4565b5b5f86013567ffffffffffffffff811115610bd257610bd16108d8565b5b610bde888289016109eb565b955050602086013567ffffffffffffffff811115610bff57610bfe6108d8565b5b610c0b888289016109eb565b945050604086013567ffffffffffffffff811115610c2c57610c2b6108d8565b5b610c38888289016109eb565b935050606086013567ffffffffffffffff811115610c5957610c586108d8565b5b610c6588828901610b45565b9250506080610c7688828901610b88565b9150509295509295909350565b5f60208284031215610c9857610c976108d4565b5b5f610ca584828501610b88565b91505092915050565b5f73ffffffffffffffffffffffffffffffffffffffff82169050919050565b5f610cd782610cae565b9050919050565b610ce781610ccd565b82525050565b5f602082019050610d005f830184610cde565b92915050565b5f8060408385031215610d1c57610d1b6108d4565b5b5f83013567ffffffffffffffff811115610d3957610d386108d8565b5b610d45858286016109eb565b925050602083013567ffffffffffffffff811115610d6657610d656108d8565b5b610d7285828601610b45565b9150509250929050565b5f81519050919050565b5f82825260208201905092915050565b8281835e5f83830152505050565b5f610dae82610d7c565b610db88185610d86565b9350610dc8818560208601610d96565b610dd1816108e4565b840191505092915050565b5f8115159050919050565b610df081610ddc565b82525050565b5f60e0820190508181035f830152610e0e818a610da4565b90508181036020830152610e228189610da4565b90508181036040830152610e368188610da4565b9050610e456060830187610a68565b610e526080830186610cde565b610e5f60a0830185610de7565b610e6c60c0830184610cde565b98975050505050505050565b7f4e487b71000000000000000000000000000000000000000000000000000000005f52601160045260245ffd5b5f610eaf82610a5f565b9150610eba83610a5f565b9250828203905081811115610ed257610ed1610e78565b5b92915050565b7f4e487b71000000000000000000000000000000000000000000000000000000005f52603260045260245ffd5b7f4e487b71000000000000000000000000000000000000000000000000000000005f52602260045260245ffd5b5f6002820490506001821680610f4957607f821691505b602082108103610f5c57610f5b610f05565b5b50919050565b5f819050815f5260205f209050919050565b5f6020601f8301049050919050565b5f82821b905092915050565b5f60088302610fbe7fffffffffffffffffffffffffffffffffffffffffffffffffffffffffffffffff82610f83565b610fc88683610f83565b95508019841693508086168417925050509392505050565b5f819050919050565b5f611003610ffe610ff984610a5f565b610fe0565b610a5f565b9050919050565b5f819050919050565b61101c83610fe9565b6110306110288261100a565b848454610f8f565b825550505050565b5f90565b611044611038565b61104f818484611013565b505050565b5b81811015611072576110675f8261103c565b600181019050611055565b5050565b601f8211156110b75761108881610f62565b61109184610f74565b810160208510156110a0578190505b6110b46110ac85610f74565b830182611054565b50505b505050565b5f82821c905092915050565b5f6110d75f19846008026110bc565b1980831691505092915050565b5f6110ef83836110c8565b9150826002028217905092915050565b61110882610d7c565b67ffffffffffffffff811115611121576111206108f4565b5b61112b8254610f32565b611136828285611076565b5f60209050601f831160018114611167575f8415611155578287015190505b61115f85826110e4565b8655506111c6565b601f19841661117586610f62565b5f5b8281101561119c57848901518255600182019150602085019450602081019050611177565b868310156111b957848901516111b5601f8916826110c8565b8355505b6001600288020188555050505b505050505050565b5f81905092915050565b5f6111e282610d7c565b6111ec81856111ce565b93506111fc818560208601610d96565b80840191505092915050565b5f61121382846111d8565b915081905092915050565b7f426f756e747920646f6573206e6f7420657869737400000000000000000000005f82015250565b5f611252601583610d86565b915061125d8261121e565b602082019050919050565b5f6020820190508181035f83015261127f81611246565b9050919050565b7f426f756e747920697320616c726561647920617661696c6564000000000000005f82015250565b5f6112ba601983610d86565b91506112c582611286565b602082019050919050565b5f6020820190508181035f8301526112e7816112ae565b905091905056fea264697066735822122032e323494de0a37ff8e77118850f10bacb53ba027e33a2667b71c89110e5724164736f6c634300081a0033",
			"opcodes": "PUSH1 0x80 PUSH1 0x40 MSTORE CALLVALUE DUP1 ISZERO PUSH1 0xE JUMPI PUSH0 DUP1 REVERT JUMPDEST POP PUSH2 0x1324 DUP1 PUSH2 0x1C PUSH0 CODECOPY PUSH0 RETURN INVALID PUSH1 0x80 PUSH1 0x40 MSTORE CALLVALUE DUP1 ISZERO PUSH2 0xF JUMPI PUSH0 DUP1 REVERT JUMPDEST POP PUSH1 0x4 CALLDATASIZE LT PUSH2 0x60 JUMPI PUSH0 CALLDATALOAD PUSH1 0xE0 SHR DUP1 PUSH4 0x18DA9B12 EQ PUSH2 0x64 JUMPI DUP1 PUSH4 0x3EDB9E02 EQ PUSH2 0x94 JUMPI DUP1 PUSH4 0x52D2618F EQ PUSH2 0xC4 JUMPI DUP1 PUSH4 0x6EC6884F EQ PUSH2 0xE0 JUMPI DUP1 PUSH4 0x99C92EF7 EQ PUSH2 0x110 JUMPI DUP1 PUSH4 0xDC2F8744 EQ PUSH2 0x12C JUMPI JUMPDEST PUSH0 DUP1 REVERT JUMPDEST PUSH2 0x7E PUSH1 0x4 DUP1 CALLDATASIZE SUB DUP2 ADD SWAP1 PUSH2 0x79 SWAP2 SWAP1 PUSH2 0xA18 JUMP JUMPDEST PUSH2 0x162 JUMP JUMPDEST PUSH1 0x40 MLOAD PUSH2 0x8B SWAP2 SWAP1 PUSH2 0xA77 JUMP JUMPDEST PUSH1 0x40 MLOAD DUP1 SWAP2 SUB SWAP1 RETURN JUMPDEST PUSH2 0xAE PUSH1 0x4 DUP1 CALLDATASIZE SUB DUP2 ADD SWAP1 PUSH2 0xA9 SWAP2 SWAP1 PUSH2 0xA18 JUMP JUMPDEST PUSH2 0x18F JUMP JUMPDEST PUSH1 0x40 MLOAD PUSH2 0xBB SWAP2 SWAP1 PUSH2 0xA77 JUMP JUMPDEST PUSH1 0x40 MLOAD DUP1 SWAP2 SUB SWAP1 RETURN JUMPDEST PUSH2 0xDE PUSH1 0x4 DUP1 CALLDATASIZE SUB DUP2 ADD SWAP1 PUSH2 0xD9 SWAP2 SWAP1 PUSH2 0xB9C JUMP JUMPDEST PUSH2 0x1BC JUMP JUMPDEST STOP JUMPDEST PUSH2 0xFA PUSH1 0x4 DUP1 CALLDATASIZE SUB DUP2 ADD SWAP1 PUSH2 0xF5 SWAP2 SWAP1 PUSH2 0xC83 JUMP JUMPDEST PUSH2 0x3A9 JUMP JUMPDEST PUSH1 0x40 MLOAD PUSH2 0x107 SWAP2 SWAP1 PUSH2 0xCED JUMP JUMPDEST PUSH1 0x40 MLOAD DUP1 SWAP2 SUB SWAP1 RETURN JUMPDEST PUSH2 0x12A PUSH1 0x4 DUP1 CALLDATASIZE SUB DUP2 ADD SWAP1 PUSH2 0x125 SWAP2 SWAP1 PUSH2 0xD06 JUMP JUMPDEST PUSH2 0x3F1 JUMP JUMPDEST STOP JUMPDEST PUSH2 0x146 PUSH1 0x4 DUP1 CALLDATASIZE SUB DUP2 ADD SWAP1 PUSH2 0x141 SWAP2 SWAP1 PUSH2 0xC83 JUMP JUMPDEST PUSH2 0x6A2 JUMP JUMPDEST PUSH1 0x40 MLOAD PUSH2 0x159 SWAP8 SWAP7 SWAP6 SWAP5 SWAP4 SWAP3 SWAP2 SWAP1 PUSH2 0xDF6 JUMP JUMPDEST PUSH1 0x40 MLOAD DUP1 SWAP2 SUB SWAP1 RETURN JUMPDEST PUSH1 0x3 DUP2 DUP1 MLOAD PUSH1 0x20 DUP2 ADD DUP3 ADD DUP1 MLOAD DUP5 DUP3 MSTORE PUSH1 0x20 DUP4 ADD PUSH1 0x20 DUP6 ADD KECCAK256 DUP2 DUP4 MSTORE DUP1 SWAP6 POP POP POP POP POP POP PUSH0 SWAP2 POP SWAP1 POP SLOAD DUP2 JUMP JUMPDEST PUSH1 0x2 DUP2 DUP1 MLOAD PUSH1 0x20 DUP2 ADD DUP3 ADD DUP1 MLOAD DUP5 DUP3 MSTORE PUSH1 0x20 DUP4 ADD PUSH1 0x20 DUP6 ADD KECCAK256 DUP2 DUP4 MSTORE DUP1 SWAP6 POP POP POP POP POP POP PUSH0 SWAP2 POP SWAP1 POP SLOAD DUP2 JUMP JUMPDEST PUSH0 PUSH1 0x1 DUP2 PUSH1 0x1 DUP2 SLOAD ADD DUP1 DUP3 SSTORE DUP1 SWAP2 POP POP SUB SWAP1 PUSH0 MSTORE PUSH1 0x20 PUSH0 KECCAK256 SWAP1 POP POP PUSH0 DUP1 PUSH1 0x1 PUSH0 DUP1 SLOAD SWAP1 POP PUSH2 0x1EA SWAP2 SWAP1 PUSH2 0xEA5 JUMP JUMPDEST DUP2 SLOAD DUP2 LT PUSH2 0x1FB JUMPI PUSH2 0x1FA PUSH2 0xED8 JUMP JUMPDEST JUMPDEST SWAP1 PUSH0 MSTORE PUSH1 0x20 PUSH0 KECCAK256 SWAP1 PUSH1 0x7 MUL ADD SWAP1 POP DUP6 DUP2 PUSH0 ADD SWAP1 DUP2 PUSH2 0x219 SWAP2 SWAP1 PUSH2 0x10FF JUMP JUMPDEST POP DUP5 DUP2 PUSH1 0x1 ADD SWAP1 DUP2 PUSH2 0x22B SWAP2 SWAP1 PUSH2 0x10FF JUMP JUMPDEST POP DUP4 DUP2 PUSH1 0x2 ADD SWAP1 DUP2 PUSH2 0x23D SWAP2 SWAP1 PUSH2 0x10FF JUMP JUMPDEST POP DUP2 DUP2 PUSH1 0x4 ADD DUP2 SWAP1 SSTORE POP CALLER DUP2 PUSH1 0x5 ADD PUSH0 PUSH2 0x100 EXP DUP2 SLOAD DUP2 PUSH20 0xFFFFFFFFFFFFFFFFFFFFFFFFFFFFFFFFFFFFFFFF MUL NOT AND SWAP1 DUP4 PUSH20 0xFFFFFFFFFFFFFFFFFFFFFFFFFFFFFFFFFFFFFFFF AND MUL OR SWAP1 SSTORE POP PUSH0 DUP2 PUSH1 0x5 ADD PUSH1 0x14 PUSH2 0x100 EXP DUP2 SLOAD DUP2 PUSH1 0xFF MUL NOT AND SWAP1 DUP4 ISZERO ISZERO MUL OR SWAP1 SSTORE POP PUSH0 DUP2 PUSH1 0x6 ADD PUSH0 PUSH2 0x100 EXP DUP2 SLOAD DUP2 PUSH20 0xFFFFFFFFFFFFFFFFFFFFFFFFFFFFFFFFFFFFFFFF MUL NOT AND SWAP1 DUP4 PUSH20 0xFFFFFFFFFFFFFFFFFFFFFFFFFFFFFFFFFFFFFFFF AND MUL OR SWAP1 SSTORE POP PUSH0 JUMPDEST DUP4 MLOAD DUP2 LT ISZERO PUSH2 0x34D JUMPI DUP2 PUSH1 0x3 ADD DUP5 DUP3 DUP2 MLOAD DUP2 LT PUSH2 0x309 JUMPI PUSH2 0x308 PUSH2 0xED8 JUMP JUMPDEST JUMPDEST PUSH1 0x20 MUL PUSH1 0x20 ADD ADD MLOAD SWAP1 DUP1 PUSH1 0x1 DUP2 SLOAD ADD DUP1 DUP3 SSTORE DUP1 SWAP2 POP POP PUSH1 0x1 SWAP1 SUB SWAP1 PUSH0 MSTORE PUSH1 0x20 PUSH0 KECCAK256 ADD PUSH0 SWAP1 SWAP2 SWAP1 SWAP2 SWAP1 SWAP2 POP SWAP1 DUP2 PUSH2 0x33F SWAP2 SWAP1 PUSH2 0x10FF JUMP JUMPDEST POP DUP1 DUP1 PUSH1 0x1 ADD SWAP2 POP POP PUSH2 0x2E9 JUMP JUMPDEST POP PUSH0 DUP1 SLOAD SWAP1 POP PUSH1 0x2 DUP8 PUSH1 0x40 MLOAD PUSH2 0x363 SWAP2 SWAP1 PUSH2 0x1208 JUMP JUMPDEST SWAP1 DUP2 MSTORE PUSH1 0x20 ADD PUSH1 0x40 MLOAD DUP1 SWAP2 SUB SWAP1 KECCAK256 DUP2 SWAP1 SSTORE POP PUSH32 0x305AC49F0FD058AC0C830A3A5A104A5531ACAFEF3F3D8FECF3DFBE52E0E45214 PUSH1 0x40 MLOAD PUSH1 0x40 MLOAD DUP1 SWAP2 SUB SWAP1 LOG1 POP POP POP POP POP POP JUMP JUMPDEST PUSH1 0x1 DUP2 DUP2 SLOAD DUP2 LT PUSH2 0x3B8 JUMPI PUSH0 DUP1 REVERT JUMPDEST SWAP1 PUSH0 MSTORE PUSH1 0x20 PUSH0 KECCAK256 SWAP1 PUSH1 0x3 MUL ADD PUSH0 SWAP2 POP SWAP1 POP DUP1 PUSH0 ADD PUSH0 SWAP1 SLOAD SWAP1 PUSH2 0x100 EXP SWAP1 DIV PUSH20 0xFFFFFFFFFFFFFFFFFFFFFFFFFFFFFFFFFFFFFFFF AND SWAP1 POP DUP2 JUMP JUMPDEST PUSH0 PUSH1 0x2 DUP4 PUSH1 0x40 MLOAD PUSH2 0x402 SWAP2 SWAP1 PUSH2 0x1208 JUMP JUMPDEST SWAP1 DUP2 MSTORE PUSH1 0x20 ADD PUSH1 0x40 MLOAD DUP1 SWAP2 SUB SWAP1 KECCAK256 SLOAD SUB PUSH2 0x451 JUMPI PUSH1 0x40 MLOAD PUSH32 0x8C379A000000000000000000000000000000000000000000000000000000000 DUP2 MSTORE PUSH1 0x4 ADD PUSH2 0x448 SWAP1 PUSH2 0x1268 JUMP JUMPDEST PUSH1 0x40 MLOAD DUP1 SWAP2 SUB SWAP1 REVERT JUMPDEST PUSH0 PUSH1 0x1 PUSH1 0x2 DUP5 PUSH1 0x40 MLOAD PUSH2 0x464 SWAP2 SWAP1 PUSH2 0x1208 JUMP JUMPDEST SWAP1 DUP2 MSTORE PUSH1 0x20 ADD PUSH1 0x40 MLOAD DUP1 SWAP2 SUB SWAP1 KECCAK256 SLOAD PUSH2 0x47D SWAP2 SWAP1 PUSH2 0xEA5 JUMP JUMPDEST SWAP1 POP PUSH0 DUP1 DUP3 DUP2 SLOAD DUP2 LT PUSH2 0x493 JUMPI PUSH2 0x492 PUSH2 0xED8 JUMP JUMPDEST JUMPDEST SWAP1 PUSH0 MSTORE PUSH1 0x20 PUSH0 KECCAK256 SWAP1 PUSH1 0x7 MUL ADD SWAP1 POP DUP1 PUSH1 0x5 ADD PUSH1 0x14 SWAP1 SLOAD SWAP1 PUSH2 0x100 EXP SWAP1 DIV PUSH1 0xFF AND ISZERO PUSH2 0x4F3 JUMPI PUSH1 0x40 MLOAD PUSH32 0x8C379A000000000000000000000000000000000000000000000000000000000 DUP2 MSTORE PUSH1 0x4 ADD PUSH2 0x4EA SWAP1 PUSH2 0x12D0 JUMP JUMPDEST PUSH1 0x40 MLOAD DUP1 SWAP2 SUB SWAP1 REVERT JUMPDEST PUSH1 0x1 DUP1 DUP2 PUSH1 0x1 DUP2 SLOAD ADD DUP1 DUP3 SSTORE DUP1 SWAP2 POP POP SUB SWAP1 PUSH0 MSTORE PUSH1 0x20 PUSH0 KECCAK256 SWAP1 POP POP PUSH0 PUSH1 0x1 DUP1 DUP1 DUP1 SLOAD SWAP1 POP PUSH2 0x521 SWAP2 SWAP1 PUSH2 0xEA5 JUMP JUMPDEST DUP2 SLOAD DUP2 LT PUSH2 0x532 JUMPI PUSH2 0x531 PUSH2 0xED8 JUMP JUMPDEST JUMPDEST SWAP1 PUSH0 MSTORE PUSH1 0x20 PUSH0 KECCAK256 SWAP1 PUSH1 0x3 MUL ADD SWAP1 POP CALLER DUP2 PUSH0 ADD PUSH0 PUSH2 0x100 EXP DUP2 SLOAD DUP2 PUSH20 0xFFFFFFFFFFFFFFFFFFFFFFFFFFFFFFFFFFFFFFFF MUL NOT AND SWAP1 DUP4 PUSH20 0xFFFFFFFFFFFFFFFFFFFFFFFFFFFFFFFFFFFFFFFF AND MUL OR SWAP1 SSTORE POP PUSH0 JUMPDEST DUP5 MLOAD DUP2 LT ISZERO PUSH2 0x5E7 JUMPI DUP2 PUSH1 0x2 ADD DUP6 DUP3 DUP2 MLOAD DUP2 LT PUSH2 0x5A3 JUMPI PUSH2 0x5A2 PUSH2 0xED8 JUMP JUMPDEST JUMPDEST PUSH1 0x20 MUL PUSH1 0x20 ADD ADD MLOAD SWAP1 DUP1 PUSH1 0x1 DUP2 SLOAD ADD DUP1 DUP3 SSTORE DUP1 SWAP2 POP POP PUSH1 0x1 SWAP1 SUB SWAP1 PUSH0 MSTORE PUSH1 0x20 PUSH0 KECCAK256 ADD PUSH0 SWAP1 SWAP2 SWAP1 SWAP2 SWAP1 SWAP2 POP SWAP1 DUP2 PUSH2 0x5D9 SWAP2 SWAP1 PUSH2 0x10FF JUMP JUMPDEST POP DUP1 DUP1 PUSH1 0x1 ADD SWAP2 POP POP PUSH2 0x583 JUMP JUMPDEST POP PUSH1 0x1 DUP3 PUSH1 0x5 ADD PUSH1 0x14 PUSH2 0x100 EXP DUP2 SLOAD DUP2 PUSH1 0xFF MUL NOT AND SWAP1 DUP4 ISZERO ISZERO MUL OR SWAP1 SSTORE POP CALLER DUP3 PUSH1 0x6 ADD PUSH0 PUSH2 0x100 EXP DUP2 SLOAD DUP2 PUSH20 0xFFFFFFFFFFFFFFFFFFFFFFFFFFFFFFFFFFFFFFFF MUL NOT AND SWAP1 DUP4 PUSH20 0xFFFFFFFFFFFFFFFFFFFFFFFFFFFFFFFFFFFFFFFF AND MUL OR SWAP1 SSTORE POP PUSH1 0x1 DUP1 SLOAD SWAP1 POP PUSH1 0x3 DUP7 PUSH1 0x40 MLOAD PUSH2 0x65D SWAP2 SWAP1 PUSH2 0x1208 JUMP JUMPDEST SWAP1 DUP2 MSTORE PUSH1 0x20 ADD PUSH1 0x40 MLOAD DUP1 SWAP2 SUB SWAP1 KECCAK256 DUP2 SWAP1 SSTORE POP PUSH32 0x1C3E67C4EC352916DAAB0EDFAB1F8F78F6E600CB5833B3DF9F929B0DF4DAAFC6 PUSH1 0x40 MLOAD PUSH1 0x40 MLOAD DUP1 SWAP2 SUB SWAP1 LOG1 POP POP POP POP POP JUMP JUMPDEST PUSH0 DUP2 DUP2 SLOAD DUP2 LT PUSH2 0x6B0 JUMPI PUSH0 DUP1 REVERT JUMPDEST SWAP1 PUSH0 MSTORE PUSH1 0x20 PUSH0 KECCAK256 SWAP1 PUSH1 0x7 MUL ADD PUSH0 SWAP2 POP SWAP1 POP DUP1 PUSH0 ADD DUP1 SLOAD PUSH2 0x6CF SWAP1 PUSH2 0xF32 JUMP JUMPDEST DUP1 PUSH1 0x1F ADD PUSH1 0x20 DUP1 SWAP2 DIV MUL PUSH1 0x20 ADD PUSH1 0x40 MLOAD SWAP1 DUP2 ADD PUSH1 0x40 MSTORE DUP1 SWAP3 SWAP2 SWAP1 DUP2 DUP2 MSTORE PUSH1 0x20 ADD DUP3 DUP1 SLOAD PUSH2 0x6FB SWAP1 PUSH2 0xF32 JUMP JUMPDEST DUP1 ISZERO PUSH2 0x746 JUMPI DUP1 PUSH1 0x1F LT PUSH2 0x71D JUMPI PUSH2 0x100 DUP1 DUP4 SLOAD DIV MUL DUP4 MSTORE SWAP2 PUSH1 0x20 ADD SWAP2 PUSH2 0x746 JUMP JUMPDEST DUP3 ADD SWAP2 SWAP1 PUSH0 MSTORE PUSH1 0x20 PUSH0 KECCAK256 SWAP1 JUMPDEST DUP2 SLOAD DUP2 MSTORE SWAP1 PUSH1 0x1 ADD SWAP1 PUSH1 0x20 ADD DUP1 DUP4 GT PUSH2 0x729 JUMPI DUP3 SWAP1 SUB PUSH1 0x1F AND DUP3 ADD SWAP2 JUMPDEST POP POP POP POP POP SWAP1 DUP1 PUSH1 0x1 ADD DUP1 SLOAD PUSH2 0x75B SWAP1 PUSH2 0xF32 JUMP JUMPDEST DUP1 PUSH1 0x1F ADD PUSH1 0x20 DUP1 SWAP2 DIV MUL PUSH1 0x20 ADD PUSH1 0x40 MLOAD SWAP1 DUP2 ADD PUSH1 0x40 MSTORE DUP1 SWAP3 SWAP2 SWAP1 DUP2 DUP2 MSTORE PUSH1 0x20 ADD DUP3 DUP1 SLOAD PUSH2 0x787 SWAP1 PUSH2 0xF32 JUMP JUMPDEST DUP1 ISZERO PUSH2 0x7D2 JUMPI DUP1 PUSH1 0x1F LT PUSH2 0x7A9 JUMPI PUSH2 0x100 DUP1 DUP4 SLOAD DIV MUL DUP4 MSTORE SWAP2 PUSH1 0x20 ADD SWAP2 PUSH2 0x7D2 JUMP JUMPDEST DUP3 ADD SWAP2 SWAP1 PUSH0 MSTORE PUSH1 0x20 PUSH0 KECCAK256 SWAP1 JUMPDEST DUP2 SLOAD DUP2 MSTORE SWAP1 PUSH1 0x1 ADD SWAP1 PUSH1 0x20 ADD DUP1 DUP4 GT PUSH2 0x7B5 JUMPI DUP3 SWAP1 SUB PUSH1 0x1F AND DUP3 ADD SWAP2 JUMPDEST POP POP POP POP POP SWAP1 DUP1 PUSH1 0x2 ADD DUP1 SLOAD PUSH2 0x7E7 SWAP1 PUSH2 0xF32 JUMP JUMPDEST DUP1 PUSH1 0x1F ADD PUSH1 0x20 DUP1 SWAP2 DIV MUL PUSH1 0x20 ADD PUSH1 0x40 MLOAD SWAP1 DUP2 ADD PUSH1 0x40 MSTORE DUP1 SWAP3 SWAP2 SWAP1 DUP2 DUP2 MSTORE PUSH1 0x20 ADD DUP3 DUP1 SLOAD PUSH2 0x813 SWAP1 PUSH2 0xF32 JUMP JUMPDEST DUP1 ISZERO PUSH2 0x85E JUMPI DUP1 PUSH1 0x1F LT PUSH2 0x835 JUMPI PUSH2 0x100 DUP1 DUP4 SLOAD DIV MUL DUP4 MSTORE SWAP2 PUSH1 0x20 ADD SWAP2 PUSH2 0x85E JUMP JUMPDEST DUP3 ADD SWAP2 SWAP1 PUSH0 MSTORE PUSH1 0x20 PUSH0 KECCAK256 SWAP1 JUMPDEST DUP2 SLOAD DUP2 MSTORE SWAP1 PUSH1 0x1 ADD SWAP1 PUSH1 0x20 ADD DUP1 DUP4 GT PUSH2 0x841 JUMPI DUP3 SWAP1 SUB PUSH1 0x1F AND DUP3 ADD SWAP2 JUMPDEST POP POP POP POP POP SWAP1 DUP1 PUSH1 0x4 ADD SLOAD SWAP1 DUP1 PUSH1 0x5 ADD PUSH0 SWAP1 SLOAD SWAP1 PUSH2 0x100 EXP SWAP1 DIV PUSH20 0xFFFFFFFFFFFFFFFFFFFFFFFFFFFFFFFFFFFFFFFF AND SWAP1 DUP1 PUSH1 0x5 ADD PUSH1 0x14 SWAP1 SLOAD SWAP1 PUSH2 0x100 EXP SWAP1 DIV PUSH1 0xFF AND SWAP1 DUP1 PUSH1 0x6 ADD PUSH0 SWAP1 SLOAD SWAP1 PUSH2 0x100 EXP SWAP1 DIV PUSH20 0xFFFFFFFFFFFFFFFFFFFFFFFFFFFFFFFFFFFFFFFF AND SWAP1 POP DUP8 JUMP JUMPDEST PUSH0 PUSH1 0x40 MLOAD SWAP1 POP SWAP1 JUMP JUMPDEST PUSH0 DUP1 REVERT JUMPDEST PUSH0 DUP1 REVERT JUMPDEST PUSH0 DUP1 REVERT JUMPDEST PUSH0 DUP1 REVERT JUMPDEST PUSH0 PUSH1 0x1F NOT PUSH1 0x1F DUP4 ADD AND SWAP1 POP SWAP2 SWAP1 POP JUMP JUMPDEST PUSH32 0x4E487B7100000000000000000000000000000000000000000000000000000000 PUSH0 MSTORE PUSH1 0x41 PUSH1 0x4 MSTORE PUSH1 0x24 PUSH0 REVERT JUMPDEST PUSH2 0x92A DUP3 PUSH2 0x8E4 JUMP JUMPDEST DUP2 ADD DUP2 DUP2 LT PUSH8 0xFFFFFFFFFFFFFFFF DUP3 GT OR ISZERO PUSH2 0x949 JUMPI PUSH2 0x948 PUSH2 0x8F4 JUMP JUMPDEST JUMPDEST DUP1 PUSH1 0x40 MSTORE POP POP POP JUMP JUMPDEST PUSH0 PUSH2 0x95B PUSH2 0x8CB JUMP JUMPDEST SWAP1 POP PUSH2 0x967 DUP3 DUP3 PUSH2 0x921 JUMP JUMPDEST SWAP2 SWAP1 POP JUMP JUMPDEST PUSH0 PUSH8 0xFFFFFFFFFFFFFFFF DUP3 GT ISZERO PUSH2 0x986 JUMPI PUSH2 0x985 PUSH2 0x8F4 JUMP JUMPDEST JUMPDEST PUSH2 0x98F DUP3 PUSH2 0x8E4 JUMP JUMPDEST SWAP1 POP PUSH1 0x20 DUP2 ADD SWAP1 POP SWAP2 SWAP1 POP JUMP JUMPDEST DUP3 DUP2 DUP4 CALLDATACOPY PUSH0 DUP4 DUP4 ADD MSTORE POP POP POP JUMP JUMPDEST PUSH0 PUSH2 0x9BC PUSH2 0x9B7 DUP5 PUSH2 0x96C JUMP JUMPDEST PUSH2 0x952 JUMP JUMPDEST SWAP1 POP DUP3 DUP2 MSTORE PUSH1 0x20 DUP2 ADD DUP5 DUP5 DUP5 ADD GT ISZERO PUSH2 0x9D8 JUMPI PUSH2 0x9D7 PUSH2 0x8E0 JUMP JUMPDEST JUMPDEST PUSH2 0x9E3 DUP5 DUP3 DUP6 PUSH2 0x99C JUMP JUMPDEST POP SWAP4 SWAP3 POP POP POP JUMP JUMPDEST PUSH0 DUP3 PUSH1 0x1F DUP4 ADD SLT PUSH2 0x9FF JUMPI PUSH2 0x9FE PUSH2 0x8DC JUMP JUMPDEST JUMPDEST DUP2 CALLDATALOAD PUSH2 0xA0F DUP5 DUP3 PUSH1 0x20 DUP7 ADD PUSH2 0x9AA JUMP JUMPDEST SWAP2 POP POP SWAP3 SWAP2 POP POP JUMP JUMPDEST PUSH0 PUSH1 0x20 DUP3 DUP5 SUB SLT ISZERO PUSH2 0xA2D JUMPI PUSH2 0xA2C PUSH2 0x8D4 JUMP JUMPDEST JUMPDEST PUSH0 DUP3 ADD CALLDATALOAD PUSH8 0xFFFFFFFFFFFFFFFF DUP2 GT ISZERO PUSH2 0xA4A JUMPI PUSH2 0xA49 PUSH2 0x8D8 JUMP JUMPDEST JUMPDEST PUSH2 0xA56 DUP5 DUP3 DUP6 ADD PUSH2 0x9EB JUMP JUMPDEST SWAP2 POP POP SWAP3 SWAP2 POP POP JUMP JUMPDEST PUSH0 DUP2 SWAP1 POP SWAP2 SWAP1 POP JUMP JUMPDEST PUSH2 0xA71 DUP2 PUSH2 0xA5F JUMP JUMPDEST DUP3 MSTORE POP POP JUMP JUMPDEST PUSH0 PUSH1 0x20 DUP3 ADD SWAP1 POP PUSH2 0xA8A PUSH0 DUP4 ADD DUP5 PUSH2 0xA68 JUMP JUMPDEST SWAP3 SWAP2 POP POP JUMP JUMPDEST PUSH0 PUSH8 0xFFFFFFFFFFFFFFFF DUP3 GT ISZERO PUSH2 0xAAA JUMPI PUSH2 0xAA9 PUSH2 0x8F4 JUMP JUMPDEST JUMPDEST PUSH1 0x20 DUP3 MUL SWAP1 POP PUSH1 0x20 DUP2 ADD SWAP1 POP SWAP2 SWAP1 POP JUMP JUMPDEST PUSH0 DUP1 REVERT JUMPDEST PUSH0 PUSH2 0xAD1 PUSH2 0xACC DUP5 PUSH2 0xA90 JUMP JUMPDEST PUSH2 0x952 JUMP JUMPDEST SWAP1 POP DUP1 DUP4 DUP3 MSTORE PUSH1 0x20 DUP3 ADD SWAP1 POP PUSH1 0x20 DUP5 MUL DUP4 ADD DUP6 DUP2 GT ISZERO PUSH2 0xAF4 JUMPI PUSH2 0xAF3 PUSH2 0xABB JUMP JUMPDEST JUMPDEST DUP4 JUMPDEST DUP2 DUP2 LT ISZERO PUSH2 0xB3B JUMPI DUP1 CALLDATALOAD PUSH8 0xFFFFFFFFFFFFFFFF DUP2 GT ISZERO PUSH2 0xB19 JUMPI PUSH2 0xB18 PUSH2 0x8DC JUMP JUMPDEST JUMPDEST DUP1 DUP7 ADD PUSH2 0xB26 DUP10 DUP3 PUSH2 0x9EB JUMP JUMPDEST DUP6 MSTORE PUSH1 0x20 DUP6 ADD SWAP5 POP POP POP PUSH1 0x20 DUP2 ADD SWAP1 POP PUSH2 0xAF6 JUMP JUMPDEST POP POP POP SWAP4 SWAP3 POP POP POP JUMP JUMPDEST PUSH0 DUP3 PUSH1 0x1F DUP4 ADD SLT PUSH2 0xB59 JUMPI PUSH2 0xB58 PUSH2 0x8DC JUMP JUMPDEST JUMPDEST DUP2 CALLDATALOAD PUSH2 0xB69 DUP5 DUP3 PUSH1 0x20 DUP7 ADD PUSH2 0xABF JUMP JUMPDEST SWAP2 POP POP SWAP3 SWAP2 POP POP JUMP JUMPDEST PUSH2 0xB7B DUP2 PUSH2 0xA5F JUMP JUMPDEST DUP2 EQ PUSH2 0xB85 JUMPI PUSH0 DUP1 REVERT JUMPDEST POP JUMP JUMPDEST PUSH0 DUP2 CALLDATALOAD SWAP1 POP PUSH2 0xB96 DUP2 PUSH2 0xB72 JUMP JUMPDEST SWAP3 SWAP2 POP POP JUMP JUMPDEST PUSH0 DUP1 PUSH0 DUP1 PUSH0 PUSH1 0xA0 DUP7 DUP9 SUB SLT ISZERO PUSH2 0xBB5 JUMPI PUSH2 0xBB4 PUSH2 0x8D4 JUMP JUMPDEST JUMPDEST PUSH0 DUP7 ADD CALLDATALOAD PUSH8 0xFFFFFFFFFFFFFFFF DUP2 GT ISZERO PUSH2 0xBD2 JUMPI PUSH2 0xBD1 PUSH2 0x8D8 JUMP JUMPDEST JUMPDEST PUSH2 0xBDE DUP9 DUP3 DUP10 ADD PUSH2 0x9EB JUMP JUMPDEST SWAP6 POP POP PUSH1 0x20 DUP7 ADD CALLDATALOAD PUSH8 0xFFFFFFFFFFFFFFFF DUP2 GT ISZERO PUSH2 0xBFF JUMPI PUSH2 0xBFE PUSH2 0x8D8 JUMP JUMPDEST JUMPDEST PUSH2 0xC0B DUP9 DUP3 DUP10 ADD PUSH2 0x9EB JUMP JUMPDEST SWAP5 POP POP PUSH1 0x40 DUP7 ADD CALLDATALOAD PUSH8 0xFFFFFFFFFFFFFFFF DUP2 GT ISZERO PUSH2 0xC2C JUMPI PUSH2 0xC2B PUSH2 0x8D8 JUMP JUMPDEST JUMPDEST PUSH2 0xC38 DUP9 DUP3 DUP10 ADD PUSH2 0x9EB JUMP JUMPDEST SWAP4 POP POP PUSH1 0x60 DUP7 ADD CALLDATALOAD PUSH8 0xFFFFFFFFFFFFFFFF DUP2 GT ISZERO PUSH2 0xC59 JUMPI PUSH2 0xC58 PUSH2 0x8D8 JUMP JUMPDEST JUMPDEST PUSH2 0xC65 DUP9 DUP3 DUP10 ADD PUSH2 0xB45 JUMP JUMPDEST SWAP3 POP POP PUSH1 0x80 PUSH2 0xC76 DUP9 DUP3 DUP10 ADD PUSH2 0xB88 JUMP JUMPDEST SWAP2 POP POP SWAP3 SWAP6 POP SWAP3 SWAP6 SWAP1 SWAP4 POP JUMP JUMPDEST PUSH0 PUSH1 0x20 DUP3 DUP5 SUB SLT ISZERO PUSH2 0xC98 JUMPI PUSH2 0xC97 PUSH2 0x8D4 JUMP JUMPDEST JUMPDEST PUSH0 PUSH2 0xCA5 DUP5 DUP3 DUP6 ADD PUSH2 0xB88 JUMP JUMPDEST SWAP2 POP POP SWAP3 SWAP2 POP POP JUMP JUMPDEST PUSH0 PUSH20 0xFFFFFFFFFFFFFFFFFFFFFFFFFFFFFFFFFFFFFFFF DUP3 AND SWAP1 POP SWAP2 SWAP1 POP JUMP JUMPDEST PUSH0 PUSH2 0xCD7 DUP3 PUSH2 0xCAE JUMP JUMPDEST SWAP1 POP SWAP2 SWAP1 POP JUMP JUMPDEST PUSH2 0xCE7 DUP2 PUSH2 0xCCD JUMP JUMPDEST DUP3 MSTORE POP POP JUMP JUMPDEST PUSH0 PUSH1 0x20 DUP3 ADD SWAP1 POP PUSH2 0xD00 PUSH0 DUP4 ADD DUP5 PUSH2 0xCDE JUMP JUMPDEST SWAP3 SWAP2 POP POP JUMP JUMPDEST PUSH0 DUP1 PUSH1 0x40 DUP4 DUP6 SUB SLT ISZERO PUSH2 0xD1C JUMPI PUSH2 0xD1B PUSH2 0x8D4 JUMP JUMPDEST JUMPDEST PUSH0 DUP4 ADD CALLDATALOAD PUSH8 0xFFFFFFFFFFFFFFFF DUP2 GT ISZERO PUSH2 0xD39 JUMPI PUSH2 0xD38 PUSH2 0x8D8 JUMP JUMPDEST JUMPDEST PUSH2 0xD45 DUP6 DUP3 DUP7 ADD PUSH2 0x9EB JUMP JUMPDEST SWAP3 POP POP PUSH1 0x20 DUP4 ADD CALLDATALOAD PUSH8 0xFFFFFFFFFFFFFFFF DUP2 GT ISZERO PUSH2 0xD66 JUMPI PUSH2 0xD65 PUSH2 0x8D8 JUMP JUMPDEST JUMPDEST PUSH2 0xD72 DUP6 DUP3 DUP7 ADD PUSH2 0xB45 JUMP JUMPDEST SWAP2 POP POP SWAP3 POP SWAP3 SWAP1 POP JUMP JUMPDEST PUSH0 DUP2 MLOAD SWAP1 POP SWAP2 SWAP1 POP JUMP JUMPDEST PUSH0 DUP3 DUP3 MSTORE PUSH1 0x20 DUP3 ADD SWAP1 POP SWAP3 SWAP2 POP POP JUMP JUMPDEST DUP3 DUP2 DUP4 MCOPY PUSH0 DUP4 DUP4 ADD MSTORE POP POP POP JUMP JUMPDEST PUSH0 PUSH2 0xDAE DUP3 PUSH2 0xD7C JUMP JUMPDEST PUSH2 0xDB8 DUP2 DUP6 PUSH2 0xD86 JUMP JUMPDEST SWAP4 POP PUSH2 0xDC8 DUP2 DUP6 PUSH1 0x20 DUP7 ADD PUSH2 0xD96 JUMP JUMPDEST PUSH2 0xDD1 DUP2 PUSH2 0x8E4 JUMP JUMPDEST DUP5 ADD SWAP2 POP POP SWAP3 SWAP2 POP POP JUMP JUMPDEST PUSH0 DUP2 ISZERO ISZERO SWAP1 POP SWAP2 SWAP1 POP JUMP JUMPDEST PUSH2 0xDF0 DUP2 PUSH2 0xDDC JUMP JUMPDEST DUP3 MSTORE POP POP JUMP JUMPDEST PUSH0 PUSH1 0xE0 DUP3 ADD SWAP1 POP DUP2 DUP2 SUB PUSH0 DUP4 ADD MSTORE PUSH2 0xE0E DUP2 DUP11 PUSH2 0xDA4 JUMP JUMPDEST SWAP1 POP DUP2 DUP2 SUB PUSH1 0x20 DUP4 ADD MSTORE PUSH2 0xE22 DUP2 DUP10 PUSH2 0xDA4 JUMP JUMPDEST SWAP1 POP DUP2 DUP2 SUB PUSH1 0x40 DUP4 ADD MSTORE PUSH2 0xE36 DUP2 DUP9 PUSH2 0xDA4 JUMP JUMPDEST SWAP1 POP PUSH2 0xE45 PUSH1 0x60 DUP4 ADD DUP8 PUSH2 0xA68 JUMP JUMPDEST PUSH2 0xE52 PUSH1 0x80 DUP4 ADD DUP7 PUSH2 0xCDE JUMP JUMPDEST PUSH2 0xE5F PUSH1 0xA0 DUP4 ADD DUP6 PUSH2 0xDE7 JUMP JUMPDEST PUSH2 0xE6C PUSH1 0xC0 DUP4 ADD DUP5 PUSH2 0xCDE JUMP JUMPDEST SWAP9 SWAP8 POP POP POP POP POP POP POP POP JUMP JUMPDEST PUSH32 0x4E487B7100000000000000000000000000000000000000000000000000000000 PUSH0 MSTORE PUSH1 0x11 PUSH1 0x4 MSTORE PUSH1 0x24 PUSH0 REVERT JUMPDEST PUSH0 PUSH2 0xEAF DUP3 PUSH2 0xA5F JUMP JUMPDEST SWAP2 POP PUSH2 0xEBA DUP4 PUSH2 0xA5F JUMP JUMPDEST SWAP3 POP DUP3 DUP3 SUB SWAP1 POP DUP2 DUP2 GT ISZERO PUSH2 0xED2 JUMPI PUSH2 0xED1 PUSH2 0xE78 JUMP JUMPDEST JUMPDEST SWAP3 SWAP2 POP POP JUMP JUMPDEST PUSH32 0x4E487B7100000000000000000000000000000000000000000000000000000000 PUSH0 MSTORE PUSH1 0x32 PUSH1 0x4 MSTORE PUSH1 0x24 PUSH0 REVERT JUMPDEST PUSH32 0x4E487B7100000000000000000000000000000000000000000000000000000000 PUSH0 MSTORE PUSH1 0x22 PUSH1 0x4 MSTORE PUSH1 0x24 PUSH0 REVERT JUMPDEST PUSH0 PUSH1 0x2 DUP3 DIV SWAP1 POP PUSH1 0x1 DUP3 AND DUP1 PUSH2 0xF49 JUMPI PUSH1 0x7F DUP3 AND SWAP2 POP JUMPDEST PUSH1 0x20 DUP3 LT DUP2 SUB PUSH2 0xF5C JUMPI PUSH2 0xF5B PUSH2 0xF05 JUMP JUMPDEST JUMPDEST POP SWAP2 SWAP1 POP JUMP JUMPDEST PUSH0 DUP2 SWAP1 POP DUP2 PUSH0 MSTORE PUSH1 0x20 PUSH0 KECCAK256 SWAP1 POP SWAP2 SWAP1 POP JUMP JUMPDEST PUSH0 PUSH1 0x20 PUSH1 0x1F DUP4 ADD DIV SWAP1 POP SWAP2 SWAP1 POP JUMP JUMPDEST PUSH0 DUP3 DUP3 SHL SWAP1 POP SWAP3 SWAP2 POP POP JUMP JUMPDEST PUSH0 PUSH1 0x8 DUP4 MUL PUSH2 0xFBE PUSH32 0xFFFFFFFFFFFFFFFFFFFFFFFFFFFFFFFFFFFFFFFFFFFFFFFFFFFFFFFFFFFFFFFF DUP3 PUSH2 0xF83 JUMP JUMPDEST PUSH2 0xFC8 DUP7 DUP4 PUSH2 0xF83 JUMP JUMPDEST SWAP6 POP DUP1 NOT DUP5 AND SWAP4 POP DUP1 DUP7 AND DUP5 OR SWAP3 POP POP POP SWAP4 SWAP3 POP POP POP JUMP JUMPDEST PUSH0 DUP2 SWAP1 POP SWAP2 SWAP1 POP JUMP JUMPDEST PUSH0 PUSH2 0x1003 PUSH2 0xFFE PUSH2 0xFF9 DUP5 PUSH2 0xA5F JUMP JUMPDEST PUSH2 0xFE0 JUMP JUMPDEST PUSH2 0xA5F JUMP JUMPDEST SWAP1 POP SWAP2 SWAP1 POP JUMP JUMPDEST PUSH0 DUP2 SWAP1 POP SWAP2 SWAP1 POP JUMP JUMPDEST PUSH2 0x101C DUP4 PUSH2 0xFE9 JUMP JUMPDEST PUSH2 0x1030 PUSH2 0x1028 DUP3 PUSH2 0x100A JUMP JUMPDEST DUP5 DUP5 SLOAD PUSH2 0xF8F JUMP JUMPDEST DUP3 SSTORE POP POP POP POP JUMP JUMPDEST PUSH0 SWAP1 JUMP JUMPDEST PUSH2 0x1044 PUSH2 0x1038 JUMP JUMPDEST PUSH2 0x104F DUP2 DUP5 DUP5 PUSH2 0x1013 JUMP JUMPDEST POP POP POP JUMP JUMPDEST JUMPDEST DUP2 DUP2 LT ISZERO PUSH2 0x1072 JUMPI PUSH2 0x1067 PUSH0 DUP3 PUSH2 0x103C JUMP JUMPDEST PUSH1 0x1 DUP2 ADD SWAP1 POP PUSH2 0x1055 JUMP JUMPDEST POP POP JUMP JUMPDEST PUSH1 0x1F DUP3 GT ISZERO PUSH2 0x10B7 JUMPI PUSH2 0x1088 DUP2 PUSH2 0xF62 JUMP JUMPDEST PUSH2 0x1091 DUP5 PUSH2 0xF74 JUMP JUMPDEST DUP2 ADD PUSH1 0x20 DUP6 LT ISZERO PUSH2 0x10A0 JUMPI DUP2 SWAP1 POP JUMPDEST PUSH2 0x10B4 PUSH2 0x10AC DUP6 PUSH2 0xF74 JUMP JUMPDEST DUP4 ADD DUP3 PUSH2 0x1054 JUMP JUMPDEST POP POP JUMPDEST POP POP POP JUMP JUMPDEST PUSH0 DUP3 DUP3 SHR SWAP1 POP SWAP3 SWAP2 POP POP JUMP JUMPDEST PUSH0 PUSH2 0x10D7 PUSH0 NOT DUP5 PUSH1 0x8 MUL PUSH2 0x10BC JUMP JUMPDEST NOT DUP1 DUP4 AND SWAP2 POP POP SWAP3 SWAP2 POP POP JUMP JUMPDEST PUSH0 PUSH2 0x10EF DUP4 DUP4 PUSH2 0x10C8 JUMP JUMPDEST SWAP2 POP DUP3 PUSH1 0x2 MUL DUP3 OR SWAP1 POP SWAP3 SWAP2 POP POP JUMP JUMPDEST PUSH2 0x1108 DUP3 PUSH2 0xD7C JUMP JUMPDEST PUSH8 0xFFFFFFFFFFFFFFFF DUP2 GT ISZERO PUSH2 0x1121 JUMPI PUSH2 0x1120 PUSH2 0x8F4 JUMP JUMPDEST JUMPDEST PUSH2 0x112B DUP3 SLOAD PUSH2 0xF32 JUMP JUMPDEST PUSH2 0x1136 DUP3 DUP3 DUP6 PUSH2 0x1076 JUMP JUMPDEST PUSH0 PUSH1 0x20 SWAP1 POP PUSH1 0x1F DUP4 GT PUSH1 0x1 DUP2 EQ PUSH2 0x1167 JUMPI PUSH0 DUP5 ISZERO PUSH2 0x1155 JUMPI DUP3 DUP8 ADD MLOAD SWAP1 POP JUMPDEST PUSH2 0x115F DUP6 DUP3 PUSH2 0x10E4 JUMP JUMPDEST DUP7 SSTORE POP PUSH2 0x11C6 JUMP JUMPDEST PUSH1 0x1F NOT DUP5 AND PUSH2 0x1175 DUP7 PUSH2 0xF62 JUMP JUMPDEST PUSH0 JUMPDEST DUP3 DUP2 LT ISZERO PUSH2 0x119C JUMPI DUP5 DUP10 ADD MLOAD DUP3 SSTORE PUSH1 0x1 DUP3 ADD SWAP2 POP PUSH1 0x20 DUP6 ADD SWAP5 POP PUSH1 0x20 DUP2 ADD SWAP1 POP PUSH2 0x1177 JUMP JUMPDEST DUP7 DUP4 LT ISZERO PUSH2 0x11B9 JUMPI DUP5 DUP10 ADD MLOAD PUSH2 0x11B5 PUSH1 0x1F DUP10 AND DUP3 PUSH2 0x10C8 JUMP JUMPDEST DUP4 SSTORE POP JUMPDEST PUSH1 0x1 PUSH1 0x2 DUP9 MUL ADD DUP9 SSTORE POP POP POP JUMPDEST POP POP POP POP POP POP JUMP JUMPDEST PUSH0 DUP2 SWAP1 POP SWAP3 SWAP2 POP POP JUMP JUMPDEST PUSH0 PUSH2 0x11E2 DUP3 PUSH2 0xD7C JUMP JUMPDEST PUSH2 0x11EC DUP2 DUP6 PUSH2 0x11CE JUMP JUMPDEST SWAP4 POP PUSH2 0x11FC DUP2 DUP6 PUSH1 0x20 DUP7 ADD PUSH2 0xD96 JUMP JUMPDEST DUP1 DUP5 ADD SWAP2 POP POP SWAP3 SWAP2 POP POP JUMP JUMPDEST PUSH0 PUSH2 0x1213 DUP3 DUP5 PUSH2 0x11D8 JUMP JUMPDEST SWAP2 POP DUP2 SWAP1 POP SWAP3 SWAP2 POP POP JUMP JUMPDEST PUSH32 0x426F756E747920646F6573206E6F742065786973740000000000000000000000 PUSH0 DUP3 ADD MSTORE POP JUMP JUMPDEST PUSH0 PUSH2 0x1252 PUSH1 0x15 DUP4 PUSH2 0xD86 JUMP JUMPDEST SWAP2 POP PUSH2 0x125D DUP3 PUSH2 0x121E JUMP JUMPDEST PUSH1 0x20 DUP3 ADD SWAP1 POP SWAP2 SWAP1 POP JUMP JUMPDEST PUSH0 PUSH1 0x20 DUP3 ADD SWAP1 POP DUP2 DUP2 SUB PUSH0 DUP4 ADD MSTORE PUSH2 0x127F DUP2 PUSH2 0x1246 JUMP JUMPDEST SWAP1 POP SWAP2 SWAP1 POP JUMP JUMPDEST PUSH32 0x426F756E747920697320616C726561647920617661696C656400000000000000 PUSH0 DUP3 ADD MSTORE POP JUMP JUMPDEST PUSH0 PUSH2 0x12BA PUSH1 0x19 DUP4 PUSH2 0xD86 JUMP JUMPDEST SWAP2 POP PUSH2 0x12C5 DUP3 PUSH2 0x1286 JUMP JUMPDEST PUSH1 0x20 DUP3 ADD SWAP1 POP SWAP2 SWAP1 POP JUMP JUMPDEST PUSH0 PUSH1 0x20 DUP3 ADD SWAP1 POP DUP2 DUP2 SUB PUSH0 DUP4 ADD MSTORE PUSH2 0x12E7 DUP2 PUSH2 0x12AE JUMP JUMPDEST SWAP1 POP SWAP2 SWAP1 POP JUMP INVALID LOG2 PUSH5 0x6970667358 0x22 SLT KECCAK256 ORIGIN 0xE3 0x23 BLOBHASH 0x4D 0xE0 LOG3 PUSH32 0xF8E77118850F10BACB53BA027E33A2667B71C89110E5724164736F6C63430008 BYTE STOP CALLER "
		},
		"gasEstimates": {
			"creation": {
				"codeDepositCost": "980000",
				"executionCost": "1019",
				"totalCost": "981019"
			},
			"external": {
				"BountyIdToAvailer(string)": "infinite",
				"BountyIdToIndex(string)": "infinite",
				"avail(string,string[])": "infinite",
				"availers(uint256)": "5022",
				"bounties(uint256)": "infinite",
				"create(string,string,string,string[],uint256)": "infinite"
			}
		},
		"methodIdentifiers": {
			"BountyIdToAvailer(string)": "18da9b12",
			"BountyIdToIndex(string)": "3edb9e02",
			"avail(string,string[])": "99c92ef7",
			"availers(uint256)": "6ec6884f",
			"bounties(uint256)": "dc2f8744",
			"create(string,string,string,string[],uint256)": "52d2618f"
		}
	},
	"abi": [
		{
			"anonymous": false,
			"inputs": [],
			"name": "BountyAvailed",
			"type": "event"
		},
		{
			"anonymous": false,
			"inputs": [],
			"name": "BountyCreated",
			"type": "event"
		},
		{
			"inputs": [
				{
					"internalType": "string",
					"name": "",
					"type": "string"
				}
			],
			"name": "BountyIdToAvailer",
			"outputs": [
				{
					"internalType": "uint256",
					"name": "",
					"type": "uint256"
				}
			],
			"stateMutability": "view",
			"type": "function"
		},
		{
			"inputs": [
				{
					"internalType": "string",
					"name": "",
					"type": "string"
				}
			],
			"name": "BountyIdToIndex",
			"outputs": [
				{
					"internalType": "uint256",
					"name": "",
					"type": "uint256"
				}
			],
			"stateMutability": "view",
			"type": "function"
		},
		{
			"inputs": [
				{
					"internalType": "string",
					"name": "id",
					"type": "string"
				},
				{
					"internalType": "string[]",
					"name": "links",
					"type": "string[]"
				}
			],
			"name": "avail",
			"outputs": [],
			"stateMutability": "nonpayable",
			"type": "function"
		},
		{
			"inputs": [
				{
					"internalType": "uint256",
					"name": "",
					"type": "uint256"
				}
			],
			"name": "availers",
			"outputs": [
				{
					"internalType": "address",
					"name": "availer",
					"type": "address"
				}
			],
			"stateMutability": "view",
			"type": "function"
		},
		{
			"inputs": [
				{
					"internalType": "uint256",
					"name": "",
					"type": "uint256"
				}
			],
			"name": "bounties",
			"outputs": [
				{
					"internalType": "string",
					"name": "id",
					"type": "string"
				},
				{
					"internalType": "string",
					"name": "title",
					"type": "string"
				},
				{
					"internalType": "string",
					"name": "description",
					"type": "string"
				},
				{
					"internalType": "uint256",
					"name": "amount",
					"type": "uint256"
				},
				{
					"internalType": "address",
					"name": "creator",
					"type": "address"
				},
				{
					"internalType": "bool",
					"name": "isAvailed",
					"type": "bool"
				},
				{
					"internalType": "address",
					"name": "availer",
					"type": "address"
				}
			],
			"stateMutability": "view",
			"type": "function"
		},
		{
			"inputs": [
				{
					"internalType": "string",
					"name": "id",
					"type": "string"
				},
				{
					"internalType": "string",
					"name": "title",
					"type": "string"
				},
				{
					"internalType": "string",
					"name": "description",
					"type": "string"
				},
				{
					"internalType": "string[]",
					"name": "links",
					"type": "string[]"
				},
				{
					"internalType": "uint256",
					"name": "amount",
					"type": "uint256"
				}
			],
			"name": "create",
			"outputs": [],
			"stateMutability": "nonpayable",
			"type": "function"
		}
	]
}